{
	"contracts/DingDong.sol": {
		"DingDong": {
			"abi": [
				{
					"inputs": [
						{
							"internalType": "address",
							"name": "_lzEndpoint",
							"type": "address"
						}
					],
					"stateMutability": "nonpayable",
					"type": "constructor"
				},
				{
					"anonymous": false,
					"inputs": [
						{
							"indexed": false,
							"internalType": "uint16",
							"name": "_srcChainId",
							"type": "uint16"
						},
						{
							"indexed": false,
							"internalType": "bytes",
							"name": "_srcAddress",
							"type": "bytes"
						},
						{
							"indexed": false,
							"internalType": "uint64",
							"name": "_nonce",
							"type": "uint64"
						},
						{
							"indexed": false,
							"internalType": "bytes",
							"name": "_payload",
							"type": "bytes"
						},
						{
							"indexed": false,
							"internalType": "bytes",
							"name": "_reason",
							"type": "bytes"
						}
					],
					"name": "MessageFailed",
					"type": "event"
				},
				{
					"anonymous": false,
					"inputs": [
						{
							"indexed": true,
							"internalType": "address",
							"name": "previousOwner",
							"type": "address"
						},
						{
							"indexed": true,
							"internalType": "address",
							"name": "newOwner",
							"type": "address"
						}
					],
					"name": "OwnershipTransferred",
					"type": "event"
				},
				{
					"anonymous": false,
					"inputs": [
						{
							"indexed": false,
							"internalType": "uint16",
							"name": "_srcChainId",
							"type": "uint16"
						},
						{
							"indexed": false,
							"internalType": "bytes",
							"name": "_srcAddress",
							"type": "bytes"
						},
						{
							"indexed": false,
							"internalType": "uint64",
							"name": "_nonce",
							"type": "uint64"
						},
						{
							"indexed": false,
							"internalType": "bytes32",
							"name": "_payloadHash",
							"type": "bytes32"
						}
					],
					"name": "RetryMessageSuccess",
					"type": "event"
				},
				{
					"anonymous": false,
					"inputs": [
						{
							"indexed": false,
							"internalType": "uint16",
							"name": "_dstChainId",
							"type": "uint16"
						},
						{
							"indexed": false,
							"internalType": "uint16",
							"name": "_type",
							"type": "uint16"
						},
						{
							"indexed": false,
							"internalType": "uint256",
							"name": "_minDstGas",
							"type": "uint256"
						}
					],
					"name": "SetMinDstGas",
					"type": "event"
				},
				{
					"anonymous": false,
					"inputs": [
						{
							"indexed": false,
							"internalType": "address",
							"name": "precrime",
							"type": "address"
						}
					],
					"name": "SetPrecrime",
					"type": "event"
				},
				{
					"anonymous": false,
					"inputs": [
						{
							"indexed": false,
							"internalType": "uint16",
							"name": "_remoteChainId",
							"type": "uint16"
						},
						{
							"indexed": false,
							"internalType": "bytes",
							"name": "_path",
							"type": "bytes"
						}
					],
					"name": "SetTrustedRemote",
					"type": "event"
				},
				{
					"anonymous": false,
					"inputs": [
						{
							"indexed": false,
							"internalType": "uint16",
							"name": "_remoteChainId",
							"type": "uint16"
						},
						{
							"indexed": false,
							"internalType": "bytes",
							"name": "_remoteAddress",
							"type": "bytes"
						}
					],
					"name": "SetTrustedRemoteAddress",
					"type": "event"
				},
				{
					"inputs": [],
					"name": "DEFAULT_PAYLOAD_SIZE_LIMIT",
					"outputs": [
						{
							"internalType": "uint256",
							"name": "",
							"type": "uint256"
						}
					],
					"stateMutability": "view",
					"type": "function"
				},
				{
					"inputs": [
						{
							"internalType": "uint16",
							"name": "dstChainId",
							"type": "uint16"
						},
						{
							"internalType": "bytes",
							"name": "adapterParams",
							"type": "bytes"
						},
						{
							"internalType": "string",
							"name": "_message",
							"type": "string"
						}
					],
					"name": "estimateFeesForDingDong",
					"outputs": [
						{
							"internalType": "uint256",
							"name": "nativeFee",
							"type": "uint256"
						},
						{
							"internalType": "uint256",
							"name": "zroFee",
							"type": "uint256"
						}
					],
					"stateMutability": "view",
					"type": "function"
				},
				{
					"inputs": [
						{
							"internalType": "uint16",
							"name": "",
							"type": "uint16"
						},
						{
							"internalType": "bytes",
							"name": "",
							"type": "bytes"
						},
						{
							"internalType": "uint64",
							"name": "",
							"type": "uint64"
						}
					],
					"name": "failedMessages",
					"outputs": [
						{
							"internalType": "bytes32",
							"name": "",
							"type": "bytes32"
						}
					],
					"stateMutability": "view",
					"type": "function"
				},
				{
					"inputs": [
						{
							"internalType": "uint16",
							"name": "_srcChainId",
							"type": "uint16"
						},
						{
							"internalType": "bytes",
							"name": "_srcAddress",
							"type": "bytes"
						}
					],
					"name": "forceResumeReceive",
					"outputs": [],
					"stateMutability": "nonpayable",
					"type": "function"
				},
				{
					"inputs": [
						{
							"internalType": "uint16",
							"name": "_version",
							"type": "uint16"
						},
						{
							"internalType": "uint16",
							"name": "_chainId",
							"type": "uint16"
						},
						{
							"internalType": "address",
							"name": "",
							"type": "address"
						},
						{
							"internalType": "uint256",
							"name": "_configType",
							"type": "uint256"
						}
					],
					"name": "getConfig",
					"outputs": [
						{
							"internalType": "bytes",
							"name": "",
							"type": "bytes"
						}
					],
					"stateMutability": "view",
					"type": "function"
				},
				{
					"inputs": [
						{
							"internalType": "uint16",
							"name": "_remoteChainId",
							"type": "uint16"
						}
					],
					"name": "getTrustedRemoteAddress",
					"outputs": [
						{
							"internalType": "bytes",
							"name": "",
							"type": "bytes"
						}
					],
					"stateMutability": "view",
					"type": "function"
				},
				{
					"inputs": [
						{
							"internalType": "uint16",
							"name": "_srcChainId",
							"type": "uint16"
						},
						{
							"internalType": "bytes",
							"name": "_srcAddress",
							"type": "bytes"
						}
					],
					"name": "isTrustedRemote",
					"outputs": [
						{
							"internalType": "bool",
							"name": "",
							"type": "bool"
						}
					],
					"stateMutability": "view",
					"type": "function"
				},
				{
					"inputs": [],
					"name": "lzEndpoint",
					"outputs": [
						{
							"internalType": "contract ILayerZeroEndpoint",
							"name": "",
							"type": "address"
						}
					],
					"stateMutability": "view",
					"type": "function"
				},
				{
					"inputs": [
						{
							"internalType": "uint16",
							"name": "_srcChainId",
							"type": "uint16"
						},
						{
							"internalType": "bytes",
							"name": "_srcAddress",
							"type": "bytes"
						},
						{
							"internalType": "uint64",
							"name": "_nonce",
							"type": "uint64"
						},
						{
							"internalType": "bytes",
							"name": "_payload",
							"type": "bytes"
						}
					],
					"name": "lzReceive",
					"outputs": [],
					"stateMutability": "nonpayable",
					"type": "function"
				},
				{
					"inputs": [],
					"name": "message",
					"outputs": [
						{
							"internalType": "string",
							"name": "",
							"type": "string"
						}
					],
					"stateMutability": "view",
					"type": "function"
				},
				{
					"inputs": [
						{
							"internalType": "uint16",
							"name": "",
							"type": "uint16"
						},
						{
							"internalType": "uint16",
							"name": "",
							"type": "uint16"
						}
					],
					"name": "minDstGasLookup",
					"outputs": [
						{
							"internalType": "uint256",
							"name": "",
							"type": "uint256"
						}
					],
					"stateMutability": "view",
					"type": "function"
				},
				{
					"inputs": [
						{
							"internalType": "uint16",
							"name": "_srcChainId",
							"type": "uint16"
						},
						{
							"internalType": "bytes",
							"name": "_srcAddress",
							"type": "bytes"
						},
						{
							"internalType": "uint64",
							"name": "_nonce",
							"type": "uint64"
						},
						{
							"internalType": "bytes",
							"name": "_payload",
							"type": "bytes"
						}
					],
					"name": "nonblockingLzReceive",
					"outputs": [],
					"stateMutability": "nonpayable",
					"type": "function"
				},
				{
					"inputs": [],
					"name": "owner",
					"outputs": [
						{
							"internalType": "address",
							"name": "",
							"type": "address"
						}
					],
					"stateMutability": "view",
					"type": "function"
				},
				{
					"inputs": [
						{
							"internalType": "uint16",
							"name": "",
							"type": "uint16"
						}
					],
					"name": "payloadSizeLimitLookup",
					"outputs": [
						{
							"internalType": "uint256",
							"name": "",
							"type": "uint256"
						}
					],
					"stateMutability": "view",
					"type": "function"
				},
				{
					"inputs": [],
					"name": "precrime",
					"outputs": [
						{
							"internalType": "address",
							"name": "",
							"type": "address"
						}
					],
					"stateMutability": "view",
					"type": "function"
				},
				{
					"inputs": [],
					"name": "renounceOwnership",
					"outputs": [],
					"stateMutability": "nonpayable",
					"type": "function"
				},
				{
					"inputs": [
						{
							"internalType": "uint16",
							"name": "_srcChainId",
							"type": "uint16"
						},
						{
							"internalType": "bytes",
							"name": "_srcAddress",
							"type": "bytes"
						},
						{
							"internalType": "uint64",
							"name": "_nonce",
							"type": "uint64"
						},
						{
							"internalType": "bytes",
							"name": "_payload",
							"type": "bytes"
						}
					],
					"name": "retryMessage",
					"outputs": [],
					"stateMutability": "payable",
					"type": "function"
				},
				{
					"inputs": [
						{
							"internalType": "uint16",
							"name": "destChainId",
							"type": "uint16"
						}
					],
					"name": "sendDing",
					"outputs": [],
					"stateMutability": "payable",
					"type": "function"
				},
				{
					"inputs": [
						{
							"internalType": "uint16",
							"name": "destChainId",
							"type": "uint16"
						}
					],
					"name": "sendDong",
					"outputs": [],
					"stateMutability": "payable",
					"type": "function"
				},
				{
					"inputs": [
						{
							"internalType": "uint16",
							"name": "_version",
							"type": "uint16"
						},
						{
							"internalType": "uint16",
							"name": "_chainId",
							"type": "uint16"
						},
						{
							"internalType": "uint256",
							"name": "_configType",
							"type": "uint256"
						},
						{
							"internalType": "bytes",
							"name": "_config",
							"type": "bytes"
						}
					],
					"name": "setConfig",
					"outputs": [],
					"stateMutability": "nonpayable",
					"type": "function"
				},
				{
					"inputs": [
						{
							"internalType": "uint16",
							"name": "_dstChainId",
							"type": "uint16"
						},
						{
							"internalType": "uint16",
							"name": "_packetType",
							"type": "uint16"
						},
						{
							"internalType": "uint256",
							"name": "_minGas",
							"type": "uint256"
						}
					],
					"name": "setMinDstGas",
					"outputs": [],
					"stateMutability": "nonpayable",
					"type": "function"
				},
				{
					"inputs": [
						{
							"internalType": "uint16",
							"name": "_dstChainId",
							"type": "uint16"
						},
						{
							"internalType": "uint256",
							"name": "_size",
							"type": "uint256"
						}
					],
					"name": "setPayloadSizeLimit",
					"outputs": [],
					"stateMutability": "nonpayable",
					"type": "function"
				},
				{
					"inputs": [
						{
							"internalType": "address",
							"name": "_precrime",
							"type": "address"
						}
					],
					"name": "setPrecrime",
					"outputs": [],
					"stateMutability": "nonpayable",
					"type": "function"
				},
				{
					"inputs": [
						{
							"internalType": "uint16",
							"name": "_version",
							"type": "uint16"
						}
					],
					"name": "setReceiveVersion",
					"outputs": [],
					"stateMutability": "nonpayable",
					"type": "function"
				},
				{
					"inputs": [
						{
							"internalType": "uint16",
							"name": "_version",
							"type": "uint16"
						}
					],
					"name": "setSendVersion",
					"outputs": [],
					"stateMutability": "nonpayable",
					"type": "function"
				},
				{
					"inputs": [
						{
							"internalType": "uint16",
							"name": "_remoteChainId",
							"type": "uint16"
						},
						{
							"internalType": "bytes",
							"name": "_path",
							"type": "bytes"
						}
					],
					"name": "setTrustedRemote",
					"outputs": [],
					"stateMutability": "nonpayable",
					"type": "function"
				},
				{
					"inputs": [
						{
							"internalType": "uint16",
							"name": "_remoteChainId",
							"type": "uint16"
						},
						{
							"internalType": "bytes",
							"name": "_remoteAddress",
							"type": "bytes"
						}
					],
					"name": "setTrustedRemoteAddress",
					"outputs": [],
					"stateMutability": "nonpayable",
					"type": "function"
				},
				{
					"inputs": [
						{
							"internalType": "address",
							"name": "newOwner",
							"type": "address"
						}
					],
					"name": "transferOwnership",
					"outputs": [],
					"stateMutability": "nonpayable",
					"type": "function"
				},
				{
					"inputs": [
						{
							"internalType": "uint16",
							"name": "destChainId",
							"type": "uint16"
						},
						{
							"internalType": "address",
							"name": "_otherContract",
							"type": "address"
						}
					],
					"name": "trustDingDong",
					"outputs": [],
					"stateMutability": "nonpayable",
					"type": "function"
				},
				{
					"inputs": [
						{
							"internalType": "uint16",
							"name": "",
							"type": "uint16"
						}
					],
					"name": "trustedRemoteLookup",
					"outputs": [
						{
							"internalType": "bytes",
							"name": "",
							"type": "bytes"
						}
					],
					"stateMutability": "view",
					"type": "function"
				}
			],
			"devdoc": {
				"kind": "dev",
				"methods": {
					"owner()": {
						"details": "Returns the address of the current owner."
					},
					"renounceOwnership()": {
						"details": "Leaves the contract without owner. It will not be possible to call `onlyOwner` functions. Can only be called by the current owner. NOTE: Renouncing ownership will leave the contract without an owner, thereby disabling any functionality that is only available to the owner."
					},
					"transferOwnership(address)": {
						"details": "Transfers ownership of the contract to a new account (`newOwner`). Can only be called by the current owner."
					}
				},
				"version": 1
			},
			"evm": {
				"assembly": "    /* \"contracts/DingDong.sol\":216:257  string public message = \"waiting to ding\" */\n  0xe0\n    /* \"contracts/DingDong.sol\":171:1903  contract DingDong is NonblockingLzApp {... */\n  0x40\n    /* \"contracts/DingDong.sol\":216:257  string public message = \"waiting to ding\" */\n  mstore\n  0x0f\n    /* \"contracts/DingDong.sol\":171:1903  contract DingDong is NonblockingLzApp {... */\n  0xa0\n    /* \"contracts/DingDong.sol\":216:257  string public message = \"waiting to ding\" */\n  swap1\n  dup2\n  mstore\n  mstore(0xc0, shl(0x88, 0x77616974696e6720746f2064696e67))\n  0x06\n  swap1\n  tag_1\n  swap1\n  dup3\n  tag_2\n  jump\t// in\ntag_1:\n  pop\n    /* \"contracts/DingDong.sol\":266:341  constructor(address _lzEndpoint) NonblockingLzApp(_lzEndpoint) Ownable() {} */\n  callvalue\n  dup1\n  iszero\n  tag_3\n  jumpi\n  0x00\n  dup1\n  revert\ntag_3:\n  pop\n  mload(0x40)\n  sub(codesize, bytecodeSize)\n  dup1\n  bytecodeSize\n  dup4\n  codecopy\n  dup2\n  add\n  0x40\n  dup2\n  swap1\n  mstore\n  tag_4\n  swap2\n  tag_5\n  jump\t// in\ntag_4:\n    /* \"contracts/DingDong.sol\":316:327  _lzEndpoint */\n  dup1\n  dup1\n    /* \"@openzeppelin/contracts/access/Ownable.sol\":936:968  _transferOwnership(_msgSender()) */\n  tag_11\n    /* \"@openzeppelin/contracts/utils/Context.sol\":719:729  msg.sender */\n  caller\n    /* \"@openzeppelin/contracts/access/Ownable.sol\":936:954  _transferOwnership */\n  tag_14\n    /* \"@openzeppelin/contracts/access/Ownable.sol\":936:968  _transferOwnership(_msgSender()) */\n  jump\t// in\ntag_11:\n  sub(shl(0xa0, 0x01), 0x01)\n    /* \"https://github.com/LayerZero-Labs/solidity-examples/blob/main/contracts/lzApp/LzApp.sol\":1201:1243  lzEndpoint = ILayerZeroEndpoint(_endpoint) */\n  and\n  0x80\n  mstore\n  pop\n    /* \"contracts/DingDong.sol\":171:1903  contract DingDong is NonblockingLzApp {... */\n  tag_26\n  swap1\n  pop\n  jump\n    /* \"@openzeppelin/contracts/access/Ownable.sol\":2426:2613  function _transferOwnership(address newOwner) internal virtual {... */\ntag_14:\n    /* \"@openzeppelin/contracts/access/Ownable.sol\":2499:2515  address oldOwner */\n  0x00\n    /* \"@openzeppelin/contracts/access/Ownable.sol\":2518:2524  _owner */\n  dup1\n  sload\n  sub(shl(0xa0, 0x01), 0x01)\n    /* \"@openzeppelin/contracts/access/Ownable.sol\":2534:2551  _owner = newOwner */\n  dup4\n  dup2\n  and\n  not(sub(shl(0xa0, 0x01), 0x01))\n  dup4\n  and\n  dup2\n  or\n  dup5\n  sstore\n    /* \"@openzeppelin/contracts/access/Ownable.sol\":2566:2606  OwnershipTransferred(oldOwner, newOwner) */\n  mload(0x40)\n    /* \"@openzeppelin/contracts/access/Ownable.sol\":2518:2524  _owner */\n  swap2\n  swap1\n  swap3\n  and\n  swap3\n  dup4\n  swap2\n    /* \"@openzeppelin/contracts/access/Ownable.sol\":2566:2606  OwnershipTransferred(oldOwner, newOwner) */\n  0x8be0079c531659141344cd1fd0a4f28419497f9722a3daafe3b4186f6b6457e0\n  swap2\n    /* \"@openzeppelin/contracts/access/Ownable.sol\":2499:2515  address oldOwner */\n  swap1\n    /* \"@openzeppelin/contracts/access/Ownable.sol\":2566:2606  OwnershipTransferred(oldOwner, newOwner) */\n  log3\n    /* \"@openzeppelin/contracts/access/Ownable.sol\":2489:2613  {... */\n  pop\n    /* \"@openzeppelin/contracts/access/Ownable.sol\":2426:2613  function _transferOwnership(address newOwner) internal virtual {... */\n  pop\n  jump\t// out\n    /* \"#utility.yul\":14:141   */\ntag_21:\n    /* \"#utility.yul\":75:85   */\n  0x4e487b71\n    /* \"#utility.yul\":70:73   */\n  0xe0\n    /* \"#utility.yul\":66:86   */\n  shl\n    /* \"#utility.yul\":63:64   */\n  0x00\n    /* \"#utility.yul\":56:87   */\n  mstore\n    /* \"#utility.yul\":106:110   */\n  0x41\n    /* \"#utility.yul\":103:104   */\n  0x04\n    /* \"#utility.yul\":96:111   */\n  mstore\n    /* \"#utility.yul\":130:134   */\n  0x24\n    /* \"#utility.yul\":127:128   */\n  0x00\n    /* \"#utility.yul\":120:135   */\n  revert\n    /* \"#utility.yul\":146:526   */\ntag_22:\n    /* \"#utility.yul\":225:226   */\n  0x01\n    /* \"#utility.yul\":221:233   */\n  dup2\n  dup2\n  shr\n  swap1\n    /* \"#utility.yul\":268:280   */\n  dup3\n  and\n  dup1\n    /* \"#utility.yul\":289:350   */\n  tag_29\n  jumpi\n    /* \"#utility.yul\":343:347   */\n  0x7f\n    /* \"#utility.yul\":335:341   */\n  dup3\n    /* \"#utility.yul\":331:348   */\n  and\n    /* \"#utility.yul\":321:348   */\n  swap2\n  pop\n    /* \"#utility.yul\":289:350   */\ntag_29:\n    /* \"#utility.yul\":396:398   */\n  0x20\n    /* \"#utility.yul\":388:394   */\n  dup3\n    /* \"#utility.yul\":385:399   */\n  lt\n    /* \"#utility.yul\":365:383   */\n  dup2\n    /* \"#utility.yul\":362:400   */\n  sub\n    /* \"#utility.yul\":359:520   */\n  tag_30\n  jumpi\n    /* \"#utility.yul\":442:452   */\n  0x4e487b71\n    /* \"#utility.yul\":437:440   */\n  0xe0\n    /* \"#utility.yul\":433:453   */\n  shl\n    /* \"#utility.yul\":430:431   */\n  0x00\n    /* \"#utility.yul\":423:454   */\n  mstore\n    /* \"#utility.yul\":477:481   */\n  0x22\n    /* \"#utility.yul\":474:475   */\n  0x04\n    /* \"#utility.yul\":467:482   */\n  mstore\n    /* \"#utility.yul\":505:509   */\n  0x24\n    /* \"#utility.yul\":502:503   */\n  0x00\n    /* \"#utility.yul\":495:510   */\n  revert\n    /* \"#utility.yul\":359:520   */\ntag_30:\n  pop\n    /* \"#utility.yul\":146:526   */\n  swap2\n  swap1\n  pop\n  jump\t// out\n    /* \"#utility.yul\":657:1200   */\ntag_24:\n    /* \"#utility.yul\":759:761   */\n  0x1f\n    /* \"#utility.yul\":754:757   */\n  dup3\n    /* \"#utility.yul\":751:762   */\n  gt\n    /* \"#utility.yul\":748:1194   */\n  iszero\n  tag_33\n  jumpi\n    /* \"#utility.yul\":795:796   */\n  0x00\n    /* \"#utility.yul\":819:824   */\n  dup2\n    /* \"#utility.yul\":816:817   */\n  0x00\n    /* \"#utility.yul\":809:825   */\n  mstore\n    /* \"#utility.yul\":863:867   */\n  0x20\n    /* \"#utility.yul\":860:861   */\n  0x00\n    /* \"#utility.yul\":850:868   */\n  keccak256\n    /* \"#utility.yul\":933:935   */\n  0x1f\n    /* \"#utility.yul\":921:931   */\n  dup6\n    /* \"#utility.yul\":917:936   */\n  add\n    /* \"#utility.yul\":914:915   */\n  0x05\n    /* \"#utility.yul\":910:937   */\n  shr\n    /* \"#utility.yul\":904:908   */\n  dup2\n    /* \"#utility.yul\":900:938   */\n  add\n    /* \"#utility.yul\":969:973   */\n  0x20\n    /* \"#utility.yul\":957:967   */\n  dup7\n    /* \"#utility.yul\":954:974   */\n  lt\n    /* \"#utility.yul\":951:998   */\n  iszero\n  tag_34\n  jumpi\n  pop\n    /* \"#utility.yul\":992:996   */\n  dup1\n    /* \"#utility.yul\":951:998   */\ntag_34:\n    /* \"#utility.yul\":1047:1049   */\n  0x1f\n    /* \"#utility.yul\":1042:1045   */\n  dup6\n    /* \"#utility.yul\":1038:1050   */\n  add\n    /* \"#utility.yul\":1035:1036   */\n  0x05\n    /* \"#utility.yul\":1031:1051   */\n  shr\n    /* \"#utility.yul\":1025:1029   */\n  dup3\n    /* \"#utility.yul\":1021:1052   */\n  add\n    /* \"#utility.yul\":1011:1052   */\n  swap2\n  pop\n    /* \"#utility.yul\":1102:1184   */\ntag_35:\n    /* \"#utility.yul\":1120:1122   */\n  dup2\n    /* \"#utility.yul\":1113:1118   */\n  dup2\n    /* \"#utility.yul\":1110:1123   */\n  lt\n    /* \"#utility.yul\":1102:1184   */\n  iszero\n  tag_37\n  jumpi\n    /* \"#utility.yul\":1165:1182   */\n  dup3\n  dup2\n  sstore\n    /* \"#utility.yul\":1146:1147   */\n  0x01\n    /* \"#utility.yul\":1135:1148   */\n  add\n    /* \"#utility.yul\":1102:1184   */\n  jump(tag_35)\ntag_37:\n    /* \"#utility.yul\":1106:1109   */\n  pop\n  pop\n  pop\n    /* \"#utility.yul\":748:1194   */\ntag_33:\n    /* \"#utility.yul\":657:1200   */\n  pop\n  pop\n  pop\n  jump\t// out\n    /* \"#utility.yul\":1376:2721   */\ntag_2:\n    /* \"#utility.yul\":1496:1506   */\n  dup2\n  mload\n  sub(shl(0x40, 0x01), 0x01)\n    /* \"#utility.yul\":1518:1548   */\n  dup2\n  gt\n    /* \"#utility.yul\":1515:1571   */\n  iszero\n  tag_41\n  jumpi\n    /* \"#utility.yul\":1551:1569   */\n  tag_41\n  tag_21\n  jump\t// in\ntag_41:\n    /* \"#utility.yul\":1580:1677   */\n  tag_42\n    /* \"#utility.yul\":1670:1676   */\n  dup2\n    /* \"#utility.yul\":1630:1668   */\n  tag_43\n    /* \"#utility.yul\":1662:1666   */\n  dup5\n    /* \"#utility.yul\":1656:1667   */\n  sload\n    /* \"#utility.yul\":1630:1668   */\n  tag_22\n  jump\t// in\ntag_43:\n    /* \"#utility.yul\":1624:1628   */\n  dup5\n    /* \"#utility.yul\":1580:1677   */\n  tag_24\n  jump\t// in\ntag_42:\n    /* \"#utility.yul\":1732:1736   */\n  0x20\n  dup1\n    /* \"#utility.yul\":1789:1791   */\n  0x1f\n    /* \"#utility.yul\":1778:1792   */\n  dup4\n  gt\n    /* \"#utility.yul\":1806:1807   */\n  0x01\n    /* \"#utility.yul\":1801:2464   */\n  dup2\n  eq\n  tag_45\n  jumpi\n    /* \"#utility.yul\":2508:2509   */\n  0x00\n    /* \"#utility.yul\":2525:2531   */\n  dup5\n    /* \"#utility.yul\":2522:2611   */\n  iszero\n  tag_46\n  jumpi\n  pop\n    /* \"#utility.yul\":2577:2596   */\n  dup6\n  dup4\n  add\n    /* \"#utility.yul\":2571:2597   */\n  mload\n    /* \"#utility.yul\":2522:2611   */\ntag_46:\n  not(0x00)\n    /* \"#utility.yul\":1333:1334   */\n  0x03\n    /* \"#utility.yul\":1329:1340   */\n  dup7\n  swap1\n  shl\n    /* \"#utility.yul\":1325:1349   */\n  shr\n    /* \"#utility.yul\":1321:1350   */\n  not\n    /* \"#utility.yul\":1311:1351   */\n  and\n    /* \"#utility.yul\":1357:1358   */\n  0x01\n    /* \"#utility.yul\":1353:1364   */\n  dup6\n  swap1\n  shl\n    /* \"#utility.yul\":1308:1365   */\n  or\n    /* \"#utility.yul\":2624:2705   */\n  dup6\n  sstore\n    /* \"#utility.yul\":1771:2715   */\n  jump(tag_37)\n    /* \"#utility.yul\":1801:2464   */\ntag_45:\n    /* \"#utility.yul\":604:605   */\n  0x00\n    /* \"#utility.yul\":597:611   */\n  dup6\n  dup2\n  mstore\n    /* \"#utility.yul\":641:645   */\n  0x20\n    /* \"#utility.yul\":628:646   */\n  dup2\n  keccak256\n  not(0x1f)\n    /* \"#utility.yul\":1837:1857   */\n  dup7\n  and\n  swap2\n    /* \"#utility.yul\":1955:2191   */\ntag_49:\n    /* \"#utility.yul\":1969:1976   */\n  dup3\n    /* \"#utility.yul\":1966:1967   */\n  dup2\n    /* \"#utility.yul\":1963:1977   */\n  lt\n    /* \"#utility.yul\":1955:2191   */\n  iszero\n  tag_51\n  jumpi\n    /* \"#utility.yul\":2058:2077   */\n  dup9\n  dup7\n  add\n    /* \"#utility.yul\":2052:2078   */\n  mload\n    /* \"#utility.yul\":2037:2079   */\n  dup3\n  sstore\n    /* \"#utility.yul\":2150:2177   */\n  swap5\n  dup5\n  add\n  swap5\n    /* \"#utility.yul\":2118:2119   */\n  0x01\n    /* \"#utility.yul\":2106:2120   */\n  swap1\n  swap2\n  add\n  swap1\n    /* \"#utility.yul\":1985:2004   */\n  dup5\n  add\n    /* \"#utility.yul\":1955:2191   */\n  jump(tag_49)\ntag_51:\n    /* \"#utility.yul\":1959:1962   */\n  pop\n    /* \"#utility.yul\":2219:2225   */\n  dup6\n    /* \"#utility.yul\":2210:2217   */\n  dup3\n    /* \"#utility.yul\":2207:2226   */\n  lt\n    /* \"#utility.yul\":2204:2405   */\n  iszero\n  tag_52\n  jumpi\n    /* \"#utility.yul\":2280:2299   */\n  dup8\n  dup6\n  add\n    /* \"#utility.yul\":2274:2300   */\n  mload\n  not(0x00)\n    /* \"#utility.yul\":2363:2364   */\n  0x03\n    /* \"#utility.yul\":2359:2373   */\n  dup9\n  swap1\n  shl\n    /* \"#utility.yul\":2375:2378   */\n  0xf8\n    /* \"#utility.yul\":2355:2379   */\n  and\n    /* \"#utility.yul\":2351:2388   */\n  shr\n    /* \"#utility.yul\":2347:2389   */\n  not\n    /* \"#utility.yul\":2332:2390   */\n  and\n    /* \"#utility.yul\":2317:2391   */\n  dup2\n  sstore\n    /* \"#utility.yul\":2204:2405   */\ntag_52:\n  pop\n  pop\n  pop\n  pop\n  pop\n    /* \"#utility.yul\":2451:2452   */\n  0x01\n    /* \"#utility.yul\":2435:2449   */\n  swap1\n  dup2\n  shl\n    /* \"#utility.yul\":2431:2453   */\n  add\n    /* \"#utility.yul\":2418:2454   */\n  swap1\n  sstore\n  pop\n    /* \"#utility.yul\":1376:2721   */\n  jump\t// out\n    /* \"#utility.yul\":2726:3016   */\ntag_5:\n    /* \"#utility.yul\":2796:2802   */\n  0x00\n    /* \"#utility.yul\":2849:2851   */\n  0x20\n    /* \"#utility.yul\":2837:2846   */\n  dup3\n    /* \"#utility.yul\":2828:2835   */\n  dup5\n    /* \"#utility.yul\":2824:2847   */\n  sub\n    /* \"#utility.yul\":2820:2852   */\n  slt\n    /* \"#utility.yul\":2817:2869   */\n  iszero\n  tag_54\n  jumpi\n    /* \"#utility.yul\":2865:2866   */\n  0x00\n    /* \"#utility.yul\":2862:2863   */\n  dup1\n    /* \"#utility.yul\":2855:2867   */\n  revert\n    /* \"#utility.yul\":2817:2869   */\ntag_54:\n    /* \"#utility.yul\":2891:2907   */\n  dup2\n  mload\n  sub(shl(0xa0, 0x01), 0x01)\n    /* \"#utility.yul\":2936:2967   */\n  dup2\n  and\n    /* \"#utility.yul\":2926:2968   */\n  dup2\n  eq\n    /* \"#utility.yul\":2916:2986   */\n  tag_55\n  jumpi\n    /* \"#utility.yul\":2982:2983   */\n  0x00\n    /* \"#utility.yul\":2979:2980   */\n  dup1\n    /* \"#utility.yul\":2972:2984   */\n  revert\n    /* \"#utility.yul\":2916:2986   */\ntag_55:\n    /* \"#utility.yul\":3005:3010   */\n  swap4\n    /* \"#utility.yul\":2726:3016   */\n  swap3\n  pop\n  pop\n  pop\n  jump\t// out\ntag_26:\n    /* \"contracts/DingDong.sol\":171:1903  contract DingDong is NonblockingLzApp {... */\n  mload(0x80)\n  codecopy(0x00, dataOffset(sub_0), dataSize(sub_0))\n  0x00\n  assignImmutable(\"0xec6208b88575f43118050c78bff29168f189541daa8140d9ea92f610471bcfa1\")\n  return(0x00, dataSize(sub_0))\nstop\n\nsub_0: assembly {\n        /* \"contracts/DingDong.sol\":171:1903  contract DingDong is NonblockingLzApp {... */\n      mstore(0x40, 0x80)\n      jumpi(tag_1, lt(calldatasize, 0x04))\n      shr(0xe0, calldataload(0x00))\n      dup1\n      0x950c8a74\n      gt\n      tag_32\n      jumpi\n      dup1\n      0xcbed8b9c\n      gt\n      tag_33\n      jumpi\n      dup1\n      0xeb8d72b7\n      gt\n      tag_34\n      jumpi\n      dup1\n      0xeb8d72b7\n      eq\n      tag_28\n      jumpi\n      dup1\n      0xf2fde38b\n      eq\n      tag_29\n      jumpi\n      dup1\n      0xf5ecbdbc\n      eq\n      tag_30\n      jumpi\n      dup1\n      0xfc018c64\n      eq\n      tag_31\n      jumpi\n      0x00\n      dup1\n      revert\n    tag_34:\n      dup1\n      0xcbed8b9c\n      eq\n      tag_24\n      jumpi\n      dup1\n      0xd1deba1f\n      eq\n      tag_25\n      jumpi\n      dup1\n      0xdf2a5b3b\n      eq\n      tag_26\n      jumpi\n      dup1\n      0xe21f37ce\n      eq\n      tag_27\n      jumpi\n      0x00\n      dup1\n      revert\n    tag_33:\n      dup1\n      0xb353aaa7\n      gt\n      tag_35\n      jumpi\n      dup1\n      0xb353aaa7\n      eq\n      tag_20\n      jumpi\n      dup1\n      0xbaf3292d\n      eq\n      tag_21\n      jumpi\n      dup1\n      0xbdb30a09\n      eq\n      tag_22\n      jumpi\n      dup1\n      0xc4461834\n      eq\n      tag_23\n      jumpi\n      0x00\n      dup1\n      revert\n    tag_35:\n      dup1\n      0x950c8a74\n      eq\n      tag_17\n      jumpi\n      dup1\n      0x9f38369a\n      eq\n      tag_18\n      jumpi\n      dup1\n      0xa6c3d165\n      eq\n      tag_19\n      jumpi\n      0x00\n      dup1\n      revert\n    tag_32:\n      dup1\n      0x51200494\n      gt\n      tag_36\n      jumpi\n      dup1\n      0x7533d788\n      gt\n      tag_37\n      jumpi\n      dup1\n      0x7533d788\n      eq\n      tag_13\n      jumpi\n      dup1\n      0x7efb5844\n      eq\n      tag_14\n      jumpi\n      dup1\n      0x8cfd8f5c\n      eq\n      tag_15\n      jumpi\n      dup1\n      0x8da5cb5b\n      eq\n      tag_16\n      jumpi\n      0x00\n      dup1\n      revert\n    tag_37:\n      dup1\n      0x51200494\n      eq\n      tag_9\n      jumpi\n      dup1\n      0x5b8c41e6\n      eq\n      tag_10\n      jumpi\n      dup1\n      0x66ad5c8a\n      eq\n      tag_11\n      jumpi\n      dup1\n      0x715018a6\n      eq\n      tag_12\n      jumpi\n      0x00\n      dup1\n      revert\n    tag_36:\n      dup1\n      0x10ddb137\n      gt\n      tag_38\n      jumpi\n      dup1\n      0x10ddb137\n      eq\n      tag_5\n      jumpi\n      dup1\n      0x3d8b38f6\n      eq\n      tag_6\n      jumpi\n      dup1\n      0x3f1f4fa4\n      eq\n      tag_7\n      jumpi\n      dup1\n      0x42d65a8d\n      eq\n      tag_8\n      jumpi\n      0x00\n      dup1\n      revert\n    tag_38:\n      dup1\n      0x1d3567\n      eq\n      tag_2\n      jumpi\n      dup1\n      0x07e0db17\n      eq\n      tag_3\n      jumpi\n      dup1\n      0x0df37483\n      eq\n      tag_4\n      jumpi\n    tag_1:\n      0x00\n      dup1\n      revert\n        /* \"https://github.com/LayerZero-Labs/solidity-examples/blob/main/contracts/lzApp/LzApp.sol\":1256:2081  function lzReceive(... */\n    tag_2:\n      callvalue\n      dup1\n      iszero\n      tag_39\n      jumpi\n      0x00\n      dup1\n      revert\n    tag_39:\n      pop\n      tag_40\n      tag_41\n      calldatasize\n      0x04\n      tag_42\n      jump\t// in\n    tag_41:\n      tag_43\n      jump\t// in\n    tag_40:\n      stop\n        /* \"https://github.com/LayerZero-Labs/solidity-examples/blob/main/contracts/lzApp/LzApp.sol\":4791:4912  function setSendVersion(uint16 _version) external override onlyOwner {... */\n    tag_3:\n      callvalue\n      dup1\n      iszero\n      tag_44\n      jumpi\n      0x00\n      dup1\n      revert\n    tag_44:\n      pop\n      tag_40\n      tag_46\n      calldatasize\n      0x04\n      tag_47\n      jump\t// in\n    tag_46:\n      tag_48\n      jump\t// in\n        /* \"https://github.com/LayerZero-Labs/solidity-examples/blob/main/contracts/lzApp/LzApp.sol\":6649:6789  function setPayloadSizeLimit(uint16 _dstChainId, uint _size) external onlyOwner {... */\n    tag_4:\n      callvalue\n      dup1\n      iszero\n      tag_49\n      jumpi\n      0x00\n      dup1\n      revert\n    tag_49:\n      pop\n      tag_40\n      tag_51\n      calldatasize\n      0x04\n      tag_52\n      jump\t// in\n    tag_51:\n      tag_53\n      jump\t// in\n        /* \"https://github.com/LayerZero-Labs/solidity-examples/blob/main/contracts/lzApp/LzApp.sol\":4918:5045  function setReceiveVersion(uint16 _version) external override onlyOwner {... */\n    tag_5:\n      callvalue\n      dup1\n      iszero\n      tag_54\n      jumpi\n      0x00\n      dup1\n      revert\n    tag_54:\n      pop\n      tag_40\n      tag_56\n      calldatasize\n      0x04\n      tag_47\n      jump\t// in\n    tag_56:\n      tag_57\n      jump\t// in\n        /* \"https://github.com/LayerZero-Labs/solidity-examples/blob/main/contracts/lzApp/LzApp.sol\":6884:7131  function isTrustedRemote(uint16 _srcChainId, bytes calldata _srcAddress) external view returns (bool) {... */\n    tag_6:\n      callvalue\n      dup1\n      iszero\n      tag_58\n      jumpi\n      0x00\n      dup1\n      revert\n    tag_58:\n      pop\n      tag_59\n      tag_60\n      calldatasize\n      0x04\n      tag_61\n      jump\t// in\n    tag_60:\n      tag_62\n      jump\t// in\n    tag_59:\n      mload(0x40)\n        /* \"#utility.yul\":2670:2684   */\n      swap1\n      iszero\n        /* \"#utility.yul\":2663:2685   */\n      iszero\n        /* \"#utility.yul\":2645:2686   */\n      dup2\n      mstore\n        /* \"#utility.yul\":2633:2635   */\n      0x20\n        /* \"#utility.yul\":2618:2636   */\n      add\n        /* \"https://github.com/LayerZero-Labs/solidity-examples/blob/main/contracts/lzApp/LzApp.sol\":6884:7131  function isTrustedRemote(uint16 _srcChainId, bytes calldata _srcAddress) external view returns (bool) {... */\n    tag_63:\n      mload(0x40)\n      dup1\n      swap2\n      sub\n      swap1\n      return\n        /* \"https://github.com/LayerZero-Labs/solidity-examples/blob/main/contracts/lzApp/LzApp.sol\":810:863  mapping(uint16 => uint) public payloadSizeLimitLookup */\n    tag_7:\n      callvalue\n      dup1\n      iszero\n      tag_65\n      jumpi\n      0x00\n      dup1\n      revert\n    tag_65:\n      pop\n      tag_66\n      tag_67\n      calldatasize\n      0x04\n      tag_47\n      jump\t// in\n    tag_67:\n      mstore(0x20, 0x03)\n      0x00\n      swap1\n      dup2\n      mstore\n      0x40\n      swap1\n      keccak256\n      sload\n      dup2\n      jump\n    tag_66:\n      mload(0x40)\n        /* \"#utility.yul\":2843:2868   */\n      swap1\n      dup2\n      mstore\n        /* \"#utility.yul\":2831:2833   */\n      0x20\n        /* \"#utility.yul\":2816:2834   */\n      add\n        /* \"https://github.com/LayerZero-Labs/solidity-examples/blob/main/contracts/lzApp/LzApp.sol\":810:863  mapping(uint16 => uint) public payloadSizeLimitLookup */\n      tag_63\n        /* \"#utility.yul\":2697:2874   */\n      jump\n        /* \"https://github.com/LayerZero-Labs/solidity-examples/blob/main/contracts/lzApp/LzApp.sol\":5051:5227  function forceResumeReceive(uint16 _srcChainId, bytes calldata _srcAddress) external override onlyOwner {... */\n    tag_8:\n      callvalue\n      dup1\n      iszero\n      tag_71\n      jumpi\n      0x00\n      dup1\n      revert\n    tag_71:\n      pop\n      tag_40\n      tag_73\n      calldatasize\n      0x04\n      tag_61\n      jump\t// in\n    tag_73:\n      tag_74\n      jump\t// in\n        /* \"contracts/DingDong.sol\":1175:1422  function trustDingDong(... */\n    tag_9:\n      callvalue\n      dup1\n      iszero\n      tag_75\n      jumpi\n      0x00\n      dup1\n      revert\n    tag_75:\n      pop\n      tag_40\n      tag_77\n      calldatasize\n      0x04\n      tag_78\n      jump\t// in\n    tag_77:\n      tag_79\n      jump\t// in\n        /* \"https://github.com/LayerZero-Labs/solidity-examples/blob/main/contracts/lzApp/NonblockingLzApp.sol\":622:707  mapping(uint16 => mapping(bytes => mapping(uint64 => bytes32))) public failedMessages */\n    tag_10:\n      callvalue\n      dup1\n      iszero\n      tag_80\n      jumpi\n      0x00\n      dup1\n      revert\n    tag_80:\n      pop\n      tag_66\n      tag_82\n      calldatasize\n      0x04\n      tag_83\n      jump\t// in\n    tag_82:\n      0x05\n      0x20\n      swap1\n      dup2\n      mstore\n      0x00\n      swap4\n      dup5\n      mstore\n      0x40\n      dup1\n      dup6\n      keccak256\n      dup5\n      mload\n      dup1\n      dup7\n      add\n      dup5\n      add\n      dup1\n      mload\n      swap3\n      dup2\n      mstore\n      swap1\n      dup5\n      add\n      swap6\n      dup5\n      add\n      swap6\n      swap1\n      swap6\n      keccak256\n      swap5\n      mstore\n      swap3\n      swap1\n      mstore\n      dup3\n      mstore\n      swap1\n      keccak256\n      sload\n      dup2\n      jump\n        /* \"https://github.com/LayerZero-Labs/solidity-examples/blob/main/contracts/lzApp/NonblockingLzApp.sol\":1912:2292  function nonblockingLzReceive(... */\n    tag_11:\n      callvalue\n      dup1\n      iszero\n      tag_87\n      jumpi\n      0x00\n      dup1\n      revert\n    tag_87:\n      pop\n      tag_40\n      tag_89\n      calldatasize\n      0x04\n      tag_42\n      jump\t// in\n    tag_89:\n      tag_90\n      jump\t// in\n        /* \"@openzeppelin/contracts/access/Ownable.sol\":1824:1925  function renounceOwnership() public virtual onlyOwner {... */\n    tag_12:\n      callvalue\n      dup1\n      iszero\n      tag_91\n      jumpi\n      0x00\n      dup1\n      revert\n    tag_91:\n      pop\n      tag_40\n      tag_93\n      jump\t// in\n        /* \"https://github.com/LayerZero-Labs/solidity-examples/blob/main/contracts/lzApp/LzApp.sol\":682:733  mapping(uint16 => bytes) public trustedRemoteLookup */\n    tag_13:\n      callvalue\n      dup1\n      iszero\n      tag_94\n      jumpi\n      0x00\n      dup1\n      revert\n    tag_94:\n      pop\n      tag_95\n      tag_96\n      calldatasize\n      0x04\n      tag_47\n      jump\t// in\n    tag_96:\n      tag_97\n      jump\t// in\n    tag_95:\n      mload(0x40)\n      tag_63\n      swap2\n      swap1\n      tag_99\n      jump\t// in\n        /* \"contracts/DingDong.sol\":1430:1900  function estimateFeesForDingDong(... */\n    tag_14:\n      callvalue\n      dup1\n      iszero\n      tag_100\n      jumpi\n      0x00\n      dup1\n      revert\n    tag_100:\n      pop\n      tag_101\n      tag_102\n      calldatasize\n      0x04\n      tag_103\n      jump\t// in\n    tag_102:\n      tag_104\n      jump\t// in\n    tag_101:\n      0x40\n      dup1\n      mload\n        /* \"#utility.yul\":6805:6830   */\n      swap3\n      dup4\n      mstore\n        /* \"#utility.yul\":6861:6863   */\n      0x20\n        /* \"#utility.yul\":6846:6864   */\n      dup4\n      add\n        /* \"#utility.yul\":6839:6873   */\n      swap2\n      swap1\n      swap2\n      mstore\n        /* \"#utility.yul\":6778:6796   */\n      add\n        /* \"contracts/DingDong.sol\":1430:1900  function estimateFeesForDingDong(... */\n      tag_63\n        /* \"#utility.yul\":6631:6879   */\n      jump\n        /* \"https://github.com/LayerZero-Labs/solidity-examples/blob/main/contracts/lzApp/LzApp.sol\":739:804  mapping(uint16 => mapping(uint16 => uint)) public minDstGasLookup */\n    tag_15:\n      callvalue\n      dup1\n      iszero\n      tag_107\n      jumpi\n      0x00\n      dup1\n      revert\n    tag_107:\n      pop\n      tag_66\n      tag_109\n      calldatasize\n      0x04\n      tag_110\n      jump\t// in\n    tag_109:\n      0x02\n      0x20\n      swap1\n      dup2\n      mstore\n      0x00\n      swap3\n      dup4\n      mstore\n      0x40\n      dup1\n      dup5\n      keccak256\n      swap1\n      swap2\n      mstore\n      swap1\n      dup3\n      mstore\n      swap1\n      keccak256\n      sload\n      dup2\n      jump\n        /* \"@openzeppelin/contracts/access/Ownable.sol\":1201:1286  function owner() public view virtual returns (address) {... */\n    tag_16:\n      callvalue\n      dup1\n      iszero\n      tag_113\n      jumpi\n      0x00\n      dup1\n      revert\n    tag_113:\n      pop\n        /* \"@openzeppelin/contracts/access/Ownable.sol\":1247:1254  address */\n      0x00\n        /* \"@openzeppelin/contracts/access/Ownable.sol\":1273:1279  _owner */\n      sload\n      sub(shl(0xa0, 0x01), 0x01)\n      and\n        /* \"@openzeppelin/contracts/access/Ownable.sol\":1201:1286  function owner() public view virtual returns (address) {... */\n    tag_114:\n      mload(0x40)\n      sub(shl(0xa0, 0x01), 0x01)\n        /* \"#utility.yul\":7309:7341   */\n      swap1\n      swap2\n      and\n        /* \"#utility.yul\":7291:7342   */\n      dup2\n      mstore\n        /* \"#utility.yul\":7279:7281   */\n      0x20\n        /* \"#utility.yul\":7264:7282   */\n      add\n        /* \"@openzeppelin/contracts/access/Ownable.sol\":1201:1286  function owner() public view virtual returns (address) {... */\n      tag_63\n        /* \"#utility.yul\":7145:7348   */\n      jump\n        /* \"https://github.com/LayerZero-Labs/solidity-examples/blob/main/contracts/lzApp/LzApp.sol\":869:892  address public precrime */\n    tag_17:\n      callvalue\n      dup1\n      iszero\n      tag_118\n      jumpi\n      0x00\n      dup1\n      revert\n    tag_118:\n      pop\n      sload(0x04)\n      tag_114\n      swap1\n      sub(shl(0xa0, 0x01), 0x01)\n      and\n      dup2\n      jump\n        /* \"https://github.com/LayerZero-Labs/solidity-examples/blob/main/contracts/lzApp/LzApp.sol\":5864:6190  function getTrustedRemoteAddress(uint16 _remoteChainId) external view returns (bytes memory) {... */\n    tag_18:\n      callvalue\n      dup1\n      iszero\n      tag_122\n      jumpi\n      0x00\n      dup1\n      revert\n    tag_122:\n      pop\n      tag_95\n      tag_124\n      calldatasize\n      0x04\n      tag_47\n      jump\t// in\n    tag_124:\n      tag_125\n      jump\t// in\n        /* \"https://github.com/LayerZero-Labs/solidity-examples/blob/main/contracts/lzApp/LzApp.sol\":5580:5858  function setTrustedRemoteAddress(uint16 _remoteChainId, bytes calldata _remoteAddress) external onlyOwner {... */\n    tag_19:\n      callvalue\n      dup1\n      iszero\n      tag_127\n      jumpi\n      0x00\n      dup1\n      revert\n    tag_127:\n      pop\n      tag_40\n      tag_129\n      calldatasize\n      0x04\n      tag_61\n      jump\t// in\n    tag_129:\n      tag_130\n      jump\t// in\n        /* \"https://github.com/LayerZero-Labs/solidity-examples/blob/main/contracts/lzApp/LzApp.sol\":630:676  ILayerZeroEndpoint public immutable lzEndpoint */\n    tag_20:\n      callvalue\n      dup1\n      iszero\n      tag_131\n      jumpi\n      0x00\n      dup1\n      revert\n    tag_131:\n      pop\n      tag_114\n      immutable(\"0xec6208b88575f43118050c78bff29168f189541daa8140d9ea92f610471bcfa1\")\n      dup2\n      jump\n        /* \"https://github.com/LayerZero-Labs/solidity-examples/blob/main/contracts/lzApp/LzApp.sol\":6196:6329  function setPrecrime(address _precrime) external onlyOwner {... */\n    tag_21:\n      callvalue\n      dup1\n      iszero\n      tag_136\n      jumpi\n      0x00\n      dup1\n      revert\n    tag_136:\n      pop\n      tag_40\n      tag_138\n      calldatasize\n      0x04\n      tag_139\n      jump\t// in\n    tag_138:\n      tag_140\n      jump\t// in\n        /* \"contracts/DingDong.sol\":561:860  function sendDing(uint16 destChainId) public payable {... */\n    tag_22:\n      tag_40\n      tag_142\n      calldatasize\n      0x04\n      tag_47\n      jump\t// in\n    tag_142:\n      tag_143\n      jump\t// in\n        /* \"https://github.com/LayerZero-Labs/solidity-examples/blob/main/contracts/lzApp/LzApp.sol\":568:623  uint public constant DEFAULT_PAYLOAD_SIZE_LIMIT = 10000 */\n    tag_23:\n      callvalue\n      dup1\n      iszero\n      tag_144\n      jumpi\n      0x00\n      dup1\n      revert\n    tag_144:\n      pop\n      tag_66\n        /* \"https://github.com/LayerZero-Labs/solidity-examples/blob/main/contracts/lzApp/LzApp.sol\":618:623  10000 */\n      0x2710\n        /* \"https://github.com/LayerZero-Labs/solidity-examples/blob/main/contracts/lzApp/LzApp.sol\":568:623  uint public constant DEFAULT_PAYLOAD_SIZE_LIMIT = 10000 */\n      dup2\n      jump\n        /* \"https://github.com/LayerZero-Labs/solidity-examples/blob/main/contracts/lzApp/LzApp.sol\":4545:4785  function setConfig(... */\n    tag_24:\n      callvalue\n      dup1\n      iszero\n      tag_148\n      jumpi\n      0x00\n      dup1\n      revert\n    tag_148:\n      pop\n      tag_40\n      tag_150\n      calldatasize\n      0x04\n      tag_151\n      jump\t// in\n    tag_150:\n      tag_152\n      jump\t// in\n        /* \"https://github.com/LayerZero-Labs/solidity-examples/blob/main/contracts/lzApp/NonblockingLzApp.sol\":2511:3306  function retryMessage(... */\n    tag_25:\n      tag_40\n      tag_154\n      calldatasize\n      0x04\n      tag_42\n      jump\t// in\n    tag_154:\n      tag_155\n      jump\t// in\n        /* \"https://github.com/LayerZero-Labs/solidity-examples/blob/main/contracts/lzApp/LzApp.sol\":6335:6590  function setMinDstGas(... */\n    tag_26:\n      callvalue\n      dup1\n      iszero\n      tag_156\n      jumpi\n      0x00\n      dup1\n      revert\n    tag_156:\n      pop\n      tag_40\n      tag_158\n      calldatasize\n      0x04\n      tag_159\n      jump\t// in\n    tag_158:\n      tag_160\n      jump\t// in\n        /* \"contracts/DingDong.sol\":216:257  string public message = \"waiting to ding\" */\n    tag_27:\n      callvalue\n      dup1\n      iszero\n      tag_161\n      jumpi\n      0x00\n      dup1\n      revert\n    tag_161:\n      pop\n      tag_95\n      tag_163\n      jump\t// in\n        /* \"https://github.com/LayerZero-Labs/solidity-examples/blob/main/contracts/lzApp/LzApp.sol\":5370:5574  function setTrustedRemote(uint16 _remoteChainId, bytes calldata _path) external onlyOwner {... */\n    tag_28:\n      callvalue\n      dup1\n      iszero\n      tag_166\n      jumpi\n      0x00\n      dup1\n      revert\n    tag_166:\n      pop\n      tag_40\n      tag_168\n      calldatasize\n      0x04\n      tag_61\n      jump\t// in\n    tag_168:\n      tag_169\n      jump\t// in\n        /* \"@openzeppelin/contracts/access/Ownable.sol\":2074:2272  function transferOwnership(address newOwner) public virtual onlyOwner {... */\n    tag_29:\n      callvalue\n      dup1\n      iszero\n      tag_170\n      jumpi\n      0x00\n      dup1\n      revert\n    tag_170:\n      pop\n      tag_40\n      tag_172\n      calldatasize\n      0x04\n      tag_139\n      jump\t// in\n    tag_172:\n      tag_173\n      jump\t// in\n        /* \"https://github.com/LayerZero-Labs/solidity-examples/blob/main/contracts/lzApp/LzApp.sol\":4239:4486  function getConfig(... */\n    tag_30:\n      callvalue\n      dup1\n      iszero\n      tag_174\n      jumpi\n      0x00\n      dup1\n      revert\n    tag_174:\n      pop\n      tag_95\n      tag_176\n      calldatasize\n      0x04\n      tag_177\n      jump\t// in\n    tag_176:\n      tag_178\n      jump\t// in\n        /* \"contracts/DingDong.sol\":868:1167  function sendDong(uint16 destChainId) public payable {... */\n    tag_31:\n      tag_40\n      tag_181\n      calldatasize\n      0x04\n      tag_47\n      jump\t// in\n    tag_181:\n      tag_182\n      jump\t// in\n        /* \"https://github.com/LayerZero-Labs/solidity-examples/blob/main/contracts/lzApp/LzApp.sol\":1256:2081  function lzReceive(... */\n    tag_43:\n        /* \"@openzeppelin/contracts/utils/Context.sol\":719:729  msg.sender */\n      caller\n        /* \"https://github.com/LayerZero-Labs/solidity-examples/blob/main/contracts/lzApp/LzApp.sol\":1532:1542  lzEndpoint */\n      immutable(\"0xec6208b88575f43118050c78bff29168f189541daa8140d9ea92f610471bcfa1\")\n      sub(shl(0xa0, 0x01), 0x01)\n        /* \"https://github.com/LayerZero-Labs/solidity-examples/blob/main/contracts/lzApp/LzApp.sol\":1508:1543  _msgSender() == address(lzEndpoint) */\n      and\n      eq\n        /* \"https://github.com/LayerZero-Labs/solidity-examples/blob/main/contracts/lzApp/LzApp.sol\":1500:1578  require(_msgSender() == address(lzEndpoint), \"LzApp: invalid endpoint caller\") */\n      tag_186\n      jumpi\n      mload(0x40)\n      shl(0xe5, 0x461bcd)\n      dup2\n      mstore\n        /* \"#utility.yul\":9565:9567   */\n      0x20\n        /* \"https://github.com/LayerZero-Labs/solidity-examples/blob/main/contracts/lzApp/LzApp.sol\":1500:1578  require(_msgSender() == address(lzEndpoint), \"LzApp: invalid endpoint caller\") */\n      0x04\n      dup3\n      add\n        /* \"#utility.yul\":9547:9568   */\n      mstore\n        /* \"#utility.yul\":9604:9606   */\n      0x1e\n        /* \"#utility.yul\":9584:9602   */\n      0x24\n      dup3\n      add\n        /* \"#utility.yul\":9577:9607   */\n      mstore\n        /* \"#utility.yul\":9643:9675   */\n      0x4c7a4170703a20696e76616c696420656e64706f696e742063616c6c65720000\n        /* \"#utility.yul\":9623:9641   */\n      0x44\n      dup3\n      add\n        /* \"#utility.yul\":9616:9676   */\n      mstore\n        /* \"#utility.yul\":9693:9711   */\n      0x64\n      add\n        /* \"https://github.com/LayerZero-Labs/solidity-examples/blob/main/contracts/lzApp/LzApp.sol\":1500:1578  require(_msgSender() == address(lzEndpoint), \"LzApp: invalid endpoint caller\") */\n    tag_187:\n      mload(0x40)\n      dup1\n      swap2\n      sub\n      swap1\n      revert\n    tag_186:\n        /* \"https://github.com/LayerZero-Labs/solidity-examples/blob/main/contracts/lzApp/LzApp.sol\":1618:1650  trustedRemoteLookup[_srcChainId] */\n      0xffff\n      dup7\n      and\n        /* \"https://github.com/LayerZero-Labs/solidity-examples/blob/main/contracts/lzApp/LzApp.sol\":1589:1615  bytes memory trustedRemote */\n      0x00\n        /* \"https://github.com/LayerZero-Labs/solidity-examples/blob/main/contracts/lzApp/LzApp.sol\":1618:1650  trustedRemoteLookup[_srcChainId] */\n      swap1\n      dup2\n      mstore\n        /* \"https://github.com/LayerZero-Labs/solidity-examples/blob/main/contracts/lzApp/LzApp.sol\":1618:1637  trustedRemoteLookup */\n      0x01\n        /* \"https://github.com/LayerZero-Labs/solidity-examples/blob/main/contracts/lzApp/LzApp.sol\":1618:1650  trustedRemoteLookup[_srcChainId] */\n      0x20\n      mstore\n      0x40\n      dup2\n      keccak256\n        /* \"https://github.com/LayerZero-Labs/solidity-examples/blob/main/contracts/lzApp/LzApp.sol\":1589:1650  bytes memory trustedRemote = trustedRemoteLookup[_srcChainId] */\n      dup1\n      sload\n      tag_189\n      swap1\n      tag_190\n      jump\t// in\n    tag_189:\n      dup1\n      0x1f\n      add\n      0x20\n      dup1\n      swap2\n      div\n      mul\n      0x20\n      add\n      mload(0x40)\n      swap1\n      dup2\n      add\n      0x40\n      mstore\n      dup1\n      swap3\n      swap2\n      swap1\n      dup2\n      dup2\n      mstore\n      0x20\n      add\n      dup3\n      dup1\n      sload\n      tag_191\n      swap1\n      tag_190\n      jump\t// in\n    tag_191:\n      dup1\n      iszero\n      tag_192\n      jumpi\n      dup1\n      0x1f\n      lt\n      tag_193\n      jumpi\n      0x0100\n      dup1\n      dup4\n      sload\n      div\n      mul\n      dup4\n      mstore\n      swap2\n      0x20\n      add\n      swap2\n      jump(tag_192)\n    tag_193:\n      dup3\n      add\n      swap2\n      swap1\n      0x00\n      mstore\n      keccak256(0x00, 0x20)\n      swap1\n    tag_194:\n      dup2\n      sload\n      dup2\n      mstore\n      swap1\n      0x01\n      add\n      swap1\n      0x20\n      add\n      dup1\n      dup4\n      gt\n      tag_194\n      jumpi\n      dup3\n      swap1\n      sub\n      0x1f\n      and\n      dup3\n      add\n      swap2\n    tag_192:\n      pop\n      pop\n      pop\n      pop\n      pop\n      swap1\n      pop\n        /* \"https://github.com/LayerZero-Labs/solidity-examples/blob/main/contracts/lzApp/LzApp.sol\":1835:1848  trustedRemote */\n      dup1\n        /* \"https://github.com/LayerZero-Labs/solidity-examples/blob/main/contracts/lzApp/LzApp.sol\":1835:1855  trustedRemote.length */\n      mload\n        /* \"https://github.com/LayerZero-Labs/solidity-examples/blob/main/contracts/lzApp/LzApp.sol\":1813:1824  _srcAddress */\n      dup7\n      dup7\n        /* \"https://github.com/LayerZero-Labs/solidity-examples/blob/main/contracts/lzApp/LzApp.sol\":1813:1831  _srcAddress.length */\n      swap1\n      pop\n        /* \"https://github.com/LayerZero-Labs/solidity-examples/blob/main/contracts/lzApp/LzApp.sol\":1813:1855  _srcAddress.length == trustedRemote.length */\n      eq\n        /* \"https://github.com/LayerZero-Labs/solidity-examples/blob/main/contracts/lzApp/LzApp.sol\":1813:1883  _srcAddress.length == trustedRemote.length && trustedRemote.length > 0 */\n      dup1\n      iszero\n      tag_195\n      jumpi\n      pop\n        /* \"https://github.com/LayerZero-Labs/solidity-examples/blob/main/contracts/lzApp/LzApp.sol\":1882:1883  0 */\n      0x00\n        /* \"https://github.com/LayerZero-Labs/solidity-examples/blob/main/contracts/lzApp/LzApp.sol\":1859:1872  trustedRemote */\n      dup2\n        /* \"https://github.com/LayerZero-Labs/solidity-examples/blob/main/contracts/lzApp/LzApp.sol\":1859:1879  trustedRemote.length */\n      mload\n        /* \"https://github.com/LayerZero-Labs/solidity-examples/blob/main/contracts/lzApp/LzApp.sol\":1859:1883  trustedRemote.length > 0 */\n      gt\n        /* \"https://github.com/LayerZero-Labs/solidity-examples/blob/main/contracts/lzApp/LzApp.sol\":1813:1883  _srcAddress.length == trustedRemote.length && trustedRemote.length > 0 */\n    tag_195:\n        /* \"https://github.com/LayerZero-Labs/solidity-examples/blob/main/contracts/lzApp/LzApp.sol\":1813:1937  _srcAddress.length == trustedRemote.length && trustedRemote.length > 0 && keccak256(_srcAddress) == keccak256(trustedRemote) */\n      dup1\n      iszero\n      tag_196\n      jumpi\n      pop\n        /* \"https://github.com/LayerZero-Labs/solidity-examples/blob/main/contracts/lzApp/LzApp.sol\":1913:1937  keccak256(trustedRemote) */\n      dup1\n      mload\n      0x20\n      dup3\n      add\n      keccak256\n        /* \"https://github.com/LayerZero-Labs/solidity-examples/blob/main/contracts/lzApp/LzApp.sol\":1887:1909  keccak256(_srcAddress) */\n      mload(0x40)\n      tag_197\n      swap1\n        /* \"https://github.com/LayerZero-Labs/solidity-examples/blob/main/contracts/lzApp/LzApp.sol\":1897:1908  _srcAddress */\n      dup9\n      swap1\n      dup9\n      swap1\n        /* \"https://github.com/LayerZero-Labs/solidity-examples/blob/main/contracts/lzApp/LzApp.sol\":1887:1909  keccak256(_srcAddress) */\n      tag_198\n      jump\t// in\n    tag_197:\n      mload(0x40)\n      dup1\n      swap2\n      sub\n      swap1\n      keccak256\n        /* \"https://github.com/LayerZero-Labs/solidity-examples/blob/main/contracts/lzApp/LzApp.sol\":1887:1937  keccak256(_srcAddress) == keccak256(trustedRemote) */\n      eq\n        /* \"https://github.com/LayerZero-Labs/solidity-examples/blob/main/contracts/lzApp/LzApp.sol\":1813:1937  _srcAddress.length == trustedRemote.length && trustedRemote.length > 0 && keccak256(_srcAddress) == keccak256(trustedRemote) */\n    tag_196:\n        /* \"https://github.com/LayerZero-Labs/solidity-examples/blob/main/contracts/lzApp/LzApp.sol\":1792:2001  require(... */\n      tag_199\n      jumpi\n      mload(0x40)\n      shl(0xe5, 0x461bcd)\n      dup2\n      mstore\n        /* \"#utility.yul\":10585:10587   */\n      0x20\n        /* \"https://github.com/LayerZero-Labs/solidity-examples/blob/main/contracts/lzApp/LzApp.sol\":1792:2001  require(... */\n      0x04\n      dup3\n      add\n        /* \"#utility.yul\":10567:10588   */\n      mstore\n        /* \"#utility.yul\":10624:10626   */\n      0x26\n        /* \"#utility.yul\":10604:10622   */\n      0x24\n      dup3\n      add\n        /* \"#utility.yul\":10597:10627   */\n      mstore\n        /* \"#utility.yul\":10663:10697   */\n      0x4c7a4170703a20696e76616c696420736f757263652073656e64696e6720636f\n        /* \"#utility.yul\":10643:10661   */\n      0x44\n      dup3\n      add\n        /* \"#utility.yul\":10636:10698   */\n      mstore\n      shl(0xd2, 0x1b9d1c9858dd)\n        /* \"#utility.yul\":10714:10732   */\n      0x64\n      dup3\n      add\n        /* \"#utility.yul\":10707:10743   */\n      mstore\n        /* \"#utility.yul\":10760:10779   */\n      0x84\n      add\n        /* \"https://github.com/LayerZero-Labs/solidity-examples/blob/main/contracts/lzApp/LzApp.sol\":1792:2001  require(... */\n      tag_187\n        /* \"#utility.yul\":10383:10785   */\n      jump\n        /* \"https://github.com/LayerZero-Labs/solidity-examples/blob/main/contracts/lzApp/LzApp.sol\":1792:2001  require(... */\n    tag_199:\n        /* \"https://github.com/LayerZero-Labs/solidity-examples/blob/main/contracts/lzApp/LzApp.sol\":2012:2074  _blockingLzReceive(_srcChainId, _srcAddress, _nonce, _payload) */\n      tag_202\n        /* \"https://github.com/LayerZero-Labs/solidity-examples/blob/main/contracts/lzApp/LzApp.sol\":2031:2042  _srcChainId */\n      dup8\n        /* \"https://github.com/LayerZero-Labs/solidity-examples/blob/main/contracts/lzApp/LzApp.sol\":2044:2055  _srcAddress */\n      dup8\n      dup8\n        /* \"https://github.com/LayerZero-Labs/solidity-examples/blob/main/contracts/lzApp/LzApp.sol\":2012:2074  _blockingLzReceive(_srcChainId, _srcAddress, _nonce, _payload) */\n      dup1\n      dup1\n      0x1f\n      add\n      0x20\n      dup1\n      swap2\n      div\n      mul\n      0x20\n      add\n      mload(0x40)\n      swap1\n      dup2\n      add\n      0x40\n      mstore\n      dup1\n      swap4\n      swap3\n      swap2\n      swap1\n      dup2\n      dup2\n      mstore\n      0x20\n      add\n      dup4\n      dup4\n      dup1\n      dup3\n      dup5\n      calldatacopy\n      0x00\n      swap3\n      add\n      swap2\n      swap1\n      swap2\n      mstore\n      pop\n      pop\n      0x40\n      dup1\n      mload\n      0x20\n      0x1f\n      dup11\n      add\n      dup2\n      swap1\n      div\n      dup2\n      mul\n      dup3\n      add\n      dup2\n      add\n      swap1\n      swap3\n      mstore\n      dup9\n      dup2\n      mstore\n        /* \"https://github.com/LayerZero-Labs/solidity-examples/blob/main/contracts/lzApp/LzApp.sol\":2057:2063  _nonce */\n      dup11\n      swap4\n      pop\n        /* \"https://github.com/LayerZero-Labs/solidity-examples/blob/main/contracts/lzApp/LzApp.sol\":2012:2074  _blockingLzReceive(_srcChainId, _srcAddress, _nonce, _payload) */\n      swap2\n      pop\n        /* \"https://github.com/LayerZero-Labs/solidity-examples/blob/main/contracts/lzApp/LzApp.sol\":2065:2073  _payload */\n      dup9\n      swap1\n      dup9\n      swap1\n      dup2\n      swap1\n        /* \"https://github.com/LayerZero-Labs/solidity-examples/blob/main/contracts/lzApp/LzApp.sol\":2012:2074  _blockingLzReceive(_srcChainId, _srcAddress, _nonce, _payload) */\n      dup5\n      add\n        /* \"https://github.com/LayerZero-Labs/solidity-examples/blob/main/contracts/lzApp/LzApp.sol\":2065:2073  _payload */\n      dup4\n      dup3\n      dup1\n      dup3\n        /* \"https://github.com/LayerZero-Labs/solidity-examples/blob/main/contracts/lzApp/LzApp.sol\":2012:2074  _blockingLzReceive(_srcChainId, _srcAddress, _nonce, _payload) */\n      dup5\n      calldatacopy\n      0x00\n      swap3\n      add\n      swap2\n      swap1\n      swap2\n      mstore\n      pop\n        /* \"https://github.com/LayerZero-Labs/solidity-examples/blob/main/contracts/lzApp/LzApp.sol\":2012:2030  _blockingLzReceive */\n      tag_203\n      swap3\n      pop\n      pop\n      pop\n        /* \"https://github.com/LayerZero-Labs/solidity-examples/blob/main/contracts/lzApp/LzApp.sol\":2012:2074  _blockingLzReceive(_srcChainId, _srcAddress, _nonce, _payload) */\n      jump\t// in\n    tag_202:\n        /* \"https://github.com/LayerZero-Labs/solidity-examples/blob/main/contracts/lzApp/LzApp.sol\":1425:2081  {... */\n      pop\n        /* \"https://github.com/LayerZero-Labs/solidity-examples/blob/main/contracts/lzApp/LzApp.sol\":1256:2081  function lzReceive(... */\n      pop\n      pop\n      pop\n      pop\n      pop\n      pop\n      jump\t// out\n        /* \"https://github.com/LayerZero-Labs/solidity-examples/blob/main/contracts/lzApp/LzApp.sol\":4791:4912  function setSendVersion(uint16 _version) external override onlyOwner {... */\n    tag_48:\n        /* \"@openzeppelin/contracts/access/Ownable.sol\":1094:1107  _checkOwner() */\n      tag_205\n        /* \"@openzeppelin/contracts/access/Ownable.sol\":1094:1105  _checkOwner */\n      tag_206\n        /* \"@openzeppelin/contracts/access/Ownable.sol\":1094:1107  _checkOwner() */\n      jump\t// in\n    tag_205:\n        /* \"https://github.com/LayerZero-Labs/solidity-examples/blob/main/contracts/lzApp/LzApp.sol\":4870:4905  lzEndpoint.setSendVersion(_version) */\n      mload(0x40)\n      shl(0xe0, 0x07e0db17)\n      dup2\n      mstore\n        /* \"#utility.yul\":10964:10970   */\n      0xffff\n        /* \"#utility.yul\":10952:10971   */\n      dup3\n      and\n        /* \"https://github.com/LayerZero-Labs/solidity-examples/blob/main/contracts/lzApp/LzApp.sol\":4870:4905  lzEndpoint.setSendVersion(_version) */\n      0x04\n      dup3\n      add\n        /* \"#utility.yul\":10934:10972   */\n      mstore\n        /* \"https://github.com/LayerZero-Labs/solidity-examples/blob/main/contracts/lzApp/LzApp.sol\":4870:4880  lzEndpoint */\n      immutable(\"0xec6208b88575f43118050c78bff29168f189541daa8140d9ea92f610471bcfa1\")\n      sub(shl(0xa0, 0x01), 0x01)\n        /* \"https://github.com/LayerZero-Labs/solidity-examples/blob/main/contracts/lzApp/LzApp.sol\":4870:4895  lzEndpoint.setSendVersion */\n      and\n      swap1\n      0x07e0db17\n      swap1\n        /* \"#utility.yul\":10907:10925   */\n      0x24\n      add\n        /* \"https://github.com/LayerZero-Labs/solidity-examples/blob/main/contracts/lzApp/LzApp.sol\":4870:4905  lzEndpoint.setSendVersion(_version) */\n    tag_208:\n      0x00\n      mload(0x40)\n      dup1\n      dup4\n      sub\n      dup2\n      0x00\n      dup8\n      dup1\n      extcodesize\n      iszero\n      dup1\n      iszero\n      tag_210\n      jumpi\n      0x00\n      dup1\n      revert\n    tag_210:\n      pop\n      gas\n      call\n      iszero\n      dup1\n      iszero\n      tag_212\n      jumpi\n      returndatasize\n      0x00\n      dup1\n      returndatacopy\n      revert(0x00, returndatasize)\n    tag_212:\n      pop\n      pop\n      pop\n      pop\n        /* \"https://github.com/LayerZero-Labs/solidity-examples/blob/main/contracts/lzApp/LzApp.sol\":4791:4912  function setSendVersion(uint16 _version) external override onlyOwner {... */\n      pop\n      jump\t// out\n        /* \"https://github.com/LayerZero-Labs/solidity-examples/blob/main/contracts/lzApp/LzApp.sol\":6649:6789  function setPayloadSizeLimit(uint16 _dstChainId, uint _size) external onlyOwner {... */\n    tag_53:\n        /* \"@openzeppelin/contracts/access/Ownable.sol\":1094:1107  _checkOwner() */\n      tag_214\n        /* \"@openzeppelin/contracts/access/Ownable.sol\":1094:1105  _checkOwner */\n      tag_206\n        /* \"@openzeppelin/contracts/access/Ownable.sol\":1094:1107  _checkOwner() */\n      jump\t// in\n    tag_214:\n        /* \"https://github.com/LayerZero-Labs/solidity-examples/blob/main/contracts/lzApp/LzApp.sol\":6739:6774  payloadSizeLimitLookup[_dstChainId] */\n      0xffff\n      swap1\n      swap2\n      and\n      0x00\n      swap1\n      dup2\n      mstore\n        /* \"https://github.com/LayerZero-Labs/solidity-examples/blob/main/contracts/lzApp/LzApp.sol\":6739:6761  payloadSizeLimitLookup */\n      0x03\n        /* \"https://github.com/LayerZero-Labs/solidity-examples/blob/main/contracts/lzApp/LzApp.sol\":6739:6774  payloadSizeLimitLookup[_dstChainId] */\n      0x20\n      mstore\n      0x40\n      swap1\n      keccak256\n        /* \"https://github.com/LayerZero-Labs/solidity-examples/blob/main/contracts/lzApp/LzApp.sol\":6739:6782  payloadSizeLimitLookup[_dstChainId] = _size */\n      sstore\n        /* \"https://github.com/LayerZero-Labs/solidity-examples/blob/main/contracts/lzApp/LzApp.sol\":6649:6789  function setPayloadSizeLimit(uint16 _dstChainId, uint _size) external onlyOwner {... */\n      jump\t// out\n        /* \"https://github.com/LayerZero-Labs/solidity-examples/blob/main/contracts/lzApp/LzApp.sol\":4918:5045  function setReceiveVersion(uint16 _version) external override onlyOwner {... */\n    tag_57:\n        /* \"@openzeppelin/contracts/access/Ownable.sol\":1094:1107  _checkOwner() */\n      tag_217\n        /* \"@openzeppelin/contracts/access/Ownable.sol\":1094:1105  _checkOwner */\n      tag_206\n        /* \"@openzeppelin/contracts/access/Ownable.sol\":1094:1107  _checkOwner() */\n      jump\t// in\n    tag_217:\n        /* \"https://github.com/LayerZero-Labs/solidity-examples/blob/main/contracts/lzApp/LzApp.sol\":5000:5038  lzEndpoint.setReceiveVersion(_version) */\n      mload(0x40)\n      shl(0xe0, 0x10ddb137)\n      dup2\n      mstore\n        /* \"#utility.yul\":10964:10970   */\n      0xffff\n        /* \"#utility.yul\":10952:10971   */\n      dup3\n      and\n        /* \"https://github.com/LayerZero-Labs/solidity-examples/blob/main/contracts/lzApp/LzApp.sol\":5000:5038  lzEndpoint.setReceiveVersion(_version) */\n      0x04\n      dup3\n      add\n        /* \"#utility.yul\":10934:10972   */\n      mstore\n        /* \"https://github.com/LayerZero-Labs/solidity-examples/blob/main/contracts/lzApp/LzApp.sol\":5000:5010  lzEndpoint */\n      immutable(\"0xec6208b88575f43118050c78bff29168f189541daa8140d9ea92f610471bcfa1\")\n      sub(shl(0xa0, 0x01), 0x01)\n        /* \"https://github.com/LayerZero-Labs/solidity-examples/blob/main/contracts/lzApp/LzApp.sol\":5000:5028  lzEndpoint.setReceiveVersion */\n      and\n      swap1\n      0x10ddb137\n      swap1\n        /* \"#utility.yul\":10907:10925   */\n      0x24\n      add\n        /* \"https://github.com/LayerZero-Labs/solidity-examples/blob/main/contracts/lzApp/LzApp.sol\":5000:5038  lzEndpoint.setReceiveVersion(_version) */\n      tag_208\n        /* \"#utility.yul\":10790:10978   */\n      jump\n        /* \"https://github.com/LayerZero-Labs/solidity-examples/blob/main/contracts/lzApp/LzApp.sol\":6884:7131  function isTrustedRemote(uint16 _srcChainId, bytes calldata _srcAddress) external view returns (bool) {... */\n    tag_62:\n        /* \"https://github.com/LayerZero-Labs/solidity-examples/blob/main/contracts/lzApp/LzApp.sol\":7025:7057  trustedRemoteLookup[_srcChainId] */\n      0xffff\n      dup4\n      and\n        /* \"https://github.com/LayerZero-Labs/solidity-examples/blob/main/contracts/lzApp/LzApp.sol\":6980:6984  bool */\n      0x00\n        /* \"https://github.com/LayerZero-Labs/solidity-examples/blob/main/contracts/lzApp/LzApp.sol\":7025:7057  trustedRemoteLookup[_srcChainId] */\n      swap1\n      dup2\n      mstore\n        /* \"https://github.com/LayerZero-Labs/solidity-examples/blob/main/contracts/lzApp/LzApp.sol\":7025:7044  trustedRemoteLookup */\n      0x01\n        /* \"https://github.com/LayerZero-Labs/solidity-examples/blob/main/contracts/lzApp/LzApp.sol\":7025:7057  trustedRemoteLookup[_srcChainId] */\n      0x20\n      mstore\n      0x40\n      dup2\n      keccak256\n        /* \"https://github.com/LayerZero-Labs/solidity-examples/blob/main/contracts/lzApp/LzApp.sol\":6996:7057  bytes memory trustedSource = trustedRemoteLookup[_srcChainId] */\n      dup1\n      sload\n        /* \"https://github.com/LayerZero-Labs/solidity-examples/blob/main/contracts/lzApp/LzApp.sol\":6980:6984  bool */\n      dup3\n      swap2\n        /* \"https://github.com/LayerZero-Labs/solidity-examples/blob/main/contracts/lzApp/LzApp.sol\":7025:7057  trustedRemoteLookup[_srcChainId] */\n      swap1\n        /* \"https://github.com/LayerZero-Labs/solidity-examples/blob/main/contracts/lzApp/LzApp.sol\":6996:7057  bytes memory trustedSource = trustedRemoteLookup[_srcChainId] */\n      tag_224\n      swap1\n      tag_190\n      jump\t// in\n    tag_224:\n      dup1\n      0x1f\n      add\n      0x20\n      dup1\n      swap2\n      div\n      mul\n      0x20\n      add\n      mload(0x40)\n      swap1\n      dup2\n      add\n      0x40\n      mstore\n      dup1\n      swap3\n      swap2\n      swap1\n      dup2\n      dup2\n      mstore\n      0x20\n      add\n      dup3\n      dup1\n      sload\n      tag_225\n      swap1\n      tag_190\n      jump\t// in\n    tag_225:\n      dup1\n      iszero\n      tag_226\n      jumpi\n      dup1\n      0x1f\n      lt\n      tag_227\n      jumpi\n      0x0100\n      dup1\n      dup4\n      sload\n      div\n      mul\n      dup4\n      mstore\n      swap2\n      0x20\n      add\n      swap2\n      jump(tag_226)\n    tag_227:\n      dup3\n      add\n      swap2\n      swap1\n      0x00\n      mstore\n      keccak256(0x00, 0x20)\n      swap1\n    tag_228:\n      dup2\n      sload\n      dup2\n      mstore\n      swap1\n      0x01\n      add\n      swap1\n      0x20\n      add\n      dup1\n      dup4\n      gt\n      tag_228\n      jumpi\n      dup3\n      swap1\n      sub\n      0x1f\n      and\n      dup3\n      add\n      swap2\n    tag_226:\n      pop\n      pop\n      pop\n      pop\n      pop\n      swap1\n      pop\n        /* \"https://github.com/LayerZero-Labs/solidity-examples/blob/main/contracts/lzApp/LzApp.sol\":7112:7123  _srcAddress */\n      dup4\n      dup4\n        /* \"https://github.com/LayerZero-Labs/solidity-examples/blob/main/contracts/lzApp/LzApp.sol\":7102:7124  keccak256(_srcAddress) */\n      mload(0x40)\n      tag_229\n      swap3\n      swap2\n      swap1\n      tag_198\n      jump\t// in\n    tag_229:\n      mload(0x40)\n      dup1\n      swap2\n      sub\n      swap1\n      keccak256\n        /* \"https://github.com/LayerZero-Labs/solidity-examples/blob/main/contracts/lzApp/LzApp.sol\":7084:7097  trustedSource */\n      dup2\n        /* \"https://github.com/LayerZero-Labs/solidity-examples/blob/main/contracts/lzApp/LzApp.sol\":7074:7098  keccak256(trustedSource) */\n      dup1\n      mload\n      swap1\n      0x20\n      add\n      keccak256\n        /* \"https://github.com/LayerZero-Labs/solidity-examples/blob/main/contracts/lzApp/LzApp.sol\":7074:7124  keccak256(trustedSource) == keccak256(_srcAddress) */\n      eq\n        /* \"https://github.com/LayerZero-Labs/solidity-examples/blob/main/contracts/lzApp/LzApp.sol\":7067:7124  return keccak256(trustedSource) == keccak256(_srcAddress) */\n      swap2\n      pop\n      pop\n        /* \"https://github.com/LayerZero-Labs/solidity-examples/blob/main/contracts/lzApp/LzApp.sol\":6884:7131  function isTrustedRemote(uint16 _srcChainId, bytes calldata _srcAddress) external view returns (bool) {... */\n    tag_223:\n      swap4\n      swap3\n      pop\n      pop\n      pop\n      jump\t// out\n        /* \"https://github.com/LayerZero-Labs/solidity-examples/blob/main/contracts/lzApp/LzApp.sol\":5051:5227  function forceResumeReceive(uint16 _srcChainId, bytes calldata _srcAddress) external override onlyOwner {... */\n    tag_74:\n        /* \"@openzeppelin/contracts/access/Ownable.sol\":1094:1107  _checkOwner() */\n      tag_231\n        /* \"@openzeppelin/contracts/access/Ownable.sol\":1094:1105  _checkOwner */\n      tag_206\n        /* \"@openzeppelin/contracts/access/Ownable.sol\":1094:1107  _checkOwner() */\n      jump\t// in\n    tag_231:\n        /* \"https://github.com/LayerZero-Labs/solidity-examples/blob/main/contracts/lzApp/LzApp.sol\":5165:5220  lzEndpoint.forceResumeReceive(_srcChainId, _srcAddress) */\n      mload(0x40)\n      shl(0xe0, 0x42d65a8d)\n      dup2\n      mstore\n      sub(shl(0xa0, 0x01), 0x01)\n        /* \"https://github.com/LayerZero-Labs/solidity-examples/blob/main/contracts/lzApp/LzApp.sol\":5165:5175  lzEndpoint */\n      immutable(\"0xec6208b88575f43118050c78bff29168f189541daa8140d9ea92f610471bcfa1\")\n        /* \"https://github.com/LayerZero-Labs/solidity-examples/blob/main/contracts/lzApp/LzApp.sol\":5165:5194  lzEndpoint.forceResumeReceive */\n      and\n      swap1\n      0x42d65a8d\n      swap1\n        /* \"https://github.com/LayerZero-Labs/solidity-examples/blob/main/contracts/lzApp/LzApp.sol\":5165:5220  lzEndpoint.forceResumeReceive(_srcChainId, _srcAddress) */\n      tag_233\n      swap1\n        /* \"https://github.com/LayerZero-Labs/solidity-examples/blob/main/contracts/lzApp/LzApp.sol\":5195:5206  _srcChainId */\n      dup7\n      swap1\n        /* \"https://github.com/LayerZero-Labs/solidity-examples/blob/main/contracts/lzApp/LzApp.sol\":5208:5219  _srcAddress */\n      dup7\n      swap1\n      dup7\n      swap1\n        /* \"https://github.com/LayerZero-Labs/solidity-examples/blob/main/contracts/lzApp/LzApp.sol\":5165:5220  lzEndpoint.forceResumeReceive(_srcChainId, _srcAddress) */\n      0x04\n      add\n      tag_234\n      jump\t// in\n    tag_233:\n      0x00\n      mload(0x40)\n      dup1\n      dup4\n      sub\n      dup2\n      0x00\n      dup8\n      dup1\n      extcodesize\n      iszero\n      dup1\n      iszero\n      tag_235\n      jumpi\n      0x00\n      dup1\n      revert\n    tag_235:\n      pop\n      gas\n      call\n      iszero\n      dup1\n      iszero\n      tag_202\n      jumpi\n      returndatasize\n      0x00\n      dup1\n      returndatacopy\n      revert(0x00, returndatasize)\n        /* \"contracts/DingDong.sol\":1175:1422  function trustDingDong(... */\n    tag_79:\n        /* \"@openzeppelin/contracts/access/Ownable.sol\":1094:1107  _checkOwner() */\n      tag_239\n        /* \"@openzeppelin/contracts/access/Ownable.sol\":1094:1105  _checkOwner */\n      tag_206\n        /* \"@openzeppelin/contracts/access/Ownable.sol\":1094:1107  _checkOwner() */\n      jump\t// in\n    tag_239:\n        /* \"contracts/DingDong.sol\":1330:1414  abi.encodePacked(... */\n      mload(0x40)\n      not(0xffffffffffffffffffffffff)\n        /* \"#utility.yul\":11812:11814   */\n      0x60\n        /* \"#utility.yul\":11808:11823   */\n      dup4\n      dup2\n      shl\n        /* \"#utility.yul\":11804:11828   */\n      dup3\n      and\n        /* \"contracts/DingDong.sol\":1330:1414  abi.encodePacked(... */\n      0x20\n      dup5\n      add\n        /* \"#utility.yul\":11792:11829   */\n      mstore\n        /* \"contracts/DingDong.sol\":1398:1402  this */\n      address\n        /* \"#utility.yul\":11863:11878   */\n      swap1\n      shl\n        /* \"#utility.yul\":11859:11883   */\n      and\n        /* \"#utility.yul\":11845:11857   */\n      0x34\n      dup3\n      add\n        /* \"#utility.yul\":11838:11884   */\n      mstore\n        /* \"#utility.yul\":11900:11912   */\n      0x48\n      add\n        /* \"contracts/DingDong.sol\":1330:1414  abi.encodePacked(... */\n      0x40\n      dup1\n      mload\n      not(0x1f)\n      dup2\n      dup5\n      sub\n      add\n      dup2\n      mstore\n      swap2\n      dup2\n      mstore\n        /* \"contracts/DingDong.sol\":1295:1327  trustedRemoteLookup[destChainId] */\n      0xffff\n      dup5\n      and\n      0x00\n      swap1\n      dup2\n      mstore\n        /* \"contracts/DingDong.sol\":1295:1314  trustedRemoteLookup */\n      0x01\n        /* \"contracts/DingDong.sol\":1330:1414  abi.encodePacked(... */\n      0x20\n        /* \"contracts/DingDong.sol\":1295:1327  trustedRemoteLookup[destChainId] */\n      mstore\n      keccak256\n      swap1\n        /* \"contracts/DingDong.sol\":1295:1414  trustedRemoteLookup[destChainId] = abi.encodePacked(... */\n      tag_243\n      swap1\n        /* \"contracts/DingDong.sol\":1295:1327  trustedRemoteLookup[destChainId] */\n      dup3\n        /* \"contracts/DingDong.sol\":1295:1414  trustedRemoteLookup[destChainId] = abi.encodePacked(... */\n      tag_244\n      jump\t// in\n    tag_243:\n      pop\n        /* \"contracts/DingDong.sol\":1175:1422  function trustDingDong(... */\n      pop\n      pop\n      jump\t// out\n        /* \"https://github.com/LayerZero-Labs/solidity-examples/blob/main/contracts/lzApp/NonblockingLzApp.sol\":1912:2292  function nonblockingLzReceive(... */\n    tag_90:\n        /* \"@openzeppelin/contracts/utils/Context.sol\":719:729  msg.sender */\n      caller\n        /* \"https://github.com/LayerZero-Labs/solidity-examples/blob/main/contracts/lzApp/NonblockingLzApp.sol\":2162:2166  this */\n      address\n        /* \"https://github.com/LayerZero-Labs/solidity-examples/blob/main/contracts/lzApp/NonblockingLzApp.sol\":2138:2167  _msgSender() == address(this) */\n      eq\n        /* \"https://github.com/LayerZero-Labs/solidity-examples/blob/main/contracts/lzApp/NonblockingLzApp.sol\":2130:2210  require(_msgSender() == address(this), \"NonblockingLzApp: caller must be LzApp\") */\n      tag_247\n      jumpi\n      mload(0x40)\n      shl(0xe5, 0x461bcd)\n      dup2\n      mstore\n        /* \"#utility.yul\":14314:14316   */\n      0x20\n        /* \"https://github.com/LayerZero-Labs/solidity-examples/blob/main/contracts/lzApp/NonblockingLzApp.sol\":2130:2210  require(_msgSender() == address(this), \"NonblockingLzApp: caller must be LzApp\") */\n      0x04\n      dup3\n      add\n        /* \"#utility.yul\":14296:14317   */\n      mstore\n        /* \"#utility.yul\":14353:14355   */\n      0x26\n        /* \"#utility.yul\":14333:14351   */\n      0x24\n      dup3\n      add\n        /* \"#utility.yul\":14326:14356   */\n      mstore\n        /* \"#utility.yul\":14392:14426   */\n      0x4e6f6e626c6f636b696e674c7a4170703a2063616c6c6572206d757374206265\n        /* \"#utility.yul\":14372:14390   */\n      0x44\n      dup3\n      add\n        /* \"#utility.yul\":14365:14427   */\n      mstore\n      shl(0xd4, 0x0204c7a41707)\n        /* \"#utility.yul\":14443:14461   */\n      0x64\n      dup3\n      add\n        /* \"#utility.yul\":14436:14472   */\n      mstore\n        /* \"#utility.yul\":14489:14508   */\n      0x84\n      add\n        /* \"https://github.com/LayerZero-Labs/solidity-examples/blob/main/contracts/lzApp/NonblockingLzApp.sol\":2130:2210  require(_msgSender() == address(this), \"NonblockingLzApp: caller must be LzApp\") */\n      tag_187\n        /* \"#utility.yul\":14112:14514   */\n      jump\n        /* \"https://github.com/LayerZero-Labs/solidity-examples/blob/main/contracts/lzApp/NonblockingLzApp.sol\":2130:2210  require(_msgSender() == address(this), \"NonblockingLzApp: caller must be LzApp\") */\n    tag_247:\n        /* \"https://github.com/LayerZero-Labs/solidity-examples/blob/main/contracts/lzApp/NonblockingLzApp.sol\":2220:2285  _nonblockingLzReceive(_srcChainId, _srcAddress, _nonce, _payload) */\n      tag_250\n        /* \"https://github.com/LayerZero-Labs/solidity-examples/blob/main/contracts/lzApp/NonblockingLzApp.sol\":2242:2253  _srcChainId */\n      dup7\n        /* \"https://github.com/LayerZero-Labs/solidity-examples/blob/main/contracts/lzApp/NonblockingLzApp.sol\":2255:2266  _srcAddress */\n      dup7\n      dup7\n        /* \"https://github.com/LayerZero-Labs/solidity-examples/blob/main/contracts/lzApp/NonblockingLzApp.sol\":2220:2285  _nonblockingLzReceive(_srcChainId, _srcAddress, _nonce, _payload) */\n      dup1\n      dup1\n      0x1f\n      add\n      0x20\n      dup1\n      swap2\n      div\n      mul\n      0x20\n      add\n      mload(0x40)\n      swap1\n      dup2\n      add\n      0x40\n      mstore\n      dup1\n      swap4\n      swap3\n      swap2\n      swap1\n      dup2\n      dup2\n      mstore\n      0x20\n      add\n      dup4\n      dup4\n      dup1\n      dup3\n      dup5\n      calldatacopy\n      0x00\n      swap3\n      add\n      swap2\n      swap1\n      swap2\n      mstore\n      pop\n      pop\n      0x40\n      dup1\n      mload\n      0x20\n      0x1f\n      dup10\n      add\n      dup2\n      swap1\n      div\n      dup2\n      mul\n      dup3\n      add\n      dup2\n      add\n      swap1\n      swap3\n      mstore\n      dup8\n      dup2\n      mstore\n        /* \"https://github.com/LayerZero-Labs/solidity-examples/blob/main/contracts/lzApp/NonblockingLzApp.sol\":2268:2274  _nonce */\n      dup10\n      swap4\n      pop\n        /* \"https://github.com/LayerZero-Labs/solidity-examples/blob/main/contracts/lzApp/NonblockingLzApp.sol\":2220:2285  _nonblockingLzReceive(_srcChainId, _srcAddress, _nonce, _payload) */\n      swap2\n      pop\n        /* \"https://github.com/LayerZero-Labs/solidity-examples/blob/main/contracts/lzApp/NonblockingLzApp.sol\":2276:2284  _payload */\n      dup8\n      swap1\n      dup8\n      swap1\n      dup2\n      swap1\n        /* \"https://github.com/LayerZero-Labs/solidity-examples/blob/main/contracts/lzApp/NonblockingLzApp.sol\":2220:2285  _nonblockingLzReceive(_srcChainId, _srcAddress, _nonce, _payload) */\n      dup5\n      add\n        /* \"https://github.com/LayerZero-Labs/solidity-examples/blob/main/contracts/lzApp/NonblockingLzApp.sol\":2276:2284  _payload */\n      dup4\n      dup3\n      dup1\n      dup3\n        /* \"https://github.com/LayerZero-Labs/solidity-examples/blob/main/contracts/lzApp/NonblockingLzApp.sol\":2220:2285  _nonblockingLzReceive(_srcChainId, _srcAddress, _nonce, _payload) */\n      dup5\n      calldatacopy\n      0x00\n      swap3\n      add\n      swap2\n      swap1\n      swap2\n      mstore\n      pop\n        /* \"https://github.com/LayerZero-Labs/solidity-examples/blob/main/contracts/lzApp/NonblockingLzApp.sol\":2220:2241  _nonblockingLzReceive */\n      tag_251\n      swap3\n      pop\n      pop\n      pop\n        /* \"https://github.com/LayerZero-Labs/solidity-examples/blob/main/contracts/lzApp/NonblockingLzApp.sol\":2220:2285  _nonblockingLzReceive(_srcChainId, _srcAddress, _nonce, _payload) */\n      jump\t// in\n    tag_250:\n        /* \"https://github.com/LayerZero-Labs/solidity-examples/blob/main/contracts/lzApp/NonblockingLzApp.sol\":1912:2292  function nonblockingLzReceive(... */\n      pop\n      pop\n      pop\n      pop\n      pop\n      pop\n      jump\t// out\n        /* \"@openzeppelin/contracts/access/Ownable.sol\":1824:1925  function renounceOwnership() public virtual onlyOwner {... */\n    tag_93:\n        /* \"@openzeppelin/contracts/access/Ownable.sol\":1094:1107  _checkOwner() */\n      tag_253\n        /* \"@openzeppelin/contracts/access/Ownable.sol\":1094:1105  _checkOwner */\n      tag_206\n        /* \"@openzeppelin/contracts/access/Ownable.sol\":1094:1107  _checkOwner() */\n      jump\t// in\n    tag_253:\n        /* \"@openzeppelin/contracts/access/Ownable.sol\":1888:1918  _transferOwnership(address(0)) */\n      tag_255\n        /* \"@openzeppelin/contracts/access/Ownable.sol\":1915:1916  0 */\n      0x00\n        /* \"@openzeppelin/contracts/access/Ownable.sol\":1888:1906  _transferOwnership */\n      tag_256\n        /* \"@openzeppelin/contracts/access/Ownable.sol\":1888:1918  _transferOwnership(address(0)) */\n      jump\t// in\n    tag_255:\n        /* \"@openzeppelin/contracts/access/Ownable.sol\":1824:1925  function renounceOwnership() public virtual onlyOwner {... */\n      jump\t// out\n        /* \"https://github.com/LayerZero-Labs/solidity-examples/blob/main/contracts/lzApp/LzApp.sol\":682:733  mapping(uint16 => bytes) public trustedRemoteLookup */\n    tag_97:\n      mstore(0x20, 0x01)\n      0x00\n      swap1\n      dup2\n      mstore\n      0x40\n      swap1\n      keccak256\n      dup1\n      sload\n      tag_257\n      swap1\n      tag_190\n      jump\t// in\n    tag_257:\n      dup1\n      0x1f\n      add\n      0x20\n      dup1\n      swap2\n      div\n      mul\n      0x20\n      add\n      mload(0x40)\n      swap1\n      dup2\n      add\n      0x40\n      mstore\n      dup1\n      swap3\n      swap2\n      swap1\n      dup2\n      dup2\n      mstore\n      0x20\n      add\n      dup3\n      dup1\n      sload\n      tag_258\n      swap1\n      tag_190\n      jump\t// in\n    tag_258:\n      dup1\n      iszero\n      tag_259\n      jumpi\n      dup1\n      0x1f\n      lt\n      tag_260\n      jumpi\n      0x0100\n      dup1\n      dup4\n      sload\n      div\n      mul\n      dup4\n      mstore\n      swap2\n      0x20\n      add\n      swap2\n      jump(tag_259)\n    tag_260:\n      dup3\n      add\n      swap2\n      swap1\n      0x00\n      mstore\n      keccak256(0x00, 0x20)\n      swap1\n    tag_261:\n      dup2\n      sload\n      dup2\n      mstore\n      swap1\n      0x01\n      add\n      swap1\n      0x20\n      add\n      dup1\n      dup4\n      gt\n      tag_261\n      jumpi\n      dup3\n      swap1\n      sub\n      0x1f\n      and\n      dup3\n      add\n      swap2\n    tag_259:\n      pop\n      pop\n      pop\n      pop\n      pop\n      dup2\n      jump\t// out\n        /* \"contracts/DingDong.sol\":1430:1900  function estimateFeesForDingDong(... */\n    tag_104:\n        /* \"contracts/DingDong.sol\":1591:1608  uint256 nativeFee */\n      0x00\n        /* \"contracts/DingDong.sol\":1610:1624  uint256 zroFee */\n      dup1\n        /* \"contracts/DingDong.sol\":1637:1657  bytes memory payload */\n      0x00\n        /* \"contracts/DingDong.sol\":1671:1679  _message */\n      dup4\n        /* \"contracts/DingDong.sol\":1660:1680  abi.encode(_message) */\n      add(0x20, mload(0x40))\n      tag_263\n      swap2\n      swap1\n      tag_99\n      jump\t// in\n    tag_263:\n      0x40\n      dup1\n      mload\n      not(0x1f)\n      dup2\n      dup5\n      sub\n      add\n      dup2\n      mstore\n      swap1\n      dup3\n      swap1\n      mstore\n      shl(0xe4, 0x040a7bb1)\n        /* \"contracts/DingDong.sol\":1711:1892  lzEndpoint.estimateFees(... */\n      dup3\n      mstore\n        /* \"contracts/DingDong.sol\":1660:1680  abi.encode(_message) */\n      swap2\n      pop\n      sub(shl(0xa0, 0x01), 0x01)\n        /* \"contracts/DingDong.sol\":1711:1721  lzEndpoint */\n      immutable(\"0xec6208b88575f43118050c78bff29168f189541daa8140d9ea92f610471bcfa1\")\n        /* \"contracts/DingDong.sol\":1711:1734  lzEndpoint.estimateFees */\n      and\n      swap1\n      0x40a7bb10\n      swap1\n        /* \"contracts/DingDong.sol\":1711:1892  lzEndpoint.estimateFees(... */\n      tag_264\n      swap1\n        /* \"contracts/DingDong.sol\":1753:1763  dstChainId */\n      dup11\n      swap1\n        /* \"contracts/DingDong.sol\":1790:1794  this */\n      address\n      swap1\n        /* \"contracts/DingDong.sol\":1660:1680  abi.encode(_message) */\n      dup7\n      swap1\n        /* \"contracts/DingDong.sol\":1840:1845  false */\n      0x00\n      swap1\n        /* \"contracts/DingDong.sol\":1864:1877  adapterParams */\n      dup14\n      swap1\n      dup14\n      swap1\n        /* \"contracts/DingDong.sol\":1711:1892  lzEndpoint.estimateFees(... */\n      0x04\n      add\n      tag_265\n      jump\t// in\n    tag_264:\n      0x40\n      dup1\n      mload\n      dup1\n      dup4\n      sub\n      dup2\n      dup7\n      gas\n      staticcall\n      iszero\n      dup1\n      iszero\n      tag_267\n      jumpi\n      returndatasize\n      0x00\n      dup1\n      returndatacopy\n      revert(0x00, returndatasize)\n    tag_267:\n      pop\n      pop\n      pop\n      pop\n      mload(0x40)\n      returndatasize\n      not(0x1f)\n      0x1f\n      dup3\n      add\n      and\n      dup3\n      add\n      dup1\n      0x40\n      mstore\n      pop\n      dup2\n      add\n      swap1\n      tag_268\n      swap2\n      swap1\n      tag_269\n      jump\t// in\n    tag_268:\n        /* \"contracts/DingDong.sol\":1691:1892  return... */\n      swap3\n      pop\n      swap3\n      pop\n      pop\n        /* \"contracts/DingDong.sol\":1430:1900  function estimateFeesForDingDong(... */\n      swap5\n      pop\n      swap5\n      swap3\n      pop\n      pop\n      pop\n      jump\t// out\n        /* \"https://github.com/LayerZero-Labs/solidity-examples/blob/main/contracts/lzApp/LzApp.sol\":5864:6190  function getTrustedRemoteAddress(uint16 _remoteChainId) external view returns (bytes memory) {... */\n    tag_125:\n        /* \"https://github.com/LayerZero-Labs/solidity-examples/blob/main/contracts/lzApp/LzApp.sol\":5987:6022  trustedRemoteLookup[_remoteChainId] */\n      0xffff\n      dup2\n      and\n        /* \"https://github.com/LayerZero-Labs/solidity-examples/blob/main/contracts/lzApp/LzApp.sol\":5967:5984  bytes memory path */\n      0x00\n        /* \"https://github.com/LayerZero-Labs/solidity-examples/blob/main/contracts/lzApp/LzApp.sol\":5987:6022  trustedRemoteLookup[_remoteChainId] */\n      swap1\n      dup2\n      mstore\n        /* \"https://github.com/LayerZero-Labs/solidity-examples/blob/main/contracts/lzApp/LzApp.sol\":5987:6006  trustedRemoteLookup */\n      0x01\n        /* \"https://github.com/LayerZero-Labs/solidity-examples/blob/main/contracts/lzApp/LzApp.sol\":5987:6022  trustedRemoteLookup[_remoteChainId] */\n      0x20\n      mstore\n      0x40\n      dup2\n      keccak256\n        /* \"https://github.com/LayerZero-Labs/solidity-examples/blob/main/contracts/lzApp/LzApp.sol\":5967:6022  bytes memory path = trustedRemoteLookup[_remoteChainId] */\n      dup1\n      sload\n        /* \"https://github.com/LayerZero-Labs/solidity-examples/blob/main/contracts/lzApp/LzApp.sol\":5943:5955  bytes memory */\n      0x60\n      swap3\n        /* \"https://github.com/LayerZero-Labs/solidity-examples/blob/main/contracts/lzApp/LzApp.sol\":5967:5984  bytes memory path */\n      swap2\n        /* \"https://github.com/LayerZero-Labs/solidity-examples/blob/main/contracts/lzApp/LzApp.sol\":5987:6022  trustedRemoteLookup[_remoteChainId] */\n      swap1\n        /* \"https://github.com/LayerZero-Labs/solidity-examples/blob/main/contracts/lzApp/LzApp.sol\":5967:6022  bytes memory path = trustedRemoteLookup[_remoteChainId] */\n      tag_272\n      swap1\n      tag_190\n      jump\t// in\n    tag_272:\n      dup1\n      0x1f\n      add\n      0x20\n      dup1\n      swap2\n      div\n      mul\n      0x20\n      add\n      mload(0x40)\n      swap1\n      dup2\n      add\n      0x40\n      mstore\n      dup1\n      swap3\n      swap2\n      swap1\n      dup2\n      dup2\n      mstore\n      0x20\n      add\n      dup3\n      dup1\n      sload\n      tag_273\n      swap1\n      tag_190\n      jump\t// in\n    tag_273:\n      dup1\n      iszero\n      tag_274\n      jumpi\n      dup1\n      0x1f\n      lt\n      tag_275\n      jumpi\n      0x0100\n      dup1\n      dup4\n      sload\n      div\n      mul\n      dup4\n      mstore\n      swap2\n      0x20\n      add\n      swap2\n      jump(tag_274)\n    tag_275:\n      dup3\n      add\n      swap2\n      swap1\n      0x00\n      mstore\n      keccak256(0x00, 0x20)\n      swap1\n    tag_276:\n      dup2\n      sload\n      dup2\n      mstore\n      swap1\n      0x01\n      add\n      swap1\n      0x20\n      add\n      dup1\n      dup4\n      gt\n      tag_276\n      jumpi\n      dup3\n      swap1\n      sub\n      0x1f\n      and\n      dup3\n      add\n      swap2\n    tag_274:\n      pop\n      pop\n      pop\n      pop\n      pop\n      swap1\n      pop\n        /* \"https://github.com/LayerZero-Labs/solidity-examples/blob/main/contracts/lzApp/LzApp.sol\":6040:6044  path */\n      dup1\n        /* \"https://github.com/LayerZero-Labs/solidity-examples/blob/main/contracts/lzApp/LzApp.sol\":6040:6051  path.length */\n      mload\n        /* \"https://github.com/LayerZero-Labs/solidity-examples/blob/main/contracts/lzApp/LzApp.sol\":6055:6056  0 */\n      0x00\n        /* \"https://github.com/LayerZero-Labs/solidity-examples/blob/main/contracts/lzApp/LzApp.sol\":6040:6056  path.length != 0 */\n      sub\n        /* \"https://github.com/LayerZero-Labs/solidity-examples/blob/main/contracts/lzApp/LzApp.sol\":6032:6090  require(path.length != 0, \"LzApp: no trusted path record\") */\n      tag_277\n      jumpi\n      mload(0x40)\n      shl(0xe5, 0x461bcd)\n      dup2\n      mstore\n        /* \"#utility.yul\":15643:15645   */\n      0x20\n        /* \"https://github.com/LayerZero-Labs/solidity-examples/blob/main/contracts/lzApp/LzApp.sol\":6032:6090  require(path.length != 0, \"LzApp: no trusted path record\") */\n      0x04\n      dup3\n      add\n        /* \"#utility.yul\":15625:15646   */\n      mstore\n        /* \"#utility.yul\":15682:15684   */\n      0x1d\n        /* \"#utility.yul\":15662:15680   */\n      0x24\n      dup3\n      add\n        /* \"#utility.yul\":15655:15685   */\n      mstore\n        /* \"#utility.yul\":15721:15752   */\n      0x4c7a4170703a206e6f20747275737465642070617468207265636f7264000000\n        /* \"#utility.yul\":15701:15719   */\n      0x44\n      dup3\n      add\n        /* \"#utility.yul\":15694:15753   */\n      mstore\n        /* \"#utility.yul\":15770:15788   */\n      0x64\n      add\n        /* \"https://github.com/LayerZero-Labs/solidity-examples/blob/main/contracts/lzApp/LzApp.sol\":6032:6090  require(path.length != 0, \"LzApp: no trusted path record\") */\n      tag_187\n        /* \"#utility.yul\":15441:15794   */\n      jump\n        /* \"https://github.com/LayerZero-Labs/solidity-examples/blob/main/contracts/lzApp/LzApp.sol\":6032:6090  require(path.length != 0, \"LzApp: no trusted path record\") */\n    tag_277:\n        /* \"https://github.com/LayerZero-Labs/solidity-examples/blob/main/contracts/lzApp/LzApp.sol\":6107:6138  path.slice(0, path.length - 20) */\n      tag_223\n        /* \"https://github.com/LayerZero-Labs/solidity-examples/blob/main/contracts/lzApp/LzApp.sol\":6118:6119  0 */\n      0x00\n        /* \"https://github.com/LayerZero-Labs/solidity-examples/blob/main/contracts/lzApp/LzApp.sol\":6135:6137  20 */\n      0x14\n        /* \"https://github.com/LayerZero-Labs/solidity-examples/blob/main/contracts/lzApp/LzApp.sol\":6121:6125  path */\n      dup4\n        /* \"https://github.com/LayerZero-Labs/solidity-examples/blob/main/contracts/lzApp/LzApp.sol\":6121:6132  path.length */\n      mload\n        /* \"https://github.com/LayerZero-Labs/solidity-examples/blob/main/contracts/lzApp/LzApp.sol\":6121:6137  path.length - 20 */\n      tag_281\n      swap2\n      swap1\n      tag_282\n      jump\t// in\n    tag_281:\n        /* \"https://github.com/LayerZero-Labs/solidity-examples/blob/main/contracts/lzApp/LzApp.sol\":6107:6111  path */\n      dup4\n      swap2\n        /* \"https://github.com/LayerZero-Labs/solidity-examples/blob/main/contracts/lzApp/LzApp.sol\":6107:6138  path.slice(0, path.length - 20) */\n      swap1\n        /* \"https://github.com/LayerZero-Labs/solidity-examples/blob/main/contracts/lzApp/LzApp.sol\":6107:6117  path.slice */\n      tag_283\n        /* \"https://github.com/LayerZero-Labs/solidity-examples/blob/main/contracts/lzApp/LzApp.sol\":6107:6138  path.slice(0, path.length - 20) */\n      jump\t// in\n        /* \"https://github.com/LayerZero-Labs/solidity-examples/blob/main/contracts/lzApp/LzApp.sol\":5580:5858  function setTrustedRemoteAddress(uint16 _remoteChainId, bytes calldata _remoteAddress) external onlyOwner {... */\n    tag_130:\n        /* \"@openzeppelin/contracts/access/Ownable.sol\":1094:1107  _checkOwner() */\n      tag_285\n        /* \"@openzeppelin/contracts/access/Ownable.sol\":1094:1105  _checkOwner */\n      tag_206\n        /* \"@openzeppelin/contracts/access/Ownable.sol\":1094:1107  _checkOwner() */\n      jump\t// in\n    tag_285:\n        /* \"https://github.com/LayerZero-Labs/solidity-examples/blob/main/contracts/lzApp/LzApp.sol\":5751:5765  _remoteAddress */\n      dup2\n      dup2\n        /* \"https://github.com/LayerZero-Labs/solidity-examples/blob/main/contracts/lzApp/LzApp.sol\":5775:5779  this */\n      address\n        /* \"https://github.com/LayerZero-Labs/solidity-examples/blob/main/contracts/lzApp/LzApp.sol\":5734:5781  abi.encodePacked(_remoteAddress, address(this)) */\n      add(0x20, mload(0x40))\n      tag_287\n      swap4\n      swap3\n      swap2\n      swap1\n      tag_288\n      jump\t// in\n    tag_287:\n      0x40\n      dup1\n      mload\n      not(0x1f)\n      dup2\n      dup5\n      sub\n      add\n      dup2\n      mstore\n      swap2\n      dup2\n      mstore\n        /* \"https://github.com/LayerZero-Labs/solidity-examples/blob/main/contracts/lzApp/LzApp.sol\":5696:5731  trustedRemoteLookup[_remoteChainId] */\n      0xffff\n      dup6\n      and\n      0x00\n      swap1\n      dup2\n      mstore\n        /* \"https://github.com/LayerZero-Labs/solidity-examples/blob/main/contracts/lzApp/LzApp.sol\":5696:5715  trustedRemoteLookup */\n      0x01\n        /* \"https://github.com/LayerZero-Labs/solidity-examples/blob/main/contracts/lzApp/LzApp.sol\":5734:5781  abi.encodePacked(_remoteAddress, address(this)) */\n      0x20\n        /* \"https://github.com/LayerZero-Labs/solidity-examples/blob/main/contracts/lzApp/LzApp.sol\":5696:5731  trustedRemoteLookup[_remoteChainId] */\n      mstore\n      keccak256\n      swap1\n        /* \"https://github.com/LayerZero-Labs/solidity-examples/blob/main/contracts/lzApp/LzApp.sol\":5696:5781  trustedRemoteLookup[_remoteChainId] = abi.encodePacked(_remoteAddress, address(this)) */\n      tag_289\n      swap1\n        /* \"https://github.com/LayerZero-Labs/solidity-examples/blob/main/contracts/lzApp/LzApp.sol\":5696:5731  trustedRemoteLookup[_remoteChainId] */\n      dup3\n        /* \"https://github.com/LayerZero-Labs/solidity-examples/blob/main/contracts/lzApp/LzApp.sol\":5696:5781  trustedRemoteLookup[_remoteChainId] = abi.encodePacked(_remoteAddress, address(this)) */\n      tag_244\n      jump\t// in\n    tag_289:\n      pop\n        /* \"https://github.com/LayerZero-Labs/solidity-examples/blob/main/contracts/lzApp/LzApp.sol\":5796:5851  SetTrustedRemoteAddress(_remoteChainId, _remoteAddress) */\n      0x8c0400cfe2d1199b1a725c78960bcc2a344d869b80590d0f2bd005db15a572ce\n        /* \"https://github.com/LayerZero-Labs/solidity-examples/blob/main/contracts/lzApp/LzApp.sol\":5820:5834  _remoteChainId */\n      dup4\n        /* \"https://github.com/LayerZero-Labs/solidity-examples/blob/main/contracts/lzApp/LzApp.sol\":5836:5850  _remoteAddress */\n      dup4\n      dup4\n        /* \"https://github.com/LayerZero-Labs/solidity-examples/blob/main/contracts/lzApp/LzApp.sol\":5796:5851  SetTrustedRemoteAddress(_remoteChainId, _remoteAddress) */\n      mload(0x40)\n      tag_290\n      swap4\n      swap3\n      swap2\n      swap1\n      tag_234\n      jump\t// in\n    tag_290:\n      mload(0x40)\n      dup1\n      swap2\n      sub\n      swap1\n      log1\n        /* \"https://github.com/LayerZero-Labs/solidity-examples/blob/main/contracts/lzApp/LzApp.sol\":5580:5858  function setTrustedRemoteAddress(uint16 _remoteChainId, bytes calldata _remoteAddress) external onlyOwner {... */\n      pop\n      pop\n      pop\n      jump\t// out\n        /* \"https://github.com/LayerZero-Labs/solidity-examples/blob/main/contracts/lzApp/LzApp.sol\":6196:6329  function setPrecrime(address _precrime) external onlyOwner {... */\n    tag_140:\n        /* \"@openzeppelin/contracts/access/Ownable.sol\":1094:1107  _checkOwner() */\n      tag_292\n        /* \"@openzeppelin/contracts/access/Ownable.sol\":1094:1105  _checkOwner */\n      tag_206\n        /* \"@openzeppelin/contracts/access/Ownable.sol\":1094:1107  _checkOwner() */\n      jump\t// in\n    tag_292:\n        /* \"https://github.com/LayerZero-Labs/solidity-examples/blob/main/contracts/lzApp/LzApp.sol\":6265:6273  precrime */\n      0x04\n        /* \"https://github.com/LayerZero-Labs/solidity-examples/blob/main/contracts/lzApp/LzApp.sol\":6265:6285  precrime = _precrime */\n      dup1\n      sload\n      not(sub(shl(0xa0, 0x01), 0x01))\n      and\n      sub(shl(0xa0, 0x01), 0x01)\n      dup4\n      and\n      swap1\n      dup2\n      or\n      swap1\n      swap2\n      sstore\n        /* \"https://github.com/LayerZero-Labs/solidity-examples/blob/main/contracts/lzApp/LzApp.sol\":6300:6322  SetPrecrime(_precrime) */\n      mload(0x40)\n        /* \"#utility.yul\":7291:7342   */\n      swap1\n      dup2\n      mstore\n        /* \"https://github.com/LayerZero-Labs/solidity-examples/blob/main/contracts/lzApp/LzApp.sol\":6300:6322  SetPrecrime(_precrime) */\n      0x5db758e995a17ec1ad84bdef7e8c3293a0bd6179bcce400dff5d4c3d87db726b\n      swap1\n        /* \"#utility.yul\":7279:7281   */\n      0x20\n        /* \"#utility.yul\":7264:7282   */\n      add\n        /* \"https://github.com/LayerZero-Labs/solidity-examples/blob/main/contracts/lzApp/LzApp.sol\":6300:6322  SetPrecrime(_precrime) */\n      mload(0x40)\n      dup1\n      swap2\n      sub\n      swap1\n      log1\n        /* \"https://github.com/LayerZero-Labs/solidity-examples/blob/main/contracts/lzApp/LzApp.sol\":6196:6329  function setPrecrime(address _precrime) external onlyOwner {... */\n      pop\n      jump\t// out\n        /* \"contracts/DingDong.sol\":561:860  function sendDing(uint16 destChainId) public payable {... */\n    tag_143:\n        /* \"contracts/DingDong.sol\":625:645  bytes memory payload */\n      0x00\n        /* \"contracts/DingDong.sol\":648:666  abi.encode(\"Ding\") */\n      add(0x20, mload(0x40))\n      tag_296\n      swap1\n        /* \"#utility.yul\":16631:16633   */\n      0x20\n        /* \"#utility.yul\":16613:16634   */\n      dup1\n      dup3\n      mstore\n        /* \"#utility.yul\":16670:16671   */\n      0x04\n        /* \"#utility.yul\":16650:16668   */\n      swap1\n      dup3\n      add\n        /* \"#utility.yul\":16643:16672   */\n      mstore\n      shl(0xe0, 0x44696e67)\n        /* \"#utility.yul\":16703:16705   */\n      0x40\n        /* \"#utility.yul\":16688:16706   */\n      dup3\n      add\n        /* \"#utility.yul\":16681:16715   */\n      mstore\n        /* \"#utility.yul\":16747:16749   */\n      0x60\n        /* \"#utility.yul\":16732:16750   */\n      add\n      swap1\n        /* \"#utility.yul\":16429:16756   */\n      jump\n        /* \"contracts/DingDong.sol\":648:666  abi.encode(\"Ding\") */\n    tag_296:\n      mload(0x40)\n      0x20\n      dup2\n      dup4\n      sub\n      sub\n      dup2\n      mstore\n      swap1\n      0x40\n      mstore\n        /* \"contracts/DingDong.sol\":625:666  bytes memory payload = abi.encode(\"Ding\") */\n      swap1\n      pop\n        /* \"contracts/DingDong.sol\":677:852  _lzSend(... */\n      tag_298\n        /* \"contracts/DingDong.sol\":699:710  destChainId */\n      dup3\n        /* \"contracts/DingDong.sol\":725:732  payload */\n      dup3\n        /* \"contracts/DingDong.sol\":755:765  msg.sender */\n      caller\n        /* \"contracts/DingDong.sol\":789:792  0x0 */\n      0x00\n        /* \"contracts/DingDong.sol\":808:817  bytes(\"\") */\n      mload(0x40)\n      dup1\n      0x20\n      add\n      0x40\n      mstore\n      dup1\n      0x00\n      dup2\n      mstore\n      pop\n        /* \"contracts/DingDong.sol\":832:841  msg.value */\n      callvalue\n        /* \"contracts/DingDong.sol\":677:684  _lzSend */\n      tag_299\n        /* \"contracts/DingDong.sol\":677:852  _lzSend(... */\n      jump\t// in\n    tag_298:\n        /* \"contracts/DingDong.sol\":614:860  {... */\n      pop\n        /* \"contracts/DingDong.sol\":561:860  function sendDing(uint16 destChainId) public payable {... */\n      pop\n      jump\t// out\n        /* \"https://github.com/LayerZero-Labs/solidity-examples/blob/main/contracts/lzApp/LzApp.sol\":4545:4785  function setConfig(... */\n    tag_152:\n        /* \"@openzeppelin/contracts/access/Ownable.sol\":1094:1107  _checkOwner() */\n      tag_301\n        /* \"@openzeppelin/contracts/access/Ownable.sol\":1094:1105  _checkOwner */\n      tag_206\n        /* \"@openzeppelin/contracts/access/Ownable.sol\":1094:1107  _checkOwner() */\n      jump\t// in\n    tag_301:\n        /* \"https://github.com/LayerZero-Labs/solidity-examples/blob/main/contracts/lzApp/LzApp.sol\":4716:4778  lzEndpoint.setConfig(_version, _chainId, _configType, _config) */\n      mload(0x40)\n      shl(0xe2, 0x32fb62e7)\n      dup2\n      mstore\n      sub(shl(0xa0, 0x01), 0x01)\n        /* \"https://github.com/LayerZero-Labs/solidity-examples/blob/main/contracts/lzApp/LzApp.sol\":4716:4726  lzEndpoint */\n      immutable(\"0xec6208b88575f43118050c78bff29168f189541daa8140d9ea92f610471bcfa1\")\n        /* \"https://github.com/LayerZero-Labs/solidity-examples/blob/main/contracts/lzApp/LzApp.sol\":4716:4736  lzEndpoint.setConfig */\n      and\n      swap1\n      0xcbed8b9c\n      swap1\n        /* \"https://github.com/LayerZero-Labs/solidity-examples/blob/main/contracts/lzApp/LzApp.sol\":4716:4778  lzEndpoint.setConfig(_version, _chainId, _configType, _config) */\n      tag_303\n      swap1\n        /* \"https://github.com/LayerZero-Labs/solidity-examples/blob/main/contracts/lzApp/LzApp.sol\":4737:4745  _version */\n      dup9\n      swap1\n        /* \"https://github.com/LayerZero-Labs/solidity-examples/blob/main/contracts/lzApp/LzApp.sol\":4747:4755  _chainId */\n      dup9\n      swap1\n        /* \"https://github.com/LayerZero-Labs/solidity-examples/blob/main/contracts/lzApp/LzApp.sol\":4757:4768  _configType */\n      dup9\n      swap1\n        /* \"https://github.com/LayerZero-Labs/solidity-examples/blob/main/contracts/lzApp/LzApp.sol\":4770:4777  _config */\n      dup9\n      swap1\n      dup9\n      swap1\n        /* \"https://github.com/LayerZero-Labs/solidity-examples/blob/main/contracts/lzApp/LzApp.sol\":4716:4778  lzEndpoint.setConfig(_version, _chainId, _configType, _config) */\n      0x04\n      add\n      tag_304\n      jump\t// in\n    tag_303:\n      0x00\n      mload(0x40)\n      dup1\n      dup4\n      sub\n      dup2\n      0x00\n      dup8\n      dup1\n      extcodesize\n      iszero\n      dup1\n      iszero\n      tag_305\n      jumpi\n      0x00\n      dup1\n      revert\n    tag_305:\n      pop\n      gas\n      call\n      iszero\n      dup1\n      iszero\n      tag_307\n      jumpi\n      returndatasize\n      0x00\n      dup1\n      returndatacopy\n      revert(0x00, returndatasize)\n    tag_307:\n      pop\n      pop\n      pop\n      pop\n        /* \"https://github.com/LayerZero-Labs/solidity-examples/blob/main/contracts/lzApp/LzApp.sol\":4545:4785  function setConfig(... */\n      pop\n      pop\n      pop\n      pop\n      pop\n      jump\t// out\n        /* \"https://github.com/LayerZero-Labs/solidity-examples/blob/main/contracts/lzApp/NonblockingLzApp.sol\":2511:3306  function retryMessage(... */\n    tag_155:\n        /* \"https://github.com/LayerZero-Labs/solidity-examples/blob/main/contracts/lzApp/NonblockingLzApp.sol\":2758:2785  failedMessages[_srcChainId] */\n      0xffff\n      dup7\n      and\n        /* \"https://github.com/LayerZero-Labs/solidity-examples/blob/main/contracts/lzApp/NonblockingLzApp.sol\":2736:2755  bytes32 payloadHash */\n      0x00\n        /* \"https://github.com/LayerZero-Labs/solidity-examples/blob/main/contracts/lzApp/NonblockingLzApp.sol\":2758:2785  failedMessages[_srcChainId] */\n      swap1\n      dup2\n      mstore\n        /* \"https://github.com/LayerZero-Labs/solidity-examples/blob/main/contracts/lzApp/NonblockingLzApp.sol\":2758:2772  failedMessages */\n      0x05\n        /* \"https://github.com/LayerZero-Labs/solidity-examples/blob/main/contracts/lzApp/NonblockingLzApp.sol\":2758:2785  failedMessages[_srcChainId] */\n      0x20\n      mstore\n      0x40\n      dup1\n      dup3\n      keccak256\n        /* \"https://github.com/LayerZero-Labs/solidity-examples/blob/main/contracts/lzApp/NonblockingLzApp.sol\":2758:2798  failedMessages[_srcChainId][_srcAddress] */\n      swap1\n      mload\n      tag_309\n      swap1\n        /* \"https://github.com/LayerZero-Labs/solidity-examples/blob/main/contracts/lzApp/NonblockingLzApp.sol\":2786:2797  _srcAddress */\n      dup9\n      swap1\n      dup9\n      swap1\n        /* \"https://github.com/LayerZero-Labs/solidity-examples/blob/main/contracts/lzApp/NonblockingLzApp.sol\":2758:2798  failedMessages[_srcChainId][_srcAddress] */\n      tag_198\n      jump\t// in\n    tag_309:\n      swap1\n      dup2\n      mstore\n      0x40\n      dup1\n      mload\n      0x20\n      swap3\n      dup2\n      swap1\n      sub\n      dup4\n      add\n      swap1\n      keccak256\n      sub(shl(0x40, 0x01), 0x01)\n        /* \"https://github.com/LayerZero-Labs/solidity-examples/blob/main/contracts/lzApp/NonblockingLzApp.sol\":2758:2806  failedMessages[_srcChainId][_srcAddress][_nonce] */\n      dup8\n      and\n      0x00\n      swap1\n      dup2\n      mstore\n      swap3\n      mstore\n      swap1\n      keccak256\n      sload\n      swap1\n      pop\n      dup1\n        /* \"https://github.com/LayerZero-Labs/solidity-examples/blob/main/contracts/lzApp/NonblockingLzApp.sol\":2816:2889  require(payloadHash != bytes32(0), \"NonblockingLzApp: no stored message\") */\n      tag_310\n      jumpi\n      mload(0x40)\n      shl(0xe5, 0x461bcd)\n      dup2\n      mstore\n        /* \"#utility.yul\":17466:17468   */\n      0x20\n        /* \"https://github.com/LayerZero-Labs/solidity-examples/blob/main/contracts/lzApp/NonblockingLzApp.sol\":2816:2889  require(payloadHash != bytes32(0), \"NonblockingLzApp: no stored message\") */\n      0x04\n      dup3\n      add\n        /* \"#utility.yul\":17448:17469   */\n      mstore\n        /* \"#utility.yul\":17505:17507   */\n      0x23\n        /* \"#utility.yul\":17485:17503   */\n      0x24\n      dup3\n      add\n        /* \"#utility.yul\":17478:17508   */\n      mstore\n        /* \"#utility.yul\":17544:17578   */\n      0x4e6f6e626c6f636b696e674c7a4170703a206e6f2073746f726564206d657373\n        /* \"#utility.yul\":17524:17542   */\n      0x44\n      dup3\n      add\n        /* \"#utility.yul\":17517:17579   */\n      mstore\n      shl(0xe8, 0x616765)\n        /* \"#utility.yul\":17595:17613   */\n      0x64\n      dup3\n      add\n        /* \"#utility.yul\":17588:17621   */\n      mstore\n        /* \"#utility.yul\":17638:17657   */\n      0x84\n      add\n        /* \"https://github.com/LayerZero-Labs/solidity-examples/blob/main/contracts/lzApp/NonblockingLzApp.sol\":2816:2889  require(payloadHash != bytes32(0), \"NonblockingLzApp: no stored message\") */\n      tag_187\n        /* \"#utility.yul\":17264:17663   */\n      jump\n        /* \"https://github.com/LayerZero-Labs/solidity-examples/blob/main/contracts/lzApp/NonblockingLzApp.sol\":2816:2889  require(payloadHash != bytes32(0), \"NonblockingLzApp: no stored message\") */\n    tag_310:\n        /* \"https://github.com/LayerZero-Labs/solidity-examples/blob/main/contracts/lzApp/NonblockingLzApp.sol\":2930:2941  payloadHash */\n      dup1\n        /* \"https://github.com/LayerZero-Labs/solidity-examples/blob/main/contracts/lzApp/NonblockingLzApp.sol\":2917:2925  _payload */\n      dup4\n      dup4\n        /* \"https://github.com/LayerZero-Labs/solidity-examples/blob/main/contracts/lzApp/NonblockingLzApp.sol\":2907:2926  keccak256(_payload) */\n      mload(0x40)\n      tag_313\n      swap3\n      swap2\n      swap1\n      tag_198\n      jump\t// in\n    tag_313:\n      mload(0x40)\n      dup1\n      swap2\n      sub\n      swap1\n      keccak256\n        /* \"https://github.com/LayerZero-Labs/solidity-examples/blob/main/contracts/lzApp/NonblockingLzApp.sol\":2907:2941  keccak256(_payload) == payloadHash */\n      eq\n        /* \"https://github.com/LayerZero-Labs/solidity-examples/blob/main/contracts/lzApp/NonblockingLzApp.sol\":2899:2979  require(keccak256(_payload) == payloadHash, \"NonblockingLzApp: invalid payload\") */\n      tag_314\n      jumpi\n      mload(0x40)\n      shl(0xe5, 0x461bcd)\n      dup2\n      mstore\n        /* \"#utility.yul\":17870:17872   */\n      0x20\n        /* \"https://github.com/LayerZero-Labs/solidity-examples/blob/main/contracts/lzApp/NonblockingLzApp.sol\":2899:2979  require(keccak256(_payload) == payloadHash, \"NonblockingLzApp: invalid payload\") */\n      0x04\n      dup3\n      add\n        /* \"#utility.yul\":17852:17873   */\n      mstore\n        /* \"#utility.yul\":17909:17911   */\n      0x21\n        /* \"#utility.yul\":17889:17907   */\n      0x24\n      dup3\n      add\n        /* \"#utility.yul\":17882:17912   */\n      mstore\n        /* \"#utility.yul\":17948:17982   */\n      0x4e6f6e626c6f636b696e674c7a4170703a20696e76616c6964207061796c6f61\n        /* \"#utility.yul\":17928:17946   */\n      0x44\n      dup3\n      add\n        /* \"#utility.yul\":17921:17983   */\n      mstore\n      shl(0xfa, 0x19)\n        /* \"#utility.yul\":17999:18017   */\n      0x64\n      dup3\n      add\n        /* \"#utility.yul\":17992:18023   */\n      mstore\n        /* \"#utility.yul\":18040:18059   */\n      0x84\n      add\n        /* \"https://github.com/LayerZero-Labs/solidity-examples/blob/main/contracts/lzApp/NonblockingLzApp.sol\":2899:2979  require(keccak256(_payload) == payloadHash, \"NonblockingLzApp: invalid payload\") */\n      tag_187\n        /* \"#utility.yul\":17668:18065   */\n      jump\n        /* \"https://github.com/LayerZero-Labs/solidity-examples/blob/main/contracts/lzApp/NonblockingLzApp.sol\":2899:2979  require(keccak256(_payload) == payloadHash, \"NonblockingLzApp: invalid payload\") */\n    tag_314:\n        /* \"https://github.com/LayerZero-Labs/solidity-examples/blob/main/contracts/lzApp/NonblockingLzApp.sol\":3025:3052  failedMessages[_srcChainId] */\n      0xffff\n      dup8\n      and\n        /* \"https://github.com/LayerZero-Labs/solidity-examples/blob/main/contracts/lzApp/NonblockingLzApp.sol\":3084:3085  0 */\n      0x00\n        /* \"https://github.com/LayerZero-Labs/solidity-examples/blob/main/contracts/lzApp/NonblockingLzApp.sol\":3025:3052  failedMessages[_srcChainId] */\n      swap1\n      dup2\n      mstore\n        /* \"https://github.com/LayerZero-Labs/solidity-examples/blob/main/contracts/lzApp/NonblockingLzApp.sol\":3025:3039  failedMessages */\n      0x05\n        /* \"https://github.com/LayerZero-Labs/solidity-examples/blob/main/contracts/lzApp/NonblockingLzApp.sol\":3025:3052  failedMessages[_srcChainId] */\n      0x20\n      mstore\n      0x40\n      dup1\n      dup3\n      keccak256\n        /* \"https://github.com/LayerZero-Labs/solidity-examples/blob/main/contracts/lzApp/NonblockingLzApp.sol\":3025:3065  failedMessages[_srcChainId][_srcAddress] */\n      swap1\n      mload\n      tag_317\n      swap1\n        /* \"https://github.com/LayerZero-Labs/solidity-examples/blob/main/contracts/lzApp/NonblockingLzApp.sol\":3053:3064  _srcAddress */\n      dup10\n      swap1\n      dup10\n      swap1\n        /* \"https://github.com/LayerZero-Labs/solidity-examples/blob/main/contracts/lzApp/NonblockingLzApp.sol\":3025:3065  failedMessages[_srcChainId][_srcAddress] */\n      tag_198\n      jump\t// in\n    tag_317:\n      swap1\n      dup2\n      mstore\n      0x40\n      dup1\n      mload\n      0x20\n      swap3\n      dup2\n      swap1\n      sub\n      dup4\n      add\n      dup2\n      keccak256\n      sub(shl(0x40, 0x01), 0x01)\n        /* \"https://github.com/LayerZero-Labs/solidity-examples/blob/main/contracts/lzApp/NonblockingLzApp.sol\":3025:3073  failedMessages[_srcChainId][_srcAddress][_nonce] */\n      dup10\n      and\n      0x00\n      swap1\n      dup2\n      mstore\n      swap1\n      dup5\n      mstore\n      dup3\n      swap1\n      keccak256\n        /* \"https://github.com/LayerZero-Labs/solidity-examples/blob/main/contracts/lzApp/NonblockingLzApp.sol\":3025:3086  failedMessages[_srcChainId][_srcAddress][_nonce] = bytes32(0) */\n      swap4\n      swap1\n      swap4\n      sstore\n        /* \"https://github.com/LayerZero-Labs/solidity-examples/blob/main/contracts/lzApp/NonblockingLzApp.sol\":3153:3218  _nonblockingLzReceive(_srcChainId, _srcAddress, _nonce, _payload) */\n      0x1f\n      dup9\n      add\n      dup3\n      swap1\n      div\n      dup3\n      mul\n      dup4\n      add\n      dup3\n      add\n      swap1\n      mstore\n      dup7\n      dup3\n      mstore\n      tag_318\n      swap2\n        /* \"https://github.com/LayerZero-Labs/solidity-examples/blob/main/contracts/lzApp/NonblockingLzApp.sol\":3175:3186  _srcChainId */\n      dup10\n      swap2\n        /* \"https://github.com/LayerZero-Labs/solidity-examples/blob/main/contracts/lzApp/NonblockingLzApp.sol\":3188:3199  _srcAddress */\n      dup10\n      swap1\n        /* \"https://github.com/LayerZero-Labs/solidity-examples/blob/main/contracts/lzApp/NonblockingLzApp.sol\":3153:3218  _nonblockingLzReceive(_srcChainId, _srcAddress, _nonce, _payload) */\n      dup10\n      swap1\n      dup2\n      swap1\n      dup5\n      add\n        /* \"https://github.com/LayerZero-Labs/solidity-examples/blob/main/contracts/lzApp/NonblockingLzApp.sol\":3188:3199  _srcAddress */\n      dup4\n        /* \"https://github.com/LayerZero-Labs/solidity-examples/blob/main/contracts/lzApp/NonblockingLzApp.sol\":3153:3218  _nonblockingLzReceive(_srcChainId, _srcAddress, _nonce, _payload) */\n      dup3\n      dup1\n        /* \"https://github.com/LayerZero-Labs/solidity-examples/blob/main/contracts/lzApp/NonblockingLzApp.sol\":3188:3199  _srcAddress */\n      dup3\n        /* \"https://github.com/LayerZero-Labs/solidity-examples/blob/main/contracts/lzApp/NonblockingLzApp.sol\":3153:3218  _nonblockingLzReceive(_srcChainId, _srcAddress, _nonce, _payload) */\n      dup5\n      calldatacopy\n      0x00\n      swap3\n      add\n      swap2\n      swap1\n      swap2\n      mstore\n      pop\n      pop\n      0x40\n      dup1\n      mload\n      0x20\n      0x1f\n      dup11\n      add\n      dup2\n      swap1\n      div\n      dup2\n      mul\n      dup3\n      add\n      dup2\n      add\n      swap1\n      swap3\n      mstore\n      dup9\n      dup2\n      mstore\n        /* \"https://github.com/LayerZero-Labs/solidity-examples/blob/main/contracts/lzApp/NonblockingLzApp.sol\":3201:3207  _nonce */\n      dup11\n      swap4\n      pop\n        /* \"https://github.com/LayerZero-Labs/solidity-examples/blob/main/contracts/lzApp/NonblockingLzApp.sol\":3153:3218  _nonblockingLzReceive(_srcChainId, _srcAddress, _nonce, _payload) */\n      swap2\n      pop\n        /* \"https://github.com/LayerZero-Labs/solidity-examples/blob/main/contracts/lzApp/NonblockingLzApp.sol\":3209:3217  _payload */\n      dup9\n      swap1\n      dup9\n      swap1\n      dup2\n      swap1\n        /* \"https://github.com/LayerZero-Labs/solidity-examples/blob/main/contracts/lzApp/NonblockingLzApp.sol\":3153:3218  _nonblockingLzReceive(_srcChainId, _srcAddress, _nonce, _payload) */\n      dup5\n      add\n        /* \"https://github.com/LayerZero-Labs/solidity-examples/blob/main/contracts/lzApp/NonblockingLzApp.sol\":3209:3217  _payload */\n      dup4\n      dup3\n      dup1\n      dup3\n        /* \"https://github.com/LayerZero-Labs/solidity-examples/blob/main/contracts/lzApp/NonblockingLzApp.sol\":3153:3218  _nonblockingLzReceive(_srcChainId, _srcAddress, _nonce, _payload) */\n      dup5\n      calldatacopy\n      0x00\n      swap3\n      add\n      swap2\n      swap1\n      swap2\n      mstore\n      pop\n        /* \"https://github.com/LayerZero-Labs/solidity-examples/blob/main/contracts/lzApp/NonblockingLzApp.sol\":3153:3174  _nonblockingLzReceive */\n      tag_251\n      swap3\n      pop\n      pop\n      pop\n        /* \"https://github.com/LayerZero-Labs/solidity-examples/blob/main/contracts/lzApp/NonblockingLzApp.sol\":3153:3218  _nonblockingLzReceive(_srcChainId, _srcAddress, _nonce, _payload) */\n      jump\t// in\n    tag_318:\n        /* \"https://github.com/LayerZero-Labs/solidity-examples/blob/main/contracts/lzApp/NonblockingLzApp.sol\":3233:3299  RetryMessageSuccess(_srcChainId, _srcAddress, _nonce, payloadHash) */\n      0xc264d91f3adc5588250e1551f547752ca0cfa8f6b530d243b9f9f4cab10ea8e5\n        /* \"https://github.com/LayerZero-Labs/solidity-examples/blob/main/contracts/lzApp/NonblockingLzApp.sol\":3253:3264  _srcChainId */\n      dup8\n        /* \"https://github.com/LayerZero-Labs/solidity-examples/blob/main/contracts/lzApp/NonblockingLzApp.sol\":3266:3277  _srcAddress */\n      dup8\n      dup8\n        /* \"https://github.com/LayerZero-Labs/solidity-examples/blob/main/contracts/lzApp/NonblockingLzApp.sol\":3279:3285  _nonce */\n      dup8\n        /* \"https://github.com/LayerZero-Labs/solidity-examples/blob/main/contracts/lzApp/NonblockingLzApp.sol\":3287:3298  payloadHash */\n      dup6\n        /* \"https://github.com/LayerZero-Labs/solidity-examples/blob/main/contracts/lzApp/NonblockingLzApp.sol\":3233:3299  RetryMessageSuccess(_srcChainId, _srcAddress, _nonce, payloadHash) */\n      mload(0x40)\n      tag_319\n      swap6\n      swap5\n      swap4\n      swap3\n      swap2\n      swap1\n      tag_320\n      jump\t// in\n    tag_319:\n      mload(0x40)\n      dup1\n      swap2\n      sub\n      swap1\n      log1\n        /* \"https://github.com/LayerZero-Labs/solidity-examples/blob/main/contracts/lzApp/NonblockingLzApp.sol\":2682:3306  {... */\n      pop\n        /* \"https://github.com/LayerZero-Labs/solidity-examples/blob/main/contracts/lzApp/NonblockingLzApp.sol\":2511:3306  function retryMessage(... */\n      pop\n      pop\n      pop\n      pop\n      pop\n      pop\n      jump\t// out\n        /* \"https://github.com/LayerZero-Labs/solidity-examples/blob/main/contracts/lzApp/LzApp.sol\":6335:6590  function setMinDstGas(... */\n    tag_160:\n        /* \"@openzeppelin/contracts/access/Ownable.sol\":1094:1107  _checkOwner() */\n      tag_322\n        /* \"@openzeppelin/contracts/access/Ownable.sol\":1094:1105  _checkOwner */\n      tag_206\n        /* \"@openzeppelin/contracts/access/Ownable.sol\":1094:1107  _checkOwner() */\n      jump\t// in\n    tag_322:\n        /* \"https://github.com/LayerZero-Labs/solidity-examples/blob/main/contracts/lzApp/LzApp.sol\":6470:6498  minDstGasLookup[_dstChainId] */\n      0xffff\n      dup4\n      dup2\n      and\n      0x00\n      dup2\n      dup2\n      mstore\n        /* \"https://github.com/LayerZero-Labs/solidity-examples/blob/main/contracts/lzApp/LzApp.sol\":6470:6485  minDstGasLookup */\n      0x02\n        /* \"https://github.com/LayerZero-Labs/solidity-examples/blob/main/contracts/lzApp/LzApp.sol\":6470:6498  minDstGasLookup[_dstChainId] */\n      0x20\n      swap1\n      dup2\n      mstore\n      0x40\n      dup1\n      dup4\n      keccak256\n        /* \"https://github.com/LayerZero-Labs/solidity-examples/blob/main/contracts/lzApp/LzApp.sol\":6470:6511  minDstGasLookup[_dstChainId][_packetType] */\n      swap5\n      dup8\n      and\n      dup1\n      dup5\n      mstore\n      swap5\n      dup3\n      mstore\n      swap2\n      dup3\n      swap1\n      keccak256\n        /* \"https://github.com/LayerZero-Labs/solidity-examples/blob/main/contracts/lzApp/LzApp.sol\":6470:6521  minDstGasLookup[_dstChainId][_packetType] = _minGas */\n      dup6\n      swap1\n      sstore\n        /* \"https://github.com/LayerZero-Labs/solidity-examples/blob/main/contracts/lzApp/LzApp.sol\":6536:6583  SetMinDstGas(_dstChainId, _packetType, _minGas) */\n      dup2\n      mload\n        /* \"#utility.yul\":18791:18825   */\n      swap3\n      dup4\n      mstore\n        /* \"#utility.yul\":18841:18859   */\n      dup3\n      add\n        /* \"#utility.yul\":18834:18877   */\n      swap3\n      swap1\n      swap3\n      mstore\n        /* \"#utility.yul\":18893:18911   */\n      swap1\n      dup2\n      add\n        /* \"#utility.yul\":18886:18920   */\n      dup3\n      swap1\n      mstore\n        /* \"https://github.com/LayerZero-Labs/solidity-examples/blob/main/contracts/lzApp/LzApp.sol\":6536:6583  SetMinDstGas(_dstChainId, _packetType, _minGas) */\n      0x9d5c7c0b934da8fefa9c7760c98383778a12dfbfc0c3b3106518f43fb9508ac0\n      swap1\n        /* \"#utility.yul\":18754:18756   */\n      0x60\n        /* \"#utility.yul\":18739:18757   */\n      add\n        /* \"https://github.com/LayerZero-Labs/solidity-examples/blob/main/contracts/lzApp/LzApp.sol\":6536:6583  SetMinDstGas(_dstChainId, _packetType, _minGas) */\n      tag_290\n        /* \"#utility.yul\":18568:18926   */\n      jump\n        /* \"contracts/DingDong.sol\":216:257  string public message = \"waiting to ding\" */\n    tag_163:\n      0x06\n      dup1\n      sload\n      tag_257\n      swap1\n      tag_190\n      jump\t// in\n        /* \"https://github.com/LayerZero-Labs/solidity-examples/blob/main/contracts/lzApp/LzApp.sol\":5370:5574  function setTrustedRemote(uint16 _remoteChainId, bytes calldata _path) external onlyOwner {... */\n    tag_169:\n        /* \"@openzeppelin/contracts/access/Ownable.sol\":1094:1107  _checkOwner() */\n      tag_332\n        /* \"@openzeppelin/contracts/access/Ownable.sol\":1094:1105  _checkOwner */\n      tag_206\n        /* \"@openzeppelin/contracts/access/Ownable.sol\":1094:1107  _checkOwner() */\n      jump\t// in\n    tag_332:\n        /* \"https://github.com/LayerZero-Labs/solidity-examples/blob/main/contracts/lzApp/LzApp.sol\":5470:5505  trustedRemoteLookup[_remoteChainId] */\n      0xffff\n      dup4\n      and\n      0x00\n      swap1\n      dup2\n      mstore\n        /* \"https://github.com/LayerZero-Labs/solidity-examples/blob/main/contracts/lzApp/LzApp.sol\":5470:5489  trustedRemoteLookup */\n      0x01\n        /* \"https://github.com/LayerZero-Labs/solidity-examples/blob/main/contracts/lzApp/LzApp.sol\":5470:5505  trustedRemoteLookup[_remoteChainId] */\n      0x20\n      mstore\n      0x40\n      swap1\n      keccak256\n        /* \"https://github.com/LayerZero-Labs/solidity-examples/blob/main/contracts/lzApp/LzApp.sol\":5470:5513  trustedRemoteLookup[_remoteChainId] = _path */\n      tag_334\n        /* \"https://github.com/LayerZero-Labs/solidity-examples/blob/main/contracts/lzApp/LzApp.sol\":5508:5513  _path */\n      dup3\n      dup5\n        /* \"https://github.com/LayerZero-Labs/solidity-examples/blob/main/contracts/lzApp/LzApp.sol\":5470:5505  trustedRemoteLookup[_remoteChainId] */\n      dup4\n        /* \"https://github.com/LayerZero-Labs/solidity-examples/blob/main/contracts/lzApp/LzApp.sol\":5470:5513  trustedRemoteLookup[_remoteChainId] = _path */\n      tag_335\n      jump\t// in\n    tag_334:\n      pop\n        /* \"https://github.com/LayerZero-Labs/solidity-examples/blob/main/contracts/lzApp/LzApp.sol\":5528:5567  SetTrustedRemote(_remoteChainId, _path) */\n      0xfa41487ad5d6728f0b19276fa1eddc16558578f5109fc39d2dc33c3230470dab\n        /* \"https://github.com/LayerZero-Labs/solidity-examples/blob/main/contracts/lzApp/LzApp.sol\":5545:5559  _remoteChainId */\n      dup4\n        /* \"https://github.com/LayerZero-Labs/solidity-examples/blob/main/contracts/lzApp/LzApp.sol\":5561:5566  _path */\n      dup4\n      dup4\n        /* \"https://github.com/LayerZero-Labs/solidity-examples/blob/main/contracts/lzApp/LzApp.sol\":5528:5567  SetTrustedRemote(_remoteChainId, _path) */\n      mload(0x40)\n      tag_290\n      swap4\n      swap3\n      swap2\n      swap1\n      tag_234\n      jump\t// in\n        /* \"@openzeppelin/contracts/access/Ownable.sol\":2074:2272  function transferOwnership(address newOwner) public virtual onlyOwner {... */\n    tag_173:\n        /* \"@openzeppelin/contracts/access/Ownable.sol\":1094:1107  _checkOwner() */\n      tag_338\n        /* \"@openzeppelin/contracts/access/Ownable.sol\":1094:1105  _checkOwner */\n      tag_206\n        /* \"@openzeppelin/contracts/access/Ownable.sol\":1094:1107  _checkOwner() */\n      jump\t// in\n    tag_338:\n      sub(shl(0xa0, 0x01), 0x01)\n        /* \"@openzeppelin/contracts/access/Ownable.sol\":2162:2184  newOwner != address(0) */\n      dup2\n      and\n        /* \"@openzeppelin/contracts/access/Ownable.sol\":2154:2227  require(newOwner != address(0), \"Ownable: new owner is the zero address\") */\n      tag_340\n      jumpi\n      mload(0x40)\n      shl(0xe5, 0x461bcd)\n      dup2\n      mstore\n        /* \"#utility.yul\":20340:20342   */\n      0x20\n        /* \"@openzeppelin/contracts/access/Ownable.sol\":2154:2227  require(newOwner != address(0), \"Ownable: new owner is the zero address\") */\n      0x04\n      dup3\n      add\n        /* \"#utility.yul\":20322:20343   */\n      mstore\n        /* \"#utility.yul\":20379:20381   */\n      0x26\n        /* \"#utility.yul\":20359:20377   */\n      0x24\n      dup3\n      add\n        /* \"#utility.yul\":20352:20382   */\n      mstore\n        /* \"#utility.yul\":20418:20452   */\n      0x4f776e61626c653a206e6577206f776e657220697320746865207a65726f2061\n        /* \"#utility.yul\":20398:20416   */\n      0x44\n      dup3\n      add\n        /* \"#utility.yul\":20391:20453   */\n      mstore\n      shl(0xd0, 0x646472657373)\n        /* \"#utility.yul\":20469:20487   */\n      0x64\n      dup3\n      add\n        /* \"#utility.yul\":20462:20498   */\n      mstore\n        /* \"#utility.yul\":20515:20534   */\n      0x84\n      add\n        /* \"@openzeppelin/contracts/access/Ownable.sol\":2154:2227  require(newOwner != address(0), \"Ownable: new owner is the zero address\") */\n      tag_187\n        /* \"#utility.yul\":20138:20540   */\n      jump\n        /* \"@openzeppelin/contracts/access/Ownable.sol\":2154:2227  require(newOwner != address(0), \"Ownable: new owner is the zero address\") */\n    tag_340:\n        /* \"@openzeppelin/contracts/access/Ownable.sol\":2237:2265  _transferOwnership(newOwner) */\n      tag_343\n        /* \"@openzeppelin/contracts/access/Ownable.sol\":2256:2264  newOwner */\n      dup2\n        /* \"@openzeppelin/contracts/access/Ownable.sol\":2237:2255  _transferOwnership */\n      tag_256\n        /* \"@openzeppelin/contracts/access/Ownable.sol\":2237:2265  _transferOwnership(newOwner) */\n      jump\t// in\n    tag_343:\n        /* \"@openzeppelin/contracts/access/Ownable.sol\":2074:2272  function transferOwnership(address newOwner) public virtual onlyOwner {... */\n      pop\n      jump\t// out\n        /* \"https://github.com/LayerZero-Labs/solidity-examples/blob/main/contracts/lzApp/LzApp.sol\":4239:4486  function getConfig(... */\n    tag_178:\n        /* \"https://github.com/LayerZero-Labs/solidity-examples/blob/main/contracts/lzApp/LzApp.sol\":4411:4479  lzEndpoint.getConfig(_version, _chainId, address(this), _configType) */\n      mload(0x40)\n      shl(0xe2, 0x3d7b2f6f)\n      dup2\n      mstore\n        /* \"#utility.yul\":20782:20788   */\n      0xffff\n        /* \"#utility.yul\":20815:20830   */\n      dup1\n      dup7\n      and\n        /* \"https://github.com/LayerZero-Labs/solidity-examples/blob/main/contracts/lzApp/LzApp.sol\":4411:4479  lzEndpoint.getConfig(_version, _chainId, address(this), _configType) */\n      0x04\n      dup4\n      add\n        /* \"#utility.yul\":20797:20831   */\n      mstore\n        /* \"#utility.yul\":20867:20882   */\n      dup5\n      and\n        /* \"#utility.yul\":20847:20865   */\n      0x24\n      dup3\n      add\n        /* \"#utility.yul\":20840:20883   */\n      mstore\n        /* \"https://github.com/LayerZero-Labs/solidity-examples/blob/main/contracts/lzApp/LzApp.sol\":4460:4464  this */\n      address\n        /* \"#utility.yul\":20899:20917   */\n      0x44\n      dup3\n      add\n        /* \"#utility.yul\":20892:20952   */\n      mstore\n        /* \"#utility.yul\":20968:20986   */\n      0x64\n      dup2\n      add\n        /* \"#utility.yul\":20961:20995   */\n      dup3\n      swap1\n      mstore\n        /* \"https://github.com/LayerZero-Labs/solidity-examples/blob/main/contracts/lzApp/LzApp.sol\":4380:4392  bytes memory */\n      0x60\n      swap1\n        /* \"https://github.com/LayerZero-Labs/solidity-examples/blob/main/contracts/lzApp/LzApp.sol\":4411:4421  lzEndpoint */\n      immutable(\"0xec6208b88575f43118050c78bff29168f189541daa8140d9ea92f610471bcfa1\")\n      sub(shl(0xa0, 0x01), 0x01)\n        /* \"https://github.com/LayerZero-Labs/solidity-examples/blob/main/contracts/lzApp/LzApp.sol\":4411:4431  lzEndpoint.getConfig */\n      and\n      swap1\n      0xf5ecbdbc\n      swap1\n        /* \"#utility.yul\":20744:20763   */\n      0x84\n      add\n        /* \"https://github.com/LayerZero-Labs/solidity-examples/blob/main/contracts/lzApp/LzApp.sol\":4411:4479  lzEndpoint.getConfig(_version, _chainId, address(this), _configType) */\n      0x00\n      mload(0x40)\n      dup1\n      dup4\n      sub\n      dup2\n      dup7\n      gas\n      staticcall\n      iszero\n      dup1\n      iszero\n      tag_348\n      jumpi\n      returndatasize\n      0x00\n      dup1\n      returndatacopy\n      revert(0x00, returndatasize)\n    tag_348:\n      pop\n      pop\n      pop\n      pop\n      mload(0x40)\n      returndatasize\n      0x00\n      dup3\n      returndatacopy\n      0x1f\n      returndatasize\n      swap1\n      dup2\n      add\n      not(0x1f)\n      and\n      dup3\n      add\n      0x40\n      mstore\n      tag_349\n      swap2\n      swap1\n      dup2\n      add\n      swap1\n      tag_350\n      jump\t// in\n    tag_349:\n        /* \"https://github.com/LayerZero-Labs/solidity-examples/blob/main/contracts/lzApp/LzApp.sol\":4404:4479  return lzEndpoint.getConfig(_version, _chainId, address(this), _configType) */\n      swap6\n        /* \"https://github.com/LayerZero-Labs/solidity-examples/blob/main/contracts/lzApp/LzApp.sol\":4239:4486  function getConfig(... */\n      swap5\n      pop\n      pop\n      pop\n      pop\n      pop\n      jump\t// out\n        /* \"contracts/DingDong.sol\":868:1167  function sendDong(uint16 destChainId) public payable {... */\n    tag_182:\n        /* \"contracts/DingDong.sol\":932:952  bytes memory payload */\n      0x00\n        /* \"contracts/DingDong.sol\":955:973  abi.encode(\"Dong\") */\n      add(0x20, mload(0x40))\n      tag_296\n      swap1\n        /* \"#utility.yul\":21995:21997   */\n      0x20\n        /* \"#utility.yul\":21977:21998   */\n      dup1\n      dup3\n      mstore\n        /* \"#utility.yul\":22034:22035   */\n      0x04\n        /* \"#utility.yul\":22014:22032   */\n      swap1\n      dup3\n      add\n        /* \"#utility.yul\":22007:22036   */\n      mstore\n      shl(0xe0, 0x446f6e67)\n        /* \"#utility.yul\":22067:22069   */\n      0x40\n        /* \"#utility.yul\":22052:22070   */\n      dup3\n      add\n        /* \"#utility.yul\":22045:22079   */\n      mstore\n        /* \"#utility.yul\":22111:22113   */\n      0x60\n        /* \"#utility.yul\":22096:22114   */\n      add\n      swap1\n        /* \"#utility.yul\":21793:22120   */\n      jump\n        /* \"https://github.com/LayerZero-Labs/solidity-examples/blob/main/contracts/lzApp/NonblockingLzApp.sol\":985:1534  function _blockingLzReceive(... */\n    tag_203:\n        /* \"https://github.com/LayerZero-Labs/solidity-examples/blob/main/contracts/lzApp/NonblockingLzApp.sol\":1172:1184  bool success */\n      0x00\n        /* \"https://github.com/LayerZero-Labs/solidity-examples/blob/main/contracts/lzApp/NonblockingLzApp.sol\":1186:1205  bytes memory reason */\n      dup1\n        /* \"https://github.com/LayerZero-Labs/solidity-examples/blob/main/contracts/lzApp/NonblockingLzApp.sol\":1209:1408  address(this).excessivelySafeCall(... */\n      tag_357\n        /* \"https://github.com/LayerZero-Labs/solidity-examples/blob/main/contracts/lzApp/NonblockingLzApp.sol\":1256:1265  gasleft() */\n      gas\n        /* \"https://github.com/LayerZero-Labs/solidity-examples/blob/main/contracts/lzApp/NonblockingLzApp.sol\":1279:1282  150 */\n      0x96\n        /* \"https://github.com/LayerZero-Labs/solidity-examples/blob/main/contracts/lzApp/NonblockingLzApp.sol\":1319:1353  this.nonblockingLzReceive.selector */\n      shl(0xe0, 0x66ad5c8a)\n        /* \"https://github.com/LayerZero-Labs/solidity-examples/blob/main/contracts/lzApp/NonblockingLzApp.sol\":1355:1366  _srcChainId */\n      dup10\n        /* \"https://github.com/LayerZero-Labs/solidity-examples/blob/main/contracts/lzApp/NonblockingLzApp.sol\":1368:1379  _srcAddress */\n      dup10\n        /* \"https://github.com/LayerZero-Labs/solidity-examples/blob/main/contracts/lzApp/NonblockingLzApp.sol\":1381:1387  _nonce */\n      dup10\n        /* \"https://github.com/LayerZero-Labs/solidity-examples/blob/main/contracts/lzApp/NonblockingLzApp.sol\":1389:1397  _payload */\n      dup10\n        /* \"https://github.com/LayerZero-Labs/solidity-examples/blob/main/contracts/lzApp/NonblockingLzApp.sol\":1296:1398  abi.encodeWithSelector(this.nonblockingLzReceive.selector, _srcChainId, _srcAddress, _nonce, _payload) */\n      add(0x24, mload(0x40))\n      tag_358\n      swap5\n      swap4\n      swap3\n      swap2\n      swap1\n      tag_359\n      jump\t// in\n    tag_358:\n      0x40\n      dup1\n      mload\n      not(0x1f)\n      dup2\n      dup5\n      sub\n      add\n      dup2\n      mstore\n      swap2\n      swap1\n      mstore\n      0x20\n      dup2\n      add\n      dup1\n      mload\n      sub(shl(0xe0, 0x01), 0x01)\n      and\n      not(sub(shl(0xe0, 0x01), 0x01))\n      swap1\n      swap4\n      and\n      swap3\n      swap1\n      swap3\n      or\n      swap1\n      swap2\n      mstore\n        /* \"https://github.com/LayerZero-Labs/solidity-examples/blob/main/contracts/lzApp/NonblockingLzApp.sol\":1217:1221  this */\n      address\n      swap3\n        /* \"https://github.com/LayerZero-Labs/solidity-examples/blob/main/contracts/lzApp/NonblockingLzApp.sol\":1209:1408  address(this).excessivelySafeCall(... */\n      swap2\n      swap1\n        /* \"https://github.com/LayerZero-Labs/solidity-examples/blob/main/contracts/lzApp/NonblockingLzApp.sol\":1209:1242  address(this).excessivelySafeCall */\n      tag_360\n        /* \"https://github.com/LayerZero-Labs/solidity-examples/blob/main/contracts/lzApp/NonblockingLzApp.sol\":1209:1408  address(this).excessivelySafeCall(... */\n      jump\t// in\n    tag_357:\n        /* \"https://github.com/LayerZero-Labs/solidity-examples/blob/main/contracts/lzApp/NonblockingLzApp.sol\":1171:1408  (bool success, bytes memory reason) = address(this).excessivelySafeCall(... */\n      swap2\n      pop\n      swap2\n      pop\n        /* \"https://github.com/LayerZero-Labs/solidity-examples/blob/main/contracts/lzApp/NonblockingLzApp.sol\":1423:1430  success */\n      dup2\n        /* \"https://github.com/LayerZero-Labs/solidity-examples/blob/main/contracts/lzApp/NonblockingLzApp.sol\":1418:1528  if (!success) {... */\n      tag_250\n      jumpi\n        /* \"https://github.com/LayerZero-Labs/solidity-examples/blob/main/contracts/lzApp/NonblockingLzApp.sol\":1446:1517  _storeFailedMessage(_srcChainId, _srcAddress, _nonce, _payload, reason) */\n      tag_250\n        /* \"https://github.com/LayerZero-Labs/solidity-examples/blob/main/contracts/lzApp/NonblockingLzApp.sol\":1466:1477  _srcChainId */\n      dup7\n        /* \"https://github.com/LayerZero-Labs/solidity-examples/blob/main/contracts/lzApp/NonblockingLzApp.sol\":1479:1490  _srcAddress */\n      dup7\n        /* \"https://github.com/LayerZero-Labs/solidity-examples/blob/main/contracts/lzApp/NonblockingLzApp.sol\":1492:1498  _nonce */\n      dup7\n        /* \"https://github.com/LayerZero-Labs/solidity-examples/blob/main/contracts/lzApp/NonblockingLzApp.sol\":1500:1508  _payload */\n      dup7\n        /* \"https://github.com/LayerZero-Labs/solidity-examples/blob/main/contracts/lzApp/NonblockingLzApp.sol\":1510:1516  reason */\n      dup6\n        /* \"https://github.com/LayerZero-Labs/solidity-examples/blob/main/contracts/lzApp/NonblockingLzApp.sol\":1446:1465  _storeFailedMessage */\n      tag_363\n        /* \"https://github.com/LayerZero-Labs/solidity-examples/blob/main/contracts/lzApp/NonblockingLzApp.sol\":1446:1517  _storeFailedMessage(_srcChainId, _srcAddress, _nonce, _payload, reason) */\n      jump\t// in\n        /* \"@openzeppelin/contracts/access/Ownable.sol\":1359:1489  function _checkOwner() internal view virtual {... */\n    tag_206:\n        /* \"@openzeppelin/contracts/access/Ownable.sol\":1247:1254  address */\n      0x00\n        /* \"@openzeppelin/contracts/access/Ownable.sol\":1273:1279  _owner */\n      sload\n      sub(shl(0xa0, 0x01), 0x01)\n      and\n        /* \"@openzeppelin/contracts/utils/Context.sol\":719:729  msg.sender */\n      caller\n        /* \"@openzeppelin/contracts/access/Ownable.sol\":1422:1445  owner() == _msgSender() */\n      eq\n        /* \"@openzeppelin/contracts/access/Ownable.sol\":1414:1482  require(owner() == _msgSender(), \"Ownable: caller is not the owner\") */\n      tag_255\n      jumpi\n      mload(0x40)\n      shl(0xe5, 0x461bcd)\n      dup2\n      mstore\n        /* \"#utility.yul\":22887:22889   */\n      0x20\n        /* \"@openzeppelin/contracts/access/Ownable.sol\":1414:1482  require(owner() == _msgSender(), \"Ownable: caller is not the owner\") */\n      0x04\n      dup3\n      add\n        /* \"#utility.yul\":22869:22890   */\n      dup2\n      swap1\n      mstore\n        /* \"#utility.yul\":22906:22924   */\n      0x24\n      dup3\n      add\n        /* \"#utility.yul\":22899:22929   */\n      mstore\n        /* \"#utility.yul\":22965:22999   */\n      0x4f776e61626c653a2063616c6c6572206973206e6f7420746865206f776e6572\n        /* \"#utility.yul\":22945:22963   */\n      0x44\n      dup3\n      add\n        /* \"#utility.yul\":22938:23000   */\n      mstore\n        /* \"#utility.yul\":23017:23035   */\n      0x64\n      add\n        /* \"@openzeppelin/contracts/access/Ownable.sol\":1414:1482  require(owner() == _msgSender(), \"Ownable: caller is not the owner\") */\n      tag_187\n        /* \"#utility.yul\":22685:23041   */\n      jump\n        /* \"contracts/DingDong.sol\":349:553  function _nonblockingLzReceive(... */\n    tag_251:\n        /* \"contracts/DingDong.sol\":526:534  _payload */\n      dup1\n        /* \"contracts/DingDong.sol\":515:545  abi.decode(_payload, (string)) */\n      dup1\n      0x20\n      add\n      swap1\n      mload\n      dup2\n      add\n      swap1\n      tag_371\n      swap2\n      swap1\n      tag_350\n      jump\t// in\n    tag_371:\n        /* \"contracts/DingDong.sol\":505:512  message */\n      0x06\n      swap1\n        /* \"contracts/DingDong.sol\":505:545  message = abi.decode(_payload, (string)) */\n      tag_212\n      swap1\n        /* \"contracts/DingDong.sol\":505:512  message */\n      dup3\n        /* \"contracts/DingDong.sol\":505:545  message = abi.decode(_payload, (string)) */\n      tag_244\n      jump\t// in\n        /* \"@openzeppelin/contracts/access/Ownable.sol\":2426:2613  function _transferOwnership(address newOwner) internal virtual {... */\n    tag_256:\n        /* \"@openzeppelin/contracts/access/Ownable.sol\":2499:2515  address oldOwner */\n      0x00\n        /* \"@openzeppelin/contracts/access/Ownable.sol\":2518:2524  _owner */\n      dup1\n      sload\n      sub(shl(0xa0, 0x01), 0x01)\n        /* \"@openzeppelin/contracts/access/Ownable.sol\":2534:2551  _owner = newOwner */\n      dup4\n      dup2\n      and\n      not(sub(shl(0xa0, 0x01), 0x01))\n      dup4\n      and\n      dup2\n      or\n      dup5\n      sstore\n        /* \"@openzeppelin/contracts/access/Ownable.sol\":2566:2606  OwnershipTransferred(oldOwner, newOwner) */\n      mload(0x40)\n        /* \"@openzeppelin/contracts/access/Ownable.sol\":2518:2524  _owner */\n      swap2\n      swap1\n      swap3\n      and\n      swap3\n      dup4\n      swap2\n        /* \"@openzeppelin/contracts/access/Ownable.sol\":2566:2606  OwnershipTransferred(oldOwner, newOwner) */\n      0x8be0079c531659141344cd1fd0a4f28419497f9722a3daafe3b4186f6b6457e0\n      swap2\n        /* \"@openzeppelin/contracts/access/Ownable.sol\":2499:2515  address oldOwner */\n      swap1\n        /* \"@openzeppelin/contracts/access/Ownable.sol\":2566:2606  OwnershipTransferred(oldOwner, newOwner) */\n      log3\n        /* \"@openzeppelin/contracts/access/Ownable.sol\":2489:2613  {... */\n      pop\n        /* \"@openzeppelin/contracts/access/Ownable.sol\":2426:2613  function _transferOwnership(address newOwner) internal virtual {... */\n      pop\n      jump\t// out\n        /* \"https://github.com/LayerZero-Labs/solidity-examples/blob/main/contracts/libraries/BytesLib.sol\":9258:12028  function slice(... */\n    tag_283:\n        /* \"https://github.com/LayerZero-Labs/solidity-examples/blob/main/contracts/libraries/BytesLib.sol\":9374:9386  bytes memory */\n      0x60\n        /* \"https://github.com/LayerZero-Labs/solidity-examples/blob/main/contracts/libraries/BytesLib.sol\":9422:9429  _length */\n      dup2\n        /* \"https://github.com/LayerZero-Labs/solidity-examples/blob/main/contracts/libraries/BytesLib.sol\":9406:9418  _length + 31 */\n      tag_377\n        /* \"https://github.com/LayerZero-Labs/solidity-examples/blob/main/contracts/libraries/BytesLib.sol\":9422:9429  _length */\n      dup2\n        /* \"https://github.com/LayerZero-Labs/solidity-examples/blob/main/contracts/libraries/BytesLib.sol\":9416:9418  31 */\n      0x1f\n        /* \"https://github.com/LayerZero-Labs/solidity-examples/blob/main/contracts/libraries/BytesLib.sol\":9406:9418  _length + 31 */\n      tag_378\n      jump\t// in\n    tag_377:\n        /* \"https://github.com/LayerZero-Labs/solidity-examples/blob/main/contracts/libraries/BytesLib.sol\":9406:9429  _length + 31 >= _length */\n      lt\n      iszero\n        /* \"https://github.com/LayerZero-Labs/solidity-examples/blob/main/contracts/libraries/BytesLib.sol\":9398:9448  require(_length + 31 >= _length, \"slice_overflow\") */\n      tag_379\n      jumpi\n      mload(0x40)\n      shl(0xe5, 0x461bcd)\n      dup2\n      mstore\n        /* \"#utility.yul\":25189:25191   */\n      0x20\n        /* \"https://github.com/LayerZero-Labs/solidity-examples/blob/main/contracts/libraries/BytesLib.sol\":9398:9448  require(_length + 31 >= _length, \"slice_overflow\") */\n      0x04\n      dup3\n      add\n        /* \"#utility.yul\":25171:25192   */\n      mstore\n        /* \"#utility.yul\":25228:25230   */\n      0x0e\n        /* \"#utility.yul\":25208:25226   */\n      0x24\n      dup3\n      add\n        /* \"#utility.yul\":25201:25231   */\n      mstore\n      shl(0x90, 0x736c6963655f6f766572666c6f77)\n        /* \"#utility.yul\":25247:25265   */\n      0x44\n      dup3\n      add\n        /* \"#utility.yul\":25240:25284   */\n      mstore\n        /* \"#utility.yul\":25301:25319   */\n      0x64\n      add\n        /* \"https://github.com/LayerZero-Labs/solidity-examples/blob/main/contracts/libraries/BytesLib.sol\":9398:9448  require(_length + 31 >= _length, \"slice_overflow\") */\n      tag_187\n        /* \"#utility.yul\":24987:25325   */\n      jump\n        /* \"https://github.com/LayerZero-Labs/solidity-examples/blob/main/contracts/libraries/BytesLib.sol\":9398:9448  require(_length + 31 >= _length, \"slice_overflow\") */\n    tag_379:\n        /* \"https://github.com/LayerZero-Labs/solidity-examples/blob/main/contracts/libraries/BytesLib.sol\":9483:9499  _start + _length */\n      tag_382\n        /* \"https://github.com/LayerZero-Labs/solidity-examples/blob/main/contracts/libraries/BytesLib.sol\":9492:9499  _length */\n      dup3\n        /* \"https://github.com/LayerZero-Labs/solidity-examples/blob/main/contracts/libraries/BytesLib.sol\":9483:9489  _start */\n      dup5\n        /* \"https://github.com/LayerZero-Labs/solidity-examples/blob/main/contracts/libraries/BytesLib.sol\":9483:9499  _start + _length */\n      tag_378\n      jump\t// in\n    tag_382:\n        /* \"https://github.com/LayerZero-Labs/solidity-examples/blob/main/contracts/libraries/BytesLib.sol\":9466:9472  _bytes */\n      dup5\n        /* \"https://github.com/LayerZero-Labs/solidity-examples/blob/main/contracts/libraries/BytesLib.sol\":9466:9479  _bytes.length */\n      mload\n        /* \"https://github.com/LayerZero-Labs/solidity-examples/blob/main/contracts/libraries/BytesLib.sol\":9466:9499  _bytes.length >= _start + _length */\n      lt\n      iszero\n        /* \"https://github.com/LayerZero-Labs/solidity-examples/blob/main/contracts/libraries/BytesLib.sol\":9458:9521  require(_bytes.length >= _start + _length, \"slice_outOfBounds\") */\n      tag_383\n      jumpi\n      mload(0x40)\n      shl(0xe5, 0x461bcd)\n      dup2\n      mstore\n        /* \"#utility.yul\":25532:25534   */\n      0x20\n        /* \"https://github.com/LayerZero-Labs/solidity-examples/blob/main/contracts/libraries/BytesLib.sol\":9458:9521  require(_bytes.length >= _start + _length, \"slice_outOfBounds\") */\n      0x04\n      dup3\n      add\n        /* \"#utility.yul\":25514:25535   */\n      mstore\n        /* \"#utility.yul\":25571:25573   */\n      0x11\n        /* \"#utility.yul\":25551:25569   */\n      0x24\n      dup3\n      add\n        /* \"#utility.yul\":25544:25574   */\n      mstore\n      shl(0x78, 0x736c6963655f6f75744f66426f756e6473)\n        /* \"#utility.yul\":25590:25608   */\n      0x44\n      dup3\n      add\n        /* \"#utility.yul\":25583:25630   */\n      mstore\n        /* \"#utility.yul\":25647:25665   */\n      0x64\n      add\n        /* \"https://github.com/LayerZero-Labs/solidity-examples/blob/main/contracts/libraries/BytesLib.sol\":9458:9521  require(_bytes.length >= _start + _length, \"slice_outOfBounds\") */\n      tag_187\n        /* \"#utility.yul\":25330:25671   */\n      jump\n        /* \"https://github.com/LayerZero-Labs/solidity-examples/blob/main/contracts/libraries/BytesLib.sol\":9458:9521  require(_bytes.length >= _start + _length, \"slice_outOfBounds\") */\n    tag_383:\n        /* \"https://github.com/LayerZero-Labs/solidity-examples/blob/main/contracts/libraries/BytesLib.sol\":9532:9554  bytes memory tempBytes */\n      0x60\n        /* \"https://github.com/LayerZero-Labs/solidity-examples/blob/main/contracts/libraries/BytesLib.sol\":9595:9610  iszero(_length) */\n      dup3\n      iszero\n        /* \"https://github.com/LayerZero-Labs/solidity-examples/blob/main/contracts/libraries/BytesLib.sol\":9623:11590  case 0 {... */\n      dup1\n      iszero\n      tag_387\n      jumpi\n        /* \"https://github.com/LayerZero-Labs/solidity-examples/blob/main/contracts/libraries/BytesLib.sol\":11731:11735  0x40 */\n      0x40\n        /* \"https://github.com/LayerZero-Labs/solidity-examples/blob/main/contracts/libraries/BytesLib.sol\":11725:11736  mload(0x40) */\n      mload\n        /* \"https://github.com/LayerZero-Labs/solidity-examples/blob/main/contracts/libraries/BytesLib.sol\":11712:11736  tempBytes := mload(0x40) */\n      swap2\n      pop\n        /* \"https://github.com/LayerZero-Labs/solidity-examples/blob/main/contracts/libraries/BytesLib.sol\":11917:11918  0 */\n      0x00\n        /* \"https://github.com/LayerZero-Labs/solidity-examples/blob/main/contracts/libraries/BytesLib.sol\":11906:11915  tempBytes */\n      dup3\n        /* \"https://github.com/LayerZero-Labs/solidity-examples/blob/main/contracts/libraries/BytesLib.sol\":11899:11919  mstore(tempBytes, 0) */\n      mstore\n        /* \"https://github.com/LayerZero-Labs/solidity-examples/blob/main/contracts/libraries/BytesLib.sol\":11965:11969  0x20 */\n      0x20\n        /* \"https://github.com/LayerZero-Labs/solidity-examples/blob/main/contracts/libraries/BytesLib.sol\":11954:11963  tempBytes */\n      dup3\n        /* \"https://github.com/LayerZero-Labs/solidity-examples/blob/main/contracts/libraries/BytesLib.sol\":11950:11970  add(tempBytes, 0x20) */\n      add\n        /* \"https://github.com/LayerZero-Labs/solidity-examples/blob/main/contracts/libraries/BytesLib.sol\":11944:11948  0x40 */\n      0x40\n        /* \"https://github.com/LayerZero-Labs/solidity-examples/blob/main/contracts/libraries/BytesLib.sol\":11937:11971  mstore(0x40, add(tempBytes, 0x20)) */\n      mstore\n        /* \"https://github.com/LayerZero-Labs/solidity-examples/blob/main/contracts/libraries/BytesLib.sol\":9588:11985  switch iszero(_length)... */\n      jump(tag_386)\n        /* \"https://github.com/LayerZero-Labs/solidity-examples/blob/main/contracts/libraries/BytesLib.sol\":9623:11590  case 0 {... */\n    tag_387:\n        /* \"https://github.com/LayerZero-Labs/solidity-examples/blob/main/contracts/libraries/BytesLib.sol\":9805:9809  0x40 */\n      0x40\n        /* \"https://github.com/LayerZero-Labs/solidity-examples/blob/main/contracts/libraries/BytesLib.sol\":9799:9810  mload(0x40) */\n      mload\n        /* \"https://github.com/LayerZero-Labs/solidity-examples/blob/main/contracts/libraries/BytesLib.sol\":9786:9810  tempBytes := mload(0x40) */\n      swap2\n      pop\n        /* \"https://github.com/LayerZero-Labs/solidity-examples/blob/main/contracts/libraries/BytesLib.sol\":10464:10466  31 */\n      0x1f\n        /* \"https://github.com/LayerZero-Labs/solidity-examples/blob/main/contracts/libraries/BytesLib.sol\":10455:10462  _length */\n      dup5\n        /* \"https://github.com/LayerZero-Labs/solidity-examples/blob/main/contracts/libraries/BytesLib.sol\":10451:10467  and(_length, 31) */\n      and\n        /* \"https://github.com/LayerZero-Labs/solidity-examples/blob/main/contracts/libraries/BytesLib.sol\":10846:10855  lengthmod */\n      dup1\n        /* \"https://github.com/LayerZero-Labs/solidity-examples/blob/main/contracts/libraries/BytesLib.sol\":10839:10856  iszero(lengthmod) */\n      iszero\n        /* \"https://github.com/LayerZero-Labs/solidity-examples/blob/main/contracts/libraries/BytesLib.sol\":10833:10837  0x20 */\n      0x20\n        /* \"https://github.com/LayerZero-Labs/solidity-examples/blob/main/contracts/libraries/BytesLib.sol\":10829:10857  mul(0x20, iszero(lengthmod)) */\n      mul\n        /* \"https://github.com/LayerZero-Labs/solidity-examples/blob/main/contracts/libraries/BytesLib.sol\":10817:10826  lengthmod */\n      dup2\n        /* \"https://github.com/LayerZero-Labs/solidity-examples/blob/main/contracts/libraries/BytesLib.sol\":10806:10815  tempBytes */\n      dup5\n        /* \"https://github.com/LayerZero-Labs/solidity-examples/blob/main/contracts/libraries/BytesLib.sol\":10802:10827  add(tempBytes, lengthmod) */\n      add\n        /* \"https://github.com/LayerZero-Labs/solidity-examples/blob/main/contracts/libraries/BytesLib.sol\":10798:10858  add(add(tempBytes, lengthmod), mul(0x20, iszero(lengthmod))) */\n      add\n        /* \"https://github.com/LayerZero-Labs/solidity-examples/blob/main/contracts/libraries/BytesLib.sol\":10894:10901  _length */\n      dup6\n        /* \"https://github.com/LayerZero-Labs/solidity-examples/blob/main/contracts/libraries/BytesLib.sol\":10890:10892  mc */\n      dup2\n        /* \"https://github.com/LayerZero-Labs/solidity-examples/blob/main/contracts/libraries/BytesLib.sol\":10886:10902  add(mc, _length) */\n      add\n        /* \"https://github.com/LayerZero-Labs/solidity-examples/blob/main/contracts/libraries/BytesLib.sol\":11146:11152  _start */\n      dup8\n        /* \"https://github.com/LayerZero-Labs/solidity-examples/blob/main/contracts/libraries/BytesLib.sol\":11132:11141  lengthmod */\n      dup4\n        /* \"https://github.com/LayerZero-Labs/solidity-examples/blob/main/contracts/libraries/BytesLib.sol\":11125:11142  iszero(lengthmod) */\n      iszero\n        /* \"https://github.com/LayerZero-Labs/solidity-examples/blob/main/contracts/libraries/BytesLib.sol\":11119:11123  0x20 */\n      0x20\n        /* \"https://github.com/LayerZero-Labs/solidity-examples/blob/main/contracts/libraries/BytesLib.sol\":11115:11143  mul(0x20, iszero(lengthmod)) */\n      mul\n        /* \"https://github.com/LayerZero-Labs/solidity-examples/blob/main/contracts/libraries/BytesLib.sol\":11103:11112  lengthmod */\n      dup5\n        /* \"https://github.com/LayerZero-Labs/solidity-examples/blob/main/contracts/libraries/BytesLib.sol\":11095:11101  _bytes */\n      dup12\n        /* \"https://github.com/LayerZero-Labs/solidity-examples/blob/main/contracts/libraries/BytesLib.sol\":11091:11113  add(_bytes, lengthmod) */\n      add\n        /* \"https://github.com/LayerZero-Labs/solidity-examples/blob/main/contracts/libraries/BytesLib.sol\":11087:11144  add(add(_bytes, lengthmod), mul(0x20, iszero(lengthmod))) */\n      add\n        /* \"https://github.com/LayerZero-Labs/solidity-examples/blob/main/contracts/libraries/BytesLib.sol\":11083:11153  add(add(add(_bytes, lengthmod), mul(0x20, iszero(lengthmod))), _start) */\n      add\n        /* \"https://github.com/LayerZero-Labs/solidity-examples/blob/main/contracts/libraries/BytesLib.sol\":10920:11345  for {... */\n    tag_388:\n        /* \"https://github.com/LayerZero-Labs/solidity-examples/blob/main/contracts/libraries/BytesLib.sol\":11179:11182  end */\n      dup2\n        /* \"https://github.com/LayerZero-Labs/solidity-examples/blob/main/contracts/libraries/BytesLib.sol\":11175:11177  mc */\n      dup4\n        /* \"https://github.com/LayerZero-Labs/solidity-examples/blob/main/contracts/libraries/BytesLib.sol\":11172:11183  lt(mc, end) */\n      lt\n        /* \"https://github.com/LayerZero-Labs/solidity-examples/blob/main/contracts/libraries/BytesLib.sol\":10920:11345  for {... */\n      iszero\n      tag_390\n      jumpi\n        /* \"https://github.com/LayerZero-Labs/solidity-examples/blob/main/contracts/libraries/BytesLib.sol\":11317:11326  mload(cc) */\n      dup1\n      mload\n        /* \"https://github.com/LayerZero-Labs/solidity-examples/blob/main/contracts/libraries/BytesLib.sol\":11306:11327  mstore(mc, mload(cc)) */\n      dup4\n      mstore\n        /* \"https://github.com/LayerZero-Labs/solidity-examples/blob/main/contracts/libraries/BytesLib.sol\":11220:11224  0x20 */\n      0x20\n        /* \"https://github.com/LayerZero-Labs/solidity-examples/blob/main/contracts/libraries/BytesLib.sol\":11212:11225  add(mc, 0x20) */\n      swap3\n      dup4\n      add\n      swap3\n        /* \"https://github.com/LayerZero-Labs/solidity-examples/blob/main/contracts/libraries/BytesLib.sol\":11252:11265  add(cc, 0x20) */\n      add\n        /* \"https://github.com/LayerZero-Labs/solidity-examples/blob/main/contracts/libraries/BytesLib.sol\":10920:11345  for {... */\n      jump(tag_388)\n    tag_390:\n      pop\n      pop\n        /* \"https://github.com/LayerZero-Labs/solidity-examples/blob/main/contracts/libraries/BytesLib.sol\":11363:11389  mstore(tempBytes, _length) */\n      dup6\n      dup5\n      mstore\n        /* \"https://github.com/LayerZero-Labs/solidity-examples/blob/main/contracts/libraries/BytesLib.sol\":11571:11573  31 */\n      0x1f\n        /* \"https://github.com/LayerZero-Labs/solidity-examples/blob/main/contracts/libraries/BytesLib.sol\":11554:11565  add(mc, 31) */\n      add\n      not(0x1f)\n        /* \"https://github.com/LayerZero-Labs/solidity-examples/blob/main/contracts/libraries/BytesLib.sol\":11550:11575  and(add(mc, 31), not(31)) */\n      and\n        /* \"https://github.com/LayerZero-Labs/solidity-examples/blob/main/contracts/libraries/BytesLib.sol\":11544:11548  0x40 */\n      0x40\n        /* \"https://github.com/LayerZero-Labs/solidity-examples/blob/main/contracts/libraries/BytesLib.sol\":11537:11576  mstore(0x40, and(add(mc, 31), not(31))) */\n      mstore\n      pop\n        /* \"https://github.com/LayerZero-Labs/solidity-examples/blob/main/contracts/libraries/BytesLib.sol\":9588:11985  switch iszero(_length)... */\n    tag_386:\n      pop\n        /* \"https://github.com/LayerZero-Labs/solidity-examples/blob/main/contracts/libraries/BytesLib.sol\":12012:12021  tempBytes */\n      swap5\n        /* \"https://github.com/LayerZero-Labs/solidity-examples/blob/main/contracts/libraries/BytesLib.sol\":9258:12028  function slice(... */\n      swap4\n      pop\n      pop\n      pop\n      pop\n      jump\t// out\n        /* \"https://github.com/LayerZero-Labs/solidity-examples/blob/main/contracts/lzApp/LzApp.sol\":2403:3005  function _lzSend(... */\n    tag_299:\n        /* \"https://github.com/LayerZero-Labs/solidity-examples/blob/main/contracts/lzApp/LzApp.sol\":2679:2711  trustedRemoteLookup[_dstChainId] */\n      0xffff\n      dup7\n      and\n        /* \"https://github.com/LayerZero-Labs/solidity-examples/blob/main/contracts/lzApp/LzApp.sol\":2650:2676  bytes memory trustedRemote */\n      0x00\n        /* \"https://github.com/LayerZero-Labs/solidity-examples/blob/main/contracts/lzApp/LzApp.sol\":2679:2711  trustedRemoteLookup[_dstChainId] */\n      swap1\n      dup2\n      mstore\n        /* \"https://github.com/LayerZero-Labs/solidity-examples/blob/main/contracts/lzApp/LzApp.sol\":2679:2698  trustedRemoteLookup */\n      0x01\n        /* \"https://github.com/LayerZero-Labs/solidity-examples/blob/main/contracts/lzApp/LzApp.sol\":2679:2711  trustedRemoteLookup[_dstChainId] */\n      0x20\n      mstore\n      0x40\n      dup2\n      keccak256\n        /* \"https://github.com/LayerZero-Labs/solidity-examples/blob/main/contracts/lzApp/LzApp.sol\":2650:2711  bytes memory trustedRemote = trustedRemoteLookup[_dstChainId] */\n      dup1\n      sload\n      tag_392\n      swap1\n      tag_190\n      jump\t// in\n    tag_392:\n      dup1\n      0x1f\n      add\n      0x20\n      dup1\n      swap2\n      div\n      mul\n      0x20\n      add\n      mload(0x40)\n      swap1\n      dup2\n      add\n      0x40\n      mstore\n      dup1\n      swap3\n      swap2\n      swap1\n      dup2\n      dup2\n      mstore\n      0x20\n      add\n      dup3\n      dup1\n      sload\n      tag_393\n      swap1\n      tag_190\n      jump\t// in\n    tag_393:\n      dup1\n      iszero\n      tag_394\n      jumpi\n      dup1\n      0x1f\n      lt\n      tag_395\n      jumpi\n      0x0100\n      dup1\n      dup4\n      sload\n      div\n      mul\n      dup4\n      mstore\n      swap2\n      0x20\n      add\n      swap2\n      jump(tag_394)\n    tag_395:\n      dup3\n      add\n      swap2\n      swap1\n      0x00\n      mstore\n      keccak256(0x00, 0x20)\n      swap1\n    tag_396:\n      dup2\n      sload\n      dup2\n      mstore\n      swap1\n      0x01\n      add\n      swap1\n      0x20\n      add\n      dup1\n      dup4\n      gt\n      tag_396\n      jumpi\n      dup3\n      swap1\n      sub\n      0x1f\n      and\n      dup3\n      add\n      swap2\n    tag_394:\n      pop\n      pop\n      pop\n      pop\n      pop\n      swap1\n      pop\n        /* \"https://github.com/LayerZero-Labs/solidity-examples/blob/main/contracts/lzApp/LzApp.sol\":2729:2742  trustedRemote */\n      dup1\n        /* \"https://github.com/LayerZero-Labs/solidity-examples/blob/main/contracts/lzApp/LzApp.sol\":2729:2749  trustedRemote.length */\n      mload\n        /* \"https://github.com/LayerZero-Labs/solidity-examples/blob/main/contracts/lzApp/LzApp.sol\":2753:2754  0 */\n      0x00\n        /* \"https://github.com/LayerZero-Labs/solidity-examples/blob/main/contracts/lzApp/LzApp.sol\":2729:2754  trustedRemote.length != 0 */\n      sub\n        /* \"https://github.com/LayerZero-Labs/solidity-examples/blob/main/contracts/lzApp/LzApp.sol\":2721:2807  require(trustedRemote.length != 0, \"LzApp: destination chain is not a trusted source\") */\n      tag_397\n      jumpi\n      mload(0x40)\n      shl(0xe5, 0x461bcd)\n      dup2\n      mstore\n        /* \"#utility.yul\":25878:25880   */\n      0x20\n        /* \"https://github.com/LayerZero-Labs/solidity-examples/blob/main/contracts/lzApp/LzApp.sol\":2721:2807  require(trustedRemote.length != 0, \"LzApp: destination chain is not a trusted source\") */\n      0x04\n      dup3\n      add\n        /* \"#utility.yul\":25860:25881   */\n      mstore\n        /* \"#utility.yul\":25917:25919   */\n      0x30\n        /* \"#utility.yul\":25897:25915   */\n      0x24\n      dup3\n      add\n        /* \"#utility.yul\":25890:25920   */\n      mstore\n        /* \"#utility.yul\":25956:25990   */\n      0x4c7a4170703a2064657374696e6174696f6e20636861696e206973206e6f7420\n        /* \"#utility.yul\":25936:25954   */\n      0x44\n      dup3\n      add\n        /* \"#utility.yul\":25929:25991   */\n      mstore\n      shl(0x80, 0x61207472757374656420736f75726365)\n        /* \"#utility.yul\":26007:26025   */\n      0x64\n      dup3\n      add\n        /* \"#utility.yul\":26000:26046   */\n      mstore\n        /* \"#utility.yul\":26063:26082   */\n      0x84\n      add\n        /* \"https://github.com/LayerZero-Labs/solidity-examples/blob/main/contracts/lzApp/LzApp.sol\":2721:2807  require(trustedRemote.length != 0, \"LzApp: destination chain is not a trusted source\") */\n      tag_187\n        /* \"#utility.yul\":25676:26088   */\n      jump\n        /* \"https://github.com/LayerZero-Labs/solidity-examples/blob/main/contracts/lzApp/LzApp.sol\":2721:2807  require(trustedRemote.length != 0, \"LzApp: destination chain is not a trusted source\") */\n    tag_397:\n        /* \"https://github.com/LayerZero-Labs/solidity-examples/blob/main/contracts/lzApp/LzApp.sol\":2817:2864  _checkPayloadSize(_dstChainId, _payload.length) */\n      tag_400\n        /* \"https://github.com/LayerZero-Labs/solidity-examples/blob/main/contracts/lzApp/LzApp.sol\":2835:2846  _dstChainId */\n      dup8\n        /* \"https://github.com/LayerZero-Labs/solidity-examples/blob/main/contracts/lzApp/LzApp.sol\":2848:2856  _payload */\n      dup8\n        /* \"https://github.com/LayerZero-Labs/solidity-examples/blob/main/contracts/lzApp/LzApp.sol\":2848:2863  _payload.length */\n      mload\n        /* \"https://github.com/LayerZero-Labs/solidity-examples/blob/main/contracts/lzApp/LzApp.sol\":2817:2834  _checkPayloadSize */\n      tag_401\n        /* \"https://github.com/LayerZero-Labs/solidity-examples/blob/main/contracts/lzApp/LzApp.sol\":2817:2864  _checkPayloadSize(_dstChainId, _payload.length) */\n      jump\t// in\n    tag_400:\n        /* \"https://github.com/LayerZero-Labs/solidity-examples/blob/main/contracts/lzApp/LzApp.sol\":2874:2998  lzEndpoint.send{value: _nativeFee}(_dstChainId, trustedRemote, _payload, _refundAddress, _zroPaymentAddress, _adapterParams) */\n      mload(0x40)\n      shl(0xe8, 0xc58031)\n      dup2\n      mstore\n      sub(shl(0xa0, 0x01), 0x01)\n        /* \"https://github.com/LayerZero-Labs/solidity-examples/blob/main/contracts/lzApp/LzApp.sol\":2874:2884  lzEndpoint */\n      immutable(\"0xec6208b88575f43118050c78bff29168f189541daa8140d9ea92f610471bcfa1\")\n        /* \"https://github.com/LayerZero-Labs/solidity-examples/blob/main/contracts/lzApp/LzApp.sol\":2874:2889  lzEndpoint.send */\n      and\n      swap1\n      0xc5803100\n      swap1\n        /* \"https://github.com/LayerZero-Labs/solidity-examples/blob/main/contracts/lzApp/LzApp.sol\":2897:2907  _nativeFee */\n      dup5\n      swap1\n        /* \"https://github.com/LayerZero-Labs/solidity-examples/blob/main/contracts/lzApp/LzApp.sol\":2874:2998  lzEndpoint.send{value: _nativeFee}(_dstChainId, trustedRemote, _payload, _refundAddress, _zroPaymentAddress, _adapterParams) */\n      tag_402\n      swap1\n        /* \"https://github.com/LayerZero-Labs/solidity-examples/blob/main/contracts/lzApp/LzApp.sol\":2909:2920  _dstChainId */\n      dup12\n      swap1\n        /* \"https://github.com/LayerZero-Labs/solidity-examples/blob/main/contracts/lzApp/LzApp.sol\":2922:2935  trustedRemote */\n      dup7\n      swap1\n        /* \"https://github.com/LayerZero-Labs/solidity-examples/blob/main/contracts/lzApp/LzApp.sol\":2937:2945  _payload */\n      dup13\n      swap1\n        /* \"https://github.com/LayerZero-Labs/solidity-examples/blob/main/contracts/lzApp/LzApp.sol\":2947:2961  _refundAddress */\n      dup13\n      swap1\n        /* \"https://github.com/LayerZero-Labs/solidity-examples/blob/main/contracts/lzApp/LzApp.sol\":2963:2981  _zroPaymentAddress */\n      dup13\n      swap1\n        /* \"https://github.com/LayerZero-Labs/solidity-examples/blob/main/contracts/lzApp/LzApp.sol\":2983:2997  _adapterParams */\n      dup13\n      swap1\n        /* \"https://github.com/LayerZero-Labs/solidity-examples/blob/main/contracts/lzApp/LzApp.sol\":2874:2998  lzEndpoint.send{value: _nativeFee}(_dstChainId, trustedRemote, _payload, _refundAddress, _zroPaymentAddress, _adapterParams) */\n      0x04\n      add\n      tag_403\n      jump\t// in\n    tag_402:\n      0x00\n      mload(0x40)\n      dup1\n      dup4\n      sub\n      dup2\n      dup6\n      dup9\n      dup1\n      extcodesize\n      iszero\n      dup1\n      iszero\n      tag_404\n      jumpi\n      0x00\n      dup1\n      revert\n    tag_404:\n      pop\n      gas\n      call\n      iszero\n      dup1\n      iszero\n      tag_406\n      jumpi\n      returndatasize\n      0x00\n      dup1\n      returndatacopy\n      revert(0x00, returndatasize)\n    tag_406:\n      pop\n      pop\n      pop\n      pop\n      pop\n        /* \"https://github.com/LayerZero-Labs/solidity-examples/blob/main/contracts/lzApp/LzApp.sol\":2640:3005  {... */\n      pop\n        /* \"https://github.com/LayerZero-Labs/solidity-examples/blob/main/contracts/lzApp/LzApp.sol\":2403:3005  function _lzSend(... */\n      pop\n      pop\n      pop\n      pop\n      pop\n      pop\n      jump\t// out\n        /* \"https://github.com/LayerZero-Labs/solidity-examples/blob/main/contracts/libraries/ExcessivelySafeCall.sol\":1111:2385  function excessivelySafeCall(... */\n    tag_360:\n        /* \"https://github.com/LayerZero-Labs/solidity-examples/blob/main/contracts/libraries/ExcessivelySafeCall.sol\":1265:1269  bool */\n      0x00\n        /* \"https://github.com/LayerZero-Labs/solidity-examples/blob/main/contracts/libraries/ExcessivelySafeCall.sol\":1271:1283  bytes memory */\n      0x60\n        /* \"https://github.com/LayerZero-Labs/solidity-examples/blob/main/contracts/libraries/ExcessivelySafeCall.sol\":1331:1343  uint _toCopy */\n      0x00\n        /* \"https://github.com/LayerZero-Labs/solidity-examples/blob/main/contracts/libraries/ExcessivelySafeCall.sol\":1353:1366  bool _success */\n      dup1\n        /* \"https://github.com/LayerZero-Labs/solidity-examples/blob/main/contracts/libraries/ExcessivelySafeCall.sol\":1376:1400  bytes memory _returnData */\n      0x00\n        /* \"https://github.com/LayerZero-Labs/solidity-examples/blob/main/contracts/libraries/ExcessivelySafeCall.sol\":1413:1421  _maxCopy */\n      dup7\n        /* \"https://github.com/LayerZero-Labs/solidity-examples/blob/main/contracts/libraries/ExcessivelySafeCall.sol\":1403:1422  new bytes(_maxCopy) */\n      0xffff\n      and\n      sub(shl(0x40, 0x01), 0x01)\n      dup2\n      gt\n      iszero\n      tag_409\n      jumpi\n      tag_409\n      tag_410\n      jump\t// in\n    tag_409:\n      mload(0x40)\n      swap1\n      dup1\n      dup3\n      mstore\n      dup1\n      0x1f\n      add\n      not(0x1f)\n      and\n      0x20\n      add\n      dup3\n      add\n      0x40\n      mstore\n      dup1\n      iszero\n      tag_411\n      jumpi\n      0x20\n      dup3\n      add\n      dup2\n      dup1\n      calldatasize\n      dup4\n      calldatacopy\n      add\n      swap1\n      pop\n    tag_411:\n      pop\n        /* \"https://github.com/LayerZero-Labs/solidity-examples/blob/main/contracts/libraries/ExcessivelySafeCall.sol\":1376:1422  bytes memory _returnData = new bytes(_maxCopy) */\n      swap1\n      pop\n        /* \"https://github.com/LayerZero-Labs/solidity-examples/blob/main/contracts/libraries/ExcessivelySafeCall.sol\":1919:1920  0 */\n      0x00\n        /* \"https://github.com/LayerZero-Labs/solidity-examples/blob/main/contracts/libraries/ExcessivelySafeCall.sol\":1890:1891  0 */\n      dup1\n        /* \"https://github.com/LayerZero-Labs/solidity-examples/blob/main/contracts/libraries/ExcessivelySafeCall.sol\":1853:1862  _calldata */\n      dup8\n        /* \"https://github.com/LayerZero-Labs/solidity-examples/blob/main/contracts/libraries/ExcessivelySafeCall.sol\":1847:1863  mload(_calldata) */\n      mload\n        /* \"https://github.com/LayerZero-Labs/solidity-examples/blob/main/contracts/libraries/ExcessivelySafeCall.sol\":1815:1819  0x20 */\n      0x20\n        /* \"https://github.com/LayerZero-Labs/solidity-examples/blob/main/contracts/libraries/ExcessivelySafeCall.sol\":1804:1813  _calldata */\n      dup10\n        /* \"https://github.com/LayerZero-Labs/solidity-examples/blob/main/contracts/libraries/ExcessivelySafeCall.sol\":1800:1820  add(_calldata, 0x20) */\n      add\n        /* \"https://github.com/LayerZero-Labs/solidity-examples/blob/main/contracts/libraries/ExcessivelySafeCall.sol\":1766:1767  0 */\n      0x00\n        /* \"https://github.com/LayerZero-Labs/solidity-examples/blob/main/contracts/libraries/ExcessivelySafeCall.sol\":1728:1735  _target */\n      dup14\n        /* \"https://github.com/LayerZero-Labs/solidity-examples/blob/main/contracts/libraries/ExcessivelySafeCall.sol\":1699:1703  _gas */\n      dup14\n        /* \"https://github.com/LayerZero-Labs/solidity-examples/blob/main/contracts/libraries/ExcessivelySafeCall.sol\":1677:1944  call(... */\n      call\n        /* \"https://github.com/LayerZero-Labs/solidity-examples/blob/main/contracts/libraries/ExcessivelySafeCall.sol\":1665:1944  _success := call(... */\n      swap2\n      pop\n        /* \"https://github.com/LayerZero-Labs/solidity-examples/blob/main/contracts/libraries/ExcessivelySafeCall.sol\":2011:2027  returndatasize() */\n      returndatasize\n        /* \"https://github.com/LayerZero-Labs/solidity-examples/blob/main/contracts/libraries/ExcessivelySafeCall.sol\":2000:2027  _toCopy := returndatasize() */\n      swap3\n      pop\n        /* \"https://github.com/LayerZero-Labs/solidity-examples/blob/main/contracts/libraries/ExcessivelySafeCall.sol\":2055:2063  _maxCopy */\n      dup7\n        /* \"https://github.com/LayerZero-Labs/solidity-examples/blob/main/contracts/libraries/ExcessivelySafeCall.sol\":2046:2053  _toCopy */\n      dup4\n        /* \"https://github.com/LayerZero-Labs/solidity-examples/blob/main/contracts/libraries/ExcessivelySafeCall.sol\":2043:2064  gt(_toCopy, _maxCopy) */\n      gt\n        /* \"https://github.com/LayerZero-Labs/solidity-examples/blob/main/contracts/libraries/ExcessivelySafeCall.sol\":2040:2116  if gt(_toCopy, _maxCopy) {... */\n      iszero\n      tag_412\n      jumpi\n        /* \"https://github.com/LayerZero-Labs/solidity-examples/blob/main/contracts/libraries/ExcessivelySafeCall.sol\":2094:2102  _maxCopy */\n      dup7\n        /* \"https://github.com/LayerZero-Labs/solidity-examples/blob/main/contracts/libraries/ExcessivelySafeCall.sol\":2083:2102  _toCopy := _maxCopy */\n      swap3\n      pop\n        /* \"https://github.com/LayerZero-Labs/solidity-examples/blob/main/contracts/libraries/ExcessivelySafeCall.sol\":2040:2116  if gt(_toCopy, _maxCopy) {... */\n    tag_412:\n        /* \"https://github.com/LayerZero-Labs/solidity-examples/blob/main/contracts/libraries/ExcessivelySafeCall.sol\":2201:2208  _toCopy */\n      dup3\n        /* \"https://github.com/LayerZero-Labs/solidity-examples/blob/main/contracts/libraries/ExcessivelySafeCall.sol\":2188:2199  _returnData */\n      dup2\n        /* \"https://github.com/LayerZero-Labs/solidity-examples/blob/main/contracts/libraries/ExcessivelySafeCall.sol\":2181:2209  mstore(_returnData, _toCopy) */\n      mstore\n        /* \"https://github.com/LayerZero-Labs/solidity-examples/blob/main/contracts/libraries/ExcessivelySafeCall.sol\":2321:2328  _toCopy */\n      dup3\n        /* \"https://github.com/LayerZero-Labs/solidity-examples/blob/main/contracts/libraries/ExcessivelySafeCall.sol\":2318:2319  0 */\n      0x00\n        /* \"https://github.com/LayerZero-Labs/solidity-examples/blob/main/contracts/libraries/ExcessivelySafeCall.sol\":2311:2315  0x20 */\n      0x20\n        /* \"https://github.com/LayerZero-Labs/solidity-examples/blob/main/contracts/libraries/ExcessivelySafeCall.sol\":2298:2309  _returnData */\n      dup4\n        /* \"https://github.com/LayerZero-Labs/solidity-examples/blob/main/contracts/libraries/ExcessivelySafeCall.sol\":2294:2316  add(_returnData, 0x20) */\n      add\n        /* \"https://github.com/LayerZero-Labs/solidity-examples/blob/main/contracts/libraries/ExcessivelySafeCall.sol\":2279:2329  returndatacopy(add(_returnData, 0x20), 0, _toCopy) */\n      returndatacopy\n        /* \"https://github.com/LayerZero-Labs/solidity-examples/blob/main/contracts/libraries/ExcessivelySafeCall.sol\":2356:2364  _success */\n      swap1\n      swap9\n      swap1\n      swap8\n      pop\n        /* \"https://github.com/LayerZero-Labs/solidity-examples/blob/main/contracts/libraries/ExcessivelySafeCall.sol\":1111:2385  function excessivelySafeCall(... */\n      swap6\n      pop\n      pop\n      pop\n      pop\n      pop\n      pop\n      jump\t// out\n        /* \"https://github.com/LayerZero-Labs/solidity-examples/blob/main/contracts/lzApp/NonblockingLzApp.sol\":1540:1906  function _storeFailedMessage(... */\n    tag_363:\n        /* \"https://github.com/LayerZero-Labs/solidity-examples/blob/main/contracts/lzApp/NonblockingLzApp.sol\":1809:1817  _payload */\n      dup2\n        /* \"https://github.com/LayerZero-Labs/solidity-examples/blob/main/contracts/lzApp/NonblockingLzApp.sol\":1799:1818  keccak256(_payload) */\n      dup1\n      mload\n      swap1\n      0x20\n      add\n      keccak256\n        /* \"https://github.com/LayerZero-Labs/solidity-examples/blob/main/contracts/lzApp/NonblockingLzApp.sol\":1748:1762  failedMessages */\n      0x05\n        /* \"https://github.com/LayerZero-Labs/solidity-examples/blob/main/contracts/lzApp/NonblockingLzApp.sol\":1748:1775  failedMessages[_srcChainId] */\n      0x00\n        /* \"https://github.com/LayerZero-Labs/solidity-examples/blob/main/contracts/lzApp/NonblockingLzApp.sol\":1763:1774  _srcChainId */\n      dup8\n        /* \"https://github.com/LayerZero-Labs/solidity-examples/blob/main/contracts/lzApp/NonblockingLzApp.sol\":1748:1775  failedMessages[_srcChainId] */\n      0xffff\n      and\n      0xffff\n      and\n      dup2\n      mstore\n      0x20\n      add\n      swap1\n      dup2\n      mstore\n      0x20\n      add\n      0x00\n      keccak256\n        /* \"https://github.com/LayerZero-Labs/solidity-examples/blob/main/contracts/lzApp/NonblockingLzApp.sol\":1776:1787  _srcAddress */\n      dup6\n        /* \"https://github.com/LayerZero-Labs/solidity-examples/blob/main/contracts/lzApp/NonblockingLzApp.sol\":1748:1788  failedMessages[_srcChainId][_srcAddress] */\n      mload(0x40)\n      tag_414\n      swap2\n      swap1\n      tag_415\n      jump\t// in\n    tag_414:\n      swap1\n      dup2\n      mstore\n      0x40\n      dup1\n      mload\n      swap2\n      dup3\n      swap1\n      sub\n      0x20\n      swap1\n      dup2\n      add\n      dup4\n      keccak256\n      sub(shl(0x40, 0x01), 0x01)\n        /* \"https://github.com/LayerZero-Labs/solidity-examples/blob/main/contracts/lzApp/NonblockingLzApp.sol\":1748:1796  failedMessages[_srcChainId][_srcAddress][_nonce] */\n      dup9\n      and\n      0x00\n      swap1\n      dup2\n      mstore\n      swap2\n      mstore\n      keccak256\n        /* \"https://github.com/LayerZero-Labs/solidity-examples/blob/main/contracts/lzApp/NonblockingLzApp.sol\":1748:1818  failedMessages[_srcChainId][_srcAddress][_nonce] = keccak256(_payload) */\n      swap2\n      swap1\n      swap2\n      sstore\n        /* \"https://github.com/LayerZero-Labs/solidity-examples/blob/main/contracts/lzApp/NonblockingLzApp.sol\":1833:1899  MessageFailed(_srcChainId, _srcAddress, _nonce, _payload, _reason) */\n      0xe183f33de2837795525b4792ca4cd60535bd77c53b7e7030060bfcf5734d6b0c\n      swap1\n      tag_416\n      swap1\n        /* \"https://github.com/LayerZero-Labs/solidity-examples/blob/main/contracts/lzApp/NonblockingLzApp.sol\":1847:1858  _srcChainId */\n      dup8\n      swap1\n        /* \"https://github.com/LayerZero-Labs/solidity-examples/blob/main/contracts/lzApp/NonblockingLzApp.sol\":1860:1871  _srcAddress */\n      dup8\n      swap1\n        /* \"https://github.com/LayerZero-Labs/solidity-examples/blob/main/contracts/lzApp/NonblockingLzApp.sol\":1789:1795  _nonce */\n      dup8\n      swap1\n        /* \"https://github.com/LayerZero-Labs/solidity-examples/blob/main/contracts/lzApp/NonblockingLzApp.sol\":1881:1889  _payload */\n      dup8\n      swap1\n        /* \"https://github.com/LayerZero-Labs/solidity-examples/blob/main/contracts/lzApp/NonblockingLzApp.sol\":1891:1898  _reason */\n      dup8\n      swap1\n        /* \"https://github.com/LayerZero-Labs/solidity-examples/blob/main/contracts/lzApp/NonblockingLzApp.sol\":1833:1899  MessageFailed(_srcChainId, _srcAddress, _nonce, _payload, _reason) */\n      tag_417\n      jump\t// in\n    tag_416:\n      mload(0x40)\n      dup1\n      swap2\n      sub\n      swap1\n      log1\n        /* \"https://github.com/LayerZero-Labs/solidity-examples/blob/main/contracts/lzApp/NonblockingLzApp.sol\":1540:1906  function _storeFailedMessage(... */\n      pop\n      pop\n      pop\n      pop\n      pop\n      jump\t// out\n        /* \"https://github.com/LayerZero-Labs/solidity-examples/blob/main/contracts/lzApp/LzApp.sol\":3742:4137  function _checkPayloadSize(uint16 _dstChainId, uint _payloadSize) internal view virtual {... */\n    tag_401:\n        /* \"https://github.com/LayerZero-Labs/solidity-examples/blob/main/contracts/lzApp/LzApp.sol\":3864:3899  payloadSizeLimitLookup[_dstChainId] */\n      0xffff\n      dup3\n      and\n        /* \"https://github.com/LayerZero-Labs/solidity-examples/blob/main/contracts/lzApp/LzApp.sol\":3840:3861  uint payloadSizeLimit */\n      0x00\n        /* \"https://github.com/LayerZero-Labs/solidity-examples/blob/main/contracts/lzApp/LzApp.sol\":3864:3899  payloadSizeLimitLookup[_dstChainId] */\n      swap1\n      dup2\n      mstore\n        /* \"https://github.com/LayerZero-Labs/solidity-examples/blob/main/contracts/lzApp/LzApp.sol\":3864:3886  payloadSizeLimitLookup */\n      0x03\n        /* \"https://github.com/LayerZero-Labs/solidity-examples/blob/main/contracts/lzApp/LzApp.sol\":3864:3899  payloadSizeLimitLookup[_dstChainId] */\n      0x20\n      mstore\n      0x40\n      dup2\n      keccak256\n      sload\n      swap1\n        /* \"https://github.com/LayerZero-Labs/solidity-examples/blob/main/contracts/lzApp/LzApp.sol\":3913:3934  payloadSizeLimit == 0 */\n      dup2\n      swap1\n      sub\n        /* \"https://github.com/LayerZero-Labs/solidity-examples/blob/main/contracts/lzApp/LzApp.sol\":3909:4044  if (payloadSizeLimit == 0) {... */\n      tag_419\n      jumpi\n      pop\n        /* \"https://github.com/LayerZero-Labs/solidity-examples/blob/main/contracts/lzApp/LzApp.sol\":618:623  10000 */\n      0x2710\n        /* \"https://github.com/LayerZero-Labs/solidity-examples/blob/main/contracts/lzApp/LzApp.sol\":3909:4044  if (payloadSizeLimit == 0) {... */\n    tag_419:\n        /* \"https://github.com/LayerZero-Labs/solidity-examples/blob/main/contracts/lzApp/LzApp.sol\":4077:4093  payloadSizeLimit */\n      dup1\n        /* \"https://github.com/LayerZero-Labs/solidity-examples/blob/main/contracts/lzApp/LzApp.sol\":4061:4073  _payloadSize */\n      dup3\n        /* \"https://github.com/LayerZero-Labs/solidity-examples/blob/main/contracts/lzApp/LzApp.sol\":4061:4093  _payloadSize <= payloadSizeLimit */\n      gt\n      iszero\n        /* \"https://github.com/LayerZero-Labs/solidity-examples/blob/main/contracts/lzApp/LzApp.sol\":4053:4130  require(_payloadSize <= payloadSizeLimit, \"LzApp: payload size is too large\") */\n      tag_243\n      jumpi\n      mload(0x40)\n      shl(0xe5, 0x461bcd)\n      dup2\n      mstore\n        /* \"#utility.yul\":28150:28152   */\n      0x20\n        /* \"https://github.com/LayerZero-Labs/solidity-examples/blob/main/contracts/lzApp/LzApp.sol\":4053:4130  require(_payloadSize <= payloadSizeLimit, \"LzApp: payload size is too large\") */\n      0x04\n      dup3\n      add\n        /* \"#utility.yul\":28132:28153   */\n      dup2\n      swap1\n      mstore\n        /* \"#utility.yul\":28169:28187   */\n      0x24\n      dup3\n      add\n        /* \"#utility.yul\":28162:28192   */\n      mstore\n        /* \"#utility.yul\":28228:28262   */\n      0x4c7a4170703a207061796c6f61642073697a6520697320746f6f206c61726765\n        /* \"#utility.yul\":28208:28226   */\n      0x44\n      dup3\n      add\n        /* \"#utility.yul\":28201:28263   */\n      mstore\n        /* \"#utility.yul\":28280:28298   */\n      0x64\n      add\n        /* \"https://github.com/LayerZero-Labs/solidity-examples/blob/main/contracts/lzApp/LzApp.sol\":4053:4130  require(_payloadSize <= payloadSizeLimit, \"LzApp: payload size is too large\") */\n      tag_187\n        /* \"#utility.yul\":27948:28304   */\n      jump\n        /* \"#utility.yul\":14:173   */\n    tag_423:\n        /* \"#utility.yul\":81:101   */\n      dup1\n      calldataload\n        /* \"#utility.yul\":141:147   */\n      0xffff\n        /* \"#utility.yul\":130:148   */\n      dup2\n      and\n        /* \"#utility.yul\":120:149   */\n      dup2\n      eq\n        /* \"#utility.yul\":110:167   */\n      tag_440\n      jumpi\n        /* \"#utility.yul\":163:164   */\n      0x00\n        /* \"#utility.yul\":160:161   */\n      dup1\n        /* \"#utility.yul\":153:165   */\n      revert\n        /* \"#utility.yul\":110:167   */\n    tag_440:\n        /* \"#utility.yul\":14:173   */\n      swap2\n      swap1\n      pop\n      jump\t// out\n        /* \"#utility.yul\":178:525   */\n    tag_424:\n        /* \"#utility.yul\":229:237   */\n      0x00\n        /* \"#utility.yul\":239:245   */\n      dup1\n        /* \"#utility.yul\":293:296   */\n      dup4\n        /* \"#utility.yul\":286:290   */\n      0x1f\n        /* \"#utility.yul\":278:284   */\n      dup5\n        /* \"#utility.yul\":274:291   */\n      add\n        /* \"#utility.yul\":270:297   */\n      slt\n        /* \"#utility.yul\":260:315   */\n      tag_442\n      jumpi\n        /* \"#utility.yul\":311:312   */\n      0x00\n        /* \"#utility.yul\":308:309   */\n      dup1\n        /* \"#utility.yul\":301:313   */\n      revert\n        /* \"#utility.yul\":260:315   */\n    tag_442:\n      pop\n        /* \"#utility.yul\":334:354   */\n      dup2\n      calldataload\n      sub(shl(0x40, 0x01), 0x01)\n        /* \"#utility.yul\":366:396   */\n      dup2\n      gt\n        /* \"#utility.yul\":363:413   */\n      iszero\n      tag_443\n      jumpi\n        /* \"#utility.yul\":409:410   */\n      0x00\n        /* \"#utility.yul\":406:407   */\n      dup1\n        /* \"#utility.yul\":399:411   */\n      revert\n        /* \"#utility.yul\":363:413   */\n    tag_443:\n        /* \"#utility.yul\":446:450   */\n      0x20\n        /* \"#utility.yul\":438:444   */\n      dup4\n        /* \"#utility.yul\":434:451   */\n      add\n        /* \"#utility.yul\":422:451   */\n      swap2\n      pop\n        /* \"#utility.yul\":498:501   */\n      dup4\n        /* \"#utility.yul\":491:495   */\n      0x20\n        /* \"#utility.yul\":482:488   */\n      dup3\n        /* \"#utility.yul\":474:480   */\n      dup6\n        /* \"#utility.yul\":470:489   */\n      add\n        /* \"#utility.yul\":466:496   */\n      add\n        /* \"#utility.yul\":463:502   */\n      gt\n        /* \"#utility.yul\":460:519   */\n      iszero\n      tag_444\n      jumpi\n        /* \"#utility.yul\":515:516   */\n      0x00\n        /* \"#utility.yul\":512:513   */\n      dup1\n        /* \"#utility.yul\":505:517   */\n      revert\n        /* \"#utility.yul\":460:519   */\n    tag_444:\n        /* \"#utility.yul\":178:525   */\n      swap3\n      pop\n      swap3\n      swap1\n      pop\n      jump\t// out\n        /* \"#utility.yul\":530:701   */\n    tag_425:\n        /* \"#utility.yul\":597:617   */\n      dup1\n      calldataload\n      sub(shl(0x40, 0x01), 0x01)\n        /* \"#utility.yul\":646:676   */\n      dup2\n      and\n        /* \"#utility.yul\":636:677   */\n      dup2\n      eq\n        /* \"#utility.yul\":626:695   */\n      tag_440\n      jumpi\n        /* \"#utility.yul\":691:692   */\n      0x00\n        /* \"#utility.yul\":688:689   */\n      dup1\n        /* \"#utility.yul\":681:693   */\n      revert\n        /* \"#utility.yul\":706:1568   */\n    tag_42:\n        /* \"#utility.yul\":812:818   */\n      0x00\n        /* \"#utility.yul\":820:826   */\n      dup1\n        /* \"#utility.yul\":828:834   */\n      0x00\n        /* \"#utility.yul\":836:842   */\n      dup1\n        /* \"#utility.yul\":844:850   */\n      0x00\n        /* \"#utility.yul\":852:858   */\n      dup1\n        /* \"#utility.yul\":905:908   */\n      0x80\n        /* \"#utility.yul\":893:902   */\n      dup8\n        /* \"#utility.yul\":884:891   */\n      dup10\n        /* \"#utility.yul\":880:903   */\n      sub\n        /* \"#utility.yul\":876:909   */\n      slt\n        /* \"#utility.yul\":873:926   */\n      iszero\n      tag_448\n      jumpi\n        /* \"#utility.yul\":922:923   */\n      0x00\n        /* \"#utility.yul\":919:920   */\n      dup1\n        /* \"#utility.yul\":912:924   */\n      revert\n        /* \"#utility.yul\":873:926   */\n    tag_448:\n        /* \"#utility.yul\":945:973   */\n      tag_449\n        /* \"#utility.yul\":963:972   */\n      dup8\n        /* \"#utility.yul\":945:973   */\n      tag_423\n      jump\t// in\n    tag_449:\n        /* \"#utility.yul\":935:973   */\n      swap6\n      pop\n        /* \"#utility.yul\":1024:1026   */\n      0x20\n        /* \"#utility.yul\":1013:1022   */\n      dup8\n        /* \"#utility.yul\":1009:1027   */\n      add\n        /* \"#utility.yul\":996:1028   */\n      calldataload\n      sub(shl(0x40, 0x01), 0x01)\n        /* \"#utility.yul\":1088:1090   */\n      dup1\n        /* \"#utility.yul\":1080:1086   */\n      dup3\n        /* \"#utility.yul\":1077:1091   */\n      gt\n        /* \"#utility.yul\":1074:1108   */\n      iszero\n      tag_450\n      jumpi\n        /* \"#utility.yul\":1104:1105   */\n      0x00\n        /* \"#utility.yul\":1101:1102   */\n      dup1\n        /* \"#utility.yul\":1094:1106   */\n      revert\n        /* \"#utility.yul\":1074:1108   */\n    tag_450:\n        /* \"#utility.yul\":1143:1201   */\n      tag_451\n        /* \"#utility.yul\":1193:1200   */\n      dup11\n        /* \"#utility.yul\":1184:1190   */\n      dup4\n        /* \"#utility.yul\":1173:1182   */\n      dup12\n        /* \"#utility.yul\":1169:1191   */\n      add\n        /* \"#utility.yul\":1143:1201   */\n      tag_424\n      jump\t// in\n    tag_451:\n        /* \"#utility.yul\":1220:1228   */\n      swap1\n      swap8\n      pop\n        /* \"#utility.yul\":1117:1201   */\n      swap6\n      pop\n      dup6\n      swap2\n      pop\n        /* \"#utility.yul\":1274:1311   */\n      tag_452\n        /* \"#utility.yul\":1307:1309   */\n      0x40\n        /* \"#utility.yul\":1292:1310   */\n      dup11\n      add\n        /* \"#utility.yul\":1274:1311   */\n      tag_425\n      jump\t// in\n    tag_452:\n        /* \"#utility.yul\":1264:1311   */\n      swap5\n      pop\n        /* \"#utility.yul\":1364:1366   */\n      0x60\n        /* \"#utility.yul\":1353:1362   */\n      dup10\n        /* \"#utility.yul\":1349:1367   */\n      add\n        /* \"#utility.yul\":1336:1368   */\n      calldataload\n        /* \"#utility.yul\":1320:1368   */\n      swap2\n      pop\n        /* \"#utility.yul\":1393:1395   */\n      dup1\n        /* \"#utility.yul\":1383:1391   */\n      dup3\n        /* \"#utility.yul\":1380:1396   */\n      gt\n        /* \"#utility.yul\":1377:1413   */\n      iszero\n      tag_453\n      jumpi\n        /* \"#utility.yul\":1409:1410   */\n      0x00\n        /* \"#utility.yul\":1406:1407   */\n      dup1\n        /* \"#utility.yul\":1399:1411   */\n      revert\n        /* \"#utility.yul\":1377:1413   */\n    tag_453:\n      pop\n        /* \"#utility.yul\":1448:1508   */\n      tag_454\n        /* \"#utility.yul\":1500:1507   */\n      dup10\n        /* \"#utility.yul\":1489:1497   */\n      dup3\n        /* \"#utility.yul\":1478:1487   */\n      dup11\n        /* \"#utility.yul\":1474:1498   */\n      add\n        /* \"#utility.yul\":1448:1508   */\n      tag_424\n      jump\t// in\n    tag_454:\n        /* \"#utility.yul\":706:1568   */\n      swap8\n      swap11\n      swap7\n      swap10\n      pop\n      swap5\n      swap8\n      pop\n      swap3\n      swap6\n        /* \"#utility.yul\":1527:1535   */\n      swap4\n      swap5\n        /* \"#utility.yul\":706:1568   */\n      swap3\n      pop\n      pop\n      pop\n      jump\t// out\n        /* \"#utility.yul\":1573:1757   */\n    tag_47:\n        /* \"#utility.yul\":1631:1637   */\n      0x00\n        /* \"#utility.yul\":1684:1686   */\n      0x20\n        /* \"#utility.yul\":1672:1681   */\n      dup3\n        /* \"#utility.yul\":1663:1670   */\n      dup5\n        /* \"#utility.yul\":1659:1682   */\n      sub\n        /* \"#utility.yul\":1655:1687   */\n      slt\n        /* \"#utility.yul\":1652:1704   */\n      iszero\n      tag_456\n      jumpi\n        /* \"#utility.yul\":1700:1701   */\n      0x00\n        /* \"#utility.yul\":1697:1698   */\n      dup1\n        /* \"#utility.yul\":1690:1702   */\n      revert\n        /* \"#utility.yul\":1652:1704   */\n    tag_456:\n        /* \"#utility.yul\":1723:1751   */\n      tag_223\n        /* \"#utility.yul\":1741:1750   */\n      dup3\n        /* \"#utility.yul\":1723:1751   */\n      tag_423\n      jump\t// in\n        /* \"#utility.yul\":1762:2014   */\n    tag_52:\n        /* \"#utility.yul\":1829:1835   */\n      0x00\n        /* \"#utility.yul\":1837:1843   */\n      dup1\n        /* \"#utility.yul\":1890:1892   */\n      0x40\n        /* \"#utility.yul\":1878:1887   */\n      dup4\n        /* \"#utility.yul\":1869:1876   */\n      dup6\n        /* \"#utility.yul\":1865:1888   */\n      sub\n        /* \"#utility.yul\":1861:1893   */\n      slt\n        /* \"#utility.yul\":1858:1910   */\n      iszero\n      tag_459\n      jumpi\n        /* \"#utility.yul\":1906:1907   */\n      0x00\n        /* \"#utility.yul\":1903:1904   */\n      dup1\n        /* \"#utility.yul\":1896:1908   */\n      revert\n        /* \"#utility.yul\":1858:1910   */\n    tag_459:\n        /* \"#utility.yul\":1929:1957   */\n      tag_460\n        /* \"#utility.yul\":1947:1956   */\n      dup4\n        /* \"#utility.yul\":1929:1957   */\n      tag_423\n      jump\t// in\n    tag_460:\n        /* \"#utility.yul\":1919:1957   */\n      swap5\n        /* \"#utility.yul\":2004:2006   */\n      0x20\n        /* \"#utility.yul\":1989:2007   */\n      swap4\n      swap1\n      swap4\n      add\n        /* \"#utility.yul\":1976:2008   */\n      calldataload\n      swap4\n      pop\n      pop\n      pop\n        /* \"#utility.yul\":1762:2014   */\n      jump\t// out\n        /* \"#utility.yul\":2019:2500   */\n    tag_61:\n        /* \"#utility.yul\":2097:2103   */\n      0x00\n        /* \"#utility.yul\":2105:2111   */\n      dup1\n        /* \"#utility.yul\":2113:2119   */\n      0x00\n        /* \"#utility.yul\":2166:2168   */\n      0x40\n        /* \"#utility.yul\":2154:2163   */\n      dup5\n        /* \"#utility.yul\":2145:2152   */\n      dup7\n        /* \"#utility.yul\":2141:2164   */\n      sub\n        /* \"#utility.yul\":2137:2169   */\n      slt\n        /* \"#utility.yul\":2134:2186   */\n      iszero\n      tag_462\n      jumpi\n        /* \"#utility.yul\":2182:2183   */\n      0x00\n        /* \"#utility.yul\":2179:2180   */\n      dup1\n        /* \"#utility.yul\":2172:2184   */\n      revert\n        /* \"#utility.yul\":2134:2186   */\n    tag_462:\n        /* \"#utility.yul\":2205:2233   */\n      tag_463\n        /* \"#utility.yul\":2223:2232   */\n      dup5\n        /* \"#utility.yul\":2205:2233   */\n      tag_423\n      jump\t// in\n    tag_463:\n        /* \"#utility.yul\":2195:2233   */\n      swap3\n      pop\n        /* \"#utility.yul\":2284:2286   */\n      0x20\n        /* \"#utility.yul\":2273:2282   */\n      dup5\n        /* \"#utility.yul\":2269:2287   */\n      add\n        /* \"#utility.yul\":2256:2288   */\n      calldataload\n      sub(shl(0x40, 0x01), 0x01)\n        /* \"#utility.yul\":2303:2309   */\n      dup2\n        /* \"#utility.yul\":2300:2330   */\n      gt\n        /* \"#utility.yul\":2297:2347   */\n      iszero\n      tag_464\n      jumpi\n        /* \"#utility.yul\":2343:2344   */\n      0x00\n        /* \"#utility.yul\":2340:2341   */\n      dup1\n        /* \"#utility.yul\":2333:2345   */\n      revert\n        /* \"#utility.yul\":2297:2347   */\n    tag_464:\n        /* \"#utility.yul\":2382:2440   */\n      tag_465\n        /* \"#utility.yul\":2432:2439   */\n      dup7\n        /* \"#utility.yul\":2423:2429   */\n      dup3\n        /* \"#utility.yul\":2412:2421   */\n      dup8\n        /* \"#utility.yul\":2408:2430   */\n      add\n        /* \"#utility.yul\":2382:2440   */\n      tag_424\n      jump\t// in\n    tag_465:\n        /* \"#utility.yul\":2019:2500   */\n      swap5\n      swap8\n        /* \"#utility.yul\":2459:2467   */\n      swap1\n      swap7\n      pop\n        /* \"#utility.yul\":2356:2440   */\n      swap4\n      swap5\n      pop\n      pop\n      pop\n      pop\n        /* \"#utility.yul\":2019:2500   */\n      jump\t// out\n        /* \"#utility.yul\":2879:3052   */\n    tag_426:\n        /* \"#utility.yul\":2947:2967   */\n      dup1\n      calldataload\n      sub(shl(0xa0, 0x01), 0x01)\n        /* \"#utility.yul\":2996:3027   */\n      dup2\n      and\n        /* \"#utility.yul\":2986:3028   */\n      dup2\n      eq\n        /* \"#utility.yul\":2976:3046   */\n      tag_440\n      jumpi\n        /* \"#utility.yul\":3042:3043   */\n      0x00\n        /* \"#utility.yul\":3039:3040   */\n      dup1\n        /* \"#utility.yul\":3032:3044   */\n      revert\n        /* \"#utility.yul\":3057:3315   */\n    tag_78:\n        /* \"#utility.yul\":3124:3130   */\n      0x00\n        /* \"#utility.yul\":3132:3138   */\n      dup1\n        /* \"#utility.yul\":3185:3187   */\n      0x40\n        /* \"#utility.yul\":3173:3182   */\n      dup4\n        /* \"#utility.yul\":3164:3171   */\n      dup6\n        /* \"#utility.yul\":3160:3183   */\n      sub\n        /* \"#utility.yul\":3156:3188   */\n      slt\n        /* \"#utility.yul\":3153:3205   */\n      iszero\n      tag_471\n      jumpi\n        /* \"#utility.yul\":3201:3202   */\n      0x00\n        /* \"#utility.yul\":3198:3199   */\n      dup1\n        /* \"#utility.yul\":3191:3203   */\n      revert\n        /* \"#utility.yul\":3153:3205   */\n    tag_471:\n        /* \"#utility.yul\":3224:3252   */\n      tag_472\n        /* \"#utility.yul\":3242:3251   */\n      dup4\n        /* \"#utility.yul\":3224:3252   */\n      tag_423\n      jump\t// in\n    tag_472:\n        /* \"#utility.yul\":3214:3252   */\n      swap2\n      pop\n        /* \"#utility.yul\":3271:3309   */\n      tag_473\n        /* \"#utility.yul\":3305:3307   */\n      0x20\n        /* \"#utility.yul\":3294:3303   */\n      dup5\n        /* \"#utility.yul\":3290:3308   */\n      add\n        /* \"#utility.yul\":3271:3309   */\n      tag_426\n      jump\t// in\n    tag_473:\n        /* \"#utility.yul\":3261:3309   */\n      swap1\n      pop\n        /* \"#utility.yul\":3057:3315   */\n      swap3\n      pop\n      swap3\n      swap1\n      pop\n      jump\t// out\n        /* \"#utility.yul\":3320:3447   */\n    tag_410:\n        /* \"#utility.yul\":3381:3391   */\n      0x4e487b71\n        /* \"#utility.yul\":3376:3379   */\n      0xe0\n        /* \"#utility.yul\":3372:3392   */\n      shl\n        /* \"#utility.yul\":3369:3370   */\n      0x00\n        /* \"#utility.yul\":3362:3393   */\n      mstore\n        /* \"#utility.yul\":3412:3416   */\n      0x41\n        /* \"#utility.yul\":3409:3410   */\n      0x04\n        /* \"#utility.yul\":3402:3417   */\n      mstore\n        /* \"#utility.yul\":3436:3440   */\n      0x24\n        /* \"#utility.yul\":3433:3434   */\n      0x00\n        /* \"#utility.yul\":3426:3441   */\n      revert\n        /* \"#utility.yul\":3452:3727   */\n    tag_427:\n        /* \"#utility.yul\":3523:3525   */\n      0x40\n        /* \"#utility.yul\":3517:3526   */\n      mload\n        /* \"#utility.yul\":3588:3590   */\n      0x1f\n        /* \"#utility.yul\":3569:3582   */\n      dup3\n      add\n      not(0x1f)\n        /* \"#utility.yul\":3565:3592   */\n      and\n        /* \"#utility.yul\":3553:3593   */\n      dup2\n      add\n      sub(shl(0x40, 0x01), 0x01)\n        /* \"#utility.yul\":3608:3642   */\n      dup2\n      gt\n        /* \"#utility.yul\":3644:3666   */\n      dup3\n      dup3\n      lt\n        /* \"#utility.yul\":3605:3667   */\n      or\n        /* \"#utility.yul\":3602:3690   */\n      iszero\n      tag_477\n      jumpi\n        /* \"#utility.yul\":3670:3688   */\n      tag_477\n      tag_410\n      jump\t// in\n    tag_477:\n        /* \"#utility.yul\":3706:3708   */\n      0x40\n        /* \"#utility.yul\":3699:3721   */\n      mstore\n        /* \"#utility.yul\":3452:3727   */\n      swap2\n      swap1\n      pop\n      jump\t// out\n        /* \"#utility.yul\":3732:3918   */\n    tag_428:\n        /* \"#utility.yul\":3780:3784   */\n      0x00\n      sub(shl(0x40, 0x01), 0x01)\n        /* \"#utility.yul\":3805:3811   */\n      dup3\n        /* \"#utility.yul\":3802:3832   */\n      gt\n        /* \"#utility.yul\":3799:3855   */\n      iszero\n      tag_480\n      jumpi\n        /* \"#utility.yul\":3835:3853   */\n      tag_480\n      tag_410\n      jump\t// in\n    tag_480:\n      pop\n        /* \"#utility.yul\":3901:3903   */\n      0x1f\n        /* \"#utility.yul\":3880:3895   */\n      add\n      not(0x1f)\n        /* \"#utility.yul\":3876:3905   */\n      and\n        /* \"#utility.yul\":3907:3911   */\n      0x20\n        /* \"#utility.yul\":3872:3912   */\n      add\n      swap1\n        /* \"#utility.yul\":3732:3918   */\n      jump\t// out\n        /* \"#utility.yul\":3923:4259   */\n    tag_429:\n        /* \"#utility.yul\":3987:3992   */\n      0x00\n        /* \"#utility.yul\":4016:4068   */\n      tag_482\n        /* \"#utility.yul\":4032:4067   */\n      tag_483\n        /* \"#utility.yul\":4060:4066   */\n      dup5\n        /* \"#utility.yul\":4032:4067   */\n      tag_428\n      jump\t// in\n    tag_483:\n        /* \"#utility.yul\":4016:4068   */\n      tag_427\n      jump\t// in\n    tag_482:\n        /* \"#utility.yul\":4007:4068   */\n      swap1\n      pop\n        /* \"#utility.yul\":4091:4097   */\n      dup3\n        /* \"#utility.yul\":4084:4089   */\n      dup2\n        /* \"#utility.yul\":4077:4098   */\n      mstore\n        /* \"#utility.yul\":4131:4134   */\n      dup4\n        /* \"#utility.yul\":4122:4128   */\n      dup4\n        /* \"#utility.yul\":4117:4120   */\n      dup4\n        /* \"#utility.yul\":4113:4129   */\n      add\n        /* \"#utility.yul\":4110:4135   */\n      gt\n        /* \"#utility.yul\":4107:4152   */\n      iszero\n      tag_484\n      jumpi\n        /* \"#utility.yul\":4148:4149   */\n      0x00\n        /* \"#utility.yul\":4145:4146   */\n      dup1\n        /* \"#utility.yul\":4138:4150   */\n      revert\n        /* \"#utility.yul\":4107:4152   */\n    tag_484:\n        /* \"#utility.yul\":4197:4203   */\n      dup3\n        /* \"#utility.yul\":4192:4195   */\n      dup3\n        /* \"#utility.yul\":4185:4189   */\n      0x20\n        /* \"#utility.yul\":4178:4183   */\n      dup4\n        /* \"#utility.yul\":4174:4190   */\n      add\n        /* \"#utility.yul\":4161:4204   */\n      calldatacopy\n        /* \"#utility.yul\":4251:4252   */\n      0x00\n        /* \"#utility.yul\":4244:4248   */\n      0x20\n        /* \"#utility.yul\":4235:4241   */\n      dup5\n        /* \"#utility.yul\":4228:4233   */\n      dup4\n        /* \"#utility.yul\":4224:4242   */\n      add\n        /* \"#utility.yul\":4220:4249   */\n      add\n        /* \"#utility.yul\":4213:4253   */\n      mstore\n        /* \"#utility.yul\":3923:4259   */\n      swap4\n      swap3\n      pop\n      pop\n      pop\n      jump\t// out\n        /* \"#utility.yul\":4264:4857   */\n    tag_83:\n        /* \"#utility.yul\":4348:4354   */\n      0x00\n        /* \"#utility.yul\":4356:4362   */\n      dup1\n        /* \"#utility.yul\":4364:4370   */\n      0x00\n        /* \"#utility.yul\":4417:4419   */\n      0x60\n        /* \"#utility.yul\":4405:4414   */\n      dup5\n        /* \"#utility.yul\":4396:4403   */\n      dup7\n        /* \"#utility.yul\":4392:4415   */\n      sub\n        /* \"#utility.yul\":4388:4420   */\n      slt\n        /* \"#utility.yul\":4385:4437   */\n      iszero\n      tag_486\n      jumpi\n        /* \"#utility.yul\":4433:4434   */\n      0x00\n        /* \"#utility.yul\":4430:4431   */\n      dup1\n        /* \"#utility.yul\":4423:4435   */\n      revert\n        /* \"#utility.yul\":4385:4437   */\n    tag_486:\n        /* \"#utility.yul\":4456:4484   */\n      tag_487\n        /* \"#utility.yul\":4474:4483   */\n      dup5\n        /* \"#utility.yul\":4456:4484   */\n      tag_423\n      jump\t// in\n    tag_487:\n        /* \"#utility.yul\":4446:4484   */\n      swap3\n      pop\n        /* \"#utility.yul\":4535:4537   */\n      0x20\n        /* \"#utility.yul\":4524:4533   */\n      dup5\n        /* \"#utility.yul\":4520:4538   */\n      add\n        /* \"#utility.yul\":4507:4539   */\n      calldataload\n      sub(shl(0x40, 0x01), 0x01)\n        /* \"#utility.yul\":4554:4560   */\n      dup2\n        /* \"#utility.yul\":4551:4581   */\n      gt\n        /* \"#utility.yul\":4548:4598   */\n      iszero\n      tag_488\n      jumpi\n        /* \"#utility.yul\":4594:4595   */\n      0x00\n        /* \"#utility.yul\":4591:4592   */\n      dup1\n        /* \"#utility.yul\":4584:4596   */\n      revert\n        /* \"#utility.yul\":4548:4598   */\n    tag_488:\n        /* \"#utility.yul\":4617:4639   */\n      dup5\n      add\n        /* \"#utility.yul\":4670:4674   */\n      0x1f\n        /* \"#utility.yul\":4662:4675   */\n      dup2\n      add\n        /* \"#utility.yul\":4658:4685   */\n      dup7\n      sgt\n        /* \"#utility.yul\":4648:4703   */\n      tag_489\n      jumpi\n        /* \"#utility.yul\":4699:4700   */\n      0x00\n        /* \"#utility.yul\":4696:4697   */\n      dup1\n        /* \"#utility.yul\":4689:4701   */\n      revert\n        /* \"#utility.yul\":4648:4703   */\n    tag_489:\n        /* \"#utility.yul\":4722:4795   */\n      tag_490\n        /* \"#utility.yul\":4787:4794   */\n      dup7\n        /* \"#utility.yul\":4782:4784   */\n      dup3\n        /* \"#utility.yul\":4769:4785   */\n      calldataload\n        /* \"#utility.yul\":4764:4766   */\n      0x20\n        /* \"#utility.yul\":4760:4762   */\n      dup5\n        /* \"#utility.yul\":4756:4767   */\n      add\n        /* \"#utility.yul\":4722:4795   */\n      tag_429\n      jump\t// in\n    tag_490:\n        /* \"#utility.yul\":4712:4795   */\n      swap3\n      pop\n      pop\n        /* \"#utility.yul\":4814:4851   */\n      tag_491\n        /* \"#utility.yul\":4847:4849   */\n      0x40\n        /* \"#utility.yul\":4836:4845   */\n      dup6\n        /* \"#utility.yul\":4832:4850   */\n      add\n        /* \"#utility.yul\":4814:4851   */\n      tag_425\n      jump\t// in\n    tag_491:\n        /* \"#utility.yul\":4804:4851   */\n      swap1\n      pop\n        /* \"#utility.yul\":4264:4857   */\n      swap3\n      pop\n      swap3\n      pop\n      swap3\n      jump\t// out\n        /* \"#utility.yul\":5044:5294   */\n    tag_430:\n        /* \"#utility.yul\":5129:5130   */\n      0x00\n        /* \"#utility.yul\":5139:5252   */\n    tag_494:\n        /* \"#utility.yul\":5153:5159   */\n      dup4\n        /* \"#utility.yul\":5150:5151   */\n      dup2\n        /* \"#utility.yul\":5147:5160   */\n      lt\n        /* \"#utility.yul\":5139:5252   */\n      iszero\n      tag_496\n      jumpi\n        /* \"#utility.yul\":5229:5240   */\n      dup2\n      dup2\n      add\n        /* \"#utility.yul\":5223:5241   */\n      mload\n        /* \"#utility.yul\":5210:5221   */\n      dup4\n      dup3\n      add\n        /* \"#utility.yul\":5203:5242   */\n      mstore\n        /* \"#utility.yul\":5175:5177   */\n      0x20\n        /* \"#utility.yul\":5168:5178   */\n      add\n        /* \"#utility.yul\":5139:5252   */\n      jump(tag_494)\n    tag_496:\n      pop\n      pop\n        /* \"#utility.yul\":5286:5287   */\n      0x00\n        /* \"#utility.yul\":5268:5284   */\n      swap2\n      add\n        /* \"#utility.yul\":5261:5288   */\n      mstore\n        /* \"#utility.yul\":5044:5294   */\n      jump\t// out\n        /* \"#utility.yul\":5299:5569   */\n    tag_431:\n        /* \"#utility.yul\":5340:5343   */\n      0x00\n        /* \"#utility.yul\":5378:5383   */\n      dup2\n        /* \"#utility.yul\":5372:5384   */\n      mload\n        /* \"#utility.yul\":5405:5411   */\n      dup1\n        /* \"#utility.yul\":5400:5403   */\n      dup5\n        /* \"#utility.yul\":5393:5412   */\n      mstore\n        /* \"#utility.yul\":5421:5497   */\n      tag_498\n        /* \"#utility.yul\":5490:5496   */\n      dup2\n        /* \"#utility.yul\":5483:5487   */\n      0x20\n        /* \"#utility.yul\":5478:5481   */\n      dup7\n        /* \"#utility.yul\":5474:5488   */\n      add\n        /* \"#utility.yul\":5467:5471   */\n      0x20\n        /* \"#utility.yul\":5460:5465   */\n      dup7\n        /* \"#utility.yul\":5456:5472   */\n      add\n        /* \"#utility.yul\":5421:5497   */\n      tag_430\n      jump\t// in\n    tag_498:\n        /* \"#utility.yul\":5551:5553   */\n      0x1f\n        /* \"#utility.yul\":5530:5545   */\n      add\n      not(0x1f)\n        /* \"#utility.yul\":5526:5555   */\n      and\n        /* \"#utility.yul\":5517:5556   */\n      swap3\n      swap1\n      swap3\n      add\n        /* \"#utility.yul\":5558:5562   */\n      0x20\n        /* \"#utility.yul\":5513:5563   */\n      add\n      swap3\n        /* \"#utility.yul\":5299:5569   */\n      swap2\n      pop\n      pop\n      jump\t// out\n        /* \"#utility.yul\":5574:5791   */\n    tag_99:\n        /* \"#utility.yul\":5721:5723   */\n      0x20\n        /* \"#utility.yul\":5710:5719   */\n      dup2\n        /* \"#utility.yul\":5703:5724   */\n      mstore\n        /* \"#utility.yul\":5684:5688   */\n      0x00\n        /* \"#utility.yul\":5741:5785   */\n      tag_223\n        /* \"#utility.yul\":5781:5783   */\n      0x20\n        /* \"#utility.yul\":5770:5779   */\n      dup4\n        /* \"#utility.yul\":5766:5784   */\n      add\n        /* \"#utility.yul\":5758:5764   */\n      dup5\n        /* \"#utility.yul\":5741:5785   */\n      tag_431\n      jump\t// in\n        /* \"#utility.yul\":5796:6626   */\n    tag_103:\n        /* \"#utility.yul\":5893:5899   */\n      0x00\n        /* \"#utility.yul\":5901:5907   */\n      dup1\n        /* \"#utility.yul\":5909:5915   */\n      0x00\n        /* \"#utility.yul\":5917:5923   */\n      dup1\n        /* \"#utility.yul\":5970:5972   */\n      0x60\n        /* \"#utility.yul\":5958:5967   */\n      dup6\n        /* \"#utility.yul\":5949:5956   */\n      dup8\n        /* \"#utility.yul\":5945:5968   */\n      sub\n        /* \"#utility.yul\":5941:5973   */\n      slt\n        /* \"#utility.yul\":5938:5990   */\n      iszero\n      tag_502\n      jumpi\n        /* \"#utility.yul\":5986:5987   */\n      0x00\n        /* \"#utility.yul\":5983:5984   */\n      dup1\n        /* \"#utility.yul\":5976:5988   */\n      revert\n        /* \"#utility.yul\":5938:5990   */\n    tag_502:\n        /* \"#utility.yul\":6009:6037   */\n      tag_503\n        /* \"#utility.yul\":6027:6036   */\n      dup6\n        /* \"#utility.yul\":6009:6037   */\n      tag_423\n      jump\t// in\n    tag_503:\n        /* \"#utility.yul\":5999:6037   */\n      swap4\n      pop\n        /* \"#utility.yul\":6088:6090   */\n      0x20\n        /* \"#utility.yul\":6077:6086   */\n      dup6\n        /* \"#utility.yul\":6073:6091   */\n      add\n        /* \"#utility.yul\":6060:6092   */\n      calldataload\n      sub(shl(0x40, 0x01), 0x01)\n        /* \"#utility.yul\":6152:6154   */\n      dup1\n        /* \"#utility.yul\":6144:6150   */\n      dup3\n        /* \"#utility.yul\":6141:6155   */\n      gt\n        /* \"#utility.yul\":6138:6172   */\n      iszero\n      tag_504\n      jumpi\n        /* \"#utility.yul\":6168:6169   */\n      0x00\n        /* \"#utility.yul\":6165:6166   */\n      dup1\n        /* \"#utility.yul\":6158:6170   */\n      revert\n        /* \"#utility.yul\":6138:6172   */\n    tag_504:\n        /* \"#utility.yul\":6207:6265   */\n      tag_505\n        /* \"#utility.yul\":6257:6264   */\n      dup9\n        /* \"#utility.yul\":6248:6254   */\n      dup4\n        /* \"#utility.yul\":6237:6246   */\n      dup10\n        /* \"#utility.yul\":6233:6255   */\n      add\n        /* \"#utility.yul\":6207:6265   */\n      tag_424\n      jump\t// in\n    tag_505:\n        /* \"#utility.yul\":6284:6292   */\n      swap1\n      swap6\n      pop\n        /* \"#utility.yul\":6181:6265   */\n      swap4\n      pop\n        /* \"#utility.yul\":6372:6374   */\n      0x40\n        /* \"#utility.yul\":6357:6375   */\n      dup8\n      add\n        /* \"#utility.yul\":6344:6376   */\n      calldataload\n      swap2\n      pop\n        /* \"#utility.yul\":6388:6404   */\n      dup1\n      dup3\n      gt\n        /* \"#utility.yul\":6385:6421   */\n      iszero\n      tag_506\n      jumpi\n        /* \"#utility.yul\":6417:6418   */\n      0x00\n        /* \"#utility.yul\":6414:6415   */\n      dup1\n        /* \"#utility.yul\":6407:6419   */\n      revert\n        /* \"#utility.yul\":6385:6421   */\n    tag_506:\n      pop\n        /* \"#utility.yul\":6440:6464   */\n      dup6\n      add\n        /* \"#utility.yul\":6495:6499   */\n      0x1f\n        /* \"#utility.yul\":6487:6500   */\n      dup2\n      add\n        /* \"#utility.yul\":6483:6510   */\n      dup8\n      sgt\n        /* \"#utility.yul\":6473:6528   */\n      tag_507\n      jumpi\n        /* \"#utility.yul\":6524:6525   */\n      0x00\n        /* \"#utility.yul\":6521:6522   */\n      dup1\n        /* \"#utility.yul\":6514:6526   */\n      revert\n        /* \"#utility.yul\":6473:6528   */\n    tag_507:\n        /* \"#utility.yul\":6547:6620   */\n      tag_508\n        /* \"#utility.yul\":6612:6619   */\n      dup8\n        /* \"#utility.yul\":6607:6609   */\n      dup3\n        /* \"#utility.yul\":6594:6610   */\n      calldataload\n        /* \"#utility.yul\":6589:6591   */\n      0x20\n        /* \"#utility.yul\":6585:6587   */\n      dup5\n        /* \"#utility.yul\":6581:6592   */\n      add\n        /* \"#utility.yul\":6547:6620   */\n      tag_429\n      jump\t// in\n    tag_508:\n        /* \"#utility.yul\":6537:6620   */\n      swap2\n      pop\n      pop\n        /* \"#utility.yul\":5796:6626   */\n      swap3\n      swap6\n      swap2\n      swap5\n      pop\n      swap3\n      pop\n      jump\t// out\n        /* \"#utility.yul\":6884:7140   */\n    tag_110:\n        /* \"#utility.yul\":6950:6956   */\n      0x00\n        /* \"#utility.yul\":6958:6964   */\n      dup1\n        /* \"#utility.yul\":7011:7013   */\n      0x40\n        /* \"#utility.yul\":6999:7008   */\n      dup4\n        /* \"#utility.yul\":6990:6997   */\n      dup6\n        /* \"#utility.yul\":6986:7009   */\n      sub\n        /* \"#utility.yul\":6982:7014   */\n      slt\n        /* \"#utility.yul\":6979:7031   */\n      iszero\n      tag_511\n      jumpi\n        /* \"#utility.yul\":7027:7028   */\n      0x00\n        /* \"#utility.yul\":7024:7025   */\n      dup1\n        /* \"#utility.yul\":7017:7029   */\n      revert\n        /* \"#utility.yul\":6979:7031   */\n    tag_511:\n        /* \"#utility.yul\":7050:7078   */\n      tag_512\n        /* \"#utility.yul\":7068:7077   */\n      dup4\n        /* \"#utility.yul\":7050:7078   */\n      tag_423\n      jump\t// in\n    tag_512:\n        /* \"#utility.yul\":7040:7078   */\n      swap2\n      pop\n        /* \"#utility.yul\":7097:7134   */\n      tag_473\n        /* \"#utility.yul\":7130:7132   */\n      0x20\n        /* \"#utility.yul\":7119:7128   */\n      dup5\n        /* \"#utility.yul\":7115:7133   */\n      add\n        /* \"#utility.yul\":7097:7134   */\n      tag_423\n      jump\t// in\n        /* \"#utility.yul\":7588:7774   */\n    tag_139:\n        /* \"#utility.yul\":7647:7653   */\n      0x00\n        /* \"#utility.yul\":7700:7702   */\n      0x20\n        /* \"#utility.yul\":7688:7697   */\n      dup3\n        /* \"#utility.yul\":7679:7686   */\n      dup5\n        /* \"#utility.yul\":7675:7698   */\n      sub\n        /* \"#utility.yul\":7671:7703   */\n      slt\n        /* \"#utility.yul\":7668:7720   */\n      iszero\n      tag_517\n      jumpi\n        /* \"#utility.yul\":7716:7717   */\n      0x00\n        /* \"#utility.yul\":7713:7714   */\n      dup1\n        /* \"#utility.yul\":7706:7718   */\n      revert\n        /* \"#utility.yul\":7668:7720   */\n    tag_517:\n        /* \"#utility.yul\":7739:7768   */\n      tag_223\n        /* \"#utility.yul\":7758:7767   */\n      dup3\n        /* \"#utility.yul\":7739:7768   */\n      tag_426\n      jump\t// in\n        /* \"#utility.yul\":7779:8401   */\n    tag_151:\n        /* \"#utility.yul\":7874:7880   */\n      0x00\n        /* \"#utility.yul\":7882:7888   */\n      dup1\n        /* \"#utility.yul\":7890:7896   */\n      0x00\n        /* \"#utility.yul\":7898:7904   */\n      dup1\n        /* \"#utility.yul\":7906:7912   */\n      0x00\n        /* \"#utility.yul\":7959:7962   */\n      0x80\n        /* \"#utility.yul\":7947:7956   */\n      dup7\n        /* \"#utility.yul\":7938:7945   */\n      dup9\n        /* \"#utility.yul\":7934:7957   */\n      sub\n        /* \"#utility.yul\":7930:7963   */\n      slt\n        /* \"#utility.yul\":7927:7980   */\n      iszero\n      tag_520\n      jumpi\n        /* \"#utility.yul\":7976:7977   */\n      0x00\n        /* \"#utility.yul\":7973:7974   */\n      dup1\n        /* \"#utility.yul\":7966:7978   */\n      revert\n        /* \"#utility.yul\":7927:7980   */\n    tag_520:\n        /* \"#utility.yul\":7999:8027   */\n      tag_521\n        /* \"#utility.yul\":8017:8026   */\n      dup7\n        /* \"#utility.yul\":7999:8027   */\n      tag_423\n      jump\t// in\n    tag_521:\n        /* \"#utility.yul\":7989:8027   */\n      swap5\n      pop\n        /* \"#utility.yul\":8046:8083   */\n      tag_522\n        /* \"#utility.yul\":8079:8081   */\n      0x20\n        /* \"#utility.yul\":8068:8077   */\n      dup8\n        /* \"#utility.yul\":8064:8082   */\n      add\n        /* \"#utility.yul\":8046:8083   */\n      tag_423\n      jump\t// in\n    tag_522:\n        /* \"#utility.yul\":8036:8083   */\n      swap4\n      pop\n        /* \"#utility.yul\":8130:8132   */\n      0x40\n        /* \"#utility.yul\":8119:8128   */\n      dup7\n        /* \"#utility.yul\":8115:8133   */\n      add\n        /* \"#utility.yul\":8102:8134   */\n      calldataload\n        /* \"#utility.yul\":8092:8134   */\n      swap3\n      pop\n        /* \"#utility.yul\":8185:8187   */\n      0x60\n        /* \"#utility.yul\":8174:8183   */\n      dup7\n        /* \"#utility.yul\":8170:8188   */\n      add\n        /* \"#utility.yul\":8157:8189   */\n      calldataload\n      sub(shl(0x40, 0x01), 0x01)\n        /* \"#utility.yul\":8204:8210   */\n      dup2\n        /* \"#utility.yul\":8201:8231   */\n      gt\n        /* \"#utility.yul\":8198:8248   */\n      iszero\n      tag_523\n      jumpi\n        /* \"#utility.yul\":8244:8245   */\n      0x00\n        /* \"#utility.yul\":8241:8242   */\n      dup1\n        /* \"#utility.yul\":8234:8246   */\n      revert\n        /* \"#utility.yul\":8198:8248   */\n    tag_523:\n        /* \"#utility.yul\":8283:8341   */\n      tag_524\n        /* \"#utility.yul\":8333:8340   */\n      dup9\n        /* \"#utility.yul\":8324:8330   */\n      dup3\n        /* \"#utility.yul\":8313:8322   */\n      dup10\n        /* \"#utility.yul\":8309:8331   */\n      add\n        /* \"#utility.yul\":8283:8341   */\n      tag_424\n      jump\t// in\n    tag_524:\n        /* \"#utility.yul\":7779:8401   */\n      swap7\n      swap10\n      swap6\n      swap9\n      pop\n      swap4\n      swap7\n      pop\n        /* \"#utility.yul\":8360:8368   */\n      swap3\n      swap5\n        /* \"#utility.yul\":8257:8341   */\n      swap4\n        /* \"#utility.yul\":7779:8401   */\n      swap3\n      pop\n      pop\n      pop\n      jump\t// out\n        /* \"#utility.yul\":8406:8730   */\n    tag_159:\n        /* \"#utility.yul\":8481:8487   */\n      0x00\n        /* \"#utility.yul\":8489:8495   */\n      dup1\n        /* \"#utility.yul\":8497:8503   */\n      0x00\n        /* \"#utility.yul\":8550:8552   */\n      0x60\n        /* \"#utility.yul\":8538:8547   */\n      dup5\n        /* \"#utility.yul\":8529:8536   */\n      dup7\n        /* \"#utility.yul\":8525:8548   */\n      sub\n        /* \"#utility.yul\":8521:8553   */\n      slt\n        /* \"#utility.yul\":8518:8570   */\n      iszero\n      tag_526\n      jumpi\n        /* \"#utility.yul\":8566:8567   */\n      0x00\n        /* \"#utility.yul\":8563:8564   */\n      dup1\n        /* \"#utility.yul\":8556:8568   */\n      revert\n        /* \"#utility.yul\":8518:8570   */\n    tag_526:\n        /* \"#utility.yul\":8589:8617   */\n      tag_527\n        /* \"#utility.yul\":8607:8616   */\n      dup5\n        /* \"#utility.yul\":8589:8617   */\n      tag_423\n      jump\t// in\n    tag_527:\n        /* \"#utility.yul\":8579:8617   */\n      swap3\n      pop\n        /* \"#utility.yul\":8636:8673   */\n      tag_528\n        /* \"#utility.yul\":8669:8671   */\n      0x20\n        /* \"#utility.yul\":8658:8667   */\n      dup6\n        /* \"#utility.yul\":8654:8672   */\n      add\n        /* \"#utility.yul\":8636:8673   */\n      tag_423\n      jump\t// in\n    tag_528:\n        /* \"#utility.yul\":8626:8673   */\n      swap2\n      pop\n        /* \"#utility.yul\":8720:8722   */\n      0x40\n        /* \"#utility.yul\":8709:8718   */\n      dup5\n        /* \"#utility.yul\":8705:8723   */\n      add\n        /* \"#utility.yul\":8692:8724   */\n      calldataload\n        /* \"#utility.yul\":8682:8724   */\n      swap1\n      pop\n        /* \"#utility.yul\":8406:8730   */\n      swap3\n      pop\n      swap3\n      pop\n      swap3\n      jump\t// out\n        /* \"#utility.yul\":8959:9358   */\n    tag_177:\n        /* \"#utility.yul\":9043:9049   */\n      0x00\n        /* \"#utility.yul\":9051:9057   */\n      dup1\n        /* \"#utility.yul\":9059:9065   */\n      0x00\n        /* \"#utility.yul\":9067:9073   */\n      dup1\n        /* \"#utility.yul\":9120:9123   */\n      0x80\n        /* \"#utility.yul\":9108:9117   */\n      dup6\n        /* \"#utility.yul\":9099:9106   */\n      dup8\n        /* \"#utility.yul\":9095:9118   */\n      sub\n        /* \"#utility.yul\":9091:9124   */\n      slt\n        /* \"#utility.yul\":9088:9141   */\n      iszero\n      tag_532\n      jumpi\n        /* \"#utility.yul\":9137:9138   */\n      0x00\n        /* \"#utility.yul\":9134:9135   */\n      dup1\n        /* \"#utility.yul\":9127:9139   */\n      revert\n        /* \"#utility.yul\":9088:9141   */\n    tag_532:\n        /* \"#utility.yul\":9160:9188   */\n      tag_533\n        /* \"#utility.yul\":9178:9187   */\n      dup6\n        /* \"#utility.yul\":9160:9188   */\n      tag_423\n      jump\t// in\n    tag_533:\n        /* \"#utility.yul\":9150:9188   */\n      swap4\n      pop\n        /* \"#utility.yul\":9207:9244   */\n      tag_534\n        /* \"#utility.yul\":9240:9242   */\n      0x20\n        /* \"#utility.yul\":9229:9238   */\n      dup7\n        /* \"#utility.yul\":9225:9243   */\n      add\n        /* \"#utility.yul\":9207:9244   */\n      tag_423\n      jump\t// in\n    tag_534:\n        /* \"#utility.yul\":9197:9244   */\n      swap3\n      pop\n        /* \"#utility.yul\":9263:9301   */\n      tag_535\n        /* \"#utility.yul\":9297:9299   */\n      0x40\n        /* \"#utility.yul\":9286:9295   */\n      dup7\n        /* \"#utility.yul\":9282:9300   */\n      add\n        /* \"#utility.yul\":9263:9301   */\n      tag_426\n      jump\t// in\n    tag_535:\n        /* \"#utility.yul\":8959:9358   */\n      swap4\n      swap7\n      swap3\n      swap6\n      pop\n        /* \"#utility.yul\":9253:9301   */\n      swap3\n      swap4\n        /* \"#utility.yul\":9348:9350   */\n      0x60\n        /* \"#utility.yul\":9333:9351   */\n      add\n        /* \"#utility.yul\":9320:9352   */\n      calldataload\n      swap3\n      pop\n      pop\n        /* \"#utility.yul\":8959:9358   */\n      jump\t// out\n        /* \"#utility.yul\":9722:10102   */\n    tag_190:\n        /* \"#utility.yul\":9801:9802   */\n      0x01\n        /* \"#utility.yul\":9797:9809   */\n      dup2\n      dup2\n      shr\n      swap1\n        /* \"#utility.yul\":9844:9856   */\n      dup3\n      and\n      dup1\n        /* \"#utility.yul\":9865:9926   */\n      tag_538\n      jumpi\n        /* \"#utility.yul\":9919:9923   */\n      0x7f\n        /* \"#utility.yul\":9911:9917   */\n      dup3\n        /* \"#utility.yul\":9907:9924   */\n      and\n        /* \"#utility.yul\":9897:9924   */\n      swap2\n      pop\n        /* \"#utility.yul\":9865:9926   */\n    tag_538:\n        /* \"#utility.yul\":9972:9974   */\n      0x20\n        /* \"#utility.yul\":9964:9970   */\n      dup3\n        /* \"#utility.yul\":9961:9975   */\n      lt\n        /* \"#utility.yul\":9941:9959   */\n      dup2\n        /* \"#utility.yul\":9938:9976   */\n      sub\n        /* \"#utility.yul\":9935:10096   */\n      tag_539\n      jumpi\n        /* \"#utility.yul\":10018:10028   */\n      0x4e487b71\n        /* \"#utility.yul\":10013:10016   */\n      0xe0\n        /* \"#utility.yul\":10009:10029   */\n      shl\n        /* \"#utility.yul\":10006:10007   */\n      0x00\n        /* \"#utility.yul\":9999:10030   */\n      mstore\n        /* \"#utility.yul\":10053:10057   */\n      0x22\n        /* \"#utility.yul\":10050:10051   */\n      0x04\n        /* \"#utility.yul\":10043:10058   */\n      mstore\n        /* \"#utility.yul\":10081:10085   */\n      0x24\n        /* \"#utility.yul\":10078:10079   */\n      0x00\n        /* \"#utility.yul\":10071:10086   */\n      revert\n        /* \"#utility.yul\":9935:10096   */\n    tag_539:\n      pop\n        /* \"#utility.yul\":9722:10102   */\n      swap2\n      swap1\n      pop\n      jump\t// out\n        /* \"#utility.yul\":10107:10378   */\n    tag_198:\n        /* \"#utility.yul\":10290:10296   */\n      dup2\n        /* \"#utility.yul\":10282:10288   */\n      dup4\n        /* \"#utility.yul\":10277:10280   */\n      dup3\n        /* \"#utility.yul\":10264:10297   */\n      calldatacopy\n        /* \"#utility.yul\":10246:10249   */\n      0x00\n        /* \"#utility.yul\":10316:10332   */\n      swap2\n      add\n        /* \"#utility.yul\":10341:10354   */\n      swap1\n      dup2\n      mstore\n        /* \"#utility.yul\":10316:10332   */\n      swap2\n        /* \"#utility.yul\":10107:10378   */\n      swap1\n      pop\n      jump\t// out\n        /* \"#utility.yul\":10983:11249   */\n    tag_432:\n        /* \"#utility.yul\":11071:11077   */\n      dup2\n        /* \"#utility.yul\":11066:11069   */\n      dup4\n        /* \"#utility.yul\":11059:11078   */\n      mstore\n        /* \"#utility.yul\":11123:11129   */\n      dup2\n        /* \"#utility.yul\":11116:11121   */\n      dup2\n        /* \"#utility.yul\":11109:11113   */\n      0x20\n        /* \"#utility.yul\":11104:11107   */\n      dup6\n        /* \"#utility.yul\":11100:11114   */\n      add\n        /* \"#utility.yul\":11087:11130   */\n      calldatacopy\n      pop\n        /* \"#utility.yul\":11175:11176   */\n      0x00\n        /* \"#utility.yul\":11150:11166   */\n      dup3\n      dup3\n      add\n        /* \"#utility.yul\":11168:11172   */\n      0x20\n        /* \"#utility.yul\":11146:11173   */\n      swap1\n      dup2\n      add\n        /* \"#utility.yul\":11139:11177   */\n      swap2\n      swap1\n      swap2\n      mstore\n        /* \"#utility.yul\":11231:11233   */\n      0x1f\n        /* \"#utility.yul\":11210:11225   */\n      swap1\n      swap2\n      add\n      not(0x1f)\n        /* \"#utility.yul\":11206:11235   */\n      and\n        /* \"#utility.yul\":11197:11236   */\n      swap1\n      swap2\n      add\n        /* \"#utility.yul\":11193:11243   */\n      add\n      swap1\n        /* \"#utility.yul\":10983:11249   */\n      jump\t// out\n        /* \"#utility.yul\":11254:11580   */\n    tag_234:\n        /* \"#utility.yul\":11449:11455   */\n      0xffff\n        /* \"#utility.yul\":11441:11447   */\n      dup5\n        /* \"#utility.yul\":11437:11456   */\n      and\n        /* \"#utility.yul\":11426:11435   */\n      dup2\n        /* \"#utility.yul\":11419:11457   */\n      mstore\n        /* \"#utility.yul\":11493:11495   */\n      0x40\n        /* \"#utility.yul\":11488:11490   */\n      0x20\n        /* \"#utility.yul\":11477:11486   */\n      dup3\n        /* \"#utility.yul\":11473:11491   */\n      add\n        /* \"#utility.yul\":11466:11496   */\n      mstore\n        /* \"#utility.yul\":11400:11404   */\n      0x00\n        /* \"#utility.yul\":11513:11574   */\n      tag_349\n        /* \"#utility.yul\":11570:11572   */\n      0x40\n        /* \"#utility.yul\":11559:11568   */\n      dup4\n        /* \"#utility.yul\":11555:11573   */\n      add\n        /* \"#utility.yul\":11547:11553   */\n      dup5\n        /* \"#utility.yul\":11539:11545   */\n      dup7\n        /* \"#utility.yul\":11513:11574   */\n      tag_432\n      jump\t// in\n        /* \"#utility.yul\":12048:12590   */\n    tag_434:\n        /* \"#utility.yul\":12149:12151   */\n      0x1f\n        /* \"#utility.yul\":12144:12147   */\n      dup3\n        /* \"#utility.yul\":12141:12152   */\n      gt\n        /* \"#utility.yul\":12138:12584   */\n      iszero\n      tag_243\n      jumpi\n        /* \"#utility.yul\":12185:12186   */\n      0x00\n        /* \"#utility.yul\":12209:12214   */\n      dup2\n        /* \"#utility.yul\":12206:12207   */\n      0x00\n        /* \"#utility.yul\":12199:12215   */\n      mstore\n        /* \"#utility.yul\":12253:12257   */\n      0x20\n        /* \"#utility.yul\":12250:12251   */\n      0x00\n        /* \"#utility.yul\":12240:12258   */\n      keccak256\n        /* \"#utility.yul\":12323:12325   */\n      0x1f\n        /* \"#utility.yul\":12311:12321   */\n      dup6\n        /* \"#utility.yul\":12307:12326   */\n      add\n        /* \"#utility.yul\":12304:12305   */\n      0x05\n        /* \"#utility.yul\":12300:12327   */\n      shr\n        /* \"#utility.yul\":12294:12298   */\n      dup2\n        /* \"#utility.yul\":12290:12328   */\n      add\n        /* \"#utility.yul\":12359:12363   */\n      0x20\n        /* \"#utility.yul\":12347:12357   */\n      dup7\n        /* \"#utility.yul\":12344:12364   */\n      lt\n        /* \"#utility.yul\":12341:12388   */\n      iszero\n      tag_550\n      jumpi\n      pop\n        /* \"#utility.yul\":12382:12386   */\n      dup1\n        /* \"#utility.yul\":12341:12388   */\n    tag_550:\n        /* \"#utility.yul\":12437:12439   */\n      0x1f\n        /* \"#utility.yul\":12432:12435   */\n      dup6\n        /* \"#utility.yul\":12428:12440   */\n      add\n        /* \"#utility.yul\":12425:12426   */\n      0x05\n        /* \"#utility.yul\":12421:12441   */\n      shr\n        /* \"#utility.yul\":12415:12419   */\n      dup3\n        /* \"#utility.yul\":12411:12442   */\n      add\n        /* \"#utility.yul\":12401:12442   */\n      swap2\n      pop\n        /* \"#utility.yul\":12492:12574   */\n    tag_551:\n        /* \"#utility.yul\":12510:12512   */\n      dup2\n        /* \"#utility.yul\":12503:12508   */\n      dup2\n        /* \"#utility.yul\":12500:12513   */\n      lt\n        /* \"#utility.yul\":12492:12574   */\n      iszero\n      tag_250\n      jumpi\n        /* \"#utility.yul\":12555:12572   */\n      dup3\n      dup2\n      sstore\n        /* \"#utility.yul\":12536:12537   */\n      0x01\n        /* \"#utility.yul\":12525:12538   */\n      add\n        /* \"#utility.yul\":12492:12574   */\n      jump(tag_551)\n        /* \"#utility.yul\":12766:14107   */\n    tag_244:\n        /* \"#utility.yul\":12890:12893   */\n      dup2\n        /* \"#utility.yul\":12884:12894   */\n      mload\n      sub(shl(0x40, 0x01), 0x01)\n        /* \"#utility.yul\":12909:12915   */\n      dup2\n        /* \"#utility.yul\":12906:12936   */\n      gt\n        /* \"#utility.yul\":12903:12959   */\n      iszero\n      tag_557\n      jumpi\n        /* \"#utility.yul\":12939:12957   */\n      tag_557\n      tag_410\n      jump\t// in\n    tag_557:\n        /* \"#utility.yul\":12968:13064   */\n      tag_558\n        /* \"#utility.yul\":13057:13063   */\n      dup2\n        /* \"#utility.yul\":13017:13055   */\n      tag_559\n        /* \"#utility.yul\":13049:13053   */\n      dup5\n        /* \"#utility.yul\":13043:13054   */\n      sload\n        /* \"#utility.yul\":13017:13055   */\n      tag_190\n      jump\t// in\n    tag_559:\n        /* \"#utility.yul\":13011:13015   */\n      dup5\n        /* \"#utility.yul\":12968:13064   */\n      tag_434\n      jump\t// in\n    tag_558:\n        /* \"#utility.yul\":13119:13123   */\n      0x20\n      dup1\n        /* \"#utility.yul\":13176:13178   */\n      0x1f\n        /* \"#utility.yul\":13165:13179   */\n      dup4\n      gt\n        /* \"#utility.yul\":13193:13194   */\n      0x01\n        /* \"#utility.yul\":13188:13850   */\n      dup2\n      eq\n      tag_561\n      jumpi\n        /* \"#utility.yul\":13894:13895   */\n      0x00\n        /* \"#utility.yul\":13911:13917   */\n      dup5\n        /* \"#utility.yul\":13908:13997   */\n      iszero\n      tag_562\n      jumpi\n      pop\n        /* \"#utility.yul\":13963:13982   */\n      dup6\n      dup4\n      add\n        /* \"#utility.yul\":13957:13983   */\n      mload\n        /* \"#utility.yul\":13908:13997   */\n    tag_562:\n      not(0x00)\n        /* \"#utility.yul\":12723:12724   */\n      0x03\n        /* \"#utility.yul\":12719:12730   */\n      dup7\n      swap1\n      shl\n        /* \"#utility.yul\":12715:12739   */\n      shr\n        /* \"#utility.yul\":12711:12740   */\n      not\n        /* \"#utility.yul\":12701:12741   */\n      and\n        /* \"#utility.yul\":12747:12748   */\n      0x01\n        /* \"#utility.yul\":12743:12754   */\n      dup6\n      swap1\n      shl\n        /* \"#utility.yul\":12698:12755   */\n      or\n        /* \"#utility.yul\":14010:14091   */\n      dup6\n      sstore\n        /* \"#utility.yul\":13158:14101   */\n      jump(tag_250)\n        /* \"#utility.yul\":13188:13850   */\n    tag_561:\n        /* \"#utility.yul\":11995:11996   */\n      0x00\n        /* \"#utility.yul\":11988:12002   */\n      dup6\n      dup2\n      mstore\n        /* \"#utility.yul\":12032:12036   */\n      0x20\n        /* \"#utility.yul\":12019:12037   */\n      dup2\n      keccak256\n      not(0x1f)\n        /* \"#utility.yul\":13224:13244   */\n      dup7\n      and\n      swap2\n        /* \"#utility.yul\":13341:13577   */\n    tag_565:\n        /* \"#utility.yul\":13355:13362   */\n      dup3\n        /* \"#utility.yul\":13352:13353   */\n      dup2\n        /* \"#utility.yul\":13349:13363   */\n      lt\n        /* \"#utility.yul\":13341:13577   */\n      iszero\n      tag_567\n      jumpi\n        /* \"#utility.yul\":13444:13463   */\n      dup9\n      dup7\n      add\n        /* \"#utility.yul\":13438:13464   */\n      mload\n        /* \"#utility.yul\":13423:13465   */\n      dup3\n      sstore\n        /* \"#utility.yul\":13536:13563   */\n      swap5\n      dup5\n      add\n      swap5\n        /* \"#utility.yul\":13504:13505   */\n      0x01\n        /* \"#utility.yul\":13492:13506   */\n      swap1\n      swap2\n      add\n      swap1\n        /* \"#utility.yul\":13371:13390   */\n      dup5\n      add\n        /* \"#utility.yul\":13341:13577   */\n      jump(tag_565)\n    tag_567:\n        /* \"#utility.yul\":13345:13348   */\n      pop\n        /* \"#utility.yul\":13605:13611   */\n      dup6\n        /* \"#utility.yul\":13596:13603   */\n      dup3\n        /* \"#utility.yul\":13593:13612   */\n      lt\n        /* \"#utility.yul\":13590:13791   */\n      iszero\n      tag_568\n      jumpi\n        /* \"#utility.yul\":13666:13685   */\n      dup8\n      dup6\n      add\n        /* \"#utility.yul\":13660:13686   */\n      mload\n      not(0x00)\n        /* \"#utility.yul\":13749:13750   */\n      0x03\n        /* \"#utility.yul\":13745:13759   */\n      dup9\n      swap1\n      shl\n        /* \"#utility.yul\":13761:13764   */\n      0xf8\n        /* \"#utility.yul\":13741:13765   */\n      and\n        /* \"#utility.yul\":13737:13774   */\n      shr\n        /* \"#utility.yul\":13733:13775   */\n      not\n        /* \"#utility.yul\":13718:13776   */\n      and\n        /* \"#utility.yul\":13703:13777   */\n      dup2\n      sstore\n        /* \"#utility.yul\":13590:13791   */\n    tag_568:\n      pop\n      pop\n      pop\n      pop\n      pop\n        /* \"#utility.yul\":13837:13838   */\n      0x01\n        /* \"#utility.yul\":13821:13835   */\n      swap1\n      dup2\n      shl\n        /* \"#utility.yul\":13817:13839   */\n      add\n        /* \"#utility.yul\":13804:13840   */\n      swap1\n      sstore\n      pop\n        /* \"#utility.yul\":12766:14107   */\n      jump\t// out\n        /* \"#utility.yul\":14519:15186   */\n    tag_265:\n        /* \"#utility.yul\":14810:14816   */\n      0xffff\n        /* \"#utility.yul\":14798:14817   */\n      dup8\n      and\n        /* \"#utility.yul\":14780:14818   */\n      dup2\n      mstore\n      sub(shl(0xa0, 0x01), 0x01)\n        /* \"#utility.yul\":14854:14886   */\n      dup7\n      and\n        /* \"#utility.yul\":14849:14851   */\n      0x20\n        /* \"#utility.yul\":14834:14852   */\n      dup3\n      add\n        /* \"#utility.yul\":14827:14887   */\n      mstore\n        /* \"#utility.yul\":14874:14877   */\n      0xa0\n        /* \"#utility.yul\":14918:14920   */\n      0x40\n        /* \"#utility.yul\":14903:14921   */\n      dup3\n      add\n        /* \"#utility.yul\":14896:14927   */\n      dup2\n      swap1\n      mstore\n      0x00\n      swap1\n        /* \"#utility.yul\":14950:14995   */\n      tag_571\n      swap1\n        /* \"#utility.yul\":14975:14994   */\n      dup4\n      add\n        /* \"#utility.yul\":14967:14973   */\n      dup8\n        /* \"#utility.yul\":14950:14995   */\n      tag_431\n      jump\t// in\n    tag_571:\n        /* \"#utility.yul\":15045:15051   */\n      dup6\n        /* \"#utility.yul\":15038:15052   */\n      iszero\n        /* \"#utility.yul\":15031:15053   */\n      iszero\n        /* \"#utility.yul\":15026:15028   */\n      0x60\n        /* \"#utility.yul\":15015:15024   */\n      dup5\n        /* \"#utility.yul\":15011:15029   */\n      add\n        /* \"#utility.yul\":15004:15054   */\n      mstore\n        /* \"#utility.yul\":15103:15112   */\n      dup3\n        /* \"#utility.yul\":15095:15101   */\n      dup2\n        /* \"#utility.yul\":15091:15113   */\n      sub\n        /* \"#utility.yul\":15085:15088   */\n      0x80\n        /* \"#utility.yul\":15074:15083   */\n      dup5\n        /* \"#utility.yul\":15070:15089   */\n      add\n        /* \"#utility.yul\":15063:15114   */\n      mstore\n        /* \"#utility.yul\":15131:15180   */\n      tag_572\n        /* \"#utility.yul\":15173:15179   */\n      dup2\n        /* \"#utility.yul\":15165:15171   */\n      dup6\n        /* \"#utility.yul\":15157:15163   */\n      dup8\n        /* \"#utility.yul\":15131:15180   */\n      tag_432\n      jump\t// in\n    tag_572:\n        /* \"#utility.yul\":15123:15180   */\n      swap10\n        /* \"#utility.yul\":14519:15186   */\n      swap9\n      pop\n      pop\n      pop\n      pop\n      pop\n      pop\n      pop\n      pop\n      pop\n      jump\t// out\n        /* \"#utility.yul\":15191:15436   */\n    tag_269:\n        /* \"#utility.yul\":15270:15276   */\n      0x00\n        /* \"#utility.yul\":15278:15284   */\n      dup1\n        /* \"#utility.yul\":15331:15333   */\n      0x40\n        /* \"#utility.yul\":15319:15328   */\n      dup4\n        /* \"#utility.yul\":15310:15317   */\n      dup6\n        /* \"#utility.yul\":15306:15329   */\n      sub\n        /* \"#utility.yul\":15302:15334   */\n      slt\n        /* \"#utility.yul\":15299:15351   */\n      iszero\n      tag_574\n      jumpi\n        /* \"#utility.yul\":15347:15348   */\n      0x00\n        /* \"#utility.yul\":15344:15345   */\n      dup1\n        /* \"#utility.yul\":15337:15349   */\n      revert\n        /* \"#utility.yul\":15299:15351   */\n    tag_574:\n      pop\n      pop\n        /* \"#utility.yul\":15370:15386   */\n      dup1\n      mload\n        /* \"#utility.yul\":15426:15428   */\n      0x20\n        /* \"#utility.yul\":15411:15429   */\n      swap1\n      swap2\n      add\n        /* \"#utility.yul\":15405:15430   */\n      mload\n        /* \"#utility.yul\":15370:15386   */\n      swap1\n      swap3\n        /* \"#utility.yul\":15405:15430   */\n      swap1\n      swap2\n      pop\n        /* \"#utility.yul\":15191:15436   */\n      jump\t// out\n        /* \"#utility.yul\":15799:15926   */\n    tag_436:\n        /* \"#utility.yul\":15860:15870   */\n      0x4e487b71\n        /* \"#utility.yul\":15855:15858   */\n      0xe0\n        /* \"#utility.yul\":15851:15871   */\n      shl\n        /* \"#utility.yul\":15848:15849   */\n      0x00\n        /* \"#utility.yul\":15841:15872   */\n      mstore\n        /* \"#utility.yul\":15891:15895   */\n      0x11\n        /* \"#utility.yul\":15888:15889   */\n      0x04\n        /* \"#utility.yul\":15881:15896   */\n      mstore\n        /* \"#utility.yul\":15915:15919   */\n      0x24\n        /* \"#utility.yul\":15912:15913   */\n      0x00\n        /* \"#utility.yul\":15905:15920   */\n      revert\n        /* \"#utility.yul\":15931:16059   */\n    tag_282:\n        /* \"#utility.yul\":15998:16007   */\n      dup2\n      dup2\n      sub\n        /* \"#utility.yul\":16019:16030   */\n      dup2\n      dup2\n      gt\n        /* \"#utility.yul\":16016:16053   */\n      iszero\n      tag_579\n      jumpi\n        /* \"#utility.yul\":16033:16051   */\n      tag_579\n      tag_436\n      jump\t// in\n    tag_579:\n        /* \"#utility.yul\":15931:16059   */\n      swap3\n      swap2\n      pop\n      pop\n      jump\t// out\n        /* \"#utility.yul\":16064:16424   */\n    tag_288:\n        /* \"#utility.yul\":16275:16281   */\n      dup3\n        /* \"#utility.yul\":16267:16273   */\n      dup5\n        /* \"#utility.yul\":16262:16265   */\n      dup3\n        /* \"#utility.yul\":16249:16282   */\n      calldatacopy\n        /* \"#utility.yul\":16345:16347   */\n      0x60\n        /* \"#utility.yul\":16341:16356   */\n      swap2\n      swap1\n      swap2\n      shl\n      not(0xffffffffffffffffffffffff)\n        /* \"#utility.yul\":16337:16390   */\n      and\n        /* \"#utility.yul\":16301:16317   */\n      swap2\n      add\n        /* \"#utility.yul\":16326:16391   */\n      swap1\n      dup2\n      mstore\n        /* \"#utility.yul\":16415:16417   */\n      0x14\n        /* \"#utility.yul\":16407:16418   */\n      add\n      swap2\n        /* \"#utility.yul\":16064:16424   */\n      swap1\n      pop\n      jump\t// out\n        /* \"#utility.yul\":16761:17259   */\n    tag_304:\n        /* \"#utility.yul\":16961:16965   */\n      0x00\n        /* \"#utility.yul\":16990:16996   */\n      0xffff\n        /* \"#utility.yul\":17035:17037   */\n      dup1\n        /* \"#utility.yul\":17027:17033   */\n      dup9\n        /* \"#utility.yul\":17023:17038   */\n      and\n        /* \"#utility.yul\":17012:17021   */\n      dup4\n        /* \"#utility.yul\":17005:17039   */\n      mstore\n        /* \"#utility.yul\":17087:17089   */\n      dup1\n        /* \"#utility.yul\":17079:17085   */\n      dup8\n        /* \"#utility.yul\":17075:17090   */\n      and\n        /* \"#utility.yul\":17070:17072   */\n      0x20\n        /* \"#utility.yul\":17059:17068   */\n      dup5\n        /* \"#utility.yul\":17055:17073   */\n      add\n        /* \"#utility.yul\":17048:17091   */\n      mstore\n      pop\n        /* \"#utility.yul\":17127:17133   */\n      dup5\n        /* \"#utility.yul\":17122:17124   */\n      0x40\n        /* \"#utility.yul\":17111:17120   */\n      dup4\n        /* \"#utility.yul\":17107:17125   */\n      add\n        /* \"#utility.yul\":17100:17134   */\n      mstore\n        /* \"#utility.yul\":17170:17173   */\n      0x80\n        /* \"#utility.yul\":17165:17167   */\n      0x60\n        /* \"#utility.yul\":17154:17163   */\n      dup4\n        /* \"#utility.yul\":17150:17168   */\n      add\n        /* \"#utility.yul\":17143:17174   */\n      mstore\n        /* \"#utility.yul\":17191:17253   */\n      tag_583\n        /* \"#utility.yul\":17248:17251   */\n      0x80\n        /* \"#utility.yul\":17237:17246   */\n      dup4\n        /* \"#utility.yul\":17233:17252   */\n      add\n        /* \"#utility.yul\":17225:17231   */\n      dup5\n        /* \"#utility.yul\":17217:17223   */\n      dup7\n        /* \"#utility.yul\":17191:17253   */\n      tag_432\n      jump\t// in\n    tag_583:\n        /* \"#utility.yul\":17183:17253   */\n      swap8\n        /* \"#utility.yul\":16761:17259   */\n      swap7\n      pop\n      pop\n      pop\n      pop\n      pop\n      pop\n      pop\n      jump\t// out\n        /* \"#utility.yul\":18070:18563   */\n    tag_320:\n        /* \"#utility.yul\":18319:18325   */\n      0xffff\n        /* \"#utility.yul\":18311:18317   */\n      dup7\n        /* \"#utility.yul\":18307:18326   */\n      and\n        /* \"#utility.yul\":18296:18305   */\n      dup2\n        /* \"#utility.yul\":18289:18327   */\n      mstore\n        /* \"#utility.yul\":18363:18366   */\n      0x80\n        /* \"#utility.yul\":18358:18360   */\n      0x20\n        /* \"#utility.yul\":18347:18356   */\n      dup3\n        /* \"#utility.yul\":18343:18361   */\n      add\n        /* \"#utility.yul\":18336:18367   */\n      mstore\n        /* \"#utility.yul\":18270:18274   */\n      0x00\n        /* \"#utility.yul\":18384:18446   */\n      tag_587\n        /* \"#utility.yul\":18441:18444   */\n      0x80\n        /* \"#utility.yul\":18430:18439   */\n      dup4\n        /* \"#utility.yul\":18426:18445   */\n      add\n        /* \"#utility.yul\":18418:18424   */\n      dup7\n        /* \"#utility.yul\":18410:18416   */\n      dup9\n        /* \"#utility.yul\":18384:18446   */\n      tag_432\n      jump\t// in\n    tag_587:\n      sub(shl(0x40, 0x01), 0x01)\n        /* \"#utility.yul\":18482:18513   */\n      swap5\n      swap1\n      swap5\n      and\n        /* \"#utility.yul\":18477:18479   */\n      0x40\n        /* \"#utility.yul\":18462:18480   */\n      dup4\n      add\n        /* \"#utility.yul\":18455:18514   */\n      mstore\n      pop\n        /* \"#utility.yul\":18545:18547   */\n      0x60\n        /* \"#utility.yul\":18530:18548   */\n      add\n        /* \"#utility.yul\":18523:18557   */\n      mstore\n        /* \"#utility.yul\":18376:18446   */\n      swap4\n        /* \"#utility.yul\":18070:18563   */\n      swap3\n      pop\n      pop\n      pop\n      jump\t// out\n        /* \"#utility.yul\":18931:20133   */\n    tag_335:\n      sub(shl(0x40, 0x01), 0x01)\n        /* \"#utility.yul\":19048:19051   */\n      dup4\n        /* \"#utility.yul\":19045:19072   */\n      gt\n        /* \"#utility.yul\":19042:19095   */\n      iszero\n      tag_591\n      jumpi\n        /* \"#utility.yul\":19075:19093   */\n      tag_591\n      tag_410\n      jump\t// in\n    tag_591:\n        /* \"#utility.yul\":19104:19197   */\n      tag_592\n        /* \"#utility.yul\":19193:19196   */\n      dup4\n        /* \"#utility.yul\":19153:19191   */\n      tag_593\n        /* \"#utility.yul\":19185:19189   */\n      dup4\n        /* \"#utility.yul\":19179:19190   */\n      sload\n        /* \"#utility.yul\":19153:19191   */\n      tag_190\n      jump\t// in\n    tag_593:\n        /* \"#utility.yul\":19147:19151   */\n      dup4\n        /* \"#utility.yul\":19104:19197   */\n      tag_434\n      jump\t// in\n    tag_592:\n        /* \"#utility.yul\":19223:19224   */\n      0x00\n        /* \"#utility.yul\":19248:19250   */\n      0x1f\n        /* \"#utility.yul\":19243:19246   */\n      dup5\n        /* \"#utility.yul\":19240:19251   */\n      gt\n        /* \"#utility.yul\":19265:19266   */\n      0x01\n        /* \"#utility.yul\":19260:19875   */\n      dup2\n      eq\n      tag_595\n      jumpi\n        /* \"#utility.yul\":19919:19920   */\n      0x00\n        /* \"#utility.yul\":19936:19939   */\n      dup6\n        /* \"#utility.yul\":19933:20026   */\n      iszero\n      tag_596\n      jumpi\n      pop\n        /* \"#utility.yul\":19992:20011   */\n      dup4\n      dup3\n      add\n        /* \"#utility.yul\":19979:20012   */\n      calldataload\n        /* \"#utility.yul\":19933:20026   */\n    tag_596:\n      not(0x00)\n        /* \"#utility.yul\":12723:12724   */\n      0x03\n        /* \"#utility.yul\":12719:12730   */\n      dup8\n      swap1\n      shl\n        /* \"#utility.yul\":12715:12739   */\n      shr\n        /* \"#utility.yul\":12711:12740   */\n      not\n        /* \"#utility.yul\":12701:12741   */\n      and\n        /* \"#utility.yul\":12747:12748   */\n      0x01\n        /* \"#utility.yul\":12743:12754   */\n      dup7\n      swap1\n      shl\n        /* \"#utility.yul\":12698:12755   */\n      or\n        /* \"#utility.yul\":20039:20117   */\n      dup4\n      sstore\n        /* \"#utility.yul\":19233:20127   */\n      jump(tag_212)\n        /* \"#utility.yul\":19260:19875   */\n    tag_595:\n        /* \"#utility.yul\":11995:11996   */\n      0x00\n        /* \"#utility.yul\":11988:12002   */\n      dup4\n      dup2\n      mstore\n        /* \"#utility.yul\":12032:12036   */\n      0x20\n        /* \"#utility.yul\":12019:12037   */\n      swap1\n      keccak256\n      not(0x1f)\n        /* \"#utility.yul\":19296:19313   */\n      dup7\n      and\n      swap1\n        /* \"#utility.yul\":19396:19405   */\n      dup4\n        /* \"#utility.yul\":19418:19647   */\n    tag_599:\n        /* \"#utility.yul\":19432:19439   */\n      dup3\n        /* \"#utility.yul\":19429:19430   */\n      dup2\n        /* \"#utility.yul\":19426:19440   */\n      lt\n        /* \"#utility.yul\":19418:19647   */\n      iszero\n      tag_601\n      jumpi\n        /* \"#utility.yul\":19521:19540   */\n      dup7\n      dup6\n      add\n        /* \"#utility.yul\":19508:19541   */\n      calldataload\n        /* \"#utility.yul\":19493:19542   */\n      dup3\n      sstore\n        /* \"#utility.yul\":19628:19632   */\n      0x20\n        /* \"#utility.yul\":19613:19633   */\n      swap5\n      dup6\n      add\n      swap5\n        /* \"#utility.yul\":19581:19582   */\n      0x01\n        /* \"#utility.yul\":19569:19583   */\n      swap1\n      swap3\n      add\n      swap2\n        /* \"#utility.yul\":19448:19460   */\n      add\n        /* \"#utility.yul\":19418:19647   */\n      jump(tag_599)\n    tag_601:\n        /* \"#utility.yul\":19422:19425   */\n      pop\n        /* \"#utility.yul\":19675:19678   */\n      dup7\n        /* \"#utility.yul\":19666:19673   */\n      dup3\n        /* \"#utility.yul\":19663:19679   */\n      lt\n        /* \"#utility.yul\":19660:19819   */\n      iszero\n      tag_602\n      jumpi\n        /* \"#utility.yul\":19799:19800   */\n      0x00\n        /* \"#utility.yul\":19795:19801   */\n      not\n        /* \"#utility.yul\":19789:19792   */\n      0xf8\n        /* \"#utility.yul\":19783:19786   */\n      dup9\n        /* \"#utility.yul\":19780:19781   */\n      0x03\n        /* \"#utility.yul\":19776:19787   */\n      shl\n        /* \"#utility.yul\":19772:19793   */\n      and\n        /* \"#utility.yul\":19768:19802   */\n      shr\n        /* \"#utility.yul\":19764:19803   */\n      not\n        /* \"#utility.yul\":19751:19760   */\n      dup5\n        /* \"#utility.yul\":19746:19749   */\n      dup8\n        /* \"#utility.yul\":19742:19761   */\n      add\n        /* \"#utility.yul\":19729:19762   */\n      calldataload\n        /* \"#utility.yul\":19725:19804   */\n      and\n        /* \"#utility.yul\":19717:19723   */\n      dup2\n        /* \"#utility.yul\":19710:19805   */\n      sstore\n        /* \"#utility.yul\":19660:19819   */\n    tag_602:\n      pop\n      pop\n        /* \"#utility.yul\":19862:19863   */\n      0x01\n        /* \"#utility.yul\":19856:19859   */\n      dup6\n        /* \"#utility.yul\":19853:19854   */\n      0x01\n        /* \"#utility.yul\":19849:19860   */\n      shl\n        /* \"#utility.yul\":19845:19864   */\n      add\n        /* \"#utility.yul\":19839:19843   */\n      dup4\n        /* \"#utility.yul\":19832:19865   */\n      sstore\n        /* \"#utility.yul\":19233:20127   */\n      pop\n      pop\n        /* \"#utility.yul\":18931:20133   */\n      pop\n      pop\n      pop\n      jump\t// out\n        /* \"#utility.yul\":21006:21326   */\n    tag_437:\n        /* \"#utility.yul\":21081:21086   */\n      0x00\n        /* \"#utility.yul\":21110:21162   */\n      tag_606\n        /* \"#utility.yul\":21126:21161   */\n      tag_483\n        /* \"#utility.yul\":21154:21160   */\n      dup5\n        /* \"#utility.yul\":21126:21161   */\n      tag_428\n      jump\t// in\n        /* \"#utility.yul\":21110:21162   */\n    tag_606:\n        /* \"#utility.yul\":21101:21162   */\n      swap1\n      pop\n        /* \"#utility.yul\":21185:21191   */\n      dup3\n        /* \"#utility.yul\":21178:21183   */\n      dup2\n        /* \"#utility.yul\":21171:21192   */\n      mstore\n        /* \"#utility.yul\":21225:21228   */\n      dup4\n        /* \"#utility.yul\":21216:21222   */\n      dup4\n        /* \"#utility.yul\":21211:21214   */\n      dup4\n        /* \"#utility.yul\":21207:21223   */\n      add\n        /* \"#utility.yul\":21204:21229   */\n      gt\n        /* \"#utility.yul\":21201:21246   */\n      iszero\n      tag_608\n      jumpi\n        /* \"#utility.yul\":21242:21243   */\n      0x00\n        /* \"#utility.yul\":21239:21240   */\n      dup1\n        /* \"#utility.yul\":21232:21244   */\n      revert\n        /* \"#utility.yul\":21201:21246   */\n    tag_608:\n        /* \"#utility.yul\":21255:21320   */\n      tag_223\n        /* \"#utility.yul\":21313:21319   */\n      dup4\n        /* \"#utility.yul\":21306:21310   */\n      0x20\n        /* \"#utility.yul\":21299:21304   */\n      dup4\n        /* \"#utility.yul\":21295:21311   */\n      add\n        /* \"#utility.yul\":21290:21293   */\n      dup5\n        /* \"#utility.yul\":21255:21320   */\n      tag_430\n      jump\t// in\n        /* \"#utility.yul\":21331:21788   */\n    tag_350:\n        /* \"#utility.yul\":21410:21416   */\n      0x00\n        /* \"#utility.yul\":21463:21465   */\n      0x20\n        /* \"#utility.yul\":21451:21460   */\n      dup3\n        /* \"#utility.yul\":21442:21449   */\n      dup5\n        /* \"#utility.yul\":21438:21461   */\n      sub\n        /* \"#utility.yul\":21434:21466   */\n      slt\n        /* \"#utility.yul\":21431:21483   */\n      iszero\n      tag_611\n      jumpi\n        /* \"#utility.yul\":21479:21480   */\n      0x00\n        /* \"#utility.yul\":21476:21477   */\n      dup1\n        /* \"#utility.yul\":21469:21481   */\n      revert\n        /* \"#utility.yul\":21431:21483   */\n    tag_611:\n        /* \"#utility.yul\":21512:21521   */\n      dup2\n        /* \"#utility.yul\":21506:21522   */\n      mload\n      sub(shl(0x40, 0x01), 0x01)\n        /* \"#utility.yul\":21537:21543   */\n      dup2\n        /* \"#utility.yul\":21534:21564   */\n      gt\n        /* \"#utility.yul\":21531:21581   */\n      iszero\n      tag_612\n      jumpi\n        /* \"#utility.yul\":21577:21578   */\n      0x00\n        /* \"#utility.yul\":21574:21575   */\n      dup1\n        /* \"#utility.yul\":21567:21579   */\n      revert\n        /* \"#utility.yul\":21531:21581   */\n    tag_612:\n        /* \"#utility.yul\":21600:21622   */\n      dup3\n      add\n        /* \"#utility.yul\":21653:21657   */\n      0x1f\n        /* \"#utility.yul\":21645:21658   */\n      dup2\n      add\n        /* \"#utility.yul\":21641:21668   */\n      dup5\n      sgt\n        /* \"#utility.yul\":21631:21686   */\n      tag_613\n      jumpi\n        /* \"#utility.yul\":21682:21683   */\n      0x00\n        /* \"#utility.yul\":21679:21680   */\n      dup1\n        /* \"#utility.yul\":21672:21684   */\n      revert\n        /* \"#utility.yul\":21631:21686   */\n    tag_613:\n        /* \"#utility.yul\":21705:21782   */\n      tag_614\n        /* \"#utility.yul\":21774:21781   */\n      dup5\n        /* \"#utility.yul\":21769:21771   */\n      dup3\n        /* \"#utility.yul\":21763:21772   */\n      mload\n        /* \"#utility.yul\":21758:21760   */\n      0x20\n        /* \"#utility.yul\":21754:21756   */\n      dup5\n        /* \"#utility.yul\":21750:21761   */\n      add\n        /* \"#utility.yul\":21705:21782   */\n      tag_437\n      jump\t// in\n    tag_614:\n        /* \"#utility.yul\":21695:21782   */\n      swap5\n        /* \"#utility.yul\":21331:21788   */\n      swap4\n      pop\n      pop\n      pop\n      pop\n      jump\t// out\n        /* \"#utility.yul\":22125:22680   */\n    tag_359:\n        /* \"#utility.yul\":22382:22388   */\n      0xffff\n        /* \"#utility.yul\":22374:22380   */\n      dup6\n        /* \"#utility.yul\":22370:22389   */\n      and\n        /* \"#utility.yul\":22359:22368   */\n      dup2\n        /* \"#utility.yul\":22352:22390   */\n      mstore\n        /* \"#utility.yul\":22426:22429   */\n      0x80\n        /* \"#utility.yul\":22421:22423   */\n      0x20\n        /* \"#utility.yul\":22410:22419   */\n      dup3\n        /* \"#utility.yul\":22406:22424   */\n      add\n        /* \"#utility.yul\":22399:22430   */\n      mstore\n        /* \"#utility.yul\":22333:22337   */\n      0x00\n        /* \"#utility.yul\":22453:22498   */\n      tag_617\n        /* \"#utility.yul\":22493:22496   */\n      0x80\n        /* \"#utility.yul\":22482:22491   */\n      dup4\n        /* \"#utility.yul\":22478:22497   */\n      add\n        /* \"#utility.yul\":22470:22476   */\n      dup7\n        /* \"#utility.yul\":22453:22498   */\n      tag_431\n      jump\t// in\n    tag_617:\n      sub(shl(0x40, 0x01), 0x01)\n        /* \"#utility.yul\":22538:22544   */\n      dup6\n        /* \"#utility.yul\":22534:22565   */\n      and\n        /* \"#utility.yul\":22529:22531   */\n      0x40\n        /* \"#utility.yul\":22518:22527   */\n      dup5\n        /* \"#utility.yul\":22514:22532   */\n      add\n        /* \"#utility.yul\":22507:22566   */\n      mstore\n        /* \"#utility.yul\":22614:22623   */\n      dup3\n        /* \"#utility.yul\":22606:22612   */\n      dup2\n        /* \"#utility.yul\":22602:22624   */\n      sub\n        /* \"#utility.yul\":22597:22599   */\n      0x60\n        /* \"#utility.yul\":22586:22595   */\n      dup5\n        /* \"#utility.yul\":22582:22600   */\n      add\n        /* \"#utility.yul\":22575:22625   */\n      mstore\n        /* \"#utility.yul\":22642:22674   */\n      tag_583\n        /* \"#utility.yul\":22667:22673   */\n      dup2\n        /* \"#utility.yul\":22659:22665   */\n      dup6\n        /* \"#utility.yul\":22642:22674   */\n      tag_431\n      jump\t// in\n        /* \"#utility.yul\":24857:24982   */\n    tag_378:\n        /* \"#utility.yul\":24922:24931   */\n      dup1\n      dup3\n      add\n        /* \"#utility.yul\":24943:24953   */\n      dup1\n      dup3\n      gt\n        /* \"#utility.yul\":24940:24976   */\n      iszero\n      tag_579\n      jumpi\n        /* \"#utility.yul\":24956:24974   */\n      tag_579\n      tag_436\n      jump\t// in\n        /* \"#utility.yul\":26093:26930   */\n    tag_403:\n        /* \"#utility.yul\":26442:26448   */\n      0xffff\n        /* \"#utility.yul\":26434:26440   */\n      dup8\n        /* \"#utility.yul\":26430:26449   */\n      and\n        /* \"#utility.yul\":26419:26428   */\n      dup2\n        /* \"#utility.yul\":26412:26450   */\n      mstore\n        /* \"#utility.yul\":26486:26489   */\n      0xc0\n        /* \"#utility.yul\":26481:26483   */\n      0x20\n        /* \"#utility.yul\":26470:26479   */\n      dup3\n        /* \"#utility.yul\":26466:26484   */\n      add\n        /* \"#utility.yul\":26459:26490   */\n      mstore\n        /* \"#utility.yul\":26393:26397   */\n      0x00\n        /* \"#utility.yul\":26513:26558   */\n      tag_646\n        /* \"#utility.yul\":26553:26556   */\n      0xc0\n        /* \"#utility.yul\":26542:26551   */\n      dup4\n        /* \"#utility.yul\":26538:26557   */\n      add\n        /* \"#utility.yul\":26530:26536   */\n      dup9\n        /* \"#utility.yul\":26513:26558   */\n      tag_431\n      jump\t// in\n    tag_646:\n        /* \"#utility.yul\":26606:26615   */\n      dup3\n        /* \"#utility.yul\":26598:26604   */\n      dup2\n        /* \"#utility.yul\":26594:26616   */\n      sub\n        /* \"#utility.yul\":26589:26591   */\n      0x40\n        /* \"#utility.yul\":26578:26587   */\n      dup5\n        /* \"#utility.yul\":26574:26592   */\n      add\n        /* \"#utility.yul\":26567:26617   */\n      mstore\n        /* \"#utility.yul\":26640:26672   */\n      tag_647\n        /* \"#utility.yul\":26665:26671   */\n      dup2\n        /* \"#utility.yul\":26657:26663   */\n      dup9\n        /* \"#utility.yul\":26640:26672   */\n      tag_431\n      jump\t// in\n    tag_647:\n      sub(shl(0xa0, 0x01), 0x01)\n        /* \"#utility.yul\":26746:26761   */\n      dup8\n      dup2\n      and\n        /* \"#utility.yul\":26741:26743   */\n      0x60\n        /* \"#utility.yul\":26726:26744   */\n      dup7\n      add\n        /* \"#utility.yul\":26719:26762   */\n      mstore\n        /* \"#utility.yul\":26799:26814   */\n      dup7\n      and\n        /* \"#utility.yul\":26793:26796   */\n      0x80\n        /* \"#utility.yul\":26778:26797   */\n      dup6\n      add\n        /* \"#utility.yul\":26771:26815   */\n      mstore\n        /* \"#utility.yul\":26852:26874   */\n      dup4\n      dup2\n      sub\n        /* \"#utility.yul\":26699:26702   */\n      0xa0\n        /* \"#utility.yul\":26831:26850   */\n      dup6\n      add\n        /* \"#utility.yul\":26824:26875   */\n      mstore\n        /* \"#utility.yul\":26626:26672   */\n      swap1\n      pop\n        /* \"#utility.yul\":26892:26924   */\n      tag_572\n        /* \"#utility.yul\":26626:26672   */\n      dup2\n        /* \"#utility.yul\":26909:26915   */\n      dup6\n        /* \"#utility.yul\":26892:26924   */\n      tag_431\n      jump\t// in\n        /* \"#utility.yul\":26935:27222   */\n    tag_415:\n        /* \"#utility.yul\":27064:27067   */\n      0x00\n        /* \"#utility.yul\":27102:27108   */\n      dup3\n        /* \"#utility.yul\":27096:27109   */\n      mload\n        /* \"#utility.yul\":27118:27184   */\n      tag_650\n        /* \"#utility.yul\":27177:27183   */\n      dup2\n        /* \"#utility.yul\":27172:27175   */\n      dup5\n        /* \"#utility.yul\":27165:27169   */\n      0x20\n        /* \"#utility.yul\":27157:27163   */\n      dup8\n        /* \"#utility.yul\":27153:27170   */\n      add\n        /* \"#utility.yul\":27118:27184   */\n      tag_430\n      jump\t// in\n    tag_650:\n        /* \"#utility.yul\":27200:27216   */\n      swap2\n      swap1\n      swap2\n      add\n      swap3\n        /* \"#utility.yul\":26935:27222   */\n      swap2\n      pop\n      pop\n      jump\t// out\n        /* \"#utility.yul\":27227:27943   */\n    tag_417:\n        /* \"#utility.yul\":27530:27536   */\n      0xffff\n        /* \"#utility.yul\":27522:27528   */\n      dup7\n        /* \"#utility.yul\":27518:27537   */\n      and\n        /* \"#utility.yul\":27507:27516   */\n      dup2\n        /* \"#utility.yul\":27500:27538   */\n      mstore\n        /* \"#utility.yul\":27574:27577   */\n      0xa0\n        /* \"#utility.yul\":27569:27571   */\n      0x20\n        /* \"#utility.yul\":27558:27567   */\n      dup3\n        /* \"#utility.yul\":27554:27572   */\n      add\n        /* \"#utility.yul\":27547:27578   */\n      mstore\n        /* \"#utility.yul\":27481:27485   */\n      0x00\n        /* \"#utility.yul\":27601:27646   */\n      tag_652\n        /* \"#utility.yul\":27641:27644   */\n      0xa0\n        /* \"#utility.yul\":27630:27639   */\n      dup4\n        /* \"#utility.yul\":27626:27645   */\n      add\n        /* \"#utility.yul\":27618:27624   */\n      dup8\n        /* \"#utility.yul\":27601:27646   */\n      tag_431\n      jump\t// in\n    tag_652:\n      sub(shl(0x40, 0x01), 0x01)\n        /* \"#utility.yul\":27686:27692   */\n      dup7\n        /* \"#utility.yul\":27682:27713   */\n      and\n        /* \"#utility.yul\":27677:27679   */\n      0x40\n        /* \"#utility.yul\":27666:27675   */\n      dup5\n        /* \"#utility.yul\":27662:27680   */\n      add\n        /* \"#utility.yul\":27655:27714   */\n      mstore\n        /* \"#utility.yul\":27762:27771   */\n      dup3\n        /* \"#utility.yul\":27754:27760   */\n      dup2\n        /* \"#utility.yul\":27750:27772   */\n      sub\n        /* \"#utility.yul\":27745:27747   */\n      0x60\n        /* \"#utility.yul\":27734:27743   */\n      dup5\n        /* \"#utility.yul\":27730:27748   */\n      add\n        /* \"#utility.yul\":27723:27773   */\n      mstore\n        /* \"#utility.yul\":27796:27828   */\n      tag_653\n        /* \"#utility.yul\":27821:27827   */\n      dup2\n        /* \"#utility.yul\":27813:27819   */\n      dup7\n        /* \"#utility.yul\":27796:27828   */\n      tag_431\n      jump\t// in\n    tag_653:\n        /* \"#utility.yul\":27782:27828   */\n      swap1\n      pop\n        /* \"#utility.yul\":27877:27886   */\n      dup3\n        /* \"#utility.yul\":27869:27875   */\n      dup2\n        /* \"#utility.yul\":27865:27887   */\n      sub\n        /* \"#utility.yul\":27859:27862   */\n      0x80\n        /* \"#utility.yul\":27848:27857   */\n      dup5\n        /* \"#utility.yul\":27844:27863   */\n      add\n        /* \"#utility.yul\":27837:27888   */\n      mstore\n        /* \"#utility.yul\":27905:27937   */\n      tag_654\n        /* \"#utility.yul\":27930:27936   */\n      dup2\n        /* \"#utility.yul\":27922:27928   */\n      dup6\n        /* \"#utility.yul\":27905:27937   */\n      tag_431\n      jump\t// in\n    tag_654:\n        /* \"#utility.yul\":27897:27937   */\n      swap9\n        /* \"#utility.yul\":27227:27943   */\n      swap8\n      pop\n      pop\n      pop\n      pop\n      pop\n      pop\n      pop\n      pop\n      jump\t// out\n\n    auxdata: 0xa2646970667358221220f5899b5dfdef155ccefa4473ad5155c225d150a7e5510744941ccee2007394bf64736f6c63430008160033\n}\n",
				"bytecode": {
					"linkReferences": {},
					"object": "60e0604052600f60a09081526e77616974696e6720746f2064696e6760881b60c0526006906200003090826200017a565b503480156200003e57600080fd5b506040516200276538038062002765833981016040819052620000619162000246565b80806200006e3362000083565b6001600160a01b031660805250620002789050565b600080546001600160a01b038381166001600160a01b0319831681178455604051919092169283917f8be0079c531659141344cd1fd0a4f28419497f9722a3daafe3b4186f6b6457e09190a35050565b634e487b7160e01b600052604160045260246000fd5b600181811c90821680620000fe57607f821691505b6020821081036200011f57634e487b7160e01b600052602260045260246000fd5b50919050565b601f82111562000175576000816000526020600020601f850160051c81016020861015620001505750805b601f850160051c820191505b8181101562000171578281556001016200015c565b5050505b505050565b81516001600160401b03811115620001965762000196620000d3565b620001ae81620001a78454620000e9565b8462000125565b602080601f831160018114620001e65760008415620001cd5750858301515b600019600386901b1c1916600185901b17855562000171565b600085815260208120601f198616915b828110156200021757888601518255948401946001909101908401620001f6565b5085821015620002365787850151600019600388901b60f8161c191681555b5050505050600190811b01905550565b6000602082840312156200025957600080fd5b81516001600160a01b03811681146200027157600080fd5b9392505050565b608051612499620002cc600039600081816104c50152818161060e0152818161085d0152818161090501528181610a2801528181610cb701528181610fb5015281816113bc01526117e001526124996000f3fe6080604052600436106101cc5760003560e01c8063950c8a74116100f7578063cbed8b9c11610095578063eb8d72b711610064578063eb8d72b714610598578063f2fde38b146105b8578063f5ecbdbc146105d8578063fc018c64146105f857600080fd5b8063cbed8b9c14610530578063d1deba1f14610550578063df2a5b3b14610563578063e21f37ce1461058357600080fd5b8063b353aaa7116100d1578063b353aaa7146104b3578063baf3292d146104e7578063bdb30a0914610507578063c44618341461051a57600080fd5b8063950c8a74146104535780639f38369a14610473578063a6c3d1651461049357600080fd5b8063512004941161016f5780637533d7881161013e5780637533d788146103875780637efb5844146103b45780638cfd8f5c146103e95780638da5cb5b1461042157600080fd5b806351200494146102e35780635b8c41e61461030357806366ad5c8a14610352578063715018a61461037257600080fd5b806310ddb137116101ab57806310ddb137146102335780633d8b38f6146102535780633f1f4fa41461028857806342d65a8d146102c357600080fd5b80621d3567146101d157806307e0db17146101f35780630df3748314610213575b600080fd5b3480156101dd57600080fd5b506101f16101ec366004611a6a565b61060b565b005b3480156101ff57600080fd5b506101f161020e366004611afd565b61083c565b34801561021f57600080fd5b506101f161022e366004611b18565b6108c5565b34801561023f57600080fd5b506101f161024e366004611afd565b6108e4565b34801561025f57600080fd5b5061027361026e366004611b42565b61093c565b60405190151581526020015b60405180910390f35b34801561029457600080fd5b506102b56102a3366004611afd565b60036020526000908152604090205481565b60405190815260200161027f565b3480156102cf57600080fd5b506101f16102de366004611b42565b610a09565b3480156102ef57600080fd5b506101f16102fe366004611bab565b610a8f565b34801561030f57600080fd5b506102b561031e366004611c89565b6005602090815260009384526040808520845180860184018051928152908401958401959095209452929052825290205481565b34801561035e57600080fd5b506101f161036d366004611a6a565b610af0565b34801561037e57600080fd5b506101f1610bcc565b34801561039357600080fd5b506103a76103a2366004611afd565b610be0565b60405161027f9190611d4a565b3480156103c057600080fd5b506103d46103cf366004611d5d565b610c7a565b6040805192835260208301919091520161027f565b3480156103f557600080fd5b506102b5610404366004611dea565b600260209081526000928352604080842090915290825290205481565b34801561042d57600080fd5b506000546001600160a01b03165b6040516001600160a01b03909116815260200161027f565b34801561045f57600080fd5b5060045461043b906001600160a01b031681565b34801561047f57600080fd5b506103a761048e366004611afd565b610d45565b34801561049f57600080fd5b506101f16104ae366004611b42565b610e54565b3480156104bf57600080fd5b5061043b7f000000000000000000000000000000000000000000000000000000000000000081565b3480156104f357600080fd5b506101f1610502366004611e14565b610edd565b6101f1610515366004611afd565b610f39565b34801561052657600080fd5b506102b561271081565b34801561053c57600080fd5b506101f161054b366004611e2f565b610f96565b6101f161055e366004611a6a565b61102b565b34801561056f57600080fd5b506101f161057e366004611e9d565b611241565b34801561058f57600080fd5b506103a76112ab565b3480156105a457600080fd5b506101f16105b3366004611b42565b6112b8565b3480156105c457600080fd5b506101f16105d3366004611e14565b611312565b3480156105e457600080fd5b506103a76105f3366004611ed9565b61138b565b6101f1610606366004611afd565b61143c565b337f00000000000000000000000000000000000000000000000000000000000000006001600160a01b0316146106885760405162461bcd60e51b815260206004820152601e60248201527f4c7a4170703a20696e76616c696420656e64706f696e742063616c6c6572000060448201526064015b60405180910390fd5b61ffff8616600090815260016020526040812080546106a690611f24565b80601f01602080910402602001604051908101604052809291908181526020018280546106d290611f24565b801561071f5780601f106106f45761010080835404028352916020019161071f565b820191906000526020600020905b81548152906001019060200180831161070257829003601f168201915b5050505050905080518686905014801561073a575060008151115b80156107625750805160208201206040516107589088908890611f5e565b6040518091039020145b6107bd5760405162461bcd60e51b815260206004820152602660248201527f4c7a4170703a20696e76616c696420736f757263652073656e64696e6720636f6044820152651b9d1c9858dd60d21b606482015260840161067f565b6108338787878080601f01602080910402602001604051908101604052809392919081815260200183838082843760009201919091525050604080516020601f8a018190048102820181019092528881528a93509150889088908190840183828082843760009201919091525061146692505050565b50505050505050565b6108446114df565b6040516307e0db1760e01b815261ffff821660048201527f00000000000000000000000000000000000000000000000000000000000000006001600160a01b0316906307e0db17906024015b600060405180830381600087803b1580156108aa57600080fd5b505af11580156108be573d6000803e3d6000fd5b5050505050565b6108cd6114df565b61ffff909116600090815260036020526040902055565b6108ec6114df565b6040516310ddb13760e01b815261ffff821660048201527f00000000000000000000000000000000000000000000000000000000000000006001600160a01b0316906310ddb13790602401610890565b61ffff83166000908152600160205260408120805482919061095d90611f24565b80601f016020809104026020016040519081016040528092919081815260200182805461098990611f24565b80156109d65780601f106109ab576101008083540402835291602001916109d6565b820191906000526020600020905b8154815290600101906020018083116109b957829003601f168201915b5050505050905083836040516109ed929190611f5e565b60405180910390208180519060200120149150505b9392505050565b610a116114df565b6040516342d65a8d60e01b81526001600160a01b037f000000000000000000000000000000000000000000000000000000000000000016906342d65a8d90610a6190869086908690600401611f97565b600060405180830381600087803b158015610a7b57600080fd5b505af1158015610833573d6000803e3d6000fd5b610a976114df565b6040516bffffffffffffffffffffffff19606083811b8216602084015230901b16603482015260480160408051601f1981840301815291815261ffff8416600090815260016020522090610aeb9082611ffd565b505050565b333014610b4e5760405162461bcd60e51b815260206004820152602660248201527f4e6f6e626c6f636b696e674c7a4170703a2063616c6c6572206d7573742062656044820152650204c7a4170760d41b606482015260840161067f565b610bc48686868080601f01602080910402602001604051908101604052809392919081815260200183838082843760009201919091525050604080516020601f89018190048102820181019092528781528993509150879087908190840183828082843760009201919091525061153992505050565b505050505050565b610bd46114df565b610bde600061155a565b565b60016020526000908152604090208054610bf990611f24565b80601f0160208091040260200160405190810160405280929190818152602001828054610c2590611f24565b8015610c725780601f10610c4757610100808354040283529160200191610c72565b820191906000526020600020905b815481529060010190602001808311610c5557829003601f168201915b505050505081565b600080600083604051602001610c909190611d4a565b60408051601f198184030181529082905263040a7bb160e41b825291506001600160a01b037f000000000000000000000000000000000000000000000000000000000000000016906340a7bb1090610cf7908a90309086906000908d908d906004016120bc565b6040805180830381865afa158015610d13573d6000803e3d6000fd5b505050506040513d601f19601f82011682018060405250810190610d379190612112565b925092505094509492505050565b61ffff8116600090815260016020526040812080546060929190610d6890611f24565b80601f0160208091040260200160405190810160405280929190818152602001828054610d9490611f24565b8015610de15780601f10610db657610100808354040283529160200191610de1565b820191906000526020600020905b815481529060010190602001808311610dc457829003601f168201915b505050505090508051600003610e395760405162461bcd60e51b815260206004820152601d60248201527f4c7a4170703a206e6f20747275737465642070617468207265636f7264000000604482015260640161067f565b610a02600060148351610e4c919061214c565b8391906115aa565b610e5c6114df565b818130604051602001610e7193929190612165565b60408051601f1981840301815291815261ffff8516600090815260016020522090610e9c9082611ffd565b507f8c0400cfe2d1199b1a725c78960bcc2a344d869b80590d0f2bd005db15a572ce838383604051610ed093929190611f97565b60405180910390a1505050565b610ee56114df565b600480546001600160a01b0319166001600160a01b0383169081179091556040519081527f5db758e995a17ec1ad84bdef7e8c3293a0bd6179bcce400dff5d4c3d87db726b9060200160405180910390a150565b6000604051602001610f639060208082526004908201526344696e6760e01b604082015260600190565b6040516020818303038152906040529050610f92828233600060405180602001604052806000815250346116b7565b5050565b610f9e6114df565b6040516332fb62e760e21b81526001600160a01b037f0000000000000000000000000000000000000000000000000000000000000000169063cbed8b9c90610ff2908890889088908890889060040161218b565b600060405180830381600087803b15801561100c57600080fd5b505af1158015611020573d6000803e3d6000fd5b505050505050505050565b61ffff8616600090815260056020526040808220905161104e9088908890611f5e565b90815260408051602092819003830190206001600160401b038716600090815292529020549050806110ce5760405162461bcd60e51b815260206004820152602360248201527f4e6f6e626c6f636b696e674c7a4170703a206e6f2073746f726564206d65737360448201526261676560e81b606482015260840161067f565b8083836040516110df929190611f5e565b60405180910390201461113e5760405162461bcd60e51b815260206004820152602160248201527f4e6f6e626c6f636b696e674c7a4170703a20696e76616c6964207061796c6f616044820152601960fa1b606482015260840161067f565b61ffff871660009081526005602052604080822090516111619089908990611f5e565b90815260408051602092819003830181206001600160401b038916600090815290845282902093909355601f880182900482028301820190528682526111f9918991899089908190840183828082843760009201919091525050604080516020601f8a018190048102820181019092528881528a93509150889088908190840183828082843760009201919091525061153992505050565b7fc264d91f3adc5588250e1551f547752ca0cfa8f6b530d243b9f9f4cab10ea8e587878787856040516112309594939291906121c4565b60405180910390a150505050505050565b6112496114df565b61ffff83811660008181526002602090815260408083209487168084529482529182902085905581519283528201929092529081018290527f9d5c7c0b934da8fefa9c7760c98383778a12dfbfc0c3b3106518f43fb9508ac090606001610ed0565b60068054610bf990611f24565b6112c06114df565b61ffff831660009081526001602052604090206112de8284836121ff565b507ffa41487ad5d6728f0b19276fa1eddc16558578f5109fc39d2dc33c3230470dab838383604051610ed093929190611f97565b61131a6114df565b6001600160a01b03811661137f5760405162461bcd60e51b815260206004820152602660248201527f4f776e61626c653a206e6577206f776e657220697320746865207a65726f206160448201526564647265737360d01b606482015260840161067f565b6113888161155a565b50565b604051633d7b2f6f60e21b815261ffff808616600483015284166024820152306044820152606481018290526060907f00000000000000000000000000000000000000000000000000000000000000006001600160a01b03169063f5ecbdbc90608401600060405180830381865afa15801561140b573d6000803e3d6000fd5b505050506040513d6000823e601f3d908101601f1916820160405261143391908101906122ee565b95945050505050565b6000604051602001610f6390602080825260049082015263446f6e6760e01b604082015260600190565b6000806114c95a60966366ad5c8a60e01b8989898960405160240161148e949392919061233e565b60408051601f198184030181529190526020810180516001600160e01b03166001600160e01b0319909316929092179091523092919061185c565b9150915081610bc457610bc486868686856118e6565b6000546001600160a01b03163314610bde5760405162461bcd60e51b815260206004820181905260248201527f4f776e61626c653a2063616c6c6572206973206e6f7420746865206f776e6572604482015260640161067f565b8080602001905181019061154d91906122ee565b6006906108be9082611ffd565b600080546001600160a01b038381166001600160a01b0319831681178455604051919092169283917f8be0079c531659141344cd1fd0a4f28419497f9722a3daafe3b4186f6b6457e09190a35050565b6060816115b881601f61237c565b10156115f75760405162461bcd60e51b815260206004820152600e60248201526d736c6963655f6f766572666c6f7760901b604482015260640161067f565b611601828461237c565b845110156116455760405162461bcd60e51b8152602060048201526011602482015270736c6963655f6f75744f66426f756e647360781b604482015260640161067f565b60608215801561166457604051915060008252602082016040526116ae565b6040519150601f8416801560200281840101858101878315602002848b0101015b8183101561169d578051835260209283019201611685565b5050858452601f01601f1916604052505b50949350505050565b61ffff8616600090815260016020526040812080546116d590611f24565b80601f016020809104026020016040519081016040528092919081815260200182805461170190611f24565b801561174e5780601f106117235761010080835404028352916020019161174e565b820191906000526020600020905b81548152906001019060200180831161173157829003601f168201915b5050505050905080516000036117bf5760405162461bcd60e51b815260206004820152603060248201527f4c7a4170703a2064657374696e6174696f6e20636861696e206973206e6f742060448201526f61207472757374656420736f7572636560801b606482015260840161067f565b6117ca878751611983565b60405162c5803160e81b81526001600160a01b037f0000000000000000000000000000000000000000000000000000000000000000169063c5803100908490611821908b9086908c908c908c908c9060040161238f565b6000604051808303818588803b15801561183a57600080fd5b505af115801561184e573d6000803e3d6000fd5b505050505050505050505050565b6000606060008060008661ffff166001600160401b0381111561188157611881611bde565b6040519080825280601f01601f1916602001820160405280156118ab576020820181803683370190505b50905060008087516020890160008d8df191503d9250868311156118cd578692505b828152826000602083013e909890975095505050505050565b8180519060200120600560008761ffff1661ffff1681526020019081526020016000208560405161191791906123e9565b9081526040805191829003602090810183206001600160401b0388166000908152915220919091557fe183f33de2837795525b4792ca4cd60535bd77c53b7e7030060bfcf5734d6b0c906119749087908790879087908790612405565b60405180910390a15050505050565b61ffff8216600090815260036020526040812054908190036119a457506127105b80821115610aeb5760405162461bcd60e51b815260206004820181905260248201527f4c7a4170703a207061796c6f61642073697a6520697320746f6f206c61726765604482015260640161067f565b803561ffff81168114611a0657600080fd5b919050565b60008083601f840112611a1d57600080fd5b5081356001600160401b03811115611a3457600080fd5b602083019150836020828501011115611a4c57600080fd5b9250929050565b80356001600160401b0381168114611a0657600080fd5b60008060008060008060808789031215611a8357600080fd5b611a8c876119f4565b955060208701356001600160401b0380821115611aa857600080fd5b611ab48a838b01611a0b565b9097509550859150611ac860408a01611a53565b94506060890135915080821115611ade57600080fd5b50611aeb89828a01611a0b565b979a9699509497509295939492505050565b600060208284031215611b0f57600080fd5b610a02826119f4565b60008060408385031215611b2b57600080fd5b611b34836119f4565b946020939093013593505050565b600080600060408486031215611b5757600080fd5b611b60846119f4565b925060208401356001600160401b03811115611b7b57600080fd5b611b8786828701611a0b565b9497909650939450505050565b80356001600160a01b0381168114611a0657600080fd5b60008060408385031215611bbe57600080fd5b611bc7836119f4565b9150611bd560208401611b94565b90509250929050565b634e487b7160e01b600052604160045260246000fd5b604051601f8201601f191681016001600160401b0381118282101715611c1c57611c1c611bde565b604052919050565b60006001600160401b03821115611c3d57611c3d611bde565b50601f01601f191660200190565b6000611c5e611c5984611c24565b611bf4565b9050828152838383011115611c7257600080fd5b828260208301376000602084830101529392505050565b600080600060608486031215611c9e57600080fd5b611ca7846119f4565b925060208401356001600160401b03811115611cc257600080fd5b8401601f81018613611cd357600080fd5b611ce286823560208401611c4b565b925050611cf160408501611a53565b90509250925092565b60005b83811015611d15578181015183820152602001611cfd565b50506000910152565b60008151808452611d36816020860160208601611cfa565b601f01601f19169290920160200192915050565b602081526000610a026020830184611d1e565b60008060008060608587031215611d7357600080fd5b611d7c856119f4565b935060208501356001600160401b0380821115611d9857600080fd5b611da488838901611a0b565b90955093506040870135915080821115611dbd57600080fd5b508501601f81018713611dcf57600080fd5b611dde87823560208401611c4b565b91505092959194509250565b60008060408385031215611dfd57600080fd5b611e06836119f4565b9150611bd5602084016119f4565b600060208284031215611e2657600080fd5b610a0282611b94565b600080600080600060808688031215611e4757600080fd5b611e50866119f4565b9450611e5e602087016119f4565b93506040860135925060608601356001600160401b03811115611e8057600080fd5b611e8c88828901611a0b565b969995985093965092949392505050565b600080600060608486031215611eb257600080fd5b611ebb846119f4565b9250611ec9602085016119f4565b9150604084013590509250925092565b60008060008060808587031215611eef57600080fd5b611ef8856119f4565b9350611f06602086016119f4565b9250611f1460408601611b94565b9396929550929360600135925050565b600181811c90821680611f3857607f821691505b602082108103611f5857634e487b7160e01b600052602260045260246000fd5b50919050565b8183823760009101908152919050565b81835281816020850137506000828201602090810191909152601f909101601f19169091010190565b61ffff84168152604060208201526000611433604083018486611f6e565b601f821115610aeb576000816000526020600020601f850160051c81016020861015611fde5750805b601f850160051c820191505b81811015610bc457828155600101611fea565b81516001600160401b0381111561201657612016611bde565b61202a816120248454611f24565b84611fb5565b602080601f83116001811461205f57600084156120475750858301515b600019600386901b1c1916600185901b178555610bc4565b600085815260208120601f198616915b8281101561208e5788860151825594840194600190910190840161206f565b50858210156120ac5787850151600019600388901b60f8161c191681555b5050505050600190811b01905550565b61ffff871681526001600160a01b038616602082015260a0604082018190526000906120ea90830187611d1e565b85151560608401528281036080840152612105818587611f6e565b9998505050505050505050565b6000806040838503121561212557600080fd5b505080516020909101519092909150565b634e487b7160e01b600052601160045260246000fd5b8181038181111561215f5761215f612136565b92915050565b8284823760609190911b6bffffffffffffffffffffffff19169101908152601401919050565b600061ffff8088168352808716602084015250846040830152608060608301526121b9608083018486611f6e565b979650505050505050565b61ffff861681526080602082015260006121e2608083018688611f6e565b6001600160401b0394909416604083015250606001529392505050565b6001600160401b0383111561221657612216611bde565b61222a836122248354611f24565b83611fb5565b6000601f84116001811461225e57600085156122465750838201355b600019600387901b1c1916600186901b1783556108be565b600083815260209020601f19861690835b8281101561228f578685013582556020948501946001909201910161226f565b50868210156122ac5760001960f88860031b161c19848701351681555b505060018560011b0183555050505050565b60006122cc611c5984611c24565b90508281528383830111156122e057600080fd5b610a02836020830184611cfa565b60006020828403121561230057600080fd5b81516001600160401b0381111561231657600080fd5b8201601f8101841361232757600080fd5b612336848251602084016122be565b949350505050565b61ffff8516815260806020820152600061235b6080830186611d1e565b6001600160401b038516604084015282810360608401526121b98185611d1e565b8082018082111561215f5761215f612136565b61ffff8716815260c0602082015260006123ac60c0830188611d1e565b82810360408401526123be8188611d1e565b6001600160a01b0387811660608601528616608085015283810360a085015290506121058185611d1e565b600082516123fb818460208701611cfa565b9190910192915050565b61ffff8616815260a06020820152600061242260a0830187611d1e565b6001600160401b038616604084015282810360608401526124438186611d1e565b905082810360808401526124578185611d1e565b9897505050505050505056fea2646970667358221220f5899b5dfdef155ccefa4473ad5155c225d150a7e5510744941ccee2007394bf64736f6c63430008160033",
					"opcodes": "PUSH1 0xE0 PUSH1 0x40 MSTORE PUSH1 0xF PUSH1 0xA0 SWAP1 DUP2 MSTORE PUSH15 0x77616974696E6720746F2064696E67 PUSH1 0x88 SHL PUSH1 0xC0 MSTORE PUSH1 0x6 SWAP1 PUSH3 0x30 SWAP1 DUP3 PUSH3 0x17A JUMP JUMPDEST POP CALLVALUE DUP1 ISZERO PUSH3 0x3E JUMPI PUSH1 0x0 DUP1 REVERT JUMPDEST POP PUSH1 0x40 MLOAD PUSH3 0x2765 CODESIZE SUB DUP1 PUSH3 0x2765 DUP4 CODECOPY DUP2 ADD PUSH1 0x40 DUP2 SWAP1 MSTORE PUSH3 0x61 SWAP2 PUSH3 0x246 JUMP JUMPDEST DUP1 DUP1 PUSH3 0x6E CALLER PUSH3 0x83 JUMP JUMPDEST PUSH1 0x1 PUSH1 0x1 PUSH1 0xA0 SHL SUB AND PUSH1 0x80 MSTORE POP PUSH3 0x278 SWAP1 POP JUMP JUMPDEST PUSH1 0x0 DUP1 SLOAD PUSH1 0x1 PUSH1 0x1 PUSH1 0xA0 SHL SUB DUP4 DUP2 AND PUSH1 0x1 PUSH1 0x1 PUSH1 0xA0 SHL SUB NOT DUP4 AND DUP2 OR DUP5 SSTORE PUSH1 0x40 MLOAD SWAP2 SWAP1 SWAP3 AND SWAP3 DUP4 SWAP2 PUSH32 0x8BE0079C531659141344CD1FD0A4F28419497F9722A3DAAFE3B4186F6B6457E0 SWAP2 SWAP1 LOG3 POP POP JUMP JUMPDEST PUSH4 0x4E487B71 PUSH1 0xE0 SHL PUSH1 0x0 MSTORE PUSH1 0x41 PUSH1 0x4 MSTORE PUSH1 0x24 PUSH1 0x0 REVERT JUMPDEST PUSH1 0x1 DUP2 DUP2 SHR SWAP1 DUP3 AND DUP1 PUSH3 0xFE JUMPI PUSH1 0x7F DUP3 AND SWAP2 POP JUMPDEST PUSH1 0x20 DUP3 LT DUP2 SUB PUSH3 0x11F JUMPI PUSH4 0x4E487B71 PUSH1 0xE0 SHL PUSH1 0x0 MSTORE PUSH1 0x22 PUSH1 0x4 MSTORE PUSH1 0x24 PUSH1 0x0 REVERT JUMPDEST POP SWAP2 SWAP1 POP JUMP JUMPDEST PUSH1 0x1F DUP3 GT ISZERO PUSH3 0x175 JUMPI PUSH1 0x0 DUP2 PUSH1 0x0 MSTORE PUSH1 0x20 PUSH1 0x0 KECCAK256 PUSH1 0x1F DUP6 ADD PUSH1 0x5 SHR DUP2 ADD PUSH1 0x20 DUP7 LT ISZERO PUSH3 0x150 JUMPI POP DUP1 JUMPDEST PUSH1 0x1F DUP6 ADD PUSH1 0x5 SHR DUP3 ADD SWAP2 POP JUMPDEST DUP2 DUP2 LT ISZERO PUSH3 0x171 JUMPI DUP3 DUP2 SSTORE PUSH1 0x1 ADD PUSH3 0x15C JUMP JUMPDEST POP POP POP JUMPDEST POP POP POP JUMP JUMPDEST DUP2 MLOAD PUSH1 0x1 PUSH1 0x1 PUSH1 0x40 SHL SUB DUP2 GT ISZERO PUSH3 0x196 JUMPI PUSH3 0x196 PUSH3 0xD3 JUMP JUMPDEST PUSH3 0x1AE DUP2 PUSH3 0x1A7 DUP5 SLOAD PUSH3 0xE9 JUMP JUMPDEST DUP5 PUSH3 0x125 JUMP JUMPDEST PUSH1 0x20 DUP1 PUSH1 0x1F DUP4 GT PUSH1 0x1 DUP2 EQ PUSH3 0x1E6 JUMPI PUSH1 0x0 DUP5 ISZERO PUSH3 0x1CD JUMPI POP DUP6 DUP4 ADD MLOAD JUMPDEST PUSH1 0x0 NOT PUSH1 0x3 DUP7 SWAP1 SHL SHR NOT AND PUSH1 0x1 DUP6 SWAP1 SHL OR DUP6 SSTORE PUSH3 0x171 JUMP JUMPDEST PUSH1 0x0 DUP6 DUP2 MSTORE PUSH1 0x20 DUP2 KECCAK256 PUSH1 0x1F NOT DUP7 AND SWAP2 JUMPDEST DUP3 DUP2 LT ISZERO PUSH3 0x217 JUMPI DUP9 DUP7 ADD MLOAD DUP3 SSTORE SWAP5 DUP5 ADD SWAP5 PUSH1 0x1 SWAP1 SWAP2 ADD SWAP1 DUP5 ADD PUSH3 0x1F6 JUMP JUMPDEST POP DUP6 DUP3 LT ISZERO PUSH3 0x236 JUMPI DUP8 DUP6 ADD MLOAD PUSH1 0x0 NOT PUSH1 0x3 DUP9 SWAP1 SHL PUSH1 0xF8 AND SHR NOT AND DUP2 SSTORE JUMPDEST POP POP POP POP POP PUSH1 0x1 SWAP1 DUP2 SHL ADD SWAP1 SSTORE POP JUMP JUMPDEST PUSH1 0x0 PUSH1 0x20 DUP3 DUP5 SUB SLT ISZERO PUSH3 0x259 JUMPI PUSH1 0x0 DUP1 REVERT JUMPDEST DUP2 MLOAD PUSH1 0x1 PUSH1 0x1 PUSH1 0xA0 SHL SUB DUP2 AND DUP2 EQ PUSH3 0x271 JUMPI PUSH1 0x0 DUP1 REVERT JUMPDEST SWAP4 SWAP3 POP POP POP JUMP JUMPDEST PUSH1 0x80 MLOAD PUSH2 0x2499 PUSH3 0x2CC PUSH1 0x0 CODECOPY PUSH1 0x0 DUP2 DUP2 PUSH2 0x4C5 ADD MSTORE DUP2 DUP2 PUSH2 0x60E ADD MSTORE DUP2 DUP2 PUSH2 0x85D ADD MSTORE DUP2 DUP2 PUSH2 0x905 ADD MSTORE DUP2 DUP2 PUSH2 0xA28 ADD MSTORE DUP2 DUP2 PUSH2 0xCB7 ADD MSTORE DUP2 DUP2 PUSH2 0xFB5 ADD MSTORE DUP2 DUP2 PUSH2 0x13BC ADD MSTORE PUSH2 0x17E0 ADD MSTORE PUSH2 0x2499 PUSH1 0x0 RETURN INVALID PUSH1 0x80 PUSH1 0x40 MSTORE PUSH1 0x4 CALLDATASIZE LT PUSH2 0x1CC JUMPI PUSH1 0x0 CALLDATALOAD PUSH1 0xE0 SHR DUP1 PUSH4 0x950C8A74 GT PUSH2 0xF7 JUMPI DUP1 PUSH4 0xCBED8B9C GT PUSH2 0x95 JUMPI DUP1 PUSH4 0xEB8D72B7 GT PUSH2 0x64 JUMPI DUP1 PUSH4 0xEB8D72B7 EQ PUSH2 0x598 JUMPI DUP1 PUSH4 0xF2FDE38B EQ PUSH2 0x5B8 JUMPI DUP1 PUSH4 0xF5ECBDBC EQ PUSH2 0x5D8 JUMPI DUP1 PUSH4 0xFC018C64 EQ PUSH2 0x5F8 JUMPI PUSH1 0x0 DUP1 REVERT JUMPDEST DUP1 PUSH4 0xCBED8B9C EQ PUSH2 0x530 JUMPI DUP1 PUSH4 0xD1DEBA1F EQ PUSH2 0x550 JUMPI DUP1 PUSH4 0xDF2A5B3B EQ PUSH2 0x563 JUMPI DUP1 PUSH4 0xE21F37CE EQ PUSH2 0x583 JUMPI PUSH1 0x0 DUP1 REVERT JUMPDEST DUP1 PUSH4 0xB353AAA7 GT PUSH2 0xD1 JUMPI DUP1 PUSH4 0xB353AAA7 EQ PUSH2 0x4B3 JUMPI DUP1 PUSH4 0xBAF3292D EQ PUSH2 0x4E7 JUMPI DUP1 PUSH4 0xBDB30A09 EQ PUSH2 0x507 JUMPI DUP1 PUSH4 0xC4461834 EQ PUSH2 0x51A JUMPI PUSH1 0x0 DUP1 REVERT JUMPDEST DUP1 PUSH4 0x950C8A74 EQ PUSH2 0x453 JUMPI DUP1 PUSH4 0x9F38369A EQ PUSH2 0x473 JUMPI DUP1 PUSH4 0xA6C3D165 EQ PUSH2 0x493 JUMPI PUSH1 0x0 DUP1 REVERT JUMPDEST DUP1 PUSH4 0x51200494 GT PUSH2 0x16F JUMPI DUP1 PUSH4 0x7533D788 GT PUSH2 0x13E JUMPI DUP1 PUSH4 0x7533D788 EQ PUSH2 0x387 JUMPI DUP1 PUSH4 0x7EFB5844 EQ PUSH2 0x3B4 JUMPI DUP1 PUSH4 0x8CFD8F5C EQ PUSH2 0x3E9 JUMPI DUP1 PUSH4 0x8DA5CB5B EQ PUSH2 0x421 JUMPI PUSH1 0x0 DUP1 REVERT JUMPDEST DUP1 PUSH4 0x51200494 EQ PUSH2 0x2E3 JUMPI DUP1 PUSH4 0x5B8C41E6 EQ PUSH2 0x303 JUMPI DUP1 PUSH4 0x66AD5C8A EQ PUSH2 0x352 JUMPI DUP1 PUSH4 0x715018A6 EQ PUSH2 0x372 JUMPI PUSH1 0x0 DUP1 REVERT JUMPDEST DUP1 PUSH4 0x10DDB137 GT PUSH2 0x1AB JUMPI DUP1 PUSH4 0x10DDB137 EQ PUSH2 0x233 JUMPI DUP1 PUSH4 0x3D8B38F6 EQ PUSH2 0x253 JUMPI DUP1 PUSH4 0x3F1F4FA4 EQ PUSH2 0x288 JUMPI DUP1 PUSH4 0x42D65A8D EQ PUSH2 0x2C3 JUMPI PUSH1 0x0 DUP1 REVERT JUMPDEST DUP1 PUSH3 0x1D3567 EQ PUSH2 0x1D1 JUMPI DUP1 PUSH4 0x7E0DB17 EQ PUSH2 0x1F3 JUMPI DUP1 PUSH4 0xDF37483 EQ PUSH2 0x213 JUMPI JUMPDEST PUSH1 0x0 DUP1 REVERT JUMPDEST CALLVALUE DUP1 ISZERO PUSH2 0x1DD JUMPI PUSH1 0x0 DUP1 REVERT JUMPDEST POP PUSH2 0x1F1 PUSH2 0x1EC CALLDATASIZE PUSH1 0x4 PUSH2 0x1A6A JUMP JUMPDEST PUSH2 0x60B JUMP JUMPDEST STOP JUMPDEST CALLVALUE DUP1 ISZERO PUSH2 0x1FF JUMPI PUSH1 0x0 DUP1 REVERT JUMPDEST POP PUSH2 0x1F1 PUSH2 0x20E CALLDATASIZE PUSH1 0x4 PUSH2 0x1AFD JUMP JUMPDEST PUSH2 0x83C JUMP JUMPDEST CALLVALUE DUP1 ISZERO PUSH2 0x21F JUMPI PUSH1 0x0 DUP1 REVERT JUMPDEST POP PUSH2 0x1F1 PUSH2 0x22E CALLDATASIZE PUSH1 0x4 PUSH2 0x1B18 JUMP JUMPDEST PUSH2 0x8C5 JUMP JUMPDEST CALLVALUE DUP1 ISZERO PUSH2 0x23F JUMPI PUSH1 0x0 DUP1 REVERT JUMPDEST POP PUSH2 0x1F1 PUSH2 0x24E CALLDATASIZE PUSH1 0x4 PUSH2 0x1AFD JUMP JUMPDEST PUSH2 0x8E4 JUMP JUMPDEST CALLVALUE DUP1 ISZERO PUSH2 0x25F JUMPI PUSH1 0x0 DUP1 REVERT JUMPDEST POP PUSH2 0x273 PUSH2 0x26E CALLDATASIZE PUSH1 0x4 PUSH2 0x1B42 JUMP JUMPDEST PUSH2 0x93C JUMP JUMPDEST PUSH1 0x40 MLOAD SWAP1 ISZERO ISZERO DUP2 MSTORE PUSH1 0x20 ADD JUMPDEST PUSH1 0x40 MLOAD DUP1 SWAP2 SUB SWAP1 RETURN JUMPDEST CALLVALUE DUP1 ISZERO PUSH2 0x294 JUMPI PUSH1 0x0 DUP1 REVERT JUMPDEST POP PUSH2 0x2B5 PUSH2 0x2A3 CALLDATASIZE PUSH1 0x4 PUSH2 0x1AFD JUMP JUMPDEST PUSH1 0x3 PUSH1 0x20 MSTORE PUSH1 0x0 SWAP1 DUP2 MSTORE PUSH1 0x40 SWAP1 KECCAK256 SLOAD DUP2 JUMP JUMPDEST PUSH1 0x40 MLOAD SWAP1 DUP2 MSTORE PUSH1 0x20 ADD PUSH2 0x27F JUMP JUMPDEST CALLVALUE DUP1 ISZERO PUSH2 0x2CF JUMPI PUSH1 0x0 DUP1 REVERT JUMPDEST POP PUSH2 0x1F1 PUSH2 0x2DE CALLDATASIZE PUSH1 0x4 PUSH2 0x1B42 JUMP JUMPDEST PUSH2 0xA09 JUMP JUMPDEST CALLVALUE DUP1 ISZERO PUSH2 0x2EF JUMPI PUSH1 0x0 DUP1 REVERT JUMPDEST POP PUSH2 0x1F1 PUSH2 0x2FE CALLDATASIZE PUSH1 0x4 PUSH2 0x1BAB JUMP JUMPDEST PUSH2 0xA8F JUMP JUMPDEST CALLVALUE DUP1 ISZERO PUSH2 0x30F JUMPI PUSH1 0x0 DUP1 REVERT JUMPDEST POP PUSH2 0x2B5 PUSH2 0x31E CALLDATASIZE PUSH1 0x4 PUSH2 0x1C89 JUMP JUMPDEST PUSH1 0x5 PUSH1 0x20 SWAP1 DUP2 MSTORE PUSH1 0x0 SWAP4 DUP5 MSTORE PUSH1 0x40 DUP1 DUP6 KECCAK256 DUP5 MLOAD DUP1 DUP7 ADD DUP5 ADD DUP1 MLOAD SWAP3 DUP2 MSTORE SWAP1 DUP5 ADD SWAP6 DUP5 ADD SWAP6 SWAP1 SWAP6 KECCAK256 SWAP5 MSTORE SWAP3 SWAP1 MSTORE DUP3 MSTORE SWAP1 KECCAK256 SLOAD DUP2 JUMP JUMPDEST CALLVALUE DUP1 ISZERO PUSH2 0x35E JUMPI PUSH1 0x0 DUP1 REVERT JUMPDEST POP PUSH2 0x1F1 PUSH2 0x36D CALLDATASIZE PUSH1 0x4 PUSH2 0x1A6A JUMP JUMPDEST PUSH2 0xAF0 JUMP JUMPDEST CALLVALUE DUP1 ISZERO PUSH2 0x37E JUMPI PUSH1 0x0 DUP1 REVERT JUMPDEST POP PUSH2 0x1F1 PUSH2 0xBCC JUMP JUMPDEST CALLVALUE DUP1 ISZERO PUSH2 0x393 JUMPI PUSH1 0x0 DUP1 REVERT JUMPDEST POP PUSH2 0x3A7 PUSH2 0x3A2 CALLDATASIZE PUSH1 0x4 PUSH2 0x1AFD JUMP JUMPDEST PUSH2 0xBE0 JUMP JUMPDEST PUSH1 0x40 MLOAD PUSH2 0x27F SWAP2 SWAP1 PUSH2 0x1D4A JUMP JUMPDEST CALLVALUE DUP1 ISZERO PUSH2 0x3C0 JUMPI PUSH1 0x0 DUP1 REVERT JUMPDEST POP PUSH2 0x3D4 PUSH2 0x3CF CALLDATASIZE PUSH1 0x4 PUSH2 0x1D5D JUMP JUMPDEST PUSH2 0xC7A JUMP JUMPDEST PUSH1 0x40 DUP1 MLOAD SWAP3 DUP4 MSTORE PUSH1 0x20 DUP4 ADD SWAP2 SWAP1 SWAP2 MSTORE ADD PUSH2 0x27F JUMP JUMPDEST CALLVALUE DUP1 ISZERO PUSH2 0x3F5 JUMPI PUSH1 0x0 DUP1 REVERT JUMPDEST POP PUSH2 0x2B5 PUSH2 0x404 CALLDATASIZE PUSH1 0x4 PUSH2 0x1DEA JUMP JUMPDEST PUSH1 0x2 PUSH1 0x20 SWAP1 DUP2 MSTORE PUSH1 0x0 SWAP3 DUP4 MSTORE PUSH1 0x40 DUP1 DUP5 KECCAK256 SWAP1 SWAP2 MSTORE SWAP1 DUP3 MSTORE SWAP1 KECCAK256 SLOAD DUP2 JUMP JUMPDEST CALLVALUE DUP1 ISZERO PUSH2 0x42D JUMPI PUSH1 0x0 DUP1 REVERT JUMPDEST POP PUSH1 0x0 SLOAD PUSH1 0x1 PUSH1 0x1 PUSH1 0xA0 SHL SUB AND JUMPDEST PUSH1 0x40 MLOAD PUSH1 0x1 PUSH1 0x1 PUSH1 0xA0 SHL SUB SWAP1 SWAP2 AND DUP2 MSTORE PUSH1 0x20 ADD PUSH2 0x27F JUMP JUMPDEST CALLVALUE DUP1 ISZERO PUSH2 0x45F JUMPI PUSH1 0x0 DUP1 REVERT JUMPDEST POP PUSH1 0x4 SLOAD PUSH2 0x43B SWAP1 PUSH1 0x1 PUSH1 0x1 PUSH1 0xA0 SHL SUB AND DUP2 JUMP JUMPDEST CALLVALUE DUP1 ISZERO PUSH2 0x47F JUMPI PUSH1 0x0 DUP1 REVERT JUMPDEST POP PUSH2 0x3A7 PUSH2 0x48E CALLDATASIZE PUSH1 0x4 PUSH2 0x1AFD JUMP JUMPDEST PUSH2 0xD45 JUMP JUMPDEST CALLVALUE DUP1 ISZERO PUSH2 0x49F JUMPI PUSH1 0x0 DUP1 REVERT JUMPDEST POP PUSH2 0x1F1 PUSH2 0x4AE CALLDATASIZE PUSH1 0x4 PUSH2 0x1B42 JUMP JUMPDEST PUSH2 0xE54 JUMP JUMPDEST CALLVALUE DUP1 ISZERO PUSH2 0x4BF JUMPI PUSH1 0x0 DUP1 REVERT JUMPDEST POP PUSH2 0x43B PUSH32 0x0 DUP2 JUMP JUMPDEST CALLVALUE DUP1 ISZERO PUSH2 0x4F3 JUMPI PUSH1 0x0 DUP1 REVERT JUMPDEST POP PUSH2 0x1F1 PUSH2 0x502 CALLDATASIZE PUSH1 0x4 PUSH2 0x1E14 JUMP JUMPDEST PUSH2 0xEDD JUMP JUMPDEST PUSH2 0x1F1 PUSH2 0x515 CALLDATASIZE PUSH1 0x4 PUSH2 0x1AFD JUMP JUMPDEST PUSH2 0xF39 JUMP JUMPDEST CALLVALUE DUP1 ISZERO PUSH2 0x526 JUMPI PUSH1 0x0 DUP1 REVERT JUMPDEST POP PUSH2 0x2B5 PUSH2 0x2710 DUP2 JUMP JUMPDEST CALLVALUE DUP1 ISZERO PUSH2 0x53C JUMPI PUSH1 0x0 DUP1 REVERT JUMPDEST POP PUSH2 0x1F1 PUSH2 0x54B CALLDATASIZE PUSH1 0x4 PUSH2 0x1E2F JUMP JUMPDEST PUSH2 0xF96 JUMP JUMPDEST PUSH2 0x1F1 PUSH2 0x55E CALLDATASIZE PUSH1 0x4 PUSH2 0x1A6A JUMP JUMPDEST PUSH2 0x102B JUMP JUMPDEST CALLVALUE DUP1 ISZERO PUSH2 0x56F JUMPI PUSH1 0x0 DUP1 REVERT JUMPDEST POP PUSH2 0x1F1 PUSH2 0x57E CALLDATASIZE PUSH1 0x4 PUSH2 0x1E9D JUMP JUMPDEST PUSH2 0x1241 JUMP JUMPDEST CALLVALUE DUP1 ISZERO PUSH2 0x58F JUMPI PUSH1 0x0 DUP1 REVERT JUMPDEST POP PUSH2 0x3A7 PUSH2 0x12AB JUMP JUMPDEST CALLVALUE DUP1 ISZERO PUSH2 0x5A4 JUMPI PUSH1 0x0 DUP1 REVERT JUMPDEST POP PUSH2 0x1F1 PUSH2 0x5B3 CALLDATASIZE PUSH1 0x4 PUSH2 0x1B42 JUMP JUMPDEST PUSH2 0x12B8 JUMP JUMPDEST CALLVALUE DUP1 ISZERO PUSH2 0x5C4 JUMPI PUSH1 0x0 DUP1 REVERT JUMPDEST POP PUSH2 0x1F1 PUSH2 0x5D3 CALLDATASIZE PUSH1 0x4 PUSH2 0x1E14 JUMP JUMPDEST PUSH2 0x1312 JUMP JUMPDEST CALLVALUE DUP1 ISZERO PUSH2 0x5E4 JUMPI PUSH1 0x0 DUP1 REVERT JUMPDEST POP PUSH2 0x3A7 PUSH2 0x5F3 CALLDATASIZE PUSH1 0x4 PUSH2 0x1ED9 JUMP JUMPDEST PUSH2 0x138B JUMP JUMPDEST PUSH2 0x1F1 PUSH2 0x606 CALLDATASIZE PUSH1 0x4 PUSH2 0x1AFD JUMP JUMPDEST PUSH2 0x143C JUMP JUMPDEST CALLER PUSH32 0x0 PUSH1 0x1 PUSH1 0x1 PUSH1 0xA0 SHL SUB AND EQ PUSH2 0x688 JUMPI PUSH1 0x40 MLOAD PUSH3 0x461BCD PUSH1 0xE5 SHL DUP2 MSTORE PUSH1 0x20 PUSH1 0x4 DUP3 ADD MSTORE PUSH1 0x1E PUSH1 0x24 DUP3 ADD MSTORE PUSH32 0x4C7A4170703A20696E76616C696420656E64706F696E742063616C6C65720000 PUSH1 0x44 DUP3 ADD MSTORE PUSH1 0x64 ADD JUMPDEST PUSH1 0x40 MLOAD DUP1 SWAP2 SUB SWAP1 REVERT JUMPDEST PUSH2 0xFFFF DUP7 AND PUSH1 0x0 SWAP1 DUP2 MSTORE PUSH1 0x1 PUSH1 0x20 MSTORE PUSH1 0x40 DUP2 KECCAK256 DUP1 SLOAD PUSH2 0x6A6 SWAP1 PUSH2 0x1F24 JUMP JUMPDEST DUP1 PUSH1 0x1F ADD PUSH1 0x20 DUP1 SWAP2 DIV MUL PUSH1 0x20 ADD PUSH1 0x40 MLOAD SWAP1 DUP2 ADD PUSH1 0x40 MSTORE DUP1 SWAP3 SWAP2 SWAP1 DUP2 DUP2 MSTORE PUSH1 0x20 ADD DUP3 DUP1 SLOAD PUSH2 0x6D2 SWAP1 PUSH2 0x1F24 JUMP JUMPDEST DUP1 ISZERO PUSH2 0x71F JUMPI DUP1 PUSH1 0x1F LT PUSH2 0x6F4 JUMPI PUSH2 0x100 DUP1 DUP4 SLOAD DIV MUL DUP4 MSTORE SWAP2 PUSH1 0x20 ADD SWAP2 PUSH2 0x71F JUMP JUMPDEST DUP3 ADD SWAP2 SWAP1 PUSH1 0x0 MSTORE PUSH1 0x20 PUSH1 0x0 KECCAK256 SWAP1 JUMPDEST DUP2 SLOAD DUP2 MSTORE SWAP1 PUSH1 0x1 ADD SWAP1 PUSH1 0x20 ADD DUP1 DUP4 GT PUSH2 0x702 JUMPI DUP3 SWAP1 SUB PUSH1 0x1F AND DUP3 ADD SWAP2 JUMPDEST POP POP POP POP POP SWAP1 POP DUP1 MLOAD DUP7 DUP7 SWAP1 POP EQ DUP1 ISZERO PUSH2 0x73A JUMPI POP PUSH1 0x0 DUP2 MLOAD GT JUMPDEST DUP1 ISZERO PUSH2 0x762 JUMPI POP DUP1 MLOAD PUSH1 0x20 DUP3 ADD KECCAK256 PUSH1 0x40 MLOAD PUSH2 0x758 SWAP1 DUP9 SWAP1 DUP9 SWAP1 PUSH2 0x1F5E JUMP JUMPDEST PUSH1 0x40 MLOAD DUP1 SWAP2 SUB SWAP1 KECCAK256 EQ JUMPDEST PUSH2 0x7BD JUMPI PUSH1 0x40 MLOAD PUSH3 0x461BCD PUSH1 0xE5 SHL DUP2 MSTORE PUSH1 0x20 PUSH1 0x4 DUP3 ADD MSTORE PUSH1 0x26 PUSH1 0x24 DUP3 ADD MSTORE PUSH32 0x4C7A4170703A20696E76616C696420736F757263652073656E64696E6720636F PUSH1 0x44 DUP3 ADD MSTORE PUSH6 0x1B9D1C9858DD PUSH1 0xD2 SHL PUSH1 0x64 DUP3 ADD MSTORE PUSH1 0x84 ADD PUSH2 0x67F JUMP JUMPDEST PUSH2 0x833 DUP8 DUP8 DUP8 DUP1 DUP1 PUSH1 0x1F ADD PUSH1 0x20 DUP1 SWAP2 DIV MUL PUSH1 0x20 ADD PUSH1 0x40 MLOAD SWAP1 DUP2 ADD PUSH1 0x40 MSTORE DUP1 SWAP4 SWAP3 SWAP2 SWAP1 DUP2 DUP2 MSTORE PUSH1 0x20 ADD DUP4 DUP4 DUP1 DUP3 DUP5 CALLDATACOPY PUSH1 0x0 SWAP3 ADD SWAP2 SWAP1 SWAP2 MSTORE POP POP PUSH1 0x40 DUP1 MLOAD PUSH1 0x20 PUSH1 0x1F DUP11 ADD DUP2 SWAP1 DIV DUP2 MUL DUP3 ADD DUP2 ADD SWAP1 SWAP3 MSTORE DUP9 DUP2 MSTORE DUP11 SWAP4 POP SWAP2 POP DUP9 SWAP1 DUP9 SWAP1 DUP2 SWAP1 DUP5 ADD DUP4 DUP3 DUP1 DUP3 DUP5 CALLDATACOPY PUSH1 0x0 SWAP3 ADD SWAP2 SWAP1 SWAP2 MSTORE POP PUSH2 0x1466 SWAP3 POP POP POP JUMP JUMPDEST POP POP POP POP POP POP POP JUMP JUMPDEST PUSH2 0x844 PUSH2 0x14DF JUMP JUMPDEST PUSH1 0x40 MLOAD PUSH4 0x7E0DB17 PUSH1 0xE0 SHL DUP2 MSTORE PUSH2 0xFFFF DUP3 AND PUSH1 0x4 DUP3 ADD MSTORE PUSH32 0x0 PUSH1 0x1 PUSH1 0x1 PUSH1 0xA0 SHL SUB AND SWAP1 PUSH4 0x7E0DB17 SWAP1 PUSH1 0x24 ADD JUMPDEST PUSH1 0x0 PUSH1 0x40 MLOAD DUP1 DUP4 SUB DUP2 PUSH1 0x0 DUP8 DUP1 EXTCODESIZE ISZERO DUP1 ISZERO PUSH2 0x8AA JUMPI PUSH1 0x0 DUP1 REVERT JUMPDEST POP GAS CALL ISZERO DUP1 ISZERO PUSH2 0x8BE JUMPI RETURNDATASIZE PUSH1 0x0 DUP1 RETURNDATACOPY RETURNDATASIZE PUSH1 0x0 REVERT JUMPDEST POP POP POP POP POP JUMP JUMPDEST PUSH2 0x8CD PUSH2 0x14DF JUMP JUMPDEST PUSH2 0xFFFF SWAP1 SWAP2 AND PUSH1 0x0 SWAP1 DUP2 MSTORE PUSH1 0x3 PUSH1 0x20 MSTORE PUSH1 0x40 SWAP1 KECCAK256 SSTORE JUMP JUMPDEST PUSH2 0x8EC PUSH2 0x14DF JUMP JUMPDEST PUSH1 0x40 MLOAD PUSH4 0x10DDB137 PUSH1 0xE0 SHL DUP2 MSTORE PUSH2 0xFFFF DUP3 AND PUSH1 0x4 DUP3 ADD MSTORE PUSH32 0x0 PUSH1 0x1 PUSH1 0x1 PUSH1 0xA0 SHL SUB AND SWAP1 PUSH4 0x10DDB137 SWAP1 PUSH1 0x24 ADD PUSH2 0x890 JUMP JUMPDEST PUSH2 0xFFFF DUP4 AND PUSH1 0x0 SWAP1 DUP2 MSTORE PUSH1 0x1 PUSH1 0x20 MSTORE PUSH1 0x40 DUP2 KECCAK256 DUP1 SLOAD DUP3 SWAP2 SWAP1 PUSH2 0x95D SWAP1 PUSH2 0x1F24 JUMP JUMPDEST DUP1 PUSH1 0x1F ADD PUSH1 0x20 DUP1 SWAP2 DIV MUL PUSH1 0x20 ADD PUSH1 0x40 MLOAD SWAP1 DUP2 ADD PUSH1 0x40 MSTORE DUP1 SWAP3 SWAP2 SWAP1 DUP2 DUP2 MSTORE PUSH1 0x20 ADD DUP3 DUP1 SLOAD PUSH2 0x989 SWAP1 PUSH2 0x1F24 JUMP JUMPDEST DUP1 ISZERO PUSH2 0x9D6 JUMPI DUP1 PUSH1 0x1F LT PUSH2 0x9AB JUMPI PUSH2 0x100 DUP1 DUP4 SLOAD DIV MUL DUP4 MSTORE SWAP2 PUSH1 0x20 ADD SWAP2 PUSH2 0x9D6 JUMP JUMPDEST DUP3 ADD SWAP2 SWAP1 PUSH1 0x0 MSTORE PUSH1 0x20 PUSH1 0x0 KECCAK256 SWAP1 JUMPDEST DUP2 SLOAD DUP2 MSTORE SWAP1 PUSH1 0x1 ADD SWAP1 PUSH1 0x20 ADD DUP1 DUP4 GT PUSH2 0x9B9 JUMPI DUP3 SWAP1 SUB PUSH1 0x1F AND DUP3 ADD SWAP2 JUMPDEST POP POP POP POP POP SWAP1 POP DUP4 DUP4 PUSH1 0x40 MLOAD PUSH2 0x9ED SWAP3 SWAP2 SWAP1 PUSH2 0x1F5E JUMP JUMPDEST PUSH1 0x40 MLOAD DUP1 SWAP2 SUB SWAP1 KECCAK256 DUP2 DUP1 MLOAD SWAP1 PUSH1 0x20 ADD KECCAK256 EQ SWAP2 POP POP JUMPDEST SWAP4 SWAP3 POP POP POP JUMP JUMPDEST PUSH2 0xA11 PUSH2 0x14DF JUMP JUMPDEST PUSH1 0x40 MLOAD PUSH4 0x42D65A8D PUSH1 0xE0 SHL DUP2 MSTORE PUSH1 0x1 PUSH1 0x1 PUSH1 0xA0 SHL SUB PUSH32 0x0 AND SWAP1 PUSH4 0x42D65A8D SWAP1 PUSH2 0xA61 SWAP1 DUP7 SWAP1 DUP7 SWAP1 DUP7 SWAP1 PUSH1 0x4 ADD PUSH2 0x1F97 JUMP JUMPDEST PUSH1 0x0 PUSH1 0x40 MLOAD DUP1 DUP4 SUB DUP2 PUSH1 0x0 DUP8 DUP1 EXTCODESIZE ISZERO DUP1 ISZERO PUSH2 0xA7B JUMPI PUSH1 0x0 DUP1 REVERT JUMPDEST POP GAS CALL ISZERO DUP1 ISZERO PUSH2 0x833 JUMPI RETURNDATASIZE PUSH1 0x0 DUP1 RETURNDATACOPY RETURNDATASIZE PUSH1 0x0 REVERT JUMPDEST PUSH2 0xA97 PUSH2 0x14DF JUMP JUMPDEST PUSH1 0x40 MLOAD PUSH12 0xFFFFFFFFFFFFFFFFFFFFFFFF NOT PUSH1 0x60 DUP4 DUP2 SHL DUP3 AND PUSH1 0x20 DUP5 ADD MSTORE ADDRESS SWAP1 SHL AND PUSH1 0x34 DUP3 ADD MSTORE PUSH1 0x48 ADD PUSH1 0x40 DUP1 MLOAD PUSH1 0x1F NOT DUP2 DUP5 SUB ADD DUP2 MSTORE SWAP2 DUP2 MSTORE PUSH2 0xFFFF DUP5 AND PUSH1 0x0 SWAP1 DUP2 MSTORE PUSH1 0x1 PUSH1 0x20 MSTORE KECCAK256 SWAP1 PUSH2 0xAEB SWAP1 DUP3 PUSH2 0x1FFD JUMP JUMPDEST POP POP POP JUMP JUMPDEST CALLER ADDRESS EQ PUSH2 0xB4E JUMPI PUSH1 0x40 MLOAD PUSH3 0x461BCD PUSH1 0xE5 SHL DUP2 MSTORE PUSH1 0x20 PUSH1 0x4 DUP3 ADD MSTORE PUSH1 0x26 PUSH1 0x24 DUP3 ADD MSTORE PUSH32 0x4E6F6E626C6F636B696E674C7A4170703A2063616C6C6572206D757374206265 PUSH1 0x44 DUP3 ADD MSTORE PUSH6 0x204C7A41707 PUSH1 0xD4 SHL PUSH1 0x64 DUP3 ADD MSTORE PUSH1 0x84 ADD PUSH2 0x67F JUMP JUMPDEST PUSH2 0xBC4 DUP7 DUP7 DUP7 DUP1 DUP1 PUSH1 0x1F ADD PUSH1 0x20 DUP1 SWAP2 DIV MUL PUSH1 0x20 ADD PUSH1 0x40 MLOAD SWAP1 DUP2 ADD PUSH1 0x40 MSTORE DUP1 SWAP4 SWAP3 SWAP2 SWAP1 DUP2 DUP2 MSTORE PUSH1 0x20 ADD DUP4 DUP4 DUP1 DUP3 DUP5 CALLDATACOPY PUSH1 0x0 SWAP3 ADD SWAP2 SWAP1 SWAP2 MSTORE POP POP PUSH1 0x40 DUP1 MLOAD PUSH1 0x20 PUSH1 0x1F DUP10 ADD DUP2 SWAP1 DIV DUP2 MUL DUP3 ADD DUP2 ADD SWAP1 SWAP3 MSTORE DUP8 DUP2 MSTORE DUP10 SWAP4 POP SWAP2 POP DUP8 SWAP1 DUP8 SWAP1 DUP2 SWAP1 DUP5 ADD DUP4 DUP3 DUP1 DUP3 DUP5 CALLDATACOPY PUSH1 0x0 SWAP3 ADD SWAP2 SWAP1 SWAP2 MSTORE POP PUSH2 0x1539 SWAP3 POP POP POP JUMP JUMPDEST POP POP POP POP POP POP JUMP JUMPDEST PUSH2 0xBD4 PUSH2 0x14DF JUMP JUMPDEST PUSH2 0xBDE PUSH1 0x0 PUSH2 0x155A JUMP JUMPDEST JUMP JUMPDEST PUSH1 0x1 PUSH1 0x20 MSTORE PUSH1 0x0 SWAP1 DUP2 MSTORE PUSH1 0x40 SWAP1 KECCAK256 DUP1 SLOAD PUSH2 0xBF9 SWAP1 PUSH2 0x1F24 JUMP JUMPDEST DUP1 PUSH1 0x1F ADD PUSH1 0x20 DUP1 SWAP2 DIV MUL PUSH1 0x20 ADD PUSH1 0x40 MLOAD SWAP1 DUP2 ADD PUSH1 0x40 MSTORE DUP1 SWAP3 SWAP2 SWAP1 DUP2 DUP2 MSTORE PUSH1 0x20 ADD DUP3 DUP1 SLOAD PUSH2 0xC25 SWAP1 PUSH2 0x1F24 JUMP JUMPDEST DUP1 ISZERO PUSH2 0xC72 JUMPI DUP1 PUSH1 0x1F LT PUSH2 0xC47 JUMPI PUSH2 0x100 DUP1 DUP4 SLOAD DIV MUL DUP4 MSTORE SWAP2 PUSH1 0x20 ADD SWAP2 PUSH2 0xC72 JUMP JUMPDEST DUP3 ADD SWAP2 SWAP1 PUSH1 0x0 MSTORE PUSH1 0x20 PUSH1 0x0 KECCAK256 SWAP1 JUMPDEST DUP2 SLOAD DUP2 MSTORE SWAP1 PUSH1 0x1 ADD SWAP1 PUSH1 0x20 ADD DUP1 DUP4 GT PUSH2 0xC55 JUMPI DUP3 SWAP1 SUB PUSH1 0x1F AND DUP3 ADD SWAP2 JUMPDEST POP POP POP POP POP DUP2 JUMP JUMPDEST PUSH1 0x0 DUP1 PUSH1 0x0 DUP4 PUSH1 0x40 MLOAD PUSH1 0x20 ADD PUSH2 0xC90 SWAP2 SWAP1 PUSH2 0x1D4A JUMP JUMPDEST PUSH1 0x40 DUP1 MLOAD PUSH1 0x1F NOT DUP2 DUP5 SUB ADD DUP2 MSTORE SWAP1 DUP3 SWAP1 MSTORE PUSH4 0x40A7BB1 PUSH1 0xE4 SHL DUP3 MSTORE SWAP2 POP PUSH1 0x1 PUSH1 0x1 PUSH1 0xA0 SHL SUB PUSH32 0x0 AND SWAP1 PUSH4 0x40A7BB10 SWAP1 PUSH2 0xCF7 SWAP1 DUP11 SWAP1 ADDRESS SWAP1 DUP7 SWAP1 PUSH1 0x0 SWAP1 DUP14 SWAP1 DUP14 SWAP1 PUSH1 0x4 ADD PUSH2 0x20BC JUMP JUMPDEST PUSH1 0x40 DUP1 MLOAD DUP1 DUP4 SUB DUP2 DUP7 GAS STATICCALL ISZERO DUP1 ISZERO PUSH2 0xD13 JUMPI RETURNDATASIZE PUSH1 0x0 DUP1 RETURNDATACOPY RETURNDATASIZE PUSH1 0x0 REVERT JUMPDEST POP POP POP POP PUSH1 0x40 MLOAD RETURNDATASIZE PUSH1 0x1F NOT PUSH1 0x1F DUP3 ADD AND DUP3 ADD DUP1 PUSH1 0x40 MSTORE POP DUP2 ADD SWAP1 PUSH2 0xD37 SWAP2 SWAP1 PUSH2 0x2112 JUMP JUMPDEST SWAP3 POP SWAP3 POP POP SWAP5 POP SWAP5 SWAP3 POP POP POP JUMP JUMPDEST PUSH2 0xFFFF DUP2 AND PUSH1 0x0 SWAP1 DUP2 MSTORE PUSH1 0x1 PUSH1 0x20 MSTORE PUSH1 0x40 DUP2 KECCAK256 DUP1 SLOAD PUSH1 0x60 SWAP3 SWAP2 SWAP1 PUSH2 0xD68 SWAP1 PUSH2 0x1F24 JUMP JUMPDEST DUP1 PUSH1 0x1F ADD PUSH1 0x20 DUP1 SWAP2 DIV MUL PUSH1 0x20 ADD PUSH1 0x40 MLOAD SWAP1 DUP2 ADD PUSH1 0x40 MSTORE DUP1 SWAP3 SWAP2 SWAP1 DUP2 DUP2 MSTORE PUSH1 0x20 ADD DUP3 DUP1 SLOAD PUSH2 0xD94 SWAP1 PUSH2 0x1F24 JUMP JUMPDEST DUP1 ISZERO PUSH2 0xDE1 JUMPI DUP1 PUSH1 0x1F LT PUSH2 0xDB6 JUMPI PUSH2 0x100 DUP1 DUP4 SLOAD DIV MUL DUP4 MSTORE SWAP2 PUSH1 0x20 ADD SWAP2 PUSH2 0xDE1 JUMP JUMPDEST DUP3 ADD SWAP2 SWAP1 PUSH1 0x0 MSTORE PUSH1 0x20 PUSH1 0x0 KECCAK256 SWAP1 JUMPDEST DUP2 SLOAD DUP2 MSTORE SWAP1 PUSH1 0x1 ADD SWAP1 PUSH1 0x20 ADD DUP1 DUP4 GT PUSH2 0xDC4 JUMPI DUP3 SWAP1 SUB PUSH1 0x1F AND DUP3 ADD SWAP2 JUMPDEST POP POP POP POP POP SWAP1 POP DUP1 MLOAD PUSH1 0x0 SUB PUSH2 0xE39 JUMPI PUSH1 0x40 MLOAD PUSH3 0x461BCD PUSH1 0xE5 SHL DUP2 MSTORE PUSH1 0x20 PUSH1 0x4 DUP3 ADD MSTORE PUSH1 0x1D PUSH1 0x24 DUP3 ADD MSTORE PUSH32 0x4C7A4170703A206E6F20747275737465642070617468207265636F7264000000 PUSH1 0x44 DUP3 ADD MSTORE PUSH1 0x64 ADD PUSH2 0x67F JUMP JUMPDEST PUSH2 0xA02 PUSH1 0x0 PUSH1 0x14 DUP4 MLOAD PUSH2 0xE4C SWAP2 SWAP1 PUSH2 0x214C JUMP JUMPDEST DUP4 SWAP2 SWAP1 PUSH2 0x15AA JUMP JUMPDEST PUSH2 0xE5C PUSH2 0x14DF JUMP JUMPDEST DUP2 DUP2 ADDRESS PUSH1 0x40 MLOAD PUSH1 0x20 ADD PUSH2 0xE71 SWAP4 SWAP3 SWAP2 SWAP1 PUSH2 0x2165 JUMP JUMPDEST PUSH1 0x40 DUP1 MLOAD PUSH1 0x1F NOT DUP2 DUP5 SUB ADD DUP2 MSTORE SWAP2 DUP2 MSTORE PUSH2 0xFFFF DUP6 AND PUSH1 0x0 SWAP1 DUP2 MSTORE PUSH1 0x1 PUSH1 0x20 MSTORE KECCAK256 SWAP1 PUSH2 0xE9C SWAP1 DUP3 PUSH2 0x1FFD JUMP JUMPDEST POP PUSH32 0x8C0400CFE2D1199B1A725C78960BCC2A344D869B80590D0F2BD005DB15A572CE DUP4 DUP4 DUP4 PUSH1 0x40 MLOAD PUSH2 0xED0 SWAP4 SWAP3 SWAP2 SWAP1 PUSH2 0x1F97 JUMP JUMPDEST PUSH1 0x40 MLOAD DUP1 SWAP2 SUB SWAP1 LOG1 POP POP POP JUMP JUMPDEST PUSH2 0xEE5 PUSH2 0x14DF JUMP JUMPDEST PUSH1 0x4 DUP1 SLOAD PUSH1 0x1 PUSH1 0x1 PUSH1 0xA0 SHL SUB NOT AND PUSH1 0x1 PUSH1 0x1 PUSH1 0xA0 SHL SUB DUP4 AND SWAP1 DUP2 OR SWAP1 SWAP2 SSTORE PUSH1 0x40 MLOAD SWAP1 DUP2 MSTORE PUSH32 0x5DB758E995A17EC1AD84BDEF7E8C3293A0BD6179BCCE400DFF5D4C3D87DB726B SWAP1 PUSH1 0x20 ADD PUSH1 0x40 MLOAD DUP1 SWAP2 SUB SWAP1 LOG1 POP JUMP JUMPDEST PUSH1 0x0 PUSH1 0x40 MLOAD PUSH1 0x20 ADD PUSH2 0xF63 SWAP1 PUSH1 0x20 DUP1 DUP3 MSTORE PUSH1 0x4 SWAP1 DUP3 ADD MSTORE PUSH4 0x44696E67 PUSH1 0xE0 SHL PUSH1 0x40 DUP3 ADD MSTORE PUSH1 0x60 ADD SWAP1 JUMP JUMPDEST PUSH1 0x40 MLOAD PUSH1 0x20 DUP2 DUP4 SUB SUB DUP2 MSTORE SWAP1 PUSH1 0x40 MSTORE SWAP1 POP PUSH2 0xF92 DUP3 DUP3 CALLER PUSH1 0x0 PUSH1 0x40 MLOAD DUP1 PUSH1 0x20 ADD PUSH1 0x40 MSTORE DUP1 PUSH1 0x0 DUP2 MSTORE POP CALLVALUE PUSH2 0x16B7 JUMP JUMPDEST POP POP JUMP JUMPDEST PUSH2 0xF9E PUSH2 0x14DF JUMP JUMPDEST PUSH1 0x40 MLOAD PUSH4 0x32FB62E7 PUSH1 0xE2 SHL DUP2 MSTORE PUSH1 0x1 PUSH1 0x1 PUSH1 0xA0 SHL SUB PUSH32 0x0 AND SWAP1 PUSH4 0xCBED8B9C SWAP1 PUSH2 0xFF2 SWAP1 DUP9 SWAP1 DUP9 SWAP1 DUP9 SWAP1 DUP9 SWAP1 DUP9 SWAP1 PUSH1 0x4 ADD PUSH2 0x218B JUMP JUMPDEST PUSH1 0x0 PUSH1 0x40 MLOAD DUP1 DUP4 SUB DUP2 PUSH1 0x0 DUP8 DUP1 EXTCODESIZE ISZERO DUP1 ISZERO PUSH2 0x100C JUMPI PUSH1 0x0 DUP1 REVERT JUMPDEST POP GAS CALL ISZERO DUP1 ISZERO PUSH2 0x1020 JUMPI RETURNDATASIZE PUSH1 0x0 DUP1 RETURNDATACOPY RETURNDATASIZE PUSH1 0x0 REVERT JUMPDEST POP POP POP POP POP POP POP POP POP JUMP JUMPDEST PUSH2 0xFFFF DUP7 AND PUSH1 0x0 SWAP1 DUP2 MSTORE PUSH1 0x5 PUSH1 0x20 MSTORE PUSH1 0x40 DUP1 DUP3 KECCAK256 SWAP1 MLOAD PUSH2 0x104E SWAP1 DUP9 SWAP1 DUP9 SWAP1 PUSH2 0x1F5E JUMP JUMPDEST SWAP1 DUP2 MSTORE PUSH1 0x40 DUP1 MLOAD PUSH1 0x20 SWAP3 DUP2 SWAP1 SUB DUP4 ADD SWAP1 KECCAK256 PUSH1 0x1 PUSH1 0x1 PUSH1 0x40 SHL SUB DUP8 AND PUSH1 0x0 SWAP1 DUP2 MSTORE SWAP3 MSTORE SWAP1 KECCAK256 SLOAD SWAP1 POP DUP1 PUSH2 0x10CE JUMPI PUSH1 0x40 MLOAD PUSH3 0x461BCD PUSH1 0xE5 SHL DUP2 MSTORE PUSH1 0x20 PUSH1 0x4 DUP3 ADD MSTORE PUSH1 0x23 PUSH1 0x24 DUP3 ADD MSTORE PUSH32 0x4E6F6E626C6F636B696E674C7A4170703A206E6F2073746F726564206D657373 PUSH1 0x44 DUP3 ADD MSTORE PUSH3 0x616765 PUSH1 0xE8 SHL PUSH1 0x64 DUP3 ADD MSTORE PUSH1 0x84 ADD PUSH2 0x67F JUMP JUMPDEST DUP1 DUP4 DUP4 PUSH1 0x40 MLOAD PUSH2 0x10DF SWAP3 SWAP2 SWAP1 PUSH2 0x1F5E JUMP JUMPDEST PUSH1 0x40 MLOAD DUP1 SWAP2 SUB SWAP1 KECCAK256 EQ PUSH2 0x113E JUMPI PUSH1 0x40 MLOAD PUSH3 0x461BCD PUSH1 0xE5 SHL DUP2 MSTORE PUSH1 0x20 PUSH1 0x4 DUP3 ADD MSTORE PUSH1 0x21 PUSH1 0x24 DUP3 ADD MSTORE PUSH32 0x4E6F6E626C6F636B696E674C7A4170703A20696E76616C6964207061796C6F61 PUSH1 0x44 DUP3 ADD MSTORE PUSH1 0x19 PUSH1 0xFA SHL PUSH1 0x64 DUP3 ADD MSTORE PUSH1 0x84 ADD PUSH2 0x67F JUMP JUMPDEST PUSH2 0xFFFF DUP8 AND PUSH1 0x0 SWAP1 DUP2 MSTORE PUSH1 0x5 PUSH1 0x20 MSTORE PUSH1 0x40 DUP1 DUP3 KECCAK256 SWAP1 MLOAD PUSH2 0x1161 SWAP1 DUP10 SWAP1 DUP10 SWAP1 PUSH2 0x1F5E JUMP JUMPDEST SWAP1 DUP2 MSTORE PUSH1 0x40 DUP1 MLOAD PUSH1 0x20 SWAP3 DUP2 SWAP1 SUB DUP4 ADD DUP2 KECCAK256 PUSH1 0x1 PUSH1 0x1 PUSH1 0x40 SHL SUB DUP10 AND PUSH1 0x0 SWAP1 DUP2 MSTORE SWAP1 DUP5 MSTORE DUP3 SWAP1 KECCAK256 SWAP4 SWAP1 SWAP4 SSTORE PUSH1 0x1F DUP9 ADD DUP3 SWAP1 DIV DUP3 MUL DUP4 ADD DUP3 ADD SWAP1 MSTORE DUP7 DUP3 MSTORE PUSH2 0x11F9 SWAP2 DUP10 SWAP2 DUP10 SWAP1 DUP10 SWAP1 DUP2 SWAP1 DUP5 ADD DUP4 DUP3 DUP1 DUP3 DUP5 CALLDATACOPY PUSH1 0x0 SWAP3 ADD SWAP2 SWAP1 SWAP2 MSTORE POP POP PUSH1 0x40 DUP1 MLOAD PUSH1 0x20 PUSH1 0x1F DUP11 ADD DUP2 SWAP1 DIV DUP2 MUL DUP3 ADD DUP2 ADD SWAP1 SWAP3 MSTORE DUP9 DUP2 MSTORE DUP11 SWAP4 POP SWAP2 POP DUP9 SWAP1 DUP9 SWAP1 DUP2 SWAP1 DUP5 ADD DUP4 DUP3 DUP1 DUP3 DUP5 CALLDATACOPY PUSH1 0x0 SWAP3 ADD SWAP2 SWAP1 SWAP2 MSTORE POP PUSH2 0x1539 SWAP3 POP POP POP JUMP JUMPDEST PUSH32 0xC264D91F3ADC5588250E1551F547752CA0CFA8F6B530D243B9F9F4CAB10EA8E5 DUP8 DUP8 DUP8 DUP8 DUP6 PUSH1 0x40 MLOAD PUSH2 0x1230 SWAP6 SWAP5 SWAP4 SWAP3 SWAP2 SWAP1 PUSH2 0x21C4 JUMP JUMPDEST PUSH1 0x40 MLOAD DUP1 SWAP2 SUB SWAP1 LOG1 POP POP POP POP POP POP POP JUMP JUMPDEST PUSH2 0x1249 PUSH2 0x14DF JUMP JUMPDEST PUSH2 0xFFFF DUP4 DUP2 AND PUSH1 0x0 DUP2 DUP2 MSTORE PUSH1 0x2 PUSH1 0x20 SWAP1 DUP2 MSTORE PUSH1 0x40 DUP1 DUP4 KECCAK256 SWAP5 DUP8 AND DUP1 DUP5 MSTORE SWAP5 DUP3 MSTORE SWAP2 DUP3 SWAP1 KECCAK256 DUP6 SWAP1 SSTORE DUP2 MLOAD SWAP3 DUP4 MSTORE DUP3 ADD SWAP3 SWAP1 SWAP3 MSTORE SWAP1 DUP2 ADD DUP3 SWAP1 MSTORE PUSH32 0x9D5C7C0B934DA8FEFA9C7760C98383778A12DFBFC0C3B3106518F43FB9508AC0 SWAP1 PUSH1 0x60 ADD PUSH2 0xED0 JUMP JUMPDEST PUSH1 0x6 DUP1 SLOAD PUSH2 0xBF9 SWAP1 PUSH2 0x1F24 JUMP JUMPDEST PUSH2 0x12C0 PUSH2 0x14DF JUMP JUMPDEST PUSH2 0xFFFF DUP4 AND PUSH1 0x0 SWAP1 DUP2 MSTORE PUSH1 0x1 PUSH1 0x20 MSTORE PUSH1 0x40 SWAP1 KECCAK256 PUSH2 0x12DE DUP3 DUP5 DUP4 PUSH2 0x21FF JUMP JUMPDEST POP PUSH32 0xFA41487AD5D6728F0B19276FA1EDDC16558578F5109FC39D2DC33C3230470DAB DUP4 DUP4 DUP4 PUSH1 0x40 MLOAD PUSH2 0xED0 SWAP4 SWAP3 SWAP2 SWAP1 PUSH2 0x1F97 JUMP JUMPDEST PUSH2 0x131A PUSH2 0x14DF JUMP JUMPDEST PUSH1 0x1 PUSH1 0x1 PUSH1 0xA0 SHL SUB DUP2 AND PUSH2 0x137F JUMPI PUSH1 0x40 MLOAD PUSH3 0x461BCD PUSH1 0xE5 SHL DUP2 MSTORE PUSH1 0x20 PUSH1 0x4 DUP3 ADD MSTORE PUSH1 0x26 PUSH1 0x24 DUP3 ADD MSTORE PUSH32 0x4F776E61626C653A206E6577206F776E657220697320746865207A65726F2061 PUSH1 0x44 DUP3 ADD MSTORE PUSH6 0x646472657373 PUSH1 0xD0 SHL PUSH1 0x64 DUP3 ADD MSTORE PUSH1 0x84 ADD PUSH2 0x67F JUMP JUMPDEST PUSH2 0x1388 DUP2 PUSH2 0x155A JUMP JUMPDEST POP JUMP JUMPDEST PUSH1 0x40 MLOAD PUSH4 0x3D7B2F6F PUSH1 0xE2 SHL DUP2 MSTORE PUSH2 0xFFFF DUP1 DUP7 AND PUSH1 0x4 DUP4 ADD MSTORE DUP5 AND PUSH1 0x24 DUP3 ADD MSTORE ADDRESS PUSH1 0x44 DUP3 ADD MSTORE PUSH1 0x64 DUP2 ADD DUP3 SWAP1 MSTORE PUSH1 0x60 SWAP1 PUSH32 0x0 PUSH1 0x1 PUSH1 0x1 PUSH1 0xA0 SHL SUB AND SWAP1 PUSH4 0xF5ECBDBC SWAP1 PUSH1 0x84 ADD PUSH1 0x0 PUSH1 0x40 MLOAD DUP1 DUP4 SUB DUP2 DUP7 GAS STATICCALL ISZERO DUP1 ISZERO PUSH2 0x140B JUMPI RETURNDATASIZE PUSH1 0x0 DUP1 RETURNDATACOPY RETURNDATASIZE PUSH1 0x0 REVERT JUMPDEST POP POP POP POP PUSH1 0x40 MLOAD RETURNDATASIZE PUSH1 0x0 DUP3 RETURNDATACOPY PUSH1 0x1F RETURNDATASIZE SWAP1 DUP2 ADD PUSH1 0x1F NOT AND DUP3 ADD PUSH1 0x40 MSTORE PUSH2 0x1433 SWAP2 SWAP1 DUP2 ADD SWAP1 PUSH2 0x22EE JUMP JUMPDEST SWAP6 SWAP5 POP POP POP POP POP JUMP JUMPDEST PUSH1 0x0 PUSH1 0x40 MLOAD PUSH1 0x20 ADD PUSH2 0xF63 SWAP1 PUSH1 0x20 DUP1 DUP3 MSTORE PUSH1 0x4 SWAP1 DUP3 ADD MSTORE PUSH4 0x446F6E67 PUSH1 0xE0 SHL PUSH1 0x40 DUP3 ADD MSTORE PUSH1 0x60 ADD SWAP1 JUMP JUMPDEST PUSH1 0x0 DUP1 PUSH2 0x14C9 GAS PUSH1 0x96 PUSH4 0x66AD5C8A PUSH1 0xE0 SHL DUP10 DUP10 DUP10 DUP10 PUSH1 0x40 MLOAD PUSH1 0x24 ADD PUSH2 0x148E SWAP5 SWAP4 SWAP3 SWAP2 SWAP1 PUSH2 0x233E JUMP JUMPDEST PUSH1 0x40 DUP1 MLOAD PUSH1 0x1F NOT DUP2 DUP5 SUB ADD DUP2 MSTORE SWAP2 SWAP1 MSTORE PUSH1 0x20 DUP2 ADD DUP1 MLOAD PUSH1 0x1 PUSH1 0x1 PUSH1 0xE0 SHL SUB AND PUSH1 0x1 PUSH1 0x1 PUSH1 0xE0 SHL SUB NOT SWAP1 SWAP4 AND SWAP3 SWAP1 SWAP3 OR SWAP1 SWAP2 MSTORE ADDRESS SWAP3 SWAP2 SWAP1 PUSH2 0x185C JUMP JUMPDEST SWAP2 POP SWAP2 POP DUP2 PUSH2 0xBC4 JUMPI PUSH2 0xBC4 DUP7 DUP7 DUP7 DUP7 DUP6 PUSH2 0x18E6 JUMP JUMPDEST PUSH1 0x0 SLOAD PUSH1 0x1 PUSH1 0x1 PUSH1 0xA0 SHL SUB AND CALLER EQ PUSH2 0xBDE JUMPI PUSH1 0x40 MLOAD PUSH3 0x461BCD PUSH1 0xE5 SHL DUP2 MSTORE PUSH1 0x20 PUSH1 0x4 DUP3 ADD DUP2 SWAP1 MSTORE PUSH1 0x24 DUP3 ADD MSTORE PUSH32 0x4F776E61626C653A2063616C6C6572206973206E6F7420746865206F776E6572 PUSH1 0x44 DUP3 ADD MSTORE PUSH1 0x64 ADD PUSH2 0x67F JUMP JUMPDEST DUP1 DUP1 PUSH1 0x20 ADD SWAP1 MLOAD DUP2 ADD SWAP1 PUSH2 0x154D SWAP2 SWAP1 PUSH2 0x22EE JUMP JUMPDEST PUSH1 0x6 SWAP1 PUSH2 0x8BE SWAP1 DUP3 PUSH2 0x1FFD JUMP JUMPDEST PUSH1 0x0 DUP1 SLOAD PUSH1 0x1 PUSH1 0x1 PUSH1 0xA0 SHL SUB DUP4 DUP2 AND PUSH1 0x1 PUSH1 0x1 PUSH1 0xA0 SHL SUB NOT DUP4 AND DUP2 OR DUP5 SSTORE PUSH1 0x40 MLOAD SWAP2 SWAP1 SWAP3 AND SWAP3 DUP4 SWAP2 PUSH32 0x8BE0079C531659141344CD1FD0A4F28419497F9722A3DAAFE3B4186F6B6457E0 SWAP2 SWAP1 LOG3 POP POP JUMP JUMPDEST PUSH1 0x60 DUP2 PUSH2 0x15B8 DUP2 PUSH1 0x1F PUSH2 0x237C JUMP JUMPDEST LT ISZERO PUSH2 0x15F7 JUMPI PUSH1 0x40 MLOAD PUSH3 0x461BCD PUSH1 0xE5 SHL DUP2 MSTORE PUSH1 0x20 PUSH1 0x4 DUP3 ADD MSTORE PUSH1 0xE PUSH1 0x24 DUP3 ADD MSTORE PUSH14 0x736C6963655F6F766572666C6F77 PUSH1 0x90 SHL PUSH1 0x44 DUP3 ADD MSTORE PUSH1 0x64 ADD PUSH2 0x67F JUMP JUMPDEST PUSH2 0x1601 DUP3 DUP5 PUSH2 0x237C JUMP JUMPDEST DUP5 MLOAD LT ISZERO PUSH2 0x1645 JUMPI PUSH1 0x40 MLOAD PUSH3 0x461BCD PUSH1 0xE5 SHL DUP2 MSTORE PUSH1 0x20 PUSH1 0x4 DUP3 ADD MSTORE PUSH1 0x11 PUSH1 0x24 DUP3 ADD MSTORE PUSH17 0x736C6963655F6F75744F66426F756E6473 PUSH1 0x78 SHL PUSH1 0x44 DUP3 ADD MSTORE PUSH1 0x64 ADD PUSH2 0x67F JUMP JUMPDEST PUSH1 0x60 DUP3 ISZERO DUP1 ISZERO PUSH2 0x1664 JUMPI PUSH1 0x40 MLOAD SWAP2 POP PUSH1 0x0 DUP3 MSTORE PUSH1 0x20 DUP3 ADD PUSH1 0x40 MSTORE PUSH2 0x16AE JUMP JUMPDEST PUSH1 0x40 MLOAD SWAP2 POP PUSH1 0x1F DUP5 AND DUP1 ISZERO PUSH1 0x20 MUL DUP2 DUP5 ADD ADD DUP6 DUP2 ADD DUP8 DUP4 ISZERO PUSH1 0x20 MUL DUP5 DUP12 ADD ADD ADD JUMPDEST DUP2 DUP4 LT ISZERO PUSH2 0x169D JUMPI DUP1 MLOAD DUP4 MSTORE PUSH1 0x20 SWAP3 DUP4 ADD SWAP3 ADD PUSH2 0x1685 JUMP JUMPDEST POP POP DUP6 DUP5 MSTORE PUSH1 0x1F ADD PUSH1 0x1F NOT AND PUSH1 0x40 MSTORE POP JUMPDEST POP SWAP5 SWAP4 POP POP POP POP JUMP JUMPDEST PUSH2 0xFFFF DUP7 AND PUSH1 0x0 SWAP1 DUP2 MSTORE PUSH1 0x1 PUSH1 0x20 MSTORE PUSH1 0x40 DUP2 KECCAK256 DUP1 SLOAD PUSH2 0x16D5 SWAP1 PUSH2 0x1F24 JUMP JUMPDEST DUP1 PUSH1 0x1F ADD PUSH1 0x20 DUP1 SWAP2 DIV MUL PUSH1 0x20 ADD PUSH1 0x40 MLOAD SWAP1 DUP2 ADD PUSH1 0x40 MSTORE DUP1 SWAP3 SWAP2 SWAP1 DUP2 DUP2 MSTORE PUSH1 0x20 ADD DUP3 DUP1 SLOAD PUSH2 0x1701 SWAP1 PUSH2 0x1F24 JUMP JUMPDEST DUP1 ISZERO PUSH2 0x174E JUMPI DUP1 PUSH1 0x1F LT PUSH2 0x1723 JUMPI PUSH2 0x100 DUP1 DUP4 SLOAD DIV MUL DUP4 MSTORE SWAP2 PUSH1 0x20 ADD SWAP2 PUSH2 0x174E JUMP JUMPDEST DUP3 ADD SWAP2 SWAP1 PUSH1 0x0 MSTORE PUSH1 0x20 PUSH1 0x0 KECCAK256 SWAP1 JUMPDEST DUP2 SLOAD DUP2 MSTORE SWAP1 PUSH1 0x1 ADD SWAP1 PUSH1 0x20 ADD DUP1 DUP4 GT PUSH2 0x1731 JUMPI DUP3 SWAP1 SUB PUSH1 0x1F AND DUP3 ADD SWAP2 JUMPDEST POP POP POP POP POP SWAP1 POP DUP1 MLOAD PUSH1 0x0 SUB PUSH2 0x17BF JUMPI PUSH1 0x40 MLOAD PUSH3 0x461BCD PUSH1 0xE5 SHL DUP2 MSTORE PUSH1 0x20 PUSH1 0x4 DUP3 ADD MSTORE PUSH1 0x30 PUSH1 0x24 DUP3 ADD MSTORE PUSH32 0x4C7A4170703A2064657374696E6174696F6E20636861696E206973206E6F7420 PUSH1 0x44 DUP3 ADD MSTORE PUSH16 0x61207472757374656420736F75726365 PUSH1 0x80 SHL PUSH1 0x64 DUP3 ADD MSTORE PUSH1 0x84 ADD PUSH2 0x67F JUMP JUMPDEST PUSH2 0x17CA DUP8 DUP8 MLOAD PUSH2 0x1983 JUMP JUMPDEST PUSH1 0x40 MLOAD PUSH3 0xC58031 PUSH1 0xE8 SHL DUP2 MSTORE PUSH1 0x1 PUSH1 0x1 PUSH1 0xA0 SHL SUB PUSH32 0x0 AND SWAP1 PUSH4 0xC5803100 SWAP1 DUP5 SWAP1 PUSH2 0x1821 SWAP1 DUP12 SWAP1 DUP7 SWAP1 DUP13 SWAP1 DUP13 SWAP1 DUP13 SWAP1 DUP13 SWAP1 PUSH1 0x4 ADD PUSH2 0x238F JUMP JUMPDEST PUSH1 0x0 PUSH1 0x40 MLOAD DUP1 DUP4 SUB DUP2 DUP6 DUP9 DUP1 EXTCODESIZE ISZERO DUP1 ISZERO PUSH2 0x183A JUMPI PUSH1 0x0 DUP1 REVERT JUMPDEST POP GAS CALL ISZERO DUP1 ISZERO PUSH2 0x184E JUMPI RETURNDATASIZE PUSH1 0x0 DUP1 RETURNDATACOPY RETURNDATASIZE PUSH1 0x0 REVERT JUMPDEST POP POP POP POP POP POP POP POP POP POP POP POP JUMP JUMPDEST PUSH1 0x0 PUSH1 0x60 PUSH1 0x0 DUP1 PUSH1 0x0 DUP7 PUSH2 0xFFFF AND PUSH1 0x1 PUSH1 0x1 PUSH1 0x40 SHL SUB DUP2 GT ISZERO PUSH2 0x1881 JUMPI PUSH2 0x1881 PUSH2 0x1BDE JUMP JUMPDEST PUSH1 0x40 MLOAD SWAP1 DUP1 DUP3 MSTORE DUP1 PUSH1 0x1F ADD PUSH1 0x1F NOT AND PUSH1 0x20 ADD DUP3 ADD PUSH1 0x40 MSTORE DUP1 ISZERO PUSH2 0x18AB JUMPI PUSH1 0x20 DUP3 ADD DUP2 DUP1 CALLDATASIZE DUP4 CALLDATACOPY ADD SWAP1 POP JUMPDEST POP SWAP1 POP PUSH1 0x0 DUP1 DUP8 MLOAD PUSH1 0x20 DUP10 ADD PUSH1 0x0 DUP14 DUP14 CALL SWAP2 POP RETURNDATASIZE SWAP3 POP DUP7 DUP4 GT ISZERO PUSH2 0x18CD JUMPI DUP7 SWAP3 POP JUMPDEST DUP3 DUP2 MSTORE DUP3 PUSH1 0x0 PUSH1 0x20 DUP4 ADD RETURNDATACOPY SWAP1 SWAP9 SWAP1 SWAP8 POP SWAP6 POP POP POP POP POP POP JUMP JUMPDEST DUP2 DUP1 MLOAD SWAP1 PUSH1 0x20 ADD KECCAK256 PUSH1 0x5 PUSH1 0x0 DUP8 PUSH2 0xFFFF AND PUSH2 0xFFFF AND DUP2 MSTORE PUSH1 0x20 ADD SWAP1 DUP2 MSTORE PUSH1 0x20 ADD PUSH1 0x0 KECCAK256 DUP6 PUSH1 0x40 MLOAD PUSH2 0x1917 SWAP2 SWAP1 PUSH2 0x23E9 JUMP JUMPDEST SWAP1 DUP2 MSTORE PUSH1 0x40 DUP1 MLOAD SWAP2 DUP3 SWAP1 SUB PUSH1 0x20 SWAP1 DUP2 ADD DUP4 KECCAK256 PUSH1 0x1 PUSH1 0x1 PUSH1 0x40 SHL SUB DUP9 AND PUSH1 0x0 SWAP1 DUP2 MSTORE SWAP2 MSTORE KECCAK256 SWAP2 SWAP1 SWAP2 SSTORE PUSH32 0xE183F33DE2837795525B4792CA4CD60535BD77C53B7E7030060BFCF5734D6B0C SWAP1 PUSH2 0x1974 SWAP1 DUP8 SWAP1 DUP8 SWAP1 DUP8 SWAP1 DUP8 SWAP1 DUP8 SWAP1 PUSH2 0x2405 JUMP JUMPDEST PUSH1 0x40 MLOAD DUP1 SWAP2 SUB SWAP1 LOG1 POP POP POP POP POP JUMP JUMPDEST PUSH2 0xFFFF DUP3 AND PUSH1 0x0 SWAP1 DUP2 MSTORE PUSH1 0x3 PUSH1 0x20 MSTORE PUSH1 0x40 DUP2 KECCAK256 SLOAD SWAP1 DUP2 SWAP1 SUB PUSH2 0x19A4 JUMPI POP PUSH2 0x2710 JUMPDEST DUP1 DUP3 GT ISZERO PUSH2 0xAEB JUMPI PUSH1 0x40 MLOAD PUSH3 0x461BCD PUSH1 0xE5 SHL DUP2 MSTORE PUSH1 0x20 PUSH1 0x4 DUP3 ADD DUP2 SWAP1 MSTORE PUSH1 0x24 DUP3 ADD MSTORE PUSH32 0x4C7A4170703A207061796C6F61642073697A6520697320746F6F206C61726765 PUSH1 0x44 DUP3 ADD MSTORE PUSH1 0x64 ADD PUSH2 0x67F JUMP JUMPDEST DUP1 CALLDATALOAD PUSH2 0xFFFF DUP2 AND DUP2 EQ PUSH2 0x1A06 JUMPI PUSH1 0x0 DUP1 REVERT JUMPDEST SWAP2 SWAP1 POP JUMP JUMPDEST PUSH1 0x0 DUP1 DUP4 PUSH1 0x1F DUP5 ADD SLT PUSH2 0x1A1D JUMPI PUSH1 0x0 DUP1 REVERT JUMPDEST POP DUP2 CALLDATALOAD PUSH1 0x1 PUSH1 0x1 PUSH1 0x40 SHL SUB DUP2 GT ISZERO PUSH2 0x1A34 JUMPI PUSH1 0x0 DUP1 REVERT JUMPDEST PUSH1 0x20 DUP4 ADD SWAP2 POP DUP4 PUSH1 0x20 DUP3 DUP6 ADD ADD GT ISZERO PUSH2 0x1A4C JUMPI PUSH1 0x0 DUP1 REVERT JUMPDEST SWAP3 POP SWAP3 SWAP1 POP JUMP JUMPDEST DUP1 CALLDATALOAD PUSH1 0x1 PUSH1 0x1 PUSH1 0x40 SHL SUB DUP2 AND DUP2 EQ PUSH2 0x1A06 JUMPI PUSH1 0x0 DUP1 REVERT JUMPDEST PUSH1 0x0 DUP1 PUSH1 0x0 DUP1 PUSH1 0x0 DUP1 PUSH1 0x80 DUP8 DUP10 SUB SLT ISZERO PUSH2 0x1A83 JUMPI PUSH1 0x0 DUP1 REVERT JUMPDEST PUSH2 0x1A8C DUP8 PUSH2 0x19F4 JUMP JUMPDEST SWAP6 POP PUSH1 0x20 DUP8 ADD CALLDATALOAD PUSH1 0x1 PUSH1 0x1 PUSH1 0x40 SHL SUB DUP1 DUP3 GT ISZERO PUSH2 0x1AA8 JUMPI PUSH1 0x0 DUP1 REVERT JUMPDEST PUSH2 0x1AB4 DUP11 DUP4 DUP12 ADD PUSH2 0x1A0B JUMP JUMPDEST SWAP1 SWAP8 POP SWAP6 POP DUP6 SWAP2 POP PUSH2 0x1AC8 PUSH1 0x40 DUP11 ADD PUSH2 0x1A53 JUMP JUMPDEST SWAP5 POP PUSH1 0x60 DUP10 ADD CALLDATALOAD SWAP2 POP DUP1 DUP3 GT ISZERO PUSH2 0x1ADE JUMPI PUSH1 0x0 DUP1 REVERT JUMPDEST POP PUSH2 0x1AEB DUP10 DUP3 DUP11 ADD PUSH2 0x1A0B JUMP JUMPDEST SWAP8 SWAP11 SWAP7 SWAP10 POP SWAP5 SWAP8 POP SWAP3 SWAP6 SWAP4 SWAP5 SWAP3 POP POP POP JUMP JUMPDEST PUSH1 0x0 PUSH1 0x20 DUP3 DUP5 SUB SLT ISZERO PUSH2 0x1B0F JUMPI PUSH1 0x0 DUP1 REVERT JUMPDEST PUSH2 0xA02 DUP3 PUSH2 0x19F4 JUMP JUMPDEST PUSH1 0x0 DUP1 PUSH1 0x40 DUP4 DUP6 SUB SLT ISZERO PUSH2 0x1B2B JUMPI PUSH1 0x0 DUP1 REVERT JUMPDEST PUSH2 0x1B34 DUP4 PUSH2 0x19F4 JUMP JUMPDEST SWAP5 PUSH1 0x20 SWAP4 SWAP1 SWAP4 ADD CALLDATALOAD SWAP4 POP POP POP JUMP JUMPDEST PUSH1 0x0 DUP1 PUSH1 0x0 PUSH1 0x40 DUP5 DUP7 SUB SLT ISZERO PUSH2 0x1B57 JUMPI PUSH1 0x0 DUP1 REVERT JUMPDEST PUSH2 0x1B60 DUP5 PUSH2 0x19F4 JUMP JUMPDEST SWAP3 POP PUSH1 0x20 DUP5 ADD CALLDATALOAD PUSH1 0x1 PUSH1 0x1 PUSH1 0x40 SHL SUB DUP2 GT ISZERO PUSH2 0x1B7B JUMPI PUSH1 0x0 DUP1 REVERT JUMPDEST PUSH2 0x1B87 DUP7 DUP3 DUP8 ADD PUSH2 0x1A0B JUMP JUMPDEST SWAP5 SWAP8 SWAP1 SWAP7 POP SWAP4 SWAP5 POP POP POP POP JUMP JUMPDEST DUP1 CALLDATALOAD PUSH1 0x1 PUSH1 0x1 PUSH1 0xA0 SHL SUB DUP2 AND DUP2 EQ PUSH2 0x1A06 JUMPI PUSH1 0x0 DUP1 REVERT JUMPDEST PUSH1 0x0 DUP1 PUSH1 0x40 DUP4 DUP6 SUB SLT ISZERO PUSH2 0x1BBE JUMPI PUSH1 0x0 DUP1 REVERT JUMPDEST PUSH2 0x1BC7 DUP4 PUSH2 0x19F4 JUMP JUMPDEST SWAP2 POP PUSH2 0x1BD5 PUSH1 0x20 DUP5 ADD PUSH2 0x1B94 JUMP JUMPDEST SWAP1 POP SWAP3 POP SWAP3 SWAP1 POP JUMP JUMPDEST PUSH4 0x4E487B71 PUSH1 0xE0 SHL PUSH1 0x0 MSTORE PUSH1 0x41 PUSH1 0x4 MSTORE PUSH1 0x24 PUSH1 0x0 REVERT JUMPDEST PUSH1 0x40 MLOAD PUSH1 0x1F DUP3 ADD PUSH1 0x1F NOT AND DUP2 ADD PUSH1 0x1 PUSH1 0x1 PUSH1 0x40 SHL SUB DUP2 GT DUP3 DUP3 LT OR ISZERO PUSH2 0x1C1C JUMPI PUSH2 0x1C1C PUSH2 0x1BDE JUMP JUMPDEST PUSH1 0x40 MSTORE SWAP2 SWAP1 POP JUMP JUMPDEST PUSH1 0x0 PUSH1 0x1 PUSH1 0x1 PUSH1 0x40 SHL SUB DUP3 GT ISZERO PUSH2 0x1C3D JUMPI PUSH2 0x1C3D PUSH2 0x1BDE JUMP JUMPDEST POP PUSH1 0x1F ADD PUSH1 0x1F NOT AND PUSH1 0x20 ADD SWAP1 JUMP JUMPDEST PUSH1 0x0 PUSH2 0x1C5E PUSH2 0x1C59 DUP5 PUSH2 0x1C24 JUMP JUMPDEST PUSH2 0x1BF4 JUMP JUMPDEST SWAP1 POP DUP3 DUP2 MSTORE DUP4 DUP4 DUP4 ADD GT ISZERO PUSH2 0x1C72 JUMPI PUSH1 0x0 DUP1 REVERT JUMPDEST DUP3 DUP3 PUSH1 0x20 DUP4 ADD CALLDATACOPY PUSH1 0x0 PUSH1 0x20 DUP5 DUP4 ADD ADD MSTORE SWAP4 SWAP3 POP POP POP JUMP JUMPDEST PUSH1 0x0 DUP1 PUSH1 0x0 PUSH1 0x60 DUP5 DUP7 SUB SLT ISZERO PUSH2 0x1C9E JUMPI PUSH1 0x0 DUP1 REVERT JUMPDEST PUSH2 0x1CA7 DUP5 PUSH2 0x19F4 JUMP JUMPDEST SWAP3 POP PUSH1 0x20 DUP5 ADD CALLDATALOAD PUSH1 0x1 PUSH1 0x1 PUSH1 0x40 SHL SUB DUP2 GT ISZERO PUSH2 0x1CC2 JUMPI PUSH1 0x0 DUP1 REVERT JUMPDEST DUP5 ADD PUSH1 0x1F DUP2 ADD DUP7 SGT PUSH2 0x1CD3 JUMPI PUSH1 0x0 DUP1 REVERT JUMPDEST PUSH2 0x1CE2 DUP7 DUP3 CALLDATALOAD PUSH1 0x20 DUP5 ADD PUSH2 0x1C4B JUMP JUMPDEST SWAP3 POP POP PUSH2 0x1CF1 PUSH1 0x40 DUP6 ADD PUSH2 0x1A53 JUMP JUMPDEST SWAP1 POP SWAP3 POP SWAP3 POP SWAP3 JUMP JUMPDEST PUSH1 0x0 JUMPDEST DUP4 DUP2 LT ISZERO PUSH2 0x1D15 JUMPI DUP2 DUP2 ADD MLOAD DUP4 DUP3 ADD MSTORE PUSH1 0x20 ADD PUSH2 0x1CFD JUMP JUMPDEST POP POP PUSH1 0x0 SWAP2 ADD MSTORE JUMP JUMPDEST PUSH1 0x0 DUP2 MLOAD DUP1 DUP5 MSTORE PUSH2 0x1D36 DUP2 PUSH1 0x20 DUP7 ADD PUSH1 0x20 DUP7 ADD PUSH2 0x1CFA JUMP JUMPDEST PUSH1 0x1F ADD PUSH1 0x1F NOT AND SWAP3 SWAP1 SWAP3 ADD PUSH1 0x20 ADD SWAP3 SWAP2 POP POP JUMP JUMPDEST PUSH1 0x20 DUP2 MSTORE PUSH1 0x0 PUSH2 0xA02 PUSH1 0x20 DUP4 ADD DUP5 PUSH2 0x1D1E JUMP JUMPDEST PUSH1 0x0 DUP1 PUSH1 0x0 DUP1 PUSH1 0x60 DUP6 DUP8 SUB SLT ISZERO PUSH2 0x1D73 JUMPI PUSH1 0x0 DUP1 REVERT JUMPDEST PUSH2 0x1D7C DUP6 PUSH2 0x19F4 JUMP JUMPDEST SWAP4 POP PUSH1 0x20 DUP6 ADD CALLDATALOAD PUSH1 0x1 PUSH1 0x1 PUSH1 0x40 SHL SUB DUP1 DUP3 GT ISZERO PUSH2 0x1D98 JUMPI PUSH1 0x0 DUP1 REVERT JUMPDEST PUSH2 0x1DA4 DUP9 DUP4 DUP10 ADD PUSH2 0x1A0B JUMP JUMPDEST SWAP1 SWAP6 POP SWAP4 POP PUSH1 0x40 DUP8 ADD CALLDATALOAD SWAP2 POP DUP1 DUP3 GT ISZERO PUSH2 0x1DBD JUMPI PUSH1 0x0 DUP1 REVERT JUMPDEST POP DUP6 ADD PUSH1 0x1F DUP2 ADD DUP8 SGT PUSH2 0x1DCF JUMPI PUSH1 0x0 DUP1 REVERT JUMPDEST PUSH2 0x1DDE DUP8 DUP3 CALLDATALOAD PUSH1 0x20 DUP5 ADD PUSH2 0x1C4B JUMP JUMPDEST SWAP2 POP POP SWAP3 SWAP6 SWAP2 SWAP5 POP SWAP3 POP JUMP JUMPDEST PUSH1 0x0 DUP1 PUSH1 0x40 DUP4 DUP6 SUB SLT ISZERO PUSH2 0x1DFD JUMPI PUSH1 0x0 DUP1 REVERT JUMPDEST PUSH2 0x1E06 DUP4 PUSH2 0x19F4 JUMP JUMPDEST SWAP2 POP PUSH2 0x1BD5 PUSH1 0x20 DUP5 ADD PUSH2 0x19F4 JUMP JUMPDEST PUSH1 0x0 PUSH1 0x20 DUP3 DUP5 SUB SLT ISZERO PUSH2 0x1E26 JUMPI PUSH1 0x0 DUP1 REVERT JUMPDEST PUSH2 0xA02 DUP3 PUSH2 0x1B94 JUMP JUMPDEST PUSH1 0x0 DUP1 PUSH1 0x0 DUP1 PUSH1 0x0 PUSH1 0x80 DUP7 DUP9 SUB SLT ISZERO PUSH2 0x1E47 JUMPI PUSH1 0x0 DUP1 REVERT JUMPDEST PUSH2 0x1E50 DUP7 PUSH2 0x19F4 JUMP JUMPDEST SWAP5 POP PUSH2 0x1E5E PUSH1 0x20 DUP8 ADD PUSH2 0x19F4 JUMP JUMPDEST SWAP4 POP PUSH1 0x40 DUP7 ADD CALLDATALOAD SWAP3 POP PUSH1 0x60 DUP7 ADD CALLDATALOAD PUSH1 0x1 PUSH1 0x1 PUSH1 0x40 SHL SUB DUP2 GT ISZERO PUSH2 0x1E80 JUMPI PUSH1 0x0 DUP1 REVERT JUMPDEST PUSH2 0x1E8C DUP9 DUP3 DUP10 ADD PUSH2 0x1A0B JUMP JUMPDEST SWAP7 SWAP10 SWAP6 SWAP9 POP SWAP4 SWAP7 POP SWAP3 SWAP5 SWAP4 SWAP3 POP POP POP JUMP JUMPDEST PUSH1 0x0 DUP1 PUSH1 0x0 PUSH1 0x60 DUP5 DUP7 SUB SLT ISZERO PUSH2 0x1EB2 JUMPI PUSH1 0x0 DUP1 REVERT JUMPDEST PUSH2 0x1EBB DUP5 PUSH2 0x19F4 JUMP JUMPDEST SWAP3 POP PUSH2 0x1EC9 PUSH1 0x20 DUP6 ADD PUSH2 0x19F4 JUMP JUMPDEST SWAP2 POP PUSH1 0x40 DUP5 ADD CALLDATALOAD SWAP1 POP SWAP3 POP SWAP3 POP SWAP3 JUMP JUMPDEST PUSH1 0x0 DUP1 PUSH1 0x0 DUP1 PUSH1 0x80 DUP6 DUP8 SUB SLT ISZERO PUSH2 0x1EEF JUMPI PUSH1 0x0 DUP1 REVERT JUMPDEST PUSH2 0x1EF8 DUP6 PUSH2 0x19F4 JUMP JUMPDEST SWAP4 POP PUSH2 0x1F06 PUSH1 0x20 DUP7 ADD PUSH2 0x19F4 JUMP JUMPDEST SWAP3 POP PUSH2 0x1F14 PUSH1 0x40 DUP7 ADD PUSH2 0x1B94 JUMP JUMPDEST SWAP4 SWAP7 SWAP3 SWAP6 POP SWAP3 SWAP4 PUSH1 0x60 ADD CALLDATALOAD SWAP3 POP POP JUMP JUMPDEST PUSH1 0x1 DUP2 DUP2 SHR SWAP1 DUP3 AND DUP1 PUSH2 0x1F38 JUMPI PUSH1 0x7F DUP3 AND SWAP2 POP JUMPDEST PUSH1 0x20 DUP3 LT DUP2 SUB PUSH2 0x1F58 JUMPI PUSH4 0x4E487B71 PUSH1 0xE0 SHL PUSH1 0x0 MSTORE PUSH1 0x22 PUSH1 0x4 MSTORE PUSH1 0x24 PUSH1 0x0 REVERT JUMPDEST POP SWAP2 SWAP1 POP JUMP JUMPDEST DUP2 DUP4 DUP3 CALLDATACOPY PUSH1 0x0 SWAP2 ADD SWAP1 DUP2 MSTORE SWAP2 SWAP1 POP JUMP JUMPDEST DUP2 DUP4 MSTORE DUP2 DUP2 PUSH1 0x20 DUP6 ADD CALLDATACOPY POP PUSH1 0x0 DUP3 DUP3 ADD PUSH1 0x20 SWAP1 DUP2 ADD SWAP2 SWAP1 SWAP2 MSTORE PUSH1 0x1F SWAP1 SWAP2 ADD PUSH1 0x1F NOT AND SWAP1 SWAP2 ADD ADD SWAP1 JUMP JUMPDEST PUSH2 0xFFFF DUP5 AND DUP2 MSTORE PUSH1 0x40 PUSH1 0x20 DUP3 ADD MSTORE PUSH1 0x0 PUSH2 0x1433 PUSH1 0x40 DUP4 ADD DUP5 DUP7 PUSH2 0x1F6E JUMP JUMPDEST PUSH1 0x1F DUP3 GT ISZERO PUSH2 0xAEB JUMPI PUSH1 0x0 DUP2 PUSH1 0x0 MSTORE PUSH1 0x20 PUSH1 0x0 KECCAK256 PUSH1 0x1F DUP6 ADD PUSH1 0x5 SHR DUP2 ADD PUSH1 0x20 DUP7 LT ISZERO PUSH2 0x1FDE JUMPI POP DUP1 JUMPDEST PUSH1 0x1F DUP6 ADD PUSH1 0x5 SHR DUP3 ADD SWAP2 POP JUMPDEST DUP2 DUP2 LT ISZERO PUSH2 0xBC4 JUMPI DUP3 DUP2 SSTORE PUSH1 0x1 ADD PUSH2 0x1FEA JUMP JUMPDEST DUP2 MLOAD PUSH1 0x1 PUSH1 0x1 PUSH1 0x40 SHL SUB DUP2 GT ISZERO PUSH2 0x2016 JUMPI PUSH2 0x2016 PUSH2 0x1BDE JUMP JUMPDEST PUSH2 0x202A DUP2 PUSH2 0x2024 DUP5 SLOAD PUSH2 0x1F24 JUMP JUMPDEST DUP5 PUSH2 0x1FB5 JUMP JUMPDEST PUSH1 0x20 DUP1 PUSH1 0x1F DUP4 GT PUSH1 0x1 DUP2 EQ PUSH2 0x205F JUMPI PUSH1 0x0 DUP5 ISZERO PUSH2 0x2047 JUMPI POP DUP6 DUP4 ADD MLOAD JUMPDEST PUSH1 0x0 NOT PUSH1 0x3 DUP7 SWAP1 SHL SHR NOT AND PUSH1 0x1 DUP6 SWAP1 SHL OR DUP6 SSTORE PUSH2 0xBC4 JUMP JUMPDEST PUSH1 0x0 DUP6 DUP2 MSTORE PUSH1 0x20 DUP2 KECCAK256 PUSH1 0x1F NOT DUP7 AND SWAP2 JUMPDEST DUP3 DUP2 LT ISZERO PUSH2 0x208E JUMPI DUP9 DUP7 ADD MLOAD DUP3 SSTORE SWAP5 DUP5 ADD SWAP5 PUSH1 0x1 SWAP1 SWAP2 ADD SWAP1 DUP5 ADD PUSH2 0x206F JUMP JUMPDEST POP DUP6 DUP3 LT ISZERO PUSH2 0x20AC JUMPI DUP8 DUP6 ADD MLOAD PUSH1 0x0 NOT PUSH1 0x3 DUP9 SWAP1 SHL PUSH1 0xF8 AND SHR NOT AND DUP2 SSTORE JUMPDEST POP POP POP POP POP PUSH1 0x1 SWAP1 DUP2 SHL ADD SWAP1 SSTORE POP JUMP JUMPDEST PUSH2 0xFFFF DUP8 AND DUP2 MSTORE PUSH1 0x1 PUSH1 0x1 PUSH1 0xA0 SHL SUB DUP7 AND PUSH1 0x20 DUP3 ADD MSTORE PUSH1 0xA0 PUSH1 0x40 DUP3 ADD DUP2 SWAP1 MSTORE PUSH1 0x0 SWAP1 PUSH2 0x20EA SWAP1 DUP4 ADD DUP8 PUSH2 0x1D1E JUMP JUMPDEST DUP6 ISZERO ISZERO PUSH1 0x60 DUP5 ADD MSTORE DUP3 DUP2 SUB PUSH1 0x80 DUP5 ADD MSTORE PUSH2 0x2105 DUP2 DUP6 DUP8 PUSH2 0x1F6E JUMP JUMPDEST SWAP10 SWAP9 POP POP POP POP POP POP POP POP POP JUMP JUMPDEST PUSH1 0x0 DUP1 PUSH1 0x40 DUP4 DUP6 SUB SLT ISZERO PUSH2 0x2125 JUMPI PUSH1 0x0 DUP1 REVERT JUMPDEST POP POP DUP1 MLOAD PUSH1 0x20 SWAP1 SWAP2 ADD MLOAD SWAP1 SWAP3 SWAP1 SWAP2 POP JUMP JUMPDEST PUSH4 0x4E487B71 PUSH1 0xE0 SHL PUSH1 0x0 MSTORE PUSH1 0x11 PUSH1 0x4 MSTORE PUSH1 0x24 PUSH1 0x0 REVERT JUMPDEST DUP2 DUP2 SUB DUP2 DUP2 GT ISZERO PUSH2 0x215F JUMPI PUSH2 0x215F PUSH2 0x2136 JUMP JUMPDEST SWAP3 SWAP2 POP POP JUMP JUMPDEST DUP3 DUP5 DUP3 CALLDATACOPY PUSH1 0x60 SWAP2 SWAP1 SWAP2 SHL PUSH12 0xFFFFFFFFFFFFFFFFFFFFFFFF NOT AND SWAP2 ADD SWAP1 DUP2 MSTORE PUSH1 0x14 ADD SWAP2 SWAP1 POP JUMP JUMPDEST PUSH1 0x0 PUSH2 0xFFFF DUP1 DUP9 AND DUP4 MSTORE DUP1 DUP8 AND PUSH1 0x20 DUP5 ADD MSTORE POP DUP5 PUSH1 0x40 DUP4 ADD MSTORE PUSH1 0x80 PUSH1 0x60 DUP4 ADD MSTORE PUSH2 0x21B9 PUSH1 0x80 DUP4 ADD DUP5 DUP7 PUSH2 0x1F6E JUMP JUMPDEST SWAP8 SWAP7 POP POP POP POP POP POP POP JUMP JUMPDEST PUSH2 0xFFFF DUP7 AND DUP2 MSTORE PUSH1 0x80 PUSH1 0x20 DUP3 ADD MSTORE PUSH1 0x0 PUSH2 0x21E2 PUSH1 0x80 DUP4 ADD DUP7 DUP9 PUSH2 0x1F6E JUMP JUMPDEST PUSH1 0x1 PUSH1 0x1 PUSH1 0x40 SHL SUB SWAP5 SWAP1 SWAP5 AND PUSH1 0x40 DUP4 ADD MSTORE POP PUSH1 0x60 ADD MSTORE SWAP4 SWAP3 POP POP POP JUMP JUMPDEST PUSH1 0x1 PUSH1 0x1 PUSH1 0x40 SHL SUB DUP4 GT ISZERO PUSH2 0x2216 JUMPI PUSH2 0x2216 PUSH2 0x1BDE JUMP JUMPDEST PUSH2 0x222A DUP4 PUSH2 0x2224 DUP4 SLOAD PUSH2 0x1F24 JUMP JUMPDEST DUP4 PUSH2 0x1FB5 JUMP JUMPDEST PUSH1 0x0 PUSH1 0x1F DUP5 GT PUSH1 0x1 DUP2 EQ PUSH2 0x225E JUMPI PUSH1 0x0 DUP6 ISZERO PUSH2 0x2246 JUMPI POP DUP4 DUP3 ADD CALLDATALOAD JUMPDEST PUSH1 0x0 NOT PUSH1 0x3 DUP8 SWAP1 SHL SHR NOT AND PUSH1 0x1 DUP7 SWAP1 SHL OR DUP4 SSTORE PUSH2 0x8BE JUMP JUMPDEST PUSH1 0x0 DUP4 DUP2 MSTORE PUSH1 0x20 SWAP1 KECCAK256 PUSH1 0x1F NOT DUP7 AND SWAP1 DUP4 JUMPDEST DUP3 DUP2 LT ISZERO PUSH2 0x228F JUMPI DUP7 DUP6 ADD CALLDATALOAD DUP3 SSTORE PUSH1 0x20 SWAP5 DUP6 ADD SWAP5 PUSH1 0x1 SWAP1 SWAP3 ADD SWAP2 ADD PUSH2 0x226F JUMP JUMPDEST POP DUP7 DUP3 LT ISZERO PUSH2 0x22AC JUMPI PUSH1 0x0 NOT PUSH1 0xF8 DUP9 PUSH1 0x3 SHL AND SHR NOT DUP5 DUP8 ADD CALLDATALOAD AND DUP2 SSTORE JUMPDEST POP POP PUSH1 0x1 DUP6 PUSH1 0x1 SHL ADD DUP4 SSTORE POP POP POP POP POP JUMP JUMPDEST PUSH1 0x0 PUSH2 0x22CC PUSH2 0x1C59 DUP5 PUSH2 0x1C24 JUMP JUMPDEST SWAP1 POP DUP3 DUP2 MSTORE DUP4 DUP4 DUP4 ADD GT ISZERO PUSH2 0x22E0 JUMPI PUSH1 0x0 DUP1 REVERT JUMPDEST PUSH2 0xA02 DUP4 PUSH1 0x20 DUP4 ADD DUP5 PUSH2 0x1CFA JUMP JUMPDEST PUSH1 0x0 PUSH1 0x20 DUP3 DUP5 SUB SLT ISZERO PUSH2 0x2300 JUMPI PUSH1 0x0 DUP1 REVERT JUMPDEST DUP2 MLOAD PUSH1 0x1 PUSH1 0x1 PUSH1 0x40 SHL SUB DUP2 GT ISZERO PUSH2 0x2316 JUMPI PUSH1 0x0 DUP1 REVERT JUMPDEST DUP3 ADD PUSH1 0x1F DUP2 ADD DUP5 SGT PUSH2 0x2327 JUMPI PUSH1 0x0 DUP1 REVERT JUMPDEST PUSH2 0x2336 DUP5 DUP3 MLOAD PUSH1 0x20 DUP5 ADD PUSH2 0x22BE JUMP JUMPDEST SWAP5 SWAP4 POP POP POP POP JUMP JUMPDEST PUSH2 0xFFFF DUP6 AND DUP2 MSTORE PUSH1 0x80 PUSH1 0x20 DUP3 ADD MSTORE PUSH1 0x0 PUSH2 0x235B PUSH1 0x80 DUP4 ADD DUP7 PUSH2 0x1D1E JUMP JUMPDEST PUSH1 0x1 PUSH1 0x1 PUSH1 0x40 SHL SUB DUP6 AND PUSH1 0x40 DUP5 ADD MSTORE DUP3 DUP2 SUB PUSH1 0x60 DUP5 ADD MSTORE PUSH2 0x21B9 DUP2 DUP6 PUSH2 0x1D1E JUMP JUMPDEST DUP1 DUP3 ADD DUP1 DUP3 GT ISZERO PUSH2 0x215F JUMPI PUSH2 0x215F PUSH2 0x2136 JUMP JUMPDEST PUSH2 0xFFFF DUP8 AND DUP2 MSTORE PUSH1 0xC0 PUSH1 0x20 DUP3 ADD MSTORE PUSH1 0x0 PUSH2 0x23AC PUSH1 0xC0 DUP4 ADD DUP9 PUSH2 0x1D1E JUMP JUMPDEST DUP3 DUP2 SUB PUSH1 0x40 DUP5 ADD MSTORE PUSH2 0x23BE DUP2 DUP9 PUSH2 0x1D1E JUMP JUMPDEST PUSH1 0x1 PUSH1 0x1 PUSH1 0xA0 SHL SUB DUP8 DUP2 AND PUSH1 0x60 DUP7 ADD MSTORE DUP7 AND PUSH1 0x80 DUP6 ADD MSTORE DUP4 DUP2 SUB PUSH1 0xA0 DUP6 ADD MSTORE SWAP1 POP PUSH2 0x2105 DUP2 DUP6 PUSH2 0x1D1E JUMP JUMPDEST PUSH1 0x0 DUP3 MLOAD PUSH2 0x23FB DUP2 DUP5 PUSH1 0x20 DUP8 ADD PUSH2 0x1CFA JUMP JUMPDEST SWAP2 SWAP1 SWAP2 ADD SWAP3 SWAP2 POP POP JUMP JUMPDEST PUSH2 0xFFFF DUP7 AND DUP2 MSTORE PUSH1 0xA0 PUSH1 0x20 DUP3 ADD MSTORE PUSH1 0x0 PUSH2 0x2422 PUSH1 0xA0 DUP4 ADD DUP8 PUSH2 0x1D1E JUMP JUMPDEST PUSH1 0x1 PUSH1 0x1 PUSH1 0x40 SHL SUB DUP7 AND PUSH1 0x40 DUP5 ADD MSTORE DUP3 DUP2 SUB PUSH1 0x60 DUP5 ADD MSTORE PUSH2 0x2443 DUP2 DUP7 PUSH2 0x1D1E JUMP JUMPDEST SWAP1 POP DUP3 DUP2 SUB PUSH1 0x80 DUP5 ADD MSTORE PUSH2 0x2457 DUP2 DUP6 PUSH2 0x1D1E JUMP JUMPDEST SWAP9 SWAP8 POP POP POP POP POP POP POP POP JUMP INVALID LOG2 PUSH5 0x6970667358 0x22 SLT KECCAK256 CREATE2 DUP10 SWAP12 0x5D REVERT 0xEF ISZERO 0x5C 0xCE STATICCALL PREVRANDAO PUSH20 0xAD5155C225D150A7E5510744941CCEE2007394BF PUSH5 0x736F6C6343 STOP ADDMOD AND STOP CALLER "
				},
				"gasEstimates": {
					"creation": {
						"codeDepositCost": "1873800",
						"executionCost": "infinite",
						"totalCost": "infinite"
					},
					"external": {
						"DEFAULT_PAYLOAD_SIZE_LIMIT()": "306",
						"estimateFeesForDingDong(uint16,bytes,string)": "infinite",
						"failedMessages(uint16,bytes,uint64)": "infinite",
						"forceResumeReceive(uint16,bytes)": "infinite",
						"getConfig(uint16,uint16,address,uint256)": "infinite",
						"getTrustedRemoteAddress(uint16)": "infinite",
						"isTrustedRemote(uint16,bytes)": "infinite",
						"lzEndpoint()": "infinite",
						"lzReceive(uint16,bytes,uint64,bytes)": "infinite",
						"message()": "infinite",
						"minDstGasLookup(uint16,uint16)": "infinite",
						"nonblockingLzReceive(uint16,bytes,uint64,bytes)": "infinite",
						"owner()": "2431",
						"payloadSizeLimitLookup(uint16)": "2597",
						"precrime()": "2383",
						"renounceOwnership()": "infinite",
						"retryMessage(uint16,bytes,uint64,bytes)": "infinite",
						"sendDing(uint16)": "infinite",
						"sendDong(uint16)": "infinite",
						"setConfig(uint16,uint16,uint256,bytes)": "infinite",
						"setMinDstGas(uint16,uint16,uint256)": "infinite",
						"setPayloadSizeLimit(uint16,uint256)": "24747",
						"setPrecrime(address)": "27855",
						"setReceiveVersion(uint16)": "infinite",
						"setSendVersion(uint16)": "infinite",
						"setTrustedRemote(uint16,bytes)": "infinite",
						"setTrustedRemoteAddress(uint16,bytes)": "infinite",
						"transferOwnership(address)": "28399",
						"trustDingDong(uint16,address)": "infinite",
						"trustedRemoteLookup(uint16)": "infinite"
					},
					"internal": {
						"_nonblockingLzReceive(uint16,bytes memory,uint64,bytes memory)": "infinite"
					}
				},
				"methodIdentifiers": {
					"DEFAULT_PAYLOAD_SIZE_LIMIT()": "c4461834",
					"estimateFeesForDingDong(uint16,bytes,string)": "7efb5844",
					"failedMessages(uint16,bytes,uint64)": "5b8c41e6",
					"forceResumeReceive(uint16,bytes)": "42d65a8d",
					"getConfig(uint16,uint16,address,uint256)": "f5ecbdbc",
					"getTrustedRemoteAddress(uint16)": "9f38369a",
					"isTrustedRemote(uint16,bytes)": "3d8b38f6",
					"lzEndpoint()": "b353aaa7",
					"lzReceive(uint16,bytes,uint64,bytes)": "001d3567",
					"message()": "e21f37ce",
					"minDstGasLookup(uint16,uint16)": "8cfd8f5c",
					"nonblockingLzReceive(uint16,bytes,uint64,bytes)": "66ad5c8a",
					"owner()": "8da5cb5b",
					"payloadSizeLimitLookup(uint16)": "3f1f4fa4",
					"precrime()": "950c8a74",
					"renounceOwnership()": "715018a6",
					"retryMessage(uint16,bytes,uint64,bytes)": "d1deba1f",
					"sendDing(uint16)": "bdb30a09",
					"sendDong(uint16)": "fc018c64",
					"setConfig(uint16,uint16,uint256,bytes)": "cbed8b9c",
					"setMinDstGas(uint16,uint16,uint256)": "df2a5b3b",
					"setPayloadSizeLimit(uint16,uint256)": "0df37483",
					"setPrecrime(address)": "baf3292d",
					"setReceiveVersion(uint16)": "10ddb137",
					"setSendVersion(uint16)": "07e0db17",
					"setTrustedRemote(uint16,bytes)": "eb8d72b7",
					"setTrustedRemoteAddress(uint16,bytes)": "a6c3d165",
					"transferOwnership(address)": "f2fde38b",
					"trustDingDong(uint16,address)": "51200494",
					"trustedRemoteLookup(uint16)": "7533d788"
				}
			},
			"storageLayout": {
				"storage": [
					{
						"astId": 7,
						"contract": "contracts/DingDong.sol:DingDong",
						"label": "_owner",
						"offset": 0,
						"slot": "0",
						"type": "t_address"
					},
					{
						"astId": 755,
						"contract": "contracts/DingDong.sol:DingDong",
						"label": "trustedRemoteLookup",
						"offset": 0,
						"slot": "1",
						"type": "t_mapping(t_uint16,t_bytes_storage)"
					},
					{
						"astId": 761,
						"contract": "contracts/DingDong.sol:DingDong",
						"label": "minDstGasLookup",
						"offset": 0,
						"slot": "2",
						"type": "t_mapping(t_uint16,t_mapping(t_uint16,t_uint256))"
					},
					{
						"astId": 765,
						"contract": "contracts/DingDong.sol:DingDong",
						"label": "payloadSizeLimitLookup",
						"offset": 0,
						"slot": "3",
						"type": "t_mapping(t_uint16,t_uint256)"
					},
					{
						"astId": 767,
						"contract": "contracts/DingDong.sol:DingDong",
						"label": "precrime",
						"offset": 0,
						"slot": "4",
						"type": "t_address"
					},
					{
						"astId": 1297,
						"contract": "contracts/DingDong.sol:DingDong",
						"label": "failedMessages",
						"offset": 0,
						"slot": "5",
						"type": "t_mapping(t_uint16,t_mapping(t_bytes_memory_ptr,t_mapping(t_uint64,t_bytes32)))"
					},
					{
						"astId": 142,
						"contract": "contracts/DingDong.sol:DingDong",
						"label": "message",
						"offset": 0,
						"slot": "6",
						"type": "t_string_storage"
					}
				],
				"types": {
					"t_address": {
						"encoding": "inplace",
						"label": "address",
						"numberOfBytes": "20"
					},
					"t_bytes32": {
						"encoding": "inplace",
						"label": "bytes32",
						"numberOfBytes": "32"
					},
					"t_bytes_memory_ptr": {
						"encoding": "bytes",
						"label": "bytes",
						"numberOfBytes": "32"
					},
					"t_bytes_storage": {
						"encoding": "bytes",
						"label": "bytes",
						"numberOfBytes": "32"
					},
					"t_mapping(t_bytes_memory_ptr,t_mapping(t_uint64,t_bytes32))": {
						"encoding": "mapping",
						"key": "t_bytes_memory_ptr",
						"label": "mapping(bytes => mapping(uint64 => bytes32))",
						"numberOfBytes": "32",
						"value": "t_mapping(t_uint64,t_bytes32)"
					},
					"t_mapping(t_uint16,t_bytes_storage)": {
						"encoding": "mapping",
						"key": "t_uint16",
						"label": "mapping(uint16 => bytes)",
						"numberOfBytes": "32",
						"value": "t_bytes_storage"
					},
					"t_mapping(t_uint16,t_mapping(t_bytes_memory_ptr,t_mapping(t_uint64,t_bytes32)))": {
						"encoding": "mapping",
						"key": "t_uint16",
						"label": "mapping(uint16 => mapping(bytes => mapping(uint64 => bytes32)))",
						"numberOfBytes": "32",
						"value": "t_mapping(t_bytes_memory_ptr,t_mapping(t_uint64,t_bytes32))"
					},
					"t_mapping(t_uint16,t_mapping(t_uint16,t_uint256))": {
						"encoding": "mapping",
						"key": "t_uint16",
						"label": "mapping(uint16 => mapping(uint16 => uint256))",
						"numberOfBytes": "32",
						"value": "t_mapping(t_uint16,t_uint256)"
					},
					"t_mapping(t_uint16,t_uint256)": {
						"encoding": "mapping",
						"key": "t_uint16",
						"label": "mapping(uint16 => uint256)",
						"numberOfBytes": "32",
						"value": "t_uint256"
					},
					"t_mapping(t_uint64,t_bytes32)": {
						"encoding": "mapping",
						"key": "t_uint64",
						"label": "mapping(uint64 => bytes32)",
						"numberOfBytes": "32",
						"value": "t_bytes32"
					},
					"t_string_storage": {
						"encoding": "bytes",
						"label": "string",
						"numberOfBytes": "32"
					},
					"t_uint16": {
						"encoding": "inplace",
						"label": "uint16",
						"numberOfBytes": "2"
					},
					"t_uint256": {
						"encoding": "inplace",
						"label": "uint256",
						"numberOfBytes": "32"
					},
					"t_uint64": {
						"encoding": "inplace",
						"label": "uint64",
						"numberOfBytes": "8"
					}
				}
			},
			"userdoc": {
				"kind": "user",
				"methods": {},
				"version": 1
			}
		}
	}
}